{
	"contracts/ERC721.sol": {
		"MyNFT": {
			"abi": [
				{
					"anonymous": false,
					"inputs": [
						{
							"indexed": true,
							"internalType": "address",
							"name": "owner",
							"type": "address"
						},
						{
							"indexed": true,
							"internalType": "address",
							"name": "operator",
							"type": "address"
						},
						{
							"indexed": false,
							"internalType": "bool",
							"name": "approved",
							"type": "bool"
						}
					],
					"name": "ApprovalForAll",
					"type": "event"
				},
				{
					"anonymous": false,
					"inputs": [
						{
							"indexed": false,
							"internalType": "address",
							"name": "owner",
							"type": "address"
						},
						{
							"indexed": false,
							"internalType": "address",
							"name": "spender",
							"type": "address"
						},
						{
							"indexed": false,
							"internalType": "uint256",
							"name": "Id",
							"type": "uint256"
						}
					],
					"name": "Approve",
					"type": "event"
				},
				{
					"anonymous": false,
					"inputs": [
						{
							"indexed": false,
							"internalType": "address",
							"name": "sender",
							"type": "address"
						},
						{
							"indexed": false,
							"internalType": "address",
							"name": "to",
							"type": "address"
						},
						{
							"indexed": false,
							"internalType": "uint256",
							"name": "Id",
							"type": "uint256"
						}
					],
					"name": "Transfer",
					"type": "event"
				},
				{
					"inputs": [
						{
							"internalType": "address",
							"name": "to",
							"type": "address"
						},
						{
							"internalType": "uint256",
							"name": "tokenId",
							"type": "uint256"
						}
					],
					"name": "approve",
					"outputs": [],
					"stateMutability": "nonpayable",
					"type": "function"
				},
				{
					"inputs": [
						{
							"internalType": "address",
							"name": "owner",
							"type": "address"
						}
					],
					"name": "balanceOf",
					"outputs": [
						{
							"internalType": "uint256",
							"name": "balance",
							"type": "uint256"
						}
					],
					"stateMutability": "view",
					"type": "function"
				},
				{
					"inputs": [
						{
							"internalType": "uint256",
							"name": "id",
							"type": "uint256"
						}
					],
					"name": "burn",
					"outputs": [],
					"stateMutability": "nonpayable",
					"type": "function"
				},
				{
					"inputs": [
						{
							"internalType": "uint256",
							"name": "tokenId",
							"type": "uint256"
						}
					],
					"name": "getApproved",
					"outputs": [
						{
							"internalType": "address",
							"name": "operator",
							"type": "address"
						}
					],
					"stateMutability": "view",
					"type": "function"
				},
				{
					"inputs": [
						{
							"internalType": "address",
							"name": "",
							"type": "address"
						},
						{
							"internalType": "address",
							"name": "",
							"type": "address"
						}
					],
					"name": "isApprovedForAll",
					"outputs": [
						{
							"internalType": "bool",
							"name": "",
							"type": "bool"
						}
					],
					"stateMutability": "view",
					"type": "function"
				},
				{
					"inputs": [
						{
							"internalType": "address",
							"name": "to",
							"type": "address"
						},
						{
							"internalType": "uint256",
							"name": "id",
							"type": "uint256"
						}
					],
					"name": "mint",
					"outputs": [],
					"stateMutability": "nonpayable",
					"type": "function"
				},
				{
					"inputs": [
						{
							"internalType": "uint256",
							"name": "tokenId",
							"type": "uint256"
						}
					],
					"name": "ownerOf",
					"outputs": [
						{
							"internalType": "address",
							"name": "owner",
							"type": "address"
						}
					],
					"stateMutability": "view",
					"type": "function"
				},
				{
					"inputs": [
						{
							"internalType": "address",
							"name": "from",
							"type": "address"
						},
						{
							"internalType": "address",
							"name": "to",
							"type": "address"
						},
						{
							"internalType": "uint256",
							"name": "tokenId",
							"type": "uint256"
						}
					],
					"name": "safeTransferFrom",
					"outputs": [],
					"stateMutability": "nonpayable",
					"type": "function"
				},
				{
					"inputs": [
						{
							"internalType": "address",
							"name": "from",
							"type": "address"
						},
						{
							"internalType": "address",
							"name": "to",
							"type": "address"
						},
						{
							"internalType": "uint256",
							"name": "tokenId",
							"type": "uint256"
						},
						{
							"internalType": "bytes",
							"name": "data",
							"type": "bytes"
						}
					],
					"name": "safeTransferFrom",
					"outputs": [],
					"stateMutability": "nonpayable",
					"type": "function"
				},
				{
					"inputs": [
						{
							"internalType": "address",
							"name": "operator",
							"type": "address"
						},
						{
							"internalType": "bool",
							"name": "_approved",
							"type": "bool"
						}
					],
					"name": "setApprovalForAll",
					"outputs": [],
					"stateMutability": "nonpayable",
					"type": "function"
				},
				{
					"inputs": [
						{
							"internalType": "bytes4",
							"name": "interfaceId",
							"type": "bytes4"
						}
					],
					"name": "supportsInterface",
					"outputs": [
						{
							"internalType": "bool",
							"name": "",
							"type": "bool"
						}
					],
					"stateMutability": "pure",
					"type": "function"
				},
				{
					"inputs": [
						{
							"internalType": "address",
							"name": "from",
							"type": "address"
						},
						{
							"internalType": "address",
							"name": "to",
							"type": "address"
						},
						{
							"internalType": "uint256",
							"name": "tokenId",
							"type": "uint256"
						}
					],
					"name": "transferFrom",
					"outputs": [],
					"stateMutability": "nonpayable",
					"type": "function"
				}
			],
			"devdoc": {
				"kind": "dev",
				"methods": {},
				"version": 1
			},
			"evm": {
				"assembly": "    /* \"contracts/ERC721.sol\":4949:5184  contract MyNFT is ERC721 {... */\n  mstore(0x40, 0x80)\n  callvalue\n  dup1\n  iszero\n  tag_1\n  jumpi\n  0x00\n  dup1\n  revert\ntag_1:\n  pop\n  dataSize(sub_0)\n  dup1\n  dataOffset(sub_0)\n  0x00\n  codecopy\n  0x00\n  return\nstop\n\nsub_0: assembly {\n        /* \"contracts/ERC721.sol\":4949:5184  contract MyNFT is ERC721 {... */\n      mstore(0x40, 0x80)\n      callvalue\n      dup1\n      iszero\n      tag_1\n      jumpi\n      0x00\n      dup1\n      revert\n    tag_1:\n      pop\n      jumpi(tag_2, lt(calldatasize, 0x04))\n      shr(0xe0, calldataload(0x00))\n      dup1\n      0x42966c68\n      gt\n      tag_15\n      jumpi\n      dup1\n      0x42966c68\n      eq\n      tag_9\n      jumpi\n      dup1\n      0x6352211e\n      eq\n      tag_10\n      jumpi\n      dup1\n      0x70a08231\n      eq\n      tag_11\n      jumpi\n      dup1\n      0xa22cb465\n      eq\n      tag_12\n      jumpi\n      dup1\n      0xb88d4fde\n      eq\n      tag_13\n      jumpi\n      dup1\n      0xe985e9c5\n      eq\n      tag_14\n      jumpi\n      jump(tag_2)\n    tag_15:\n      dup1\n      0x01ffc9a7\n      eq\n      tag_3\n      jumpi\n      dup1\n      0x081812fc\n      eq\n      tag_4\n      jumpi\n      dup1\n      0x095ea7b3\n      eq\n      tag_5\n      jumpi\n      dup1\n      0x23b872dd\n      eq\n      tag_6\n      jumpi\n      dup1\n      0x40c10f19\n      eq\n      tag_7\n      jumpi\n      dup1\n      0x42842e0e\n      eq\n      tag_8\n      jumpi\n    tag_2:\n      0x00\n      dup1\n      revert\n        /* \"contracts/ERC721.sol\":1711:1933  function supportsInterface(bytes4 interfaceId)... */\n    tag_3:\n      tag_16\n      0x04\n      dup1\n      calldatasize\n      sub\n      dup2\n      add\n      swap1\n      tag_17\n      swap2\n      swap1\n      tag_18\n      jump\t// in\n    tag_17:\n      tag_19\n      jump\t// in\n    tag_16:\n      mload(0x40)\n      tag_20\n      swap2\n      swap1\n      tag_21\n      jump\t// in\n    tag_20:\n      mload(0x40)\n      dup1\n      swap2\n      sub\n      swap1\n      return\n        /* \"contracts/ERC721.sol\":2491:2719  function getApproved(uint256 tokenId)... */\n    tag_4:\n      tag_22\n      0x04\n      dup1\n      calldatasize\n      sub\n      dup2\n      add\n      swap1\n      tag_23\n      swap2\n      swap1\n      tag_24\n      jump\t// in\n    tag_23:\n      tag_25\n      jump\t// in\n    tag_22:\n      mload(0x40)\n      tag_26\n      swap2\n      swap1\n      tag_27\n      jump\t// in\n    tag_26:\n      mload(0x40)\n      dup1\n      swap2\n      sub\n      swap1\n      return\n        /* \"contracts/ERC721.sol\":2220:2486  function approve(address to, uint256 tokenId) external{... */\n    tag_5:\n      tag_28\n      0x04\n      dup1\n      calldatasize\n      sub\n      dup2\n      add\n      swap1\n      tag_29\n      swap2\n      swap1\n      tag_30\n      jump\t// in\n    tag_29:\n      tag_31\n      jump\t// in\n    tag_28:\n      stop\n        /* \"contracts/ERC721.sol\":3160:3586  function transferFrom(address from, address to, uint256 tokenId) public{... */\n    tag_6:\n      tag_32\n      0x04\n      dup1\n      calldatasize\n      sub\n      dup2\n      add\n      swap1\n      tag_33\n      swap2\n      swap1\n      tag_34\n      jump\t// in\n    tag_33:\n      tag_35\n      jump\t// in\n    tag_32:\n      stop\n        /* \"contracts/ERC721.sol\":4980:5057  function mint(address to, uint256 id) external {... */\n    tag_7:\n      tag_36\n      0x04\n      dup1\n      calldatasize\n      sub\n      dup2\n      add\n      swap1\n      tag_37\n      swap2\n      swap1\n      tag_30\n      jump\t// in\n    tag_37:\n      tag_38\n      jump\t// in\n    tag_36:\n      stop\n        /* \"contracts/ERC721.sol\":3591:3963  function safeTransferFrom(address from, address to, uint256 tokenId)... */\n    tag_8:\n      tag_39\n      0x04\n      dup1\n      calldatasize\n      sub\n      dup2\n      add\n      swap1\n      tag_40\n      swap2\n      swap1\n      tag_34\n      jump\t// in\n    tag_40:\n      tag_41\n      jump\t// in\n    tag_39:\n      stop\n        /* \"contracts/ERC721.sol\":5063:5182  function burn(uint256 id) external {... */\n    tag_9:\n      tag_42\n      0x04\n      dup1\n      calldatasize\n      sub\n      dup2\n      add\n      swap1\n      tag_43\n      swap2\n      swap1\n      tag_24\n      jump\t// in\n    tag_43:\n      tag_44\n      jump\t// in\n    tag_42:\n      stop\n        /* \"contracts/ERC721.sol\":2082:2215  function ownerOf(uint256 tokenId) external view returns (address owner){... */\n    tag_10:\n      tag_45\n      0x04\n      dup1\n      calldatasize\n      sub\n      dup2\n      add\n      swap1\n      tag_46\n      swap2\n      swap1\n      tag_24\n      jump\t// in\n    tag_46:\n      tag_47\n      jump\t// in\n    tag_45:\n      mload(0x40)\n      tag_48\n      swap2\n      swap1\n      tag_27\n      jump\t// in\n    tag_48:\n      mload(0x40)\n      dup1\n      swap2\n      sub\n      swap1\n      return\n        /* \"contracts/ERC721.sol\":1938:2077  function balanceOf(address owner) external view returns (uint256 balance){... */\n    tag_11:\n      tag_49\n      0x04\n      dup1\n      calldatasize\n      sub\n      dup2\n      add\n      swap1\n      tag_50\n      swap2\n      swap1\n      tag_51\n      jump\t// in\n    tag_50:\n      tag_52\n      jump\t// in\n    tag_49:\n      mload(0x40)\n      tag_53\n      swap2\n      swap1\n      tag_54\n      jump\t// in\n    tag_53:\n      mload(0x40)\n      dup1\n      swap2\n      sub\n      swap1\n      return\n        /* \"contracts/ERC721.sol\":2724:2915  function setApprovalForAll(address operator, bool _approved) external{... */\n    tag_12:\n      tag_55\n      0x04\n      dup1\n      calldatasize\n      sub\n      dup2\n      add\n      swap1\n      tag_56\n      swap2\n      swap1\n      tag_57\n      jump\t// in\n    tag_56:\n      tag_58\n      jump\t// in\n    tag_55:\n      stop\n        /* \"contracts/ERC721.sol\":3968:4385  function safeTransferFrom(... */\n    tag_13:\n      tag_59\n      0x04\n      dup1\n      calldatasize\n      sub\n      dup2\n      add\n      swap1\n      tag_60\n      swap2\n      swap1\n      tag_61\n      jump\t// in\n    tag_60:\n      tag_62\n      jump\t// in\n    tag_59:\n      stop\n        /* \"contracts/ERC721.sol\":1642:1705  mapping(address=>mapping(address=>bool))public isApprovedForAll */\n    tag_14:\n      tag_63\n      0x04\n      dup1\n      calldatasize\n      sub\n      dup2\n      add\n      swap1\n      tag_64\n      swap2\n      swap1\n      tag_65\n      jump\t// in\n    tag_64:\n      tag_66\n      jump\t// in\n    tag_63:\n      mload(0x40)\n      tag_67\n      swap2\n      swap1\n      tag_21\n      jump\t// in\n    tag_67:\n      mload(0x40)\n      dup1\n      swap2\n      sub\n      swap1\n      return\n        /* \"contracts/ERC721.sol\":1711:1933  function supportsInterface(bytes4 interfaceId)... */\n    tag_19:\n        /* \"contracts/ERC721.sol\":1805:1809  bool */\n      0x00\n        /* \"contracts/ERC721.sol\":1841:1866  type(IERC721).interfaceId */\n      0x80ac58cd00000000000000000000000000000000000000000000000000000000\n        /* \"contracts/ERC721.sol\":1827:1866  interfaceId== type(IERC721).interfaceId */\n      not(0xffffffffffffffffffffffffffffffffffffffffffffffffffffffff)\n      and\n        /* \"contracts/ERC721.sol\":1827:1838  interfaceId */\n      dup3\n        /* \"contracts/ERC721.sol\":1827:1866  interfaceId== type(IERC721).interfaceId */\n      not(0xffffffffffffffffffffffffffffffffffffffffffffffffffffffff)\n      and\n      eq\n        /* \"contracts/ERC721.sol\":1827:1922  interfaceId== type(IERC721).interfaceId... */\n      dup1\n      tag_69\n      jumpi\n      pop\n        /* \"contracts/ERC721.sol\":1897:1922  type(IERC165).interfaceId */\n      0x01ffc9a700000000000000000000000000000000000000000000000000000000\n        /* \"contracts/ERC721.sol\":1882:1922  interfaceId == type(IERC165).interfaceId */\n      not(0xffffffffffffffffffffffffffffffffffffffffffffffffffffffff)\n      and\n        /* \"contracts/ERC721.sol\":1882:1893  interfaceId */\n      dup3\n        /* \"contracts/ERC721.sol\":1882:1922  interfaceId == type(IERC165).interfaceId */\n      not(0xffffffffffffffffffffffffffffffffffffffffffffffffffffffff)\n      and\n      eq\n        /* \"contracts/ERC721.sol\":1827:1922  interfaceId== type(IERC721).interfaceId... */\n    tag_69:\n        /* \"contracts/ERC721.sol\":1820:1922  return interfaceId== type(IERC721).interfaceId... */\n      swap1\n      pop\n        /* \"contracts/ERC721.sol\":1711:1933  function supportsInterface(bytes4 interfaceId)... */\n      swap2\n      swap1\n      pop\n      jump\t// out\n        /* \"contracts/ERC721.sol\":2491:2719  function getApproved(uint256 tokenId)... */\n    tag_25:\n        /* \"contracts/ERC721.sol\":2576:2592  address operator */\n      0x00\n        /* \"contracts/ERC721.sol\":2642:2643  0 */\n      dup1\n        /* \"contracts/ERC721.sol\":2615:2644  _ownerOf[tokenId]!=address(0) */\n      0xffffffffffffffffffffffffffffffffffffffff\n      and\n        /* \"contracts/ERC721.sol\":2615:2623  _ownerOf */\n      0x00\n        /* \"contracts/ERC721.sol\":2615:2632  _ownerOf[tokenId] */\n      dup1\n        /* \"contracts/ERC721.sol\":2624:2631  tokenId */\n      dup5\n        /* \"contracts/ERC721.sol\":2615:2632  _ownerOf[tokenId] */\n      dup2\n      mstore\n      0x20\n      add\n      swap1\n      dup2\n      mstore\n      0x20\n      add\n      0x00\n      keccak256\n      0x00\n      swap1\n      sload\n      swap1\n      0x0100\n      exp\n      swap1\n      div\n      0xffffffffffffffffffffffffffffffffffffffff\n      and\n        /* \"contracts/ERC721.sol\":2615:2644  _ownerOf[tokenId]!=address(0) */\n      0xffffffffffffffffffffffffffffffffffffffff\n      and\n      sub\n        /* \"contracts/ERC721.sol\":2607:2668  require(_ownerOf[tokenId]!=address(0),\"token does not exist\") */\n      tag_71\n      jumpi\n      mload(0x40)\n      0x08c379a000000000000000000000000000000000000000000000000000000000\n      dup2\n      mstore\n      0x04\n      add\n      tag_72\n      swap1\n      tag_73\n      jump\t// in\n    tag_72:\n      mload(0x40)\n      dup1\n      swap2\n      sub\n      swap1\n      revert\n    tag_71:\n        /* \"contracts/ERC721.sol\":2689:2699  _approvals */\n      0x02\n        /* \"contracts/ERC721.sol\":2689:2708  _approvals[tokenId] */\n      0x00\n        /* \"contracts/ERC721.sol\":2700:2707  tokenId */\n      dup4\n        /* \"contracts/ERC721.sol\":2689:2708  _approvals[tokenId] */\n      dup2\n      mstore\n      0x20\n      add\n      swap1\n      dup2\n      mstore\n      0x20\n      add\n      0x00\n      keccak256\n      0x00\n      swap1\n      sload\n      swap1\n      0x0100\n      exp\n      swap1\n      div\n      0xffffffffffffffffffffffffffffffffffffffff\n      and\n        /* \"contracts/ERC721.sol\":2682:2708  return _approvals[tokenId] */\n      swap1\n      pop\n        /* \"contracts/ERC721.sol\":2491:2719  function getApproved(uint256 tokenId)... */\n      swap2\n      swap1\n      pop\n      jump\t// out\n        /* \"contracts/ERC721.sol\":2220:2486  function approve(address to, uint256 tokenId) external{... */\n    tag_31:\n        /* \"contracts/ERC721.sol\":2284:2297  address owner */\n      0x00\n        /* \"contracts/ERC721.sol\":2298:2306  _ownerOf */\n      dup1\n        /* \"contracts/ERC721.sol\":2298:2315  _ownerOf[tokenId] */\n      0x00\n        /* \"contracts/ERC721.sol\":2307:2314  tokenId */\n      dup4\n        /* \"contracts/ERC721.sol\":2298:2315  _ownerOf[tokenId] */\n      dup2\n      mstore\n      0x20\n      add\n      swap1\n      dup2\n      mstore\n      0x20\n      add\n      0x00\n      keccak256\n      0x00\n      swap1\n      sload\n      swap1\n      0x0100\n      exp\n      swap1\n      div\n      0xffffffffffffffffffffffffffffffffffffffff\n      and\n        /* \"contracts/ERC721.sol\":2284:2315  address owner=_ownerOf[tokenId] */\n      swap1\n      pop\n        /* \"contracts/ERC721.sol\":2345:2350  owner */\n      dup1\n        /* \"contracts/ERC721.sol\":2333:2350  msg.sender==owner */\n      0xffffffffffffffffffffffffffffffffffffffff\n      and\n        /* \"contracts/ERC721.sol\":2333:2343  msg.sender */\n      caller\n        /* \"contracts/ERC721.sol\":2333:2350  msg.sender==owner */\n      0xffffffffffffffffffffffffffffffffffffffff\n      and\n      eq\n        /* \"contracts/ERC721.sol\":2333:2388  msg.sender==owner|| isApprovedForAll[owner][msg.sender] */\n      dup1\n      tag_75\n      jumpi\n      pop\n        /* \"contracts/ERC721.sol\":2353:2369  isApprovedForAll */\n      0x03\n        /* \"contracts/ERC721.sol\":2353:2376  isApprovedForAll[owner] */\n      0x00\n        /* \"contracts/ERC721.sol\":2370:2375  owner */\n      dup3\n        /* \"contracts/ERC721.sol\":2353:2376  isApprovedForAll[owner] */\n      0xffffffffffffffffffffffffffffffffffffffff\n      and\n      0xffffffffffffffffffffffffffffffffffffffff\n      and\n      dup2\n      mstore\n      0x20\n      add\n      swap1\n      dup2\n      mstore\n      0x20\n      add\n      0x00\n      keccak256\n        /* \"contracts/ERC721.sol\":2353:2388  isApprovedForAll[owner][msg.sender] */\n      0x00\n        /* \"contracts/ERC721.sol\":2377:2387  msg.sender */\n      caller\n        /* \"contracts/ERC721.sol\":2353:2388  isApprovedForAll[owner][msg.sender] */\n      0xffffffffffffffffffffffffffffffffffffffff\n      and\n      0xffffffffffffffffffffffffffffffffffffffff\n      and\n      dup2\n      mstore\n      0x20\n      add\n      swap1\n      dup2\n      mstore\n      0x20\n      add\n      0x00\n      keccak256\n      0x00\n      swap1\n      sload\n      swap1\n      0x0100\n      exp\n      swap1\n      div\n      0xff\n      and\n        /* \"contracts/ERC721.sol\":2333:2388  msg.sender==owner|| isApprovedForAll[owner][msg.sender] */\n    tag_75:\n        /* \"contracts/ERC721.sol\":2325:2404  require(msg.sender==owner|| isApprovedForAll[owner][msg.sender],\"not approved\") */\n      tag_76\n      jumpi\n      mload(0x40)\n      0x08c379a000000000000000000000000000000000000000000000000000000000\n      dup2\n      mstore\n      0x04\n      add\n      tag_77\n      swap1\n      tag_78\n      jump\t// in\n    tag_77:\n      mload(0x40)\n      dup1\n      swap2\n      sub\n      swap1\n      revert\n    tag_76:\n        /* \"contracts/ERC721.sol\":2434:2436  to */\n      dup3\n        /* \"contracts/ERC721.sol\":2414:2424  _approvals */\n      0x02\n        /* \"contracts/ERC721.sol\":2414:2433  _approvals[tokenId] */\n      0x00\n        /* \"contracts/ERC721.sol\":2425:2432  tokenId */\n      dup5\n        /* \"contracts/ERC721.sol\":2414:2433  _approvals[tokenId] */\n      dup2\n      mstore\n      0x20\n      add\n      swap1\n      dup2\n      mstore\n      0x20\n      add\n      0x00\n      keccak256\n      0x00\n        /* \"contracts/ERC721.sol\":2414:2436  _approvals[tokenId]=to */\n      0x0100\n      exp\n      dup2\n      sload\n      dup2\n      0xffffffffffffffffffffffffffffffffffffffff\n      mul\n      not\n      and\n      swap1\n      dup4\n      0xffffffffffffffffffffffffffffffffffffffff\n      and\n      mul\n      or\n      swap1\n      sstore\n      pop\n        /* \"contracts/ERC721.sol\":2451:2478  Approve(owner, to, tokenId) */\n      0x6e11fb1b7f119e3f2fa29896ef5fdf8b8a2d0d4df6fe90ba8668e7d8b2ffa25e\n        /* \"contracts/ERC721.sol\":2459:2464  owner */\n      dup2\n        /* \"contracts/ERC721.sol\":2466:2468  to */\n      dup5\n        /* \"contracts/ERC721.sol\":2470:2477  tokenId */\n      dup5\n        /* \"contracts/ERC721.sol\":2451:2478  Approve(owner, to, tokenId) */\n      mload(0x40)\n      tag_79\n      swap4\n      swap3\n      swap2\n      swap1\n      tag_80\n      jump\t// in\n    tag_79:\n      mload(0x40)\n      dup1\n      swap2\n      sub\n      swap1\n      log1\n        /* \"contracts/ERC721.sol\":2274:2486  {... */\n      pop\n        /* \"contracts/ERC721.sol\":2220:2486  function approve(address to, uint256 tokenId) external{... */\n      pop\n      pop\n      jump\t// out\n        /* \"contracts/ERC721.sol\":3160:3586  function transferFrom(address from, address to, uint256 tokenId) public{... */\n    tag_35:\n        /* \"contracts/ERC721.sol\":3255:3263  _ownerOf */\n      0x00\n        /* \"contracts/ERC721.sol\":3255:3272  _ownerOf[tokenId] */\n      dup1\n        /* \"contracts/ERC721.sol\":3264:3271  tokenId */\n      dup3\n        /* \"contracts/ERC721.sol\":3255:3272  _ownerOf[tokenId] */\n      dup2\n      mstore\n      0x20\n      add\n      swap1\n      dup2\n      mstore\n      0x20\n      add\n      0x00\n      keccak256\n      0x00\n      swap1\n      sload\n      swap1\n      0x0100\n      exp\n      swap1\n      div\n      0xffffffffffffffffffffffffffffffffffffffff\n      and\n        /* \"contracts/ERC721.sol\":3249:3272  from==_ownerOf[tokenId] */\n      0xffffffffffffffffffffffffffffffffffffffff\n      and\n        /* \"contracts/ERC721.sol\":3249:3253  from */\n      dup4\n        /* \"contracts/ERC721.sol\":3249:3272  from==_ownerOf[tokenId] */\n      0xffffffffffffffffffffffffffffffffffffffff\n      and\n      eq\n        /* \"contracts/ERC721.sol\":3241:3285  require(from==_ownerOf[tokenId],\"not owner\") */\n      tag_82\n      jumpi\n      mload(0x40)\n      0x08c379a000000000000000000000000000000000000000000000000000000000\n      dup2\n      mstore\n      0x04\n      add\n      tag_83\n      swap1\n      tag_84\n      jump\t// in\n    tag_83:\n      mload(0x40)\n      dup1\n      swap2\n      sub\n      swap1\n      revert\n    tag_82:\n        /* \"contracts/ERC721.sol\":3315:3316  0 */\n      0x00\n        /* \"contracts/ERC721.sol\":3303:3317  to!=address(0) */\n      0xffffffffffffffffffffffffffffffffffffffff\n      and\n        /* \"contracts/ERC721.sol\":3303:3305  to */\n      dup3\n        /* \"contracts/ERC721.sol\":3303:3317  to!=address(0) */\n      0xffffffffffffffffffffffffffffffffffffffff\n      and\n      sub\n        /* \"contracts/ERC721.sol\":3295:3345  require(to!=address(0),\"to is not a zero address\") */\n      tag_85\n      jumpi\n      mload(0x40)\n      0x08c379a000000000000000000000000000000000000000000000000000000000\n      dup2\n      mstore\n      0x04\n      add\n      tag_86\n      swap1\n      tag_87\n      jump\t// in\n    tag_86:\n      mload(0x40)\n      dup1\n      swap2\n      sub\n      swap1\n      revert\n    tag_85:\n        /* \"contracts/ERC721.sol\":3363:3379  isApprovedForAll */\n      0x03\n        /* \"contracts/ERC721.sol\":3363:3385  isApprovedForAll[from] */\n      0x00\n        /* \"contracts/ERC721.sol\":3380:3384  from */\n      dup5\n        /* \"contracts/ERC721.sol\":3363:3385  isApprovedForAll[from] */\n      0xffffffffffffffffffffffffffffffffffffffff\n      and\n      0xffffffffffffffffffffffffffffffffffffffff\n      and\n      dup2\n      mstore\n      0x20\n      add\n      swap1\n      dup2\n      mstore\n      0x20\n      add\n      0x00\n      keccak256\n        /* \"contracts/ERC721.sol\":3363:3397  isApprovedForAll[from][msg.sender] */\n      0x00\n        /* \"contracts/ERC721.sol\":3386:3396  msg.sender */\n      caller\n        /* \"contracts/ERC721.sol\":3363:3397  isApprovedForAll[from][msg.sender] */\n      0xffffffffffffffffffffffffffffffffffffffff\n      and\n      0xffffffffffffffffffffffffffffffffffffffff\n      and\n      dup2\n      mstore\n      0x20\n      add\n      swap1\n      dup2\n      mstore\n      0x20\n      add\n      0x00\n      keccak256\n      0x00\n      swap1\n      sload\n      swap1\n      0x0100\n      exp\n      swap1\n      div\n      0xff\n      and\n        /* \"contracts/ERC721.sol\":3355:3415  require(isApprovedForAll[from][msg.sender],\"not authorized\") */\n      tag_88\n      jumpi\n      mload(0x40)\n      0x08c379a000000000000000000000000000000000000000000000000000000000\n      dup2\n      mstore\n      0x04\n      add\n      tag_89\n      swap1\n      tag_90\n      jump\t// in\n    tag_89:\n      mload(0x40)\n      dup1\n      swap2\n      sub\n      swap1\n      revert\n    tag_88:\n        /* \"contracts/ERC721.sol\":3426:3436  _balanceOf */\n      0x01\n        /* \"contracts/ERC721.sol\":3426:3442  _balanceOf[from] */\n      0x00\n        /* \"contracts/ERC721.sol\":3437:3441  from */\n      dup5\n        /* \"contracts/ERC721.sol\":3426:3442  _balanceOf[from] */\n      0xffffffffffffffffffffffffffffffffffffffff\n      and\n      0xffffffffffffffffffffffffffffffffffffffff\n      and\n      dup2\n      mstore\n      0x20\n      add\n      swap1\n      dup2\n      mstore\n      0x20\n      add\n      0x00\n      keccak256\n      0x00\n        /* \"contracts/ERC721.sol\":3426:3444  _balanceOf[from]-- */\n      dup2\n      sload\n      dup1\n      swap3\n      swap2\n      swap1\n      tag_91\n      swap1\n      tag_92\n      jump\t// in\n    tag_91:\n      swap2\n      swap1\n      pop\n      sstore\n      pop\n        /* \"contracts/ERC721.sol\":3454:3464  _balanceOf */\n      0x01\n        /* \"contracts/ERC721.sol\":3454:3468  _balanceOf[to] */\n      0x00\n        /* \"contracts/ERC721.sol\":3465:3467  to */\n      dup4\n        /* \"contracts/ERC721.sol\":3454:3468  _balanceOf[to] */\n      0xffffffffffffffffffffffffffffffffffffffff\n      and\n      0xffffffffffffffffffffffffffffffffffffffff\n      and\n      dup2\n      mstore\n      0x20\n      add\n      swap1\n      dup2\n      mstore\n      0x20\n      add\n      0x00\n      keccak256\n      0x00\n        /* \"contracts/ERC721.sol\":3454:3470  _balanceOf[to]++ */\n      dup2\n      sload\n      dup1\n      swap3\n      swap2\n      swap1\n      tag_93\n      swap1\n      tag_94\n      jump\t// in\n    tag_93:\n      swap2\n      swap1\n      pop\n      sstore\n      pop\n        /* \"contracts/ERC721.sol\":3498:3500  to */\n      dup2\n        /* \"contracts/ERC721.sol\":3480:3488  _ownerOf */\n      0x00\n        /* \"contracts/ERC721.sol\":3480:3497  _ownerOf[tokenId] */\n      dup1\n        /* \"contracts/ERC721.sol\":3489:3496  tokenId */\n      dup4\n        /* \"contracts/ERC721.sol\":3480:3497  _ownerOf[tokenId] */\n      dup2\n      mstore\n      0x20\n      add\n      swap1\n      dup2\n      mstore\n      0x20\n      add\n      0x00\n      keccak256\n      0x00\n        /* \"contracts/ERC721.sol\":3480:3500  _ownerOf[tokenId]=to */\n      0x0100\n      exp\n      dup2\n      sload\n      dup2\n      0xffffffffffffffffffffffffffffffffffffffff\n      mul\n      not\n      and\n      swap1\n      dup4\n      0xffffffffffffffffffffffffffffffffffffffff\n      and\n      mul\n      or\n      swap1\n      sstore\n      pop\n        /* \"contracts/ERC721.sol\":3518:3528  _approvals */\n      0x02\n        /* \"contracts/ERC721.sol\":3518:3537  _approvals[tokenId] */\n      0x00\n        /* \"contracts/ERC721.sol\":3529:3536  tokenId */\n      dup3\n        /* \"contracts/ERC721.sol\":3518:3537  _approvals[tokenId] */\n      dup2\n      mstore\n      0x20\n      add\n      swap1\n      dup2\n      mstore\n      0x20\n      add\n      0x00\n      keccak256\n      0x00\n        /* \"contracts/ERC721.sol\":3511:3537  delete _approvals[tokenId] */\n      0x0100\n      exp\n      dup2\n      sload\n      swap1\n      0xffffffffffffffffffffffffffffffffffffffff\n      mul\n      not\n      and\n      swap1\n      sstore\n        /* \"contracts/ERC721.sol\":3552:3579  Transfer(from, to, tokenId) */\n      0xddf252ad1be2c89b69c2b068fc378daa952ba7f163c4a11628f55a4df523b3ef\n        /* \"contracts/ERC721.sol\":3561:3565  from */\n      dup4\n        /* \"contracts/ERC721.sol\":3567:3569  to */\n      dup4\n        /* \"contracts/ERC721.sol\":3571:3578  tokenId */\n      dup4\n        /* \"contracts/ERC721.sol\":3552:3579  Transfer(from, to, tokenId) */\n      mload(0x40)\n      tag_95\n      swap4\n      swap3\n      swap2\n      swap1\n      tag_80\n      jump\t// in\n    tag_95:\n      mload(0x40)\n      dup1\n      swap2\n      sub\n      swap1\n      log1\n        /* \"contracts/ERC721.sol\":3160:3586  function transferFrom(address from, address to, uint256 tokenId) public{... */\n      pop\n      pop\n      pop\n      jump\t// out\n        /* \"contracts/ERC721.sol\":4980:5057  function mint(address to, uint256 id) external {... */\n    tag_38:\n        /* \"contracts/ERC721.sol\":5037:5050  _mint(to, id) */\n      tag_97\n        /* \"contracts/ERC721.sol\":5043:5045  to */\n      dup3\n        /* \"contracts/ERC721.sol\":5047:5049  id */\n      dup3\n        /* \"contracts/ERC721.sol\":5037:5042  _mint */\n      tag_98\n        /* \"contracts/ERC721.sol\":5037:5050  _mint(to, id) */\n      jump\t// in\n    tag_97:\n        /* \"contracts/ERC721.sol\":4980:5057  function mint(address to, uint256 id) external {... */\n      pop\n      pop\n      jump\t// out\n        /* \"contracts/ERC721.sol\":3591:3963  function safeTransferFrom(address from, address to, uint256 tokenId)... */\n    tag_41:\n        /* \"contracts/ERC721.sol\":3690:3719  transferFrom(from,to,tokenId) */\n      tag_100\n        /* \"contracts/ERC721.sol\":3703:3707  from */\n      dup4\n        /* \"contracts/ERC721.sol\":3708:3710  to */\n      dup4\n        /* \"contracts/ERC721.sol\":3711:3718  tokenId */\n      dup4\n        /* \"contracts/ERC721.sol\":3690:3702  transferFrom */\n      tag_35\n        /* \"contracts/ERC721.sol\":3690:3719  transferFrom(from,to,tokenId) */\n      jump\t// in\n    tag_100:\n        /* \"contracts/ERC721.sol\":3774:3775  0 */\n      0x00\n        /* \"contracts/ERC721.sol\":3758:3760  to */\n      dup3\n        /* \"contracts/ERC721.sol\":3758:3772  to.code.length */\n      0xffffffffffffffffffffffffffffffffffffffff\n      and\n      extcodesize\n        /* \"contracts/ERC721.sol\":3758:3775  to.code.length==0 */\n      eq\n        /* \"contracts/ERC721.sol\":3758:3902  to.code.length==0 ||... */\n      dup1\n      tag_101\n      jumpi\n      pop\n        /* \"contracts/ERC721.sol\":3861:3902  IERC721Receiver.onERC721Received.selector */\n      shl(0xe0, 0x150b7a02)\n        /* \"contracts/ERC721.sol\":3795:3902  IERC721Receiver(to).onERC721Received(msg.sender,from,tokenId,\"\")==IERC721Receiver.onERC721Received.selector */\n      not(0xffffffffffffffffffffffffffffffffffffffffffffffffffffffff)\n      and\n        /* \"contracts/ERC721.sol\":3811:3813  to */\n      dup3\n        /* \"contracts/ERC721.sol\":3795:3831  IERC721Receiver(to).onERC721Received */\n      0xffffffffffffffffffffffffffffffffffffffff\n      and\n      0x150b7a02\n        /* \"contracts/ERC721.sol\":3832:3842  msg.sender */\n      caller\n        /* \"contracts/ERC721.sol\":3843:3847  from */\n      dup7\n        /* \"contracts/ERC721.sol\":3848:3855  tokenId */\n      dup6\n        /* \"contracts/ERC721.sol\":3795:3859  IERC721Receiver(to).onERC721Received(msg.sender,from,tokenId,\"\") */\n      mload(0x40)\n      dup5\n      0xffffffff\n      and\n      0xe0\n      shl\n      dup2\n      mstore\n      0x04\n      add\n      tag_102\n      swap4\n      swap3\n      swap2\n      swap1\n      tag_103\n      jump\t// in\n    tag_102:\n      0x20\n      mload(0x40)\n      dup1\n      dup4\n      sub\n      dup2\n      0x00\n      dup8\n      gas\n      call\n      iszero\n      dup1\n      iszero\n      tag_105\n      jumpi\n      returndatasize\n      0x00\n      dup1\n      returndatacopy\n      revert(0x00, returndatasize)\n    tag_105:\n      pop\n      pop\n      pop\n      pop\n      mload(0x40)\n      returndatasize\n      not(0x1f)\n      0x1f\n      dup3\n      add\n      and\n      dup3\n      add\n      dup1\n      0x40\n      mstore\n      pop\n      dup2\n      add\n      swap1\n      tag_106\n      swap2\n      swap1\n      tag_107\n      jump\t// in\n    tag_106:\n        /* \"contracts/ERC721.sol\":3795:3902  IERC721Receiver(to).onERC721Received(msg.sender,from,tokenId,\"\")==IERC721Receiver.onERC721Received.selector */\n      not(0xffffffffffffffffffffffffffffffffffffffffffffffffffffffff)\n      and\n      eq\n        /* \"contracts/ERC721.sol\":3758:3902  to.code.length==0 ||... */\n    tag_101:\n        /* \"contracts/ERC721.sol\":3733:3952  require(... */\n      tag_108\n      jumpi\n      mload(0x40)\n      0x08c379a000000000000000000000000000000000000000000000000000000000\n      dup2\n      mstore\n      0x04\n      add\n      tag_109\n      swap1\n      tag_110\n      jump\t// in\n    tag_109:\n      mload(0x40)\n      dup1\n      swap2\n      sub\n      swap1\n      revert\n    tag_108:\n        /* \"contracts/ERC721.sol\":3591:3963  function safeTransferFrom(address from, address to, uint256 tokenId)... */\n      pop\n      pop\n      pop\n      jump\t// out\n        /* \"contracts/ERC721.sol\":5063:5182  function burn(uint256 id) external {... */\n    tag_44:\n        /* \"contracts/ERC721.sol\":5130:5138  _ownerOf */\n      0x00\n        /* \"contracts/ERC721.sol\":5130:5142  _ownerOf[id] */\n      dup1\n        /* \"contracts/ERC721.sol\":5139:5141  id */\n      dup3\n        /* \"contracts/ERC721.sol\":5130:5142  _ownerOf[id] */\n      dup2\n      mstore\n      0x20\n      add\n      swap1\n      dup2\n      mstore\n      0x20\n      add\n      0x00\n      keccak256\n      0x00\n      swap1\n      sload\n      swap1\n      0x0100\n      exp\n      swap1\n      div\n      0xffffffffffffffffffffffffffffffffffffffff\n      and\n        /* \"contracts/ERC721.sol\":5116:5142  msg.sender == _ownerOf[id] */\n      0xffffffffffffffffffffffffffffffffffffffff\n      and\n        /* \"contracts/ERC721.sol\":5116:5126  msg.sender */\n      caller\n        /* \"contracts/ERC721.sol\":5116:5142  msg.sender == _ownerOf[id] */\n      0xffffffffffffffffffffffffffffffffffffffff\n      and\n      eq\n        /* \"contracts/ERC721.sol\":5108:5156  require(msg.sender == _ownerOf[id], \"not owner\") */\n      tag_112\n      jumpi\n      mload(0x40)\n      0x08c379a000000000000000000000000000000000000000000000000000000000\n      dup2\n      mstore\n      0x04\n      add\n      tag_113\n      swap1\n      tag_84\n      jump\t// in\n    tag_113:\n      mload(0x40)\n      dup1\n      swap2\n      sub\n      swap1\n      revert\n    tag_112:\n        /* \"contracts/ERC721.sol\":5166:5175  _burn(id) */\n      tag_114\n        /* \"contracts/ERC721.sol\":5172:5174  id */\n      dup2\n        /* \"contracts/ERC721.sol\":5166:5171  _burn */\n      tag_115\n        /* \"contracts/ERC721.sol\":5166:5175  _burn(id) */\n      jump\t// in\n    tag_114:\n        /* \"contracts/ERC721.sol\":5063:5182  function burn(uint256 id) external {... */\n      pop\n      jump\t// out\n        /* \"contracts/ERC721.sol\":2082:2215  function ownerOf(uint256 tokenId) external view returns (address owner){... */\n    tag_47:\n        /* \"contracts/ERC721.sol\":2139:2152  address owner */\n      0x00\n        /* \"contracts/ERC721.sol\":2169:2177  _ownerOf */\n      dup1\n        /* \"contracts/ERC721.sol\":2169:2186  _ownerOf[tokenId] */\n      0x00\n        /* \"contracts/ERC721.sol\":2178:2185  tokenId */\n      dup4\n        /* \"contracts/ERC721.sol\":2169:2186  _ownerOf[tokenId] */\n      dup2\n      mstore\n      0x20\n      add\n      swap1\n      dup2\n      mstore\n      0x20\n      add\n      0x00\n      keccak256\n      0x00\n      swap1\n      sload\n      swap1\n      0x0100\n      exp\n      swap1\n      div\n      0xffffffffffffffffffffffffffffffffffffffff\n      and\n        /* \"contracts/ERC721.sol\":2163:2186  owner=_ownerOf[tokenId] */\n      swap1\n      pop\n        /* \"contracts/ERC721.sol\":2082:2215  function ownerOf(uint256 tokenId) external view returns (address owner){... */\n      swap2\n      swap1\n      pop\n      jump\t// out\n        /* \"contracts/ERC721.sol\":1938:2077  function balanceOf(address owner) external view returns (uint256 balance){... */\n    tag_52:\n        /* \"contracts/ERC721.sol\":1995:2010  uint256 balance */\n      0x00\n        /* \"contracts/ERC721.sol\":2029:2039  _balanceOf */\n      0x01\n        /* \"contracts/ERC721.sol\":2029:2046  _balanceOf[owner] */\n      0x00\n        /* \"contracts/ERC721.sol\":2040:2045  owner */\n      dup4\n        /* \"contracts/ERC721.sol\":2029:2046  _balanceOf[owner] */\n      0xffffffffffffffffffffffffffffffffffffffff\n      and\n      0xffffffffffffffffffffffffffffffffffffffff\n      and\n      dup2\n      mstore\n      0x20\n      add\n      swap1\n      dup2\n      mstore\n      0x20\n      add\n      0x00\n      keccak256\n      sload\n        /* \"contracts/ERC721.sol\":2021:2046  balance=_balanceOf[owner] */\n      swap1\n      pop\n        /* \"contracts/ERC721.sol\":1938:2077  function balanceOf(address owner) external view returns (uint256 balance){... */\n      swap2\n      swap1\n      pop\n      jump\t// out\n        /* \"contracts/ERC721.sol\":2724:2915  function setApprovalForAll(address operator, bool _approved) external{... */\n    tag_58:\n        /* \"contracts/ERC721.sol\":2842:2846  true */\n      0x01\n        /* \"contracts/ERC721.sol\":2803:2819  isApprovedForAll */\n      0x03\n        /* \"contracts/ERC721.sol\":2803:2831  isApprovedForAll[msg.sender] */\n      0x00\n        /* \"contracts/ERC721.sol\":2820:2830  msg.sender */\n      caller\n        /* \"contracts/ERC721.sol\":2803:2831  isApprovedForAll[msg.sender] */\n      0xffffffffffffffffffffffffffffffffffffffff\n      and\n      0xffffffffffffffffffffffffffffffffffffffff\n      and\n      dup2\n      mstore\n      0x20\n      add\n      swap1\n      dup2\n      mstore\n      0x20\n      add\n      0x00\n      keccak256\n        /* \"contracts/ERC721.sol\":2803:2841  isApprovedForAll[msg.sender][operator] */\n      0x00\n        /* \"contracts/ERC721.sol\":2832:2840  operator */\n      dup5\n        /* \"contracts/ERC721.sol\":2803:2841  isApprovedForAll[msg.sender][operator] */\n      0xffffffffffffffffffffffffffffffffffffffff\n      and\n      0xffffffffffffffffffffffffffffffffffffffff\n      and\n      dup2\n      mstore\n      0x20\n      add\n      swap1\n      dup2\n      mstore\n      0x20\n      add\n      0x00\n      keccak256\n      0x00\n        /* \"contracts/ERC721.sol\":2803:2846  isApprovedForAll[msg.sender][operator]=true */\n      0x0100\n      exp\n      dup2\n      sload\n      dup2\n      0xff\n      mul\n      not\n      and\n      swap1\n      dup4\n      iszero\n      iszero\n      mul\n      or\n      swap1\n      sstore\n      pop\n        /* \"contracts/ERC721.sol\":2888:2896  operator */\n      dup2\n        /* \"contracts/ERC721.sol\":2861:2908  ApprovalForAll(msg.sender, operator, _approved) */\n      0xffffffffffffffffffffffffffffffffffffffff\n      and\n        /* \"contracts/ERC721.sol\":2876:2886  msg.sender */\n      caller\n        /* \"contracts/ERC721.sol\":2861:2908  ApprovalForAll(msg.sender, operator, _approved) */\n      0xffffffffffffffffffffffffffffffffffffffff\n      and\n      0x17307eab39ab6107e8899845ad3d59bd9653f200f220920489ca2b5937696c31\n        /* \"contracts/ERC721.sol\":2898:2907  _approved */\n      dup4\n        /* \"contracts/ERC721.sol\":2861:2908  ApprovalForAll(msg.sender, operator, _approved) */\n      mload(0x40)\n      tag_119\n      swap2\n      swap1\n      tag_21\n      jump\t// in\n    tag_119:\n      mload(0x40)\n      dup1\n      swap2\n      sub\n      swap1\n      log3\n        /* \"contracts/ERC721.sol\":2724:2915  function setApprovalForAll(address operator, bool _approved) external{... */\n      pop\n      pop\n      jump\t// out\n        /* \"contracts/ERC721.sol\":3968:4385  function safeTransferFrom(... */\n    tag_62:\n        /* \"contracts/ERC721.sol\":4114:4143  transferFrom(from,to,tokenId) */\n      tag_121\n        /* \"contracts/ERC721.sol\":4127:4131  from */\n      dup6\n        /* \"contracts/ERC721.sol\":4132:4134  to */\n      dup6\n        /* \"contracts/ERC721.sol\":4135:4142  tokenId */\n      dup6\n        /* \"contracts/ERC721.sol\":4114:4126  transferFrom */\n      tag_35\n        /* \"contracts/ERC721.sol\":4114:4143  transferFrom(from,to,tokenId) */\n      jump\t// in\n    tag_121:\n        /* \"contracts/ERC721.sol\":4198:4199  0 */\n      0x00\n        /* \"contracts/ERC721.sol\":4182:4184  to */\n      dup5\n        /* \"contracts/ERC721.sol\":4182:4196  to.code.length */\n      0xffffffffffffffffffffffffffffffffffffffff\n      and\n      extcodesize\n        /* \"contracts/ERC721.sol\":4182:4199  to.code.length==0 */\n      eq\n        /* \"contracts/ERC721.sol\":4182:4328  to.code.length==0 ||... */\n      dup1\n      tag_122\n      jumpi\n      pop\n        /* \"contracts/ERC721.sol\":4287:4328  IERC721Receiver.onERC721Received.selector */\n      shl(0xe0, 0x150b7a02)\n        /* \"contracts/ERC721.sol\":4219:4328  IERC721Receiver(to).onERC721Received(msg.sender,from,tokenId,data)==IERC721Receiver.onERC721Received.selector */\n      not(0xffffffffffffffffffffffffffffffffffffffffffffffffffffffff)\n      and\n        /* \"contracts/ERC721.sol\":4235:4237  to */\n      dup5\n        /* \"contracts/ERC721.sol\":4219:4255  IERC721Receiver(to).onERC721Received */\n      0xffffffffffffffffffffffffffffffffffffffff\n      and\n      0x150b7a02\n        /* \"contracts/ERC721.sol\":4256:4266  msg.sender */\n      caller\n        /* \"contracts/ERC721.sol\":4267:4271  from */\n      dup9\n        /* \"contracts/ERC721.sol\":4272:4279  tokenId */\n      dup8\n        /* \"contracts/ERC721.sol\":4280:4284  data */\n      dup8\n      dup8\n        /* \"contracts/ERC721.sol\":4219:4285  IERC721Receiver(to).onERC721Received(msg.sender,from,tokenId,data) */\n      mload(0x40)\n      dup7\n      0xffffffff\n      and\n      0xe0\n      shl\n      dup2\n      mstore\n      0x04\n      add\n      tag_123\n      swap6\n      swap5\n      swap4\n      swap3\n      swap2\n      swap1\n      tag_124\n      jump\t// in\n    tag_123:\n      0x20\n      mload(0x40)\n      dup1\n      dup4\n      sub\n      dup2\n      0x00\n      dup8\n      gas\n      call\n      iszero\n      dup1\n      iszero\n      tag_126\n      jumpi\n      returndatasize\n      0x00\n      dup1\n      returndatacopy\n      revert(0x00, returndatasize)\n    tag_126:\n      pop\n      pop\n      pop\n      pop\n      mload(0x40)\n      returndatasize\n      not(0x1f)\n      0x1f\n      dup3\n      add\n      and\n      dup3\n      add\n      dup1\n      0x40\n      mstore\n      pop\n      dup2\n      add\n      swap1\n      tag_127\n      swap2\n      swap1\n      tag_107\n      jump\t// in\n    tag_127:\n        /* \"contracts/ERC721.sol\":4219:4328  IERC721Receiver(to).onERC721Received(msg.sender,from,tokenId,data)==IERC721Receiver.onERC721Received.selector */\n      not(0xffffffffffffffffffffffffffffffffffffffffffffffffffffffff)\n      and\n      eq\n        /* \"contracts/ERC721.sol\":4182:4328  to.code.length==0 ||... */\n    tag_122:\n        /* \"contracts/ERC721.sol\":4157:4378  require(... */\n      tag_128\n      jumpi\n      mload(0x40)\n      0x08c379a000000000000000000000000000000000000000000000000000000000\n      dup2\n      mstore\n      0x04\n      add\n      tag_129\n      swap1\n      tag_110\n      jump\t// in\n    tag_129:\n      mload(0x40)\n      dup1\n      swap2\n      sub\n      swap1\n      revert\n    tag_128:\n        /* \"contracts/ERC721.sol\":3968:4385  function safeTransferFrom(... */\n      pop\n      pop\n      pop\n      pop\n      pop\n      jump\t// out\n        /* \"contracts/ERC721.sol\":1642:1705  mapping(address=>mapping(address=>bool))public isApprovedForAll */\n    tag_66:\n      mstore(0x20, 0x03)\n      dup2\n      0x00\n      mstore\n      mstore(0x20, keccak256(0x00, 0x40))\n      dup1\n      0x00\n      mstore\n      keccak256(0x00, 0x40)\n      0x00\n      swap2\n      pop\n      swap2\n      pop\n      swap1\n      sload\n      swap1\n      0x0100\n      exp\n      swap1\n      div\n      0xff\n      and\n      dup2\n      jump\t// out\n        /* \"contracts/ERC721.sol\":4390:4665  function _mint(address to, uint256 id) internal {... */\n    tag_98:\n        /* \"contracts/ERC721.sol\":4470:4471  0 */\n      0x00\n        /* \"contracts/ERC721.sol\":4456:4472  to != address(0) */\n      0xffffffffffffffffffffffffffffffffffffffff\n      and\n        /* \"contracts/ERC721.sol\":4456:4458  to */\n      dup3\n        /* \"contracts/ERC721.sol\":4456:4472  to != address(0) */\n      0xffffffffffffffffffffffffffffffffffffffff\n      and\n      sub\n        /* \"contracts/ERC721.sol\":4448:4497  require(to != address(0), \"mint to zero address\") */\n      tag_131\n      jumpi\n      mload(0x40)\n      0x08c379a000000000000000000000000000000000000000000000000000000000\n      dup2\n      mstore\n      0x04\n      add\n      tag_132\n      swap1\n      tag_133\n      jump\t// in\n    tag_132:\n      mload(0x40)\n      dup1\n      swap2\n      sub\n      swap1\n      revert\n    tag_131:\n        /* \"contracts/ERC721.sol\":4539:4540  0 */\n      0x00\n        /* \"contracts/ERC721.sol\":4515:4541  _ownerOf[id] == address(0) */\n      0xffffffffffffffffffffffffffffffffffffffff\n      and\n        /* \"contracts/ERC721.sol\":4515:4523  _ownerOf */\n      0x00\n        /* \"contracts/ERC721.sol\":4515:4527  _ownerOf[id] */\n      dup1\n        /* \"contracts/ERC721.sol\":4524:4526  id */\n      dup4\n        /* \"contracts/ERC721.sol\":4515:4527  _ownerOf[id] */\n      dup2\n      mstore\n      0x20\n      add\n      swap1\n      dup2\n      mstore\n      0x20\n      add\n      0x00\n      keccak256\n      0x00\n      swap1\n      sload\n      swap1\n      0x0100\n      exp\n      swap1\n      div\n      0xffffffffffffffffffffffffffffffffffffffff\n      and\n        /* \"contracts/ERC721.sol\":4515:4541  _ownerOf[id] == address(0) */\n      0xffffffffffffffffffffffffffffffffffffffff\n      and\n      eq\n        /* \"contracts/ERC721.sol\":4507:4560  require(_ownerOf[id] == address(0), \"already minted\") */\n      tag_134\n      jumpi\n      mload(0x40)\n      0x08c379a000000000000000000000000000000000000000000000000000000000\n      dup2\n      mstore\n      0x04\n      add\n      tag_135\n      swap1\n      tag_136\n      jump\t// in\n    tag_135:\n      mload(0x40)\n      dup1\n      swap2\n      sub\n      swap1\n      revert\n    tag_134:\n        /* \"contracts/ERC721.sol\":4571:4581  _balanceOf */\n      0x01\n        /* \"contracts/ERC721.sol\":4571:4585  _balanceOf[to] */\n      0x00\n        /* \"contracts/ERC721.sol\":4582:4584  to */\n      dup4\n        /* \"contracts/ERC721.sol\":4571:4585  _balanceOf[to] */\n      0xffffffffffffffffffffffffffffffffffffffff\n      and\n      0xffffffffffffffffffffffffffffffffffffffff\n      and\n      dup2\n      mstore\n      0x20\n      add\n      swap1\n      dup2\n      mstore\n      0x20\n      add\n      0x00\n      keccak256\n      0x00\n        /* \"contracts/ERC721.sol\":4571:4587  _balanceOf[to]++ */\n      dup2\n      sload\n      dup1\n      swap3\n      swap2\n      swap1\n      tag_137\n      swap1\n      tag_94\n      jump\t// in\n    tag_137:\n      swap2\n      swap1\n      pop\n      sstore\n      pop\n        /* \"contracts/ERC721.sol\":4612:4614  to */\n      dup2\n        /* \"contracts/ERC721.sol\":4597:4605  _ownerOf */\n      0x00\n        /* \"contracts/ERC721.sol\":4597:4609  _ownerOf[id] */\n      dup1\n        /* \"contracts/ERC721.sol\":4606:4608  id */\n      dup4\n        /* \"contracts/ERC721.sol\":4597:4609  _ownerOf[id] */\n      dup2\n      mstore\n      0x20\n      add\n      swap1\n      dup2\n      mstore\n      0x20\n      add\n      0x00\n      keccak256\n      0x00\n        /* \"contracts/ERC721.sol\":4597:4614  _ownerOf[id] = to */\n      0x0100\n      exp\n      dup2\n      sload\n      dup2\n      0xffffffffffffffffffffffffffffffffffffffff\n      mul\n      not\n      and\n      swap1\n      dup4\n      0xffffffffffffffffffffffffffffffffffffffff\n      and\n      mul\n      or\n      swap1\n      sstore\n      pop\n        /* \"contracts/ERC721.sol\":4630:4658  Transfer(address(0), to, id) */\n      0xddf252ad1be2c89b69c2b068fc378daa952ba7f163c4a11628f55a4df523b3ef\n        /* \"contracts/ERC721.sol\":4647:4648  0 */\n      0x00\n        /* \"contracts/ERC721.sol\":4651:4653  to */\n      dup4\n        /* \"contracts/ERC721.sol\":4655:4657  id */\n      dup4\n        /* \"contracts/ERC721.sol\":4630:4658  Transfer(address(0), to, id) */\n      mload(0x40)\n      tag_138\n      swap4\n      swap3\n      swap2\n      swap1\n      tag_80\n      jump\t// in\n    tag_138:\n      mload(0x40)\n      dup1\n      swap2\n      sub\n      swap1\n      log1\n        /* \"contracts/ERC721.sol\":4390:4665  function _mint(address to, uint256 id) internal {... */\n      pop\n      pop\n      jump\t// out\n        /* \"contracts/ERC721.sol\":4671:4945  function _burn(uint256 id) internal {... */\n    tag_115:\n        /* \"contracts/ERC721.sol\":4717:4730  address owner */\n      0x00\n        /* \"contracts/ERC721.sol\":4733:4741  _ownerOf */\n      dup1\n        /* \"contracts/ERC721.sol\":4733:4745  _ownerOf[id] */\n      0x00\n        /* \"contracts/ERC721.sol\":4742:4744  id */\n      dup4\n        /* \"contracts/ERC721.sol\":4733:4745  _ownerOf[id] */\n      dup2\n      mstore\n      0x20\n      add\n      swap1\n      dup2\n      mstore\n      0x20\n      add\n      0x00\n      keccak256\n      0x00\n      swap1\n      sload\n      swap1\n      0x0100\n      exp\n      swap1\n      div\n      0xffffffffffffffffffffffffffffffffffffffff\n      and\n        /* \"contracts/ERC721.sol\":4717:4745  address owner = _ownerOf[id] */\n      swap1\n      pop\n        /* \"contracts/ERC721.sol\":4780:4781  0 */\n      0x00\n        /* \"contracts/ERC721.sol\":4763:4782  owner != address(0) */\n      0xffffffffffffffffffffffffffffffffffffffff\n      and\n        /* \"contracts/ERC721.sol\":4763:4768  owner */\n      dup2\n        /* \"contracts/ERC721.sol\":4763:4782  owner != address(0) */\n      0xffffffffffffffffffffffffffffffffffffffff\n      and\n      sub\n        /* \"contracts/ERC721.sol\":4755:4797  require(owner != address(0), \"not minted\") */\n      tag_140\n      jumpi\n      mload(0x40)\n      0x08c379a000000000000000000000000000000000000000000000000000000000\n      dup2\n      mstore\n      0x04\n      add\n      tag_141\n      swap1\n      tag_142\n      jump\t// in\n    tag_141:\n      mload(0x40)\n      dup1\n      swap2\n      sub\n      swap1\n      revert\n    tag_140:\n        /* \"contracts/ERC721.sol\":4829:4830  1 */\n      0x01\n        /* \"contracts/ERC721.sol\":4808:4818  _balanceOf */\n      dup1\n        /* \"contracts/ERC721.sol\":4808:4825  _balanceOf[owner] */\n      0x00\n        /* \"contracts/ERC721.sol\":4819:4824  owner */\n      dup4\n        /* \"contracts/ERC721.sol\":4808:4825  _balanceOf[owner] */\n      0xffffffffffffffffffffffffffffffffffffffff\n      and\n      0xffffffffffffffffffffffffffffffffffffffff\n      and\n      dup2\n      mstore\n      0x20\n      add\n      swap1\n      dup2\n      mstore\n      0x20\n      add\n      0x00\n      keccak256\n      0x00\n        /* \"contracts/ERC721.sol\":4808:4830  _balanceOf[owner] -= 1 */\n      dup3\n      dup3\n      sload\n      tag_143\n      swap2\n      swap1\n      tag_144\n      jump\t// in\n    tag_143:\n      swap3\n      pop\n      pop\n      dup2\n      swap1\n      sstore\n      pop\n        /* \"contracts/ERC721.sol\":4848:4856  _ownerOf */\n      0x00\n        /* \"contracts/ERC721.sol\":4848:4860  _ownerOf[id] */\n      dup1\n        /* \"contracts/ERC721.sol\":4857:4859  id */\n      dup4\n        /* \"contracts/ERC721.sol\":4848:4860  _ownerOf[id] */\n      dup2\n      mstore\n      0x20\n      add\n      swap1\n      dup2\n      mstore\n      0x20\n      add\n      0x00\n      keccak256\n      0x00\n        /* \"contracts/ERC721.sol\":4841:4860  delete _ownerOf[id] */\n      0x0100\n      exp\n      dup2\n      sload\n      swap1\n      0xffffffffffffffffffffffffffffffffffffffff\n      mul\n      not\n      and\n      swap1\n      sstore\n        /* \"contracts/ERC721.sol\":4877:4887  _approvals */\n      0x02\n        /* \"contracts/ERC721.sol\":4877:4891  _approvals[id] */\n      0x00\n        /* \"contracts/ERC721.sol\":4888:4890  id */\n      dup4\n        /* \"contracts/ERC721.sol\":4877:4891  _approvals[id] */\n      dup2\n      mstore\n      0x20\n      add\n      swap1\n      dup2\n      mstore\n      0x20\n      add\n      0x00\n      keccak256\n      0x00\n        /* \"contracts/ERC721.sol\":4870:4891  delete _approvals[id] */\n      0x0100\n      exp\n      dup2\n      sload\n      swap1\n      0xffffffffffffffffffffffffffffffffffffffff\n      mul\n      not\n      and\n      swap1\n      sstore\n        /* \"contracts/ERC721.sol\":4907:4938  Transfer(owner, address(0), id) */\n      0xddf252ad1be2c89b69c2b068fc378daa952ba7f163c4a11628f55a4df523b3ef\n        /* \"contracts/ERC721.sol\":4916:4921  owner */\n      dup2\n        /* \"contracts/ERC721.sol\":4931:4932  0 */\n      0x00\n        /* \"contracts/ERC721.sol\":4935:4937  id */\n      dup5\n        /* \"contracts/ERC721.sol\":4907:4938  Transfer(owner, address(0), id) */\n      mload(0x40)\n      tag_145\n      swap4\n      swap3\n      swap2\n      swap1\n      tag_80\n      jump\t// in\n    tag_145:\n      mload(0x40)\n      dup1\n      swap2\n      sub\n      swap1\n      log1\n        /* \"contracts/ERC721.sol\":4707:4945  {... */\n      pop\n        /* \"contracts/ERC721.sol\":4671:4945  function _burn(uint256 id) internal {... */\n      pop\n      jump\t// out\n        /* \"#utility.yul\":88:205   */\n    tag_147:\n        /* \"#utility.yul\":197:198   */\n      0x00\n        /* \"#utility.yul\":194:195   */\n      dup1\n        /* \"#utility.yul\":187:199   */\n      revert\n        /* \"#utility.yul\":211:328   */\n    tag_148:\n        /* \"#utility.yul\":320:321   */\n      0x00\n        /* \"#utility.yul\":317:318   */\n      dup1\n        /* \"#utility.yul\":310:322   */\n      revert\n        /* \"#utility.yul\":334:483   */\n    tag_149:\n        /* \"#utility.yul\":370:377   */\n      0x00\n        /* \"#utility.yul\":410:476   */\n      0xffffffff00000000000000000000000000000000000000000000000000000000\n        /* \"#utility.yul\":403:408   */\n      dup3\n        /* \"#utility.yul\":399:477   */\n      and\n        /* \"#utility.yul\":388:477   */\n      swap1\n      pop\n        /* \"#utility.yul\":334:483   */\n      swap2\n      swap1\n      pop\n      jump\t// out\n        /* \"#utility.yul\":489:609   */\n    tag_150:\n        /* \"#utility.yul\":561:584   */\n      tag_202\n        /* \"#utility.yul\":578:583   */\n      dup2\n        /* \"#utility.yul\":561:584   */\n      tag_149\n      jump\t// in\n    tag_202:\n        /* \"#utility.yul\":554:559   */\n      dup2\n        /* \"#utility.yul\":551:585   */\n      eq\n        /* \"#utility.yul\":541:603   */\n      tag_203\n      jumpi\n        /* \"#utility.yul\":599:600   */\n      0x00\n        /* \"#utility.yul\":596:597   */\n      dup1\n        /* \"#utility.yul\":589:601   */\n      revert\n        /* \"#utility.yul\":541:603   */\n    tag_203:\n        /* \"#utility.yul\":489:609   */\n      pop\n      jump\t// out\n        /* \"#utility.yul\":615:752   */\n    tag_151:\n        /* \"#utility.yul\":660:665   */\n      0x00\n        /* \"#utility.yul\":698:704   */\n      dup2\n        /* \"#utility.yul\":685:705   */\n      calldataload\n        /* \"#utility.yul\":676:705   */\n      swap1\n      pop\n        /* \"#utility.yul\":714:746   */\n      tag_205\n        /* \"#utility.yul\":740:745   */\n      dup2\n        /* \"#utility.yul\":714:746   */\n      tag_150\n      jump\t// in\n    tag_205:\n        /* \"#utility.yul\":615:752   */\n      swap3\n      swap2\n      pop\n      pop\n      jump\t// out\n        /* \"#utility.yul\":758:1085   */\n    tag_18:\n        /* \"#utility.yul\":816:822   */\n      0x00\n        /* \"#utility.yul\":865:867   */\n      0x20\n        /* \"#utility.yul\":853:862   */\n      dup3\n        /* \"#utility.yul\":844:851   */\n      dup5\n        /* \"#utility.yul\":840:863   */\n      sub\n        /* \"#utility.yul\":836:868   */\n      slt\n        /* \"#utility.yul\":833:952   */\n      iszero\n      tag_207\n      jumpi\n        /* \"#utility.yul\":871:950   */\n      tag_208\n      tag_147\n      jump\t// in\n    tag_208:\n        /* \"#utility.yul\":833:952   */\n    tag_207:\n        /* \"#utility.yul\":991:992   */\n      0x00\n        /* \"#utility.yul\":1016:1068   */\n      tag_209\n        /* \"#utility.yul\":1060:1067   */\n      dup5\n        /* \"#utility.yul\":1051:1057   */\n      dup3\n        /* \"#utility.yul\":1040:1049   */\n      dup6\n        /* \"#utility.yul\":1036:1058   */\n      add\n        /* \"#utility.yul\":1016:1068   */\n      tag_151\n      jump\t// in\n    tag_209:\n        /* \"#utility.yul\":1006:1068   */\n      swap2\n      pop\n        /* \"#utility.yul\":962:1078   */\n      pop\n        /* \"#utility.yul\":758:1085   */\n      swap3\n      swap2\n      pop\n      pop\n      jump\t// out\n        /* \"#utility.yul\":1091:1181   */\n    tag_152:\n        /* \"#utility.yul\":1125:1132   */\n      0x00\n        /* \"#utility.yul\":1168:1173   */\n      dup2\n        /* \"#utility.yul\":1161:1174   */\n      iszero\n        /* \"#utility.yul\":1154:1175   */\n      iszero\n        /* \"#utility.yul\":1143:1175   */\n      swap1\n      pop\n        /* \"#utility.yul\":1091:1181   */\n      swap2\n      swap1\n      pop\n      jump\t// out\n        /* \"#utility.yul\":1187:1296   */\n    tag_153:\n        /* \"#utility.yul\":1268:1289   */\n      tag_212\n        /* \"#utility.yul\":1283:1288   */\n      dup2\n        /* \"#utility.yul\":1268:1289   */\n      tag_152\n      jump\t// in\n    tag_212:\n        /* \"#utility.yul\":1263:1266   */\n      dup3\n        /* \"#utility.yul\":1256:1290   */\n      mstore\n        /* \"#utility.yul\":1187:1296   */\n      pop\n      pop\n      jump\t// out\n        /* \"#utility.yul\":1302:1512   */\n    tag_21:\n        /* \"#utility.yul\":1389:1393   */\n      0x00\n        /* \"#utility.yul\":1427:1429   */\n      0x20\n        /* \"#utility.yul\":1416:1425   */\n      dup3\n        /* \"#utility.yul\":1412:1430   */\n      add\n        /* \"#utility.yul\":1404:1430   */\n      swap1\n      pop\n        /* \"#utility.yul\":1440:1505   */\n      tag_214\n        /* \"#utility.yul\":1502:1503   */\n      0x00\n        /* \"#utility.yul\":1491:1500   */\n      dup4\n        /* \"#utility.yul\":1487:1504   */\n      add\n        /* \"#utility.yul\":1478:1484   */\n      dup5\n        /* \"#utility.yul\":1440:1505   */\n      tag_153\n      jump\t// in\n    tag_214:\n        /* \"#utility.yul\":1302:1512   */\n      swap3\n      swap2\n      pop\n      pop\n      jump\t// out\n        /* \"#utility.yul\":1518:1595   */\n    tag_154:\n        /* \"#utility.yul\":1555:1562   */\n      0x00\n        /* \"#utility.yul\":1584:1589   */\n      dup2\n        /* \"#utility.yul\":1573:1589   */\n      swap1\n      pop\n        /* \"#utility.yul\":1518:1595   */\n      swap2\n      swap1\n      pop\n      jump\t// out\n        /* \"#utility.yul\":1601:1723   */\n    tag_155:\n        /* \"#utility.yul\":1674:1698   */\n      tag_217\n        /* \"#utility.yul\":1692:1697   */\n      dup2\n        /* \"#utility.yul\":1674:1698   */\n      tag_154\n      jump\t// in\n    tag_217:\n        /* \"#utility.yul\":1667:1672   */\n      dup2\n        /* \"#utility.yul\":1664:1699   */\n      eq\n        /* \"#utility.yul\":1654:1717   */\n      tag_218\n      jumpi\n        /* \"#utility.yul\":1713:1714   */\n      0x00\n        /* \"#utility.yul\":1710:1711   */\n      dup1\n        /* \"#utility.yul\":1703:1715   */\n      revert\n        /* \"#utility.yul\":1654:1717   */\n    tag_218:\n        /* \"#utility.yul\":1601:1723   */\n      pop\n      jump\t// out\n        /* \"#utility.yul\":1729:1868   */\n    tag_156:\n        /* \"#utility.yul\":1775:1780   */\n      0x00\n        /* \"#utility.yul\":1813:1819   */\n      dup2\n        /* \"#utility.yul\":1800:1820   */\n      calldataload\n        /* \"#utility.yul\":1791:1820   */\n      swap1\n      pop\n        /* \"#utility.yul\":1829:1862   */\n      tag_220\n        /* \"#utility.yul\":1856:1861   */\n      dup2\n        /* \"#utility.yul\":1829:1862   */\n      tag_155\n      jump\t// in\n    tag_220:\n        /* \"#utility.yul\":1729:1868   */\n      swap3\n      swap2\n      pop\n      pop\n      jump\t// out\n        /* \"#utility.yul\":1874:2203   */\n    tag_24:\n        /* \"#utility.yul\":1933:1939   */\n      0x00\n        /* \"#utility.yul\":1982:1984   */\n      0x20\n        /* \"#utility.yul\":1970:1979   */\n      dup3\n        /* \"#utility.yul\":1961:1968   */\n      dup5\n        /* \"#utility.yul\":1957:1980   */\n      sub\n        /* \"#utility.yul\":1953:1985   */\n      slt\n        /* \"#utility.yul\":1950:2069   */\n      iszero\n      tag_222\n      jumpi\n        /* \"#utility.yul\":1988:2067   */\n      tag_223\n      tag_147\n      jump\t// in\n    tag_223:\n        /* \"#utility.yul\":1950:2069   */\n    tag_222:\n        /* \"#utility.yul\":2108:2109   */\n      0x00\n        /* \"#utility.yul\":2133:2186   */\n      tag_224\n        /* \"#utility.yul\":2178:2185   */\n      dup5\n        /* \"#utility.yul\":2169:2175   */\n      dup3\n        /* \"#utility.yul\":2158:2167   */\n      dup6\n        /* \"#utility.yul\":2154:2176   */\n      add\n        /* \"#utility.yul\":2133:2186   */\n      tag_156\n      jump\t// in\n    tag_224:\n        /* \"#utility.yul\":2123:2186   */\n      swap2\n      pop\n        /* \"#utility.yul\":2079:2196   */\n      pop\n        /* \"#utility.yul\":1874:2203   */\n      swap3\n      swap2\n      pop\n      pop\n      jump\t// out\n        /* \"#utility.yul\":2209:2335   */\n    tag_157:\n        /* \"#utility.yul\":2246:2253   */\n      0x00\n        /* \"#utility.yul\":2286:2328   */\n      0xffffffffffffffffffffffffffffffffffffffff\n        /* \"#utility.yul\":2279:2284   */\n      dup3\n        /* \"#utility.yul\":2275:2329   */\n      and\n        /* \"#utility.yul\":2264:2329   */\n      swap1\n      pop\n        /* \"#utility.yul\":2209:2335   */\n      swap2\n      swap1\n      pop\n      jump\t// out\n        /* \"#utility.yul\":2341:2437   */\n    tag_158:\n        /* \"#utility.yul\":2378:2385   */\n      0x00\n        /* \"#utility.yul\":2407:2431   */\n      tag_227\n        /* \"#utility.yul\":2425:2430   */\n      dup3\n        /* \"#utility.yul\":2407:2431   */\n      tag_157\n      jump\t// in\n    tag_227:\n        /* \"#utility.yul\":2396:2431   */\n      swap1\n      pop\n        /* \"#utility.yul\":2341:2437   */\n      swap2\n      swap1\n      pop\n      jump\t// out\n        /* \"#utility.yul\":2443:2561   */\n    tag_159:\n        /* \"#utility.yul\":2530:2554   */\n      tag_229\n        /* \"#utility.yul\":2548:2553   */\n      dup2\n        /* \"#utility.yul\":2530:2554   */\n      tag_158\n      jump\t// in\n    tag_229:\n        /* \"#utility.yul\":2525:2528   */\n      dup3\n        /* \"#utility.yul\":2518:2555   */\n      mstore\n        /* \"#utility.yul\":2443:2561   */\n      pop\n      pop\n      jump\t// out\n        /* \"#utility.yul\":2567:2789   */\n    tag_27:\n        /* \"#utility.yul\":2660:2664   */\n      0x00\n        /* \"#utility.yul\":2698:2700   */\n      0x20\n        /* \"#utility.yul\":2687:2696   */\n      dup3\n        /* \"#utility.yul\":2683:2701   */\n      add\n        /* \"#utility.yul\":2675:2701   */\n      swap1\n      pop\n        /* \"#utility.yul\":2711:2782   */\n      tag_231\n        /* \"#utility.yul\":2779:2780   */\n      0x00\n        /* \"#utility.yul\":2768:2777   */\n      dup4\n        /* \"#utility.yul\":2764:2781   */\n      add\n        /* \"#utility.yul\":2755:2761   */\n      dup5\n        /* \"#utility.yul\":2711:2782   */\n      tag_159\n      jump\t// in\n    tag_231:\n        /* \"#utility.yul\":2567:2789   */\n      swap3\n      swap2\n      pop\n      pop\n      jump\t// out\n        /* \"#utility.yul\":2795:2917   */\n    tag_160:\n        /* \"#utility.yul\":2868:2892   */\n      tag_233\n        /* \"#utility.yul\":2886:2891   */\n      dup2\n        /* \"#utility.yul\":2868:2892   */\n      tag_158\n      jump\t// in\n    tag_233:\n        /* \"#utility.yul\":2861:2866   */\n      dup2\n        /* \"#utility.yul\":2858:2893   */\n      eq\n        /* \"#utility.yul\":2848:2911   */\n      tag_234\n      jumpi\n        /* \"#utility.yul\":2907:2908   */\n      0x00\n        /* \"#utility.yul\":2904:2905   */\n      dup1\n        /* \"#utility.yul\":2897:2909   */\n      revert\n        /* \"#utility.yul\":2848:2911   */\n    tag_234:\n        /* \"#utility.yul\":2795:2917   */\n      pop\n      jump\t// out\n        /* \"#utility.yul\":2923:3062   */\n    tag_161:\n        /* \"#utility.yul\":2969:2974   */\n      0x00\n        /* \"#utility.yul\":3007:3013   */\n      dup2\n        /* \"#utility.yul\":2994:3014   */\n      calldataload\n        /* \"#utility.yul\":2985:3014   */\n      swap1\n      pop\n        /* \"#utility.yul\":3023:3056   */\n      tag_236\n        /* \"#utility.yul\":3050:3055   */\n      dup2\n        /* \"#utility.yul\":3023:3056   */\n      tag_160\n      jump\t// in\n    tag_236:\n        /* \"#utility.yul\":2923:3062   */\n      swap3\n      swap2\n      pop\n      pop\n      jump\t// out\n        /* \"#utility.yul\":3068:3542   */\n    tag_30:\n        /* \"#utility.yul\":3136:3142   */\n      0x00\n        /* \"#utility.yul\":3144:3150   */\n      dup1\n        /* \"#utility.yul\":3193:3195   */\n      0x40\n        /* \"#utility.yul\":3181:3190   */\n      dup4\n        /* \"#utility.yul\":3172:3179   */\n      dup6\n        /* \"#utility.yul\":3168:3191   */\n      sub\n        /* \"#utility.yul\":3164:3196   */\n      slt\n        /* \"#utility.yul\":3161:3280   */\n      iszero\n      tag_238\n      jumpi\n        /* \"#utility.yul\":3199:3278   */\n      tag_239\n      tag_147\n      jump\t// in\n    tag_239:\n        /* \"#utility.yul\":3161:3280   */\n    tag_238:\n        /* \"#utility.yul\":3319:3320   */\n      0x00\n        /* \"#utility.yul\":3344:3397   */\n      tag_240\n        /* \"#utility.yul\":3389:3396   */\n      dup6\n        /* \"#utility.yul\":3380:3386   */\n      dup3\n        /* \"#utility.yul\":3369:3378   */\n      dup7\n        /* \"#utility.yul\":3365:3387   */\n      add\n        /* \"#utility.yul\":3344:3397   */\n      tag_161\n      jump\t// in\n    tag_240:\n        /* \"#utility.yul\":3334:3397   */\n      swap3\n      pop\n        /* \"#utility.yul\":3290:3407   */\n      pop\n        /* \"#utility.yul\":3446:3448   */\n      0x20\n        /* \"#utility.yul\":3472:3525   */\n      tag_241\n        /* \"#utility.yul\":3517:3524   */\n      dup6\n        /* \"#utility.yul\":3508:3514   */\n      dup3\n        /* \"#utility.yul\":3497:3506   */\n      dup7\n        /* \"#utility.yul\":3493:3515   */\n      add\n        /* \"#utility.yul\":3472:3525   */\n      tag_156\n      jump\t// in\n    tag_241:\n        /* \"#utility.yul\":3462:3525   */\n      swap2\n      pop\n        /* \"#utility.yul\":3417:3535   */\n      pop\n        /* \"#utility.yul\":3068:3542   */\n      swap3\n      pop\n      swap3\n      swap1\n      pop\n      jump\t// out\n        /* \"#utility.yul\":3548:4167   */\n    tag_34:\n        /* \"#utility.yul\":3625:3631   */\n      0x00\n        /* \"#utility.yul\":3633:3639   */\n      dup1\n        /* \"#utility.yul\":3641:3647   */\n      0x00\n        /* \"#utility.yul\":3690:3692   */\n      0x60\n        /* \"#utility.yul\":3678:3687   */\n      dup5\n        /* \"#utility.yul\":3669:3676   */\n      dup7\n        /* \"#utility.yul\":3665:3688   */\n      sub\n        /* \"#utility.yul\":3661:3693   */\n      slt\n        /* \"#utility.yul\":3658:3777   */\n      iszero\n      tag_243\n      jumpi\n        /* \"#utility.yul\":3696:3775   */\n      tag_244\n      tag_147\n      jump\t// in\n    tag_244:\n        /* \"#utility.yul\":3658:3777   */\n    tag_243:\n        /* \"#utility.yul\":3816:3817   */\n      0x00\n        /* \"#utility.yul\":3841:3894   */\n      tag_245\n        /* \"#utility.yul\":3886:3893   */\n      dup7\n        /* \"#utility.yul\":3877:3883   */\n      dup3\n        /* \"#utility.yul\":3866:3875   */\n      dup8\n        /* \"#utility.yul\":3862:3884   */\n      add\n        /* \"#utility.yul\":3841:3894   */\n      tag_161\n      jump\t// in\n    tag_245:\n        /* \"#utility.yul\":3831:3894   */\n      swap4\n      pop\n        /* \"#utility.yul\":3787:3904   */\n      pop\n        /* \"#utility.yul\":3943:3945   */\n      0x20\n        /* \"#utility.yul\":3969:4022   */\n      tag_246\n        /* \"#utility.yul\":4014:4021   */\n      dup7\n        /* \"#utility.yul\":4005:4011   */\n      dup3\n        /* \"#utility.yul\":3994:4003   */\n      dup8\n        /* \"#utility.yul\":3990:4012   */\n      add\n        /* \"#utility.yul\":3969:4022   */\n      tag_161\n      jump\t// in\n    tag_246:\n        /* \"#utility.yul\":3959:4022   */\n      swap3\n      pop\n        /* \"#utility.yul\":3914:4032   */\n      pop\n        /* \"#utility.yul\":4071:4073   */\n      0x40\n        /* \"#utility.yul\":4097:4150   */\n      tag_247\n        /* \"#utility.yul\":4142:4149   */\n      dup7\n        /* \"#utility.yul\":4133:4139   */\n      dup3\n        /* \"#utility.yul\":4122:4131   */\n      dup8\n        /* \"#utility.yul\":4118:4140   */\n      add\n        /* \"#utility.yul\":4097:4150   */\n      tag_156\n      jump\t// in\n    tag_247:\n        /* \"#utility.yul\":4087:4150   */\n      swap2\n      pop\n        /* \"#utility.yul\":4042:4160   */\n      pop\n        /* \"#utility.yul\":3548:4167   */\n      swap3\n      pop\n      swap3\n      pop\n      swap3\n      jump\t// out\n        /* \"#utility.yul\":4173:4502   */\n    tag_51:\n        /* \"#utility.yul\":4232:4238   */\n      0x00\n        /* \"#utility.yul\":4281:4283   */\n      0x20\n        /* \"#utility.yul\":4269:4278   */\n      dup3\n        /* \"#utility.yul\":4260:4267   */\n      dup5\n        /* \"#utility.yul\":4256:4279   */\n      sub\n        /* \"#utility.yul\":4252:4284   */\n      slt\n        /* \"#utility.yul\":4249:4368   */\n      iszero\n      tag_249\n      jumpi\n        /* \"#utility.yul\":4287:4366   */\n      tag_250\n      tag_147\n      jump\t// in\n    tag_250:\n        /* \"#utility.yul\":4249:4368   */\n    tag_249:\n        /* \"#utility.yul\":4407:4408   */\n      0x00\n        /* \"#utility.yul\":4432:4485   */\n      tag_251\n        /* \"#utility.yul\":4477:4484   */\n      dup5\n        /* \"#utility.yul\":4468:4474   */\n      dup3\n        /* \"#utility.yul\":4457:4466   */\n      dup6\n        /* \"#utility.yul\":4453:4475   */\n      add\n        /* \"#utility.yul\":4432:4485   */\n      tag_161\n      jump\t// in\n    tag_251:\n        /* \"#utility.yul\":4422:4485   */\n      swap2\n      pop\n        /* \"#utility.yul\":4378:4495   */\n      pop\n        /* \"#utility.yul\":4173:4502   */\n      swap3\n      swap2\n      pop\n      pop\n      jump\t// out\n        /* \"#utility.yul\":4508:4626   */\n    tag_162:\n        /* \"#utility.yul\":4595:4619   */\n      tag_253\n        /* \"#utility.yul\":4613:4618   */\n      dup2\n        /* \"#utility.yul\":4595:4619   */\n      tag_154\n      jump\t// in\n    tag_253:\n        /* \"#utility.yul\":4590:4593   */\n      dup3\n        /* \"#utility.yul\":4583:4620   */\n      mstore\n        /* \"#utility.yul\":4508:4626   */\n      pop\n      pop\n      jump\t// out\n        /* \"#utility.yul\":4632:4854   */\n    tag_54:\n        /* \"#utility.yul\":4725:4729   */\n      0x00\n        /* \"#utility.yul\":4763:4765   */\n      0x20\n        /* \"#utility.yul\":4752:4761   */\n      dup3\n        /* \"#utility.yul\":4748:4766   */\n      add\n        /* \"#utility.yul\":4740:4766   */\n      swap1\n      pop\n        /* \"#utility.yul\":4776:4847   */\n      tag_255\n        /* \"#utility.yul\":4844:4845   */\n      0x00\n        /* \"#utility.yul\":4833:4842   */\n      dup4\n        /* \"#utility.yul\":4829:4846   */\n      add\n        /* \"#utility.yul\":4820:4826   */\n      dup5\n        /* \"#utility.yul\":4776:4847   */\n      tag_162\n      jump\t// in\n    tag_255:\n        /* \"#utility.yul\":4632:4854   */\n      swap3\n      swap2\n      pop\n      pop\n      jump\t// out\n        /* \"#utility.yul\":4860:4976   */\n    tag_163:\n        /* \"#utility.yul\":4930:4951   */\n      tag_257\n        /* \"#utility.yul\":4945:4950   */\n      dup2\n        /* \"#utility.yul\":4930:4951   */\n      tag_152\n      jump\t// in\n    tag_257:\n        /* \"#utility.yul\":4923:4928   */\n      dup2\n        /* \"#utility.yul\":4920:4952   */\n      eq\n        /* \"#utility.yul\":4910:4970   */\n      tag_258\n      jumpi\n        /* \"#utility.yul\":4966:4967   */\n      0x00\n        /* \"#utility.yul\":4963:4964   */\n      dup1\n        /* \"#utility.yul\":4956:4968   */\n      revert\n        /* \"#utility.yul\":4910:4970   */\n    tag_258:\n        /* \"#utility.yul\":4860:4976   */\n      pop\n      jump\t// out\n        /* \"#utility.yul\":4982:5115   */\n    tag_164:\n        /* \"#utility.yul\":5025:5030   */\n      0x00\n        /* \"#utility.yul\":5063:5069   */\n      dup2\n        /* \"#utility.yul\":5050:5070   */\n      calldataload\n        /* \"#utility.yul\":5041:5070   */\n      swap1\n      pop\n        /* \"#utility.yul\":5079:5109   */\n      tag_260\n        /* \"#utility.yul\":5103:5108   */\n      dup2\n        /* \"#utility.yul\":5079:5109   */\n      tag_163\n      jump\t// in\n    tag_260:\n        /* \"#utility.yul\":4982:5115   */\n      swap3\n      swap2\n      pop\n      pop\n      jump\t// out\n        /* \"#utility.yul\":5121:5589   */\n    tag_57:\n        /* \"#utility.yul\":5186:5192   */\n      0x00\n        /* \"#utility.yul\":5194:5200   */\n      dup1\n        /* \"#utility.yul\":5243:5245   */\n      0x40\n        /* \"#utility.yul\":5231:5240   */\n      dup4\n        /* \"#utility.yul\":5222:5229   */\n      dup6\n        /* \"#utility.yul\":5218:5241   */\n      sub\n        /* \"#utility.yul\":5214:5246   */\n      slt\n        /* \"#utility.yul\":5211:5330   */\n      iszero\n      tag_262\n      jumpi\n        /* \"#utility.yul\":5249:5328   */\n      tag_263\n      tag_147\n      jump\t// in\n    tag_263:\n        /* \"#utility.yul\":5211:5330   */\n    tag_262:\n        /* \"#utility.yul\":5369:5370   */\n      0x00\n        /* \"#utility.yul\":5394:5447   */\n      tag_264\n        /* \"#utility.yul\":5439:5446   */\n      dup6\n        /* \"#utility.yul\":5430:5436   */\n      dup3\n        /* \"#utility.yul\":5419:5428   */\n      dup7\n        /* \"#utility.yul\":5415:5437   */\n      add\n        /* \"#utility.yul\":5394:5447   */\n      tag_161\n      jump\t// in\n    tag_264:\n        /* \"#utility.yul\":5384:5447   */\n      swap3\n      pop\n        /* \"#utility.yul\":5340:5457   */\n      pop\n        /* \"#utility.yul\":5496:5498   */\n      0x20\n        /* \"#utility.yul\":5522:5572   */\n      tag_265\n        /* \"#utility.yul\":5564:5571   */\n      dup6\n        /* \"#utility.yul\":5555:5561   */\n      dup3\n        /* \"#utility.yul\":5544:5553   */\n      dup7\n        /* \"#utility.yul\":5540:5562   */\n      add\n        /* \"#utility.yul\":5522:5572   */\n      tag_164\n      jump\t// in\n    tag_265:\n        /* \"#utility.yul\":5512:5572   */\n      swap2\n      pop\n        /* \"#utility.yul\":5467:5582   */\n      pop\n        /* \"#utility.yul\":5121:5589   */\n      swap3\n      pop\n      swap3\n      swap1\n      pop\n      jump\t// out\n        /* \"#utility.yul\":5595:5712   */\n    tag_165:\n        /* \"#utility.yul\":5704:5705   */\n      0x00\n        /* \"#utility.yul\":5701:5702   */\n      dup1\n        /* \"#utility.yul\":5694:5706   */\n      revert\n        /* \"#utility.yul\":5718:5835   */\n    tag_166:\n        /* \"#utility.yul\":5827:5828   */\n      0x00\n        /* \"#utility.yul\":5824:5825   */\n      dup1\n        /* \"#utility.yul\":5817:5829   */\n      revert\n        /* \"#utility.yul\":5841:5958   */\n    tag_167:\n        /* \"#utility.yul\":5950:5951   */\n      0x00\n        /* \"#utility.yul\":5947:5948   */\n      dup1\n        /* \"#utility.yul\":5940:5952   */\n      revert\n        /* \"#utility.yul\":5977:6529   */\n    tag_168:\n        /* \"#utility.yul\":6034:6042   */\n      0x00\n        /* \"#utility.yul\":6044:6050   */\n      dup1\n        /* \"#utility.yul\":6094:6097   */\n      dup4\n        /* \"#utility.yul\":6087:6091   */\n      0x1f\n        /* \"#utility.yul\":6079:6085   */\n      dup5\n        /* \"#utility.yul\":6075:6092   */\n      add\n        /* \"#utility.yul\":6071:6098   */\n      slt\n        /* \"#utility.yul\":6061:6183   */\n      tag_270\n      jumpi\n        /* \"#utility.yul\":6102:6181   */\n      tag_271\n      tag_165\n      jump\t// in\n    tag_271:\n        /* \"#utility.yul\":6061:6183   */\n    tag_270:\n        /* \"#utility.yul\":6215:6221   */\n      dup3\n        /* \"#utility.yul\":6202:6222   */\n      calldataload\n        /* \"#utility.yul\":6192:6222   */\n      swap1\n      pop\n        /* \"#utility.yul\":6245:6263   */\n      0xffffffffffffffff\n        /* \"#utility.yul\":6237:6243   */\n      dup2\n        /* \"#utility.yul\":6234:6264   */\n      gt\n        /* \"#utility.yul\":6231:6348   */\n      iszero\n      tag_272\n      jumpi\n        /* \"#utility.yul\":6267:6346   */\n      tag_273\n      tag_166\n      jump\t// in\n    tag_273:\n        /* \"#utility.yul\":6231:6348   */\n    tag_272:\n        /* \"#utility.yul\":6381:6385   */\n      0x20\n        /* \"#utility.yul\":6373:6379   */\n      dup4\n        /* \"#utility.yul\":6369:6386   */\n      add\n        /* \"#utility.yul\":6357:6386   */\n      swap2\n      pop\n        /* \"#utility.yul\":6435:6438   */\n      dup4\n        /* \"#utility.yul\":6427:6431   */\n      0x01\n        /* \"#utility.yul\":6419:6425   */\n      dup3\n        /* \"#utility.yul\":6415:6432   */\n      mul\n        /* \"#utility.yul\":6405:6413   */\n      dup4\n        /* \"#utility.yul\":6401:6433   */\n      add\n        /* \"#utility.yul\":6398:6439   */\n      gt\n        /* \"#utility.yul\":6395:6523   */\n      iszero\n      tag_274\n      jumpi\n        /* \"#utility.yul\":6442:6521   */\n      tag_275\n      tag_167\n      jump\t// in\n    tag_275:\n        /* \"#utility.yul\":6395:6523   */\n    tag_274:\n        /* \"#utility.yul\":5977:6529   */\n      swap3\n      pop\n      swap3\n      swap1\n      pop\n      jump\t// out\n        /* \"#utility.yul\":6535:7498   */\n    tag_61:\n        /* \"#utility.yul\":6632:6638   */\n      0x00\n        /* \"#utility.yul\":6640:6646   */\n      dup1\n        /* \"#utility.yul\":6648:6654   */\n      0x00\n        /* \"#utility.yul\":6656:6662   */\n      dup1\n        /* \"#utility.yul\":6664:6670   */\n      0x00\n        /* \"#utility.yul\":6713:6716   */\n      0x80\n        /* \"#utility.yul\":6701:6710   */\n      dup7\n        /* \"#utility.yul\":6692:6699   */\n      dup9\n        /* \"#utility.yul\":6688:6711   */\n      sub\n        /* \"#utility.yul\":6684:6717   */\n      slt\n        /* \"#utility.yul\":6681:6801   */\n      iszero\n      tag_277\n      jumpi\n        /* \"#utility.yul\":6720:6799   */\n      tag_278\n      tag_147\n      jump\t// in\n    tag_278:\n        /* \"#utility.yul\":6681:6801   */\n    tag_277:\n        /* \"#utility.yul\":6840:6841   */\n      0x00\n        /* \"#utility.yul\":6865:6918   */\n      tag_279\n        /* \"#utility.yul\":6910:6917   */\n      dup9\n        /* \"#utility.yul\":6901:6907   */\n      dup3\n        /* \"#utility.yul\":6890:6899   */\n      dup10\n        /* \"#utility.yul\":6886:6908   */\n      add\n        /* \"#utility.yul\":6865:6918   */\n      tag_161\n      jump\t// in\n    tag_279:\n        /* \"#utility.yul\":6855:6918   */\n      swap6\n      pop\n        /* \"#utility.yul\":6811:6928   */\n      pop\n        /* \"#utility.yul\":6967:6969   */\n      0x20\n        /* \"#utility.yul\":6993:7046   */\n      tag_280\n        /* \"#utility.yul\":7038:7045   */\n      dup9\n        /* \"#utility.yul\":7029:7035   */\n      dup3\n        /* \"#utility.yul\":7018:7027   */\n      dup10\n        /* \"#utility.yul\":7014:7036   */\n      add\n        /* \"#utility.yul\":6993:7046   */\n      tag_161\n      jump\t// in\n    tag_280:\n        /* \"#utility.yul\":6983:7046   */\n      swap5\n      pop\n        /* \"#utility.yul\":6938:7056   */\n      pop\n        /* \"#utility.yul\":7095:7097   */\n      0x40\n        /* \"#utility.yul\":7121:7174   */\n      tag_281\n        /* \"#utility.yul\":7166:7173   */\n      dup9\n        /* \"#utility.yul\":7157:7163   */\n      dup3\n        /* \"#utility.yul\":7146:7155   */\n      dup10\n        /* \"#utility.yul\":7142:7164   */\n      add\n        /* \"#utility.yul\":7121:7174   */\n      tag_156\n      jump\t// in\n    tag_281:\n        /* \"#utility.yul\":7111:7174   */\n      swap4\n      pop\n        /* \"#utility.yul\":7066:7184   */\n      pop\n        /* \"#utility.yul\":7251:7253   */\n      0x60\n        /* \"#utility.yul\":7240:7249   */\n      dup7\n        /* \"#utility.yul\":7236:7254   */\n      add\n        /* \"#utility.yul\":7223:7255   */\n      calldataload\n        /* \"#utility.yul\":7282:7300   */\n      0xffffffffffffffff\n        /* \"#utility.yul\":7274:7280   */\n      dup2\n        /* \"#utility.yul\":7271:7301   */\n      gt\n        /* \"#utility.yul\":7268:7385   */\n      iszero\n      tag_282\n      jumpi\n        /* \"#utility.yul\":7304:7383   */\n      tag_283\n      tag_148\n      jump\t// in\n    tag_283:\n        /* \"#utility.yul\":7268:7385   */\n    tag_282:\n        /* \"#utility.yul\":7417:7481   */\n      tag_284\n        /* \"#utility.yul\":7473:7480   */\n      dup9\n        /* \"#utility.yul\":7464:7470   */\n      dup3\n        /* \"#utility.yul\":7453:7462   */\n      dup10\n        /* \"#utility.yul\":7449:7471   */\n      add\n        /* \"#utility.yul\":7417:7481   */\n      tag_168\n      jump\t// in\n    tag_284:\n        /* \"#utility.yul\":7399:7481   */\n      swap3\n      pop\n      swap3\n      pop\n        /* \"#utility.yul\":7194:7491   */\n      pop\n        /* \"#utility.yul\":6535:7498   */\n      swap3\n      swap6\n      pop\n      swap3\n      swap6\n      swap1\n      swap4\n      pop\n      jump\t// out\n        /* \"#utility.yul\":7504:7978   */\n    tag_65:\n        /* \"#utility.yul\":7572:7578   */\n      0x00\n        /* \"#utility.yul\":7580:7586   */\n      dup1\n        /* \"#utility.yul\":7629:7631   */\n      0x40\n        /* \"#utility.yul\":7617:7626   */\n      dup4\n        /* \"#utility.yul\":7608:7615   */\n      dup6\n        /* \"#utility.yul\":7604:7627   */\n      sub\n        /* \"#utility.yul\":7600:7632   */\n      slt\n        /* \"#utility.yul\":7597:7716   */\n      iszero\n      tag_286\n      jumpi\n        /* \"#utility.yul\":7635:7714   */\n      tag_287\n      tag_147\n      jump\t// in\n    tag_287:\n        /* \"#utility.yul\":7597:7716   */\n    tag_286:\n        /* \"#utility.yul\":7755:7756   */\n      0x00\n        /* \"#utility.yul\":7780:7833   */\n      tag_288\n        /* \"#utility.yul\":7825:7832   */\n      dup6\n        /* \"#utility.yul\":7816:7822   */\n      dup3\n        /* \"#utility.yul\":7805:7814   */\n      dup7\n        /* \"#utility.yul\":7801:7823   */\n      add\n        /* \"#utility.yul\":7780:7833   */\n      tag_161\n      jump\t// in\n    tag_288:\n        /* \"#utility.yul\":7770:7833   */\n      swap3\n      pop\n        /* \"#utility.yul\":7726:7843   */\n      pop\n        /* \"#utility.yul\":7882:7884   */\n      0x20\n        /* \"#utility.yul\":7908:7961   */\n      tag_289\n        /* \"#utility.yul\":7953:7960   */\n      dup6\n        /* \"#utility.yul\":7944:7950   */\n      dup3\n        /* \"#utility.yul\":7933:7942   */\n      dup7\n        /* \"#utility.yul\":7929:7951   */\n      add\n        /* \"#utility.yul\":7908:7961   */\n      tag_161\n      jump\t// in\n    tag_289:\n        /* \"#utility.yul\":7898:7961   */\n      swap2\n      pop\n        /* \"#utility.yul\":7853:7971   */\n      pop\n        /* \"#utility.yul\":7504:7978   */\n      swap3\n      pop\n      swap3\n      swap1\n      pop\n      jump\t// out\n        /* \"#utility.yul\":7984:8153   */\n    tag_169:\n        /* \"#utility.yul\":8068:8079   */\n      0x00\n        /* \"#utility.yul\":8102:8108   */\n      dup3\n        /* \"#utility.yul\":8097:8100   */\n      dup3\n        /* \"#utility.yul\":8090:8109   */\n      mstore\n        /* \"#utility.yul\":8142:8146   */\n      0x20\n        /* \"#utility.yul\":8137:8140   */\n      dup3\n        /* \"#utility.yul\":8133:8147   */\n      add\n        /* \"#utility.yul\":8118:8147   */\n      swap1\n      pop\n        /* \"#utility.yul\":7984:8153   */\n      swap3\n      swap2\n      pop\n      pop\n      jump\t// out\n        /* \"#utility.yul\":8159:8329   */\n    tag_170:\n        /* \"#utility.yul\":8299:8321   */\n      0x746f6b656e20646f6573206e6f74206578697374000000000000000000000000\n        /* \"#utility.yul\":8295:8296   */\n      0x00\n        /* \"#utility.yul\":8287:8293   */\n      dup3\n        /* \"#utility.yul\":8283:8297   */\n      add\n        /* \"#utility.yul\":8276:8322   */\n      mstore\n        /* \"#utility.yul\":8159:8329   */\n      pop\n      jump\t// out\n        /* \"#utility.yul\":8335:8701   */\n    tag_171:\n        /* \"#utility.yul\":8477:8480   */\n      0x00\n        /* \"#utility.yul\":8498:8565   */\n      tag_293\n        /* \"#utility.yul\":8562:8564   */\n      0x14\n        /* \"#utility.yul\":8557:8560   */\n      dup4\n        /* \"#utility.yul\":8498:8565   */\n      tag_169\n      jump\t// in\n    tag_293:\n        /* \"#utility.yul\":8491:8565   */\n      swap2\n      pop\n        /* \"#utility.yul\":8574:8667   */\n      tag_294\n        /* \"#utility.yul\":8663:8666   */\n      dup3\n        /* \"#utility.yul\":8574:8667   */\n      tag_170\n      jump\t// in\n    tag_294:\n        /* \"#utility.yul\":8692:8694   */\n      0x20\n        /* \"#utility.yul\":8687:8690   */\n      dup3\n        /* \"#utility.yul\":8683:8695   */\n      add\n        /* \"#utility.yul\":8676:8695   */\n      swap1\n      pop\n        /* \"#utility.yul\":8335:8701   */\n      swap2\n      swap1\n      pop\n      jump\t// out\n        /* \"#utility.yul\":8707:9126   */\n    tag_73:\n        /* \"#utility.yul\":8873:8877   */\n      0x00\n        /* \"#utility.yul\":8911:8913   */\n      0x20\n        /* \"#utility.yul\":8900:8909   */\n      dup3\n        /* \"#utility.yul\":8896:8914   */\n      add\n        /* \"#utility.yul\":8888:8914   */\n      swap1\n      pop\n        /* \"#utility.yul\":8960:8969   */\n      dup2\n        /* \"#utility.yul\":8954:8958   */\n      dup2\n        /* \"#utility.yul\":8950:8970   */\n      sub\n        /* \"#utility.yul\":8946:8947   */\n      0x00\n        /* \"#utility.yul\":8935:8944   */\n      dup4\n        /* \"#utility.yul\":8931:8948   */\n      add\n        /* \"#utility.yul\":8924:8971   */\n      mstore\n        /* \"#utility.yul\":8988:9119   */\n      tag_296\n        /* \"#utility.yul\":9114:9118   */\n      dup2\n        /* \"#utility.yul\":8988:9119   */\n      tag_171\n      jump\t// in\n    tag_296:\n        /* \"#utility.yul\":8980:9119   */\n      swap1\n      pop\n        /* \"#utility.yul\":8707:9126   */\n      swap2\n      swap1\n      pop\n      jump\t// out\n        /* \"#utility.yul\":9132:9294   */\n    tag_172:\n        /* \"#utility.yul\":9272:9286   */\n      0x6e6f7420617070726f7665640000000000000000000000000000000000000000\n        /* \"#utility.yul\":9268:9269   */\n      0x00\n        /* \"#utility.yul\":9260:9266   */\n      dup3\n        /* \"#utility.yul\":9256:9270   */\n      add\n        /* \"#utility.yul\":9249:9287   */\n      mstore\n        /* \"#utility.yul\":9132:9294   */\n      pop\n      jump\t// out\n        /* \"#utility.yul\":9300:9666   */\n    tag_173:\n        /* \"#utility.yul\":9442:9445   */\n      0x00\n        /* \"#utility.yul\":9463:9530   */\n      tag_299\n        /* \"#utility.yul\":9527:9529   */\n      0x0c\n        /* \"#utility.yul\":9522:9525   */\n      dup4\n        /* \"#utility.yul\":9463:9530   */\n      tag_169\n      jump\t// in\n    tag_299:\n        /* \"#utility.yul\":9456:9530   */\n      swap2\n      pop\n        /* \"#utility.yul\":9539:9632   */\n      tag_300\n        /* \"#utility.yul\":9628:9631   */\n      dup3\n        /* \"#utility.yul\":9539:9632   */\n      tag_172\n      jump\t// in\n    tag_300:\n        /* \"#utility.yul\":9657:9659   */\n      0x20\n        /* \"#utility.yul\":9652:9655   */\n      dup3\n        /* \"#utility.yul\":9648:9660   */\n      add\n        /* \"#utility.yul\":9641:9660   */\n      swap1\n      pop\n        /* \"#utility.yul\":9300:9666   */\n      swap2\n      swap1\n      pop\n      jump\t// out\n        /* \"#utility.yul\":9672:10091   */\n    tag_78:\n        /* \"#utility.yul\":9838:9842   */\n      0x00\n        /* \"#utility.yul\":9876:9878   */\n      0x20\n        /* \"#utility.yul\":9865:9874   */\n      dup3\n        /* \"#utility.yul\":9861:9879   */\n      add\n        /* \"#utility.yul\":9853:9879   */\n      swap1\n      pop\n        /* \"#utility.yul\":9925:9934   */\n      dup2\n        /* \"#utility.yul\":9919:9923   */\n      dup2\n        /* \"#utility.yul\":9915:9935   */\n      sub\n        /* \"#utility.yul\":9911:9912   */\n      0x00\n        /* \"#utility.yul\":9900:9909   */\n      dup4\n        /* \"#utility.yul\":9896:9913   */\n      add\n        /* \"#utility.yul\":9889:9936   */\n      mstore\n        /* \"#utility.yul\":9953:10084   */\n      tag_302\n        /* \"#utility.yul\":10079:10083   */\n      dup2\n        /* \"#utility.yul\":9953:10084   */\n      tag_173\n      jump\t// in\n    tag_302:\n        /* \"#utility.yul\":9945:10084   */\n      swap1\n      pop\n        /* \"#utility.yul\":9672:10091   */\n      swap2\n      swap1\n      pop\n      jump\t// out\n        /* \"#utility.yul\":10097:10539   */\n    tag_80:\n        /* \"#utility.yul\":10246:10250   */\n      0x00\n        /* \"#utility.yul\":10284:10286   */\n      0x60\n        /* \"#utility.yul\":10273:10282   */\n      dup3\n        /* \"#utility.yul\":10269:10287   */\n      add\n        /* \"#utility.yul\":10261:10287   */\n      swap1\n      pop\n        /* \"#utility.yul\":10297:10368   */\n      tag_304\n        /* \"#utility.yul\":10365:10366   */\n      0x00\n        /* \"#utility.yul\":10354:10363   */\n      dup4\n        /* \"#utility.yul\":10350:10367   */\n      add\n        /* \"#utility.yul\":10341:10347   */\n      dup7\n        /* \"#utility.yul\":10297:10368   */\n      tag_159\n      jump\t// in\n    tag_304:\n        /* \"#utility.yul\":10378:10450   */\n      tag_305\n        /* \"#utility.yul\":10446:10448   */\n      0x20\n        /* \"#utility.yul\":10435:10444   */\n      dup4\n        /* \"#utility.yul\":10431:10449   */\n      add\n        /* \"#utility.yul\":10422:10428   */\n      dup6\n        /* \"#utility.yul\":10378:10450   */\n      tag_159\n      jump\t// in\n    tag_305:\n        /* \"#utility.yul\":10460:10532   */\n      tag_306\n        /* \"#utility.yul\":10528:10530   */\n      0x40\n        /* \"#utility.yul\":10517:10526   */\n      dup4\n        /* \"#utility.yul\":10513:10531   */\n      add\n        /* \"#utility.yul\":10504:10510   */\n      dup5\n        /* \"#utility.yul\":10460:10532   */\n      tag_162\n      jump\t// in\n    tag_306:\n        /* \"#utility.yul\":10097:10539   */\n      swap5\n      swap4\n      pop\n      pop\n      pop\n      pop\n      jump\t// out\n        /* \"#utility.yul\":10545:10704   */\n    tag_174:\n        /* \"#utility.yul\":10685:10696   */\n      0x6e6f74206f776e65720000000000000000000000000000000000000000000000\n        /* \"#utility.yul\":10681:10682   */\n      0x00\n        /* \"#utility.yul\":10673:10679   */\n      dup3\n        /* \"#utility.yul\":10669:10683   */\n      add\n        /* \"#utility.yul\":10662:10697   */\n      mstore\n        /* \"#utility.yul\":10545:10704   */\n      pop\n      jump\t// out\n        /* \"#utility.yul\":10710:11075   */\n    tag_175:\n        /* \"#utility.yul\":10852:10855   */\n      0x00\n        /* \"#utility.yul\":10873:10939   */\n      tag_309\n        /* \"#utility.yul\":10937:10938   */\n      0x09\n        /* \"#utility.yul\":10932:10935   */\n      dup4\n        /* \"#utility.yul\":10873:10939   */\n      tag_169\n      jump\t// in\n    tag_309:\n        /* \"#utility.yul\":10866:10939   */\n      swap2\n      pop\n        /* \"#utility.yul\":10948:11041   */\n      tag_310\n        /* \"#utility.yul\":11037:11040   */\n      dup3\n        /* \"#utility.yul\":10948:11041   */\n      tag_174\n      jump\t// in\n    tag_310:\n        /* \"#utility.yul\":11066:11068   */\n      0x20\n        /* \"#utility.yul\":11061:11064   */\n      dup3\n        /* \"#utility.yul\":11057:11069   */\n      add\n        /* \"#utility.yul\":11050:11069   */\n      swap1\n      pop\n        /* \"#utility.yul\":10710:11075   */\n      swap2\n      swap1\n      pop\n      jump\t// out\n        /* \"#utility.yul\":11081:11500   */\n    tag_84:\n        /* \"#utility.yul\":11247:11251   */\n      0x00\n        /* \"#utility.yul\":11285:11287   */\n      0x20\n        /* \"#utility.yul\":11274:11283   */\n      dup3\n        /* \"#utility.yul\":11270:11288   */\n      add\n        /* \"#utility.yul\":11262:11288   */\n      swap1\n      pop\n        /* \"#utility.yul\":11334:11343   */\n      dup2\n        /* \"#utility.yul\":11328:11332   */\n      dup2\n        /* \"#utility.yul\":11324:11344   */\n      sub\n        /* \"#utility.yul\":11320:11321   */\n      0x00\n        /* \"#utility.yul\":11309:11318   */\n      dup4\n        /* \"#utility.yul\":11305:11322   */\n      add\n        /* \"#utility.yul\":11298:11345   */\n      mstore\n        /* \"#utility.yul\":11362:11493   */\n      tag_312\n        /* \"#utility.yul\":11488:11492   */\n      dup2\n        /* \"#utility.yul\":11362:11493   */\n      tag_175\n      jump\t// in\n    tag_312:\n        /* \"#utility.yul\":11354:11493   */\n      swap1\n      pop\n        /* \"#utility.yul\":11081:11500   */\n      swap2\n      swap1\n      pop\n      jump\t// out\n        /* \"#utility.yul\":11506:11680   */\n    tag_176:\n        /* \"#utility.yul\":11646:11672   */\n      0x746f206973206e6f742061207a65726f20616464726573730000000000000000\n        /* \"#utility.yul\":11642:11643   */\n      0x00\n        /* \"#utility.yul\":11634:11640   */\n      dup3\n        /* \"#utility.yul\":11630:11644   */\n      add\n        /* \"#utility.yul\":11623:11673   */\n      mstore\n        /* \"#utility.yul\":11506:11680   */\n      pop\n      jump\t// out\n        /* \"#utility.yul\":11686:12052   */\n    tag_177:\n        /* \"#utility.yul\":11828:11831   */\n      0x00\n        /* \"#utility.yul\":11849:11916   */\n      tag_315\n        /* \"#utility.yul\":11913:11915   */\n      0x18\n        /* \"#utility.yul\":11908:11911   */\n      dup4\n        /* \"#utility.yul\":11849:11916   */\n      tag_169\n      jump\t// in\n    tag_315:\n        /* \"#utility.yul\":11842:11916   */\n      swap2\n      pop\n        /* \"#utility.yul\":11925:12018   */\n      tag_316\n        /* \"#utility.yul\":12014:12017   */\n      dup3\n        /* \"#utility.yul\":11925:12018   */\n      tag_176\n      jump\t// in\n    tag_316:\n        /* \"#utility.yul\":12043:12045   */\n      0x20\n        /* \"#utility.yul\":12038:12041   */\n      dup3\n        /* \"#utility.yul\":12034:12046   */\n      add\n        /* \"#utility.yul\":12027:12046   */\n      swap1\n      pop\n        /* \"#utility.yul\":11686:12052   */\n      swap2\n      swap1\n      pop\n      jump\t// out\n        /* \"#utility.yul\":12058:12477   */\n    tag_87:\n        /* \"#utility.yul\":12224:12228   */\n      0x00\n        /* \"#utility.yul\":12262:12264   */\n      0x20\n        /* \"#utility.yul\":12251:12260   */\n      dup3\n        /* \"#utility.yul\":12247:12265   */\n      add\n        /* \"#utility.yul\":12239:12265   */\n      swap1\n      pop\n        /* \"#utility.yul\":12311:12320   */\n      dup2\n        /* \"#utility.yul\":12305:12309   */\n      dup2\n        /* \"#utility.yul\":12301:12321   */\n      sub\n        /* \"#utility.yul\":12297:12298   */\n      0x00\n        /* \"#utility.yul\":12286:12295   */\n      dup4\n        /* \"#utility.yul\":12282:12299   */\n      add\n        /* \"#utility.yul\":12275:12322   */\n      mstore\n        /* \"#utility.yul\":12339:12470   */\n      tag_318\n        /* \"#utility.yul\":12465:12469   */\n      dup2\n        /* \"#utility.yul\":12339:12470   */\n      tag_177\n      jump\t// in\n    tag_318:\n        /* \"#utility.yul\":12331:12470   */\n      swap1\n      pop\n        /* \"#utility.yul\":12058:12477   */\n      swap2\n      swap1\n      pop\n      jump\t// out\n        /* \"#utility.yul\":12483:12647   */\n    tag_178:\n        /* \"#utility.yul\":12623:12639   */\n      0x6e6f7420617574686f72697a6564000000000000000000000000000000000000\n        /* \"#utility.yul\":12619:12620   */\n      0x00\n        /* \"#utility.yul\":12611:12617   */\n      dup3\n        /* \"#utility.yul\":12607:12621   */\n      add\n        /* \"#utility.yul\":12600:12640   */\n      mstore\n        /* \"#utility.yul\":12483:12647   */\n      pop\n      jump\t// out\n        /* \"#utility.yul\":12653:13019   */\n    tag_179:\n        /* \"#utility.yul\":12795:12798   */\n      0x00\n        /* \"#utility.yul\":12816:12883   */\n      tag_321\n        /* \"#utility.yul\":12880:12882   */\n      0x0e\n        /* \"#utility.yul\":12875:12878   */\n      dup4\n        /* \"#utility.yul\":12816:12883   */\n      tag_169\n      jump\t// in\n    tag_321:\n        /* \"#utility.yul\":12809:12883   */\n      swap2\n      pop\n        /* \"#utility.yul\":12892:12985   */\n      tag_322\n        /* \"#utility.yul\":12981:12984   */\n      dup3\n        /* \"#utility.yul\":12892:12985   */\n      tag_178\n      jump\t// in\n    tag_322:\n        /* \"#utility.yul\":13010:13012   */\n      0x20\n        /* \"#utility.yul\":13005:13008   */\n      dup3\n        /* \"#utility.yul\":13001:13013   */\n      add\n        /* \"#utility.yul\":12994:13013   */\n      swap1\n      pop\n        /* \"#utility.yul\":12653:13019   */\n      swap2\n      swap1\n      pop\n      jump\t// out\n        /* \"#utility.yul\":13025:13444   */\n    tag_90:\n        /* \"#utility.yul\":13191:13195   */\n      0x00\n        /* \"#utility.yul\":13229:13231   */\n      0x20\n        /* \"#utility.yul\":13218:13227   */\n      dup3\n        /* \"#utility.yul\":13214:13232   */\n      add\n        /* \"#utility.yul\":13206:13232   */\n      swap1\n      pop\n        /* \"#utility.yul\":13278:13287   */\n      dup2\n        /* \"#utility.yul\":13272:13276   */\n      dup2\n        /* \"#utility.yul\":13268:13288   */\n      sub\n        /* \"#utility.yul\":13264:13265   */\n      0x00\n        /* \"#utility.yul\":13253:13262   */\n      dup4\n        /* \"#utility.yul\":13249:13266   */\n      add\n        /* \"#utility.yul\":13242:13289   */\n      mstore\n        /* \"#utility.yul\":13306:13437   */\n      tag_324\n        /* \"#utility.yul\":13432:13436   */\n      dup2\n        /* \"#utility.yul\":13306:13437   */\n      tag_179\n      jump\t// in\n    tag_324:\n        /* \"#utility.yul\":13298:13437   */\n      swap1\n      pop\n        /* \"#utility.yul\":13025:13444   */\n      swap2\n      swap1\n      pop\n      jump\t// out\n        /* \"#utility.yul\":13450:13630   */\n    tag_180:\n        /* \"#utility.yul\":13498:13575   */\n      0x4e487b7100000000000000000000000000000000000000000000000000000000\n        /* \"#utility.yul\":13495:13496   */\n      0x00\n        /* \"#utility.yul\":13488:13576   */\n      mstore\n        /* \"#utility.yul\":13595:13599   */\n      0x11\n        /* \"#utility.yul\":13592:13593   */\n      0x04\n        /* \"#utility.yul\":13585:13600   */\n      mstore\n        /* \"#utility.yul\":13619:13623   */\n      0x24\n        /* \"#utility.yul\":13616:13617   */\n      0x00\n        /* \"#utility.yul\":13609:13624   */\n      revert\n        /* \"#utility.yul\":13636:13807   */\n    tag_92:\n        /* \"#utility.yul\":13675:13678   */\n      0x00\n        /* \"#utility.yul\":13698:13722   */\n      tag_327\n        /* \"#utility.yul\":13716:13721   */\n      dup3\n        /* \"#utility.yul\":13698:13722   */\n      tag_154\n      jump\t// in\n    tag_327:\n        /* \"#utility.yul\":13689:13722   */\n      swap2\n      pop\n        /* \"#utility.yul\":13744:13748   */\n      0x00\n        /* \"#utility.yul\":13737:13742   */\n      dup3\n        /* \"#utility.yul\":13734:13749   */\n      sub\n        /* \"#utility.yul\":13731:13772   */\n      tag_328\n      jumpi\n        /* \"#utility.yul\":13752:13770   */\n      tag_329\n      tag_180\n      jump\t// in\n    tag_329:\n        /* \"#utility.yul\":13731:13772   */\n    tag_328:\n        /* \"#utility.yul\":13799:13800   */\n      0x01\n        /* \"#utility.yul\":13792:13797   */\n      dup3\n        /* \"#utility.yul\":13788:13801   */\n      sub\n        /* \"#utility.yul\":13781:13801   */\n      swap1\n      pop\n        /* \"#utility.yul\":13636:13807   */\n      swap2\n      swap1\n      pop\n      jump\t// out\n        /* \"#utility.yul\":13813:14046   */\n    tag_94:\n        /* \"#utility.yul\":13852:13855   */\n      0x00\n        /* \"#utility.yul\":13875:13899   */\n      tag_331\n        /* \"#utility.yul\":13893:13898   */\n      dup3\n        /* \"#utility.yul\":13875:13899   */\n      tag_154\n      jump\t// in\n    tag_331:\n        /* \"#utility.yul\":13866:13899   */\n      swap2\n      pop\n        /* \"#utility.yul\":13921:13987   */\n      0xffffffffffffffffffffffffffffffffffffffffffffffffffffffffffffffff\n        /* \"#utility.yul\":13914:13919   */\n      dup3\n        /* \"#utility.yul\":13911:13988   */\n      sub\n        /* \"#utility.yul\":13908:14011   */\n      tag_332\n      jumpi\n        /* \"#utility.yul\":13991:14009   */\n      tag_333\n      tag_180\n      jump\t// in\n    tag_333:\n        /* \"#utility.yul\":13908:14011   */\n    tag_332:\n        /* \"#utility.yul\":14038:14039   */\n      0x01\n        /* \"#utility.yul\":14031:14036   */\n      dup3\n        /* \"#utility.yul\":14027:14040   */\n      add\n        /* \"#utility.yul\":14020:14040   */\n      swap1\n      pop\n        /* \"#utility.yul\":13813:14046   */\n      swap2\n      swap1\n      pop\n      jump\t// out\n        /* \"#utility.yul\":14052:14220   */\n    tag_181:\n        /* \"#utility.yul\":14135:14146   */\n      0x00\n        /* \"#utility.yul\":14169:14175   */\n      dup3\n        /* \"#utility.yul\":14164:14167   */\n      dup3\n        /* \"#utility.yul\":14157:14176   */\n      mstore\n        /* \"#utility.yul\":14209:14213   */\n      0x20\n        /* \"#utility.yul\":14204:14207   */\n      dup3\n        /* \"#utility.yul\":14200:14214   */\n      add\n        /* \"#utility.yul\":14185:14214   */\n      swap1\n      pop\n        /* \"#utility.yul\":14052:14220   */\n      swap3\n      swap2\n      pop\n      pop\n      jump\t// out\n        /* \"#utility.yul\":14226:14340   */\n    tag_182:\n      pop\n      jump\t// out\n        /* \"#utility.yul\":14346:14708   */\n    tag_183:\n        /* \"#utility.yul\":14487:14490   */\n      0x00\n        /* \"#utility.yul\":14508:14573   */\n      tag_337\n        /* \"#utility.yul\":14571:14572   */\n      0x00\n        /* \"#utility.yul\":14566:14569   */\n      dup4\n        /* \"#utility.yul\":14508:14573   */\n      tag_181\n      jump\t// in\n    tag_337:\n        /* \"#utility.yul\":14501:14573   */\n      swap2\n      pop\n        /* \"#utility.yul\":14582:14675   */\n      tag_338\n        /* \"#utility.yul\":14671:14674   */\n      dup3\n        /* \"#utility.yul\":14582:14675   */\n      tag_182\n      jump\t// in\n    tag_338:\n        /* \"#utility.yul\":14700:14701   */\n      0x00\n        /* \"#utility.yul\":14695:14698   */\n      dup3\n        /* \"#utility.yul\":14691:14702   */\n      add\n        /* \"#utility.yul\":14684:14702   */\n      swap1\n      pop\n        /* \"#utility.yul\":14346:14708   */\n      swap2\n      swap1\n      pop\n      jump\t// out\n        /* \"#utility.yul\":14714:15462   */\n    tag_103:\n        /* \"#utility.yul\":14963:14967   */\n      0x00\n        /* \"#utility.yul\":15001:15004   */\n      0x80\n        /* \"#utility.yul\":14990:14999   */\n      dup3\n        /* \"#utility.yul\":14986:15005   */\n      add\n        /* \"#utility.yul\":14978:15005   */\n      swap1\n      pop\n        /* \"#utility.yul\":15015:15086   */\n      tag_340\n        /* \"#utility.yul\":15083:15084   */\n      0x00\n        /* \"#utility.yul\":15072:15081   */\n      dup4\n        /* \"#utility.yul\":15068:15085   */\n      add\n        /* \"#utility.yul\":15059:15065   */\n      dup7\n        /* \"#utility.yul\":15015:15086   */\n      tag_159\n      jump\t// in\n    tag_340:\n        /* \"#utility.yul\":15096:15168   */\n      tag_341\n        /* \"#utility.yul\":15164:15166   */\n      0x20\n        /* \"#utility.yul\":15153:15162   */\n      dup4\n        /* \"#utility.yul\":15149:15167   */\n      add\n        /* \"#utility.yul\":15140:15146   */\n      dup6\n        /* \"#utility.yul\":15096:15168   */\n      tag_159\n      jump\t// in\n    tag_341:\n        /* \"#utility.yul\":15178:15250   */\n      tag_342\n        /* \"#utility.yul\":15246:15248   */\n      0x40\n        /* \"#utility.yul\":15235:15244   */\n      dup4\n        /* \"#utility.yul\":15231:15249   */\n      add\n        /* \"#utility.yul\":15222:15228   */\n      dup5\n        /* \"#utility.yul\":15178:15250   */\n      tag_162\n      jump\t// in\n    tag_342:\n        /* \"#utility.yul\":15297:15306   */\n      dup2\n        /* \"#utility.yul\":15291:15295   */\n      dup2\n        /* \"#utility.yul\":15287:15307   */\n      sub\n        /* \"#utility.yul\":15282:15284   */\n      0x60\n        /* \"#utility.yul\":15271:15280   */\n      dup4\n        /* \"#utility.yul\":15267:15285   */\n      add\n        /* \"#utility.yul\":15260:15308   */\n      mstore\n        /* \"#utility.yul\":15325:15455   */\n      tag_343\n        /* \"#utility.yul\":15450:15454   */\n      dup2\n        /* \"#utility.yul\":15325:15455   */\n      tag_183\n      jump\t// in\n    tag_343:\n        /* \"#utility.yul\":15317:15455   */\n      swap1\n      pop\n        /* \"#utility.yul\":14714:15462   */\n      swap5\n      swap4\n      pop\n      pop\n      pop\n      pop\n      jump\t// out\n        /* \"#utility.yul\":15468:15609   */\n    tag_184:\n        /* \"#utility.yul\":15524:15529   */\n      0x00\n        /* \"#utility.yul\":15555:15561   */\n      dup2\n        /* \"#utility.yul\":15549:15562   */\n      mload\n        /* \"#utility.yul\":15540:15562   */\n      swap1\n      pop\n        /* \"#utility.yul\":15571:15603   */\n      tag_345\n        /* \"#utility.yul\":15597:15602   */\n      dup2\n        /* \"#utility.yul\":15571:15603   */\n      tag_150\n      jump\t// in\n    tag_345:\n        /* \"#utility.yul\":15468:15609   */\n      swap3\n      swap2\n      pop\n      pop\n      jump\t// out\n        /* \"#utility.yul\":15615:15964   */\n    tag_107:\n        /* \"#utility.yul\":15684:15690   */\n      0x00\n        /* \"#utility.yul\":15733:15735   */\n      0x20\n        /* \"#utility.yul\":15721:15730   */\n      dup3\n        /* \"#utility.yul\":15712:15719   */\n      dup5\n        /* \"#utility.yul\":15708:15731   */\n      sub\n        /* \"#utility.yul\":15704:15736   */\n      slt\n        /* \"#utility.yul\":15701:15820   */\n      iszero\n      tag_347\n      jumpi\n        /* \"#utility.yul\":15739:15818   */\n      tag_348\n      tag_147\n      jump\t// in\n    tag_348:\n        /* \"#utility.yul\":15701:15820   */\n    tag_347:\n        /* \"#utility.yul\":15859:15860   */\n      0x00\n        /* \"#utility.yul\":15884:15947   */\n      tag_349\n        /* \"#utility.yul\":15939:15946   */\n      dup5\n        /* \"#utility.yul\":15930:15936   */\n      dup3\n        /* \"#utility.yul\":15919:15928   */\n      dup6\n        /* \"#utility.yul\":15915:15937   */\n      add\n        /* \"#utility.yul\":15884:15947   */\n      tag_184\n      jump\t// in\n    tag_349:\n        /* \"#utility.yul\":15874:15947   */\n      swap2\n      pop\n        /* \"#utility.yul\":15830:15957   */\n      pop\n        /* \"#utility.yul\":15615:15964   */\n      swap3\n      swap2\n      pop\n      pop\n      jump\t// out\n        /* \"#utility.yul\":15970:16136   */\n    tag_185:\n        /* \"#utility.yul\":16110:16128   */\n      0x756e7361666520726563697069656e7400000000000000000000000000000000\n        /* \"#utility.yul\":16106:16107   */\n      0x00\n        /* \"#utility.yul\":16098:16104   */\n      dup3\n        /* \"#utility.yul\":16094:16108   */\n      add\n        /* \"#utility.yul\":16087:16129   */\n      mstore\n        /* \"#utility.yul\":15970:16136   */\n      pop\n      jump\t// out\n        /* \"#utility.yul\":16142:16508   */\n    tag_186:\n        /* \"#utility.yul\":16284:16287   */\n      0x00\n        /* \"#utility.yul\":16305:16372   */\n      tag_352\n        /* \"#utility.yul\":16369:16371   */\n      0x10\n        /* \"#utility.yul\":16364:16367   */\n      dup4\n        /* \"#utility.yul\":16305:16372   */\n      tag_169\n      jump\t// in\n    tag_352:\n        /* \"#utility.yul\":16298:16372   */\n      swap2\n      pop\n        /* \"#utility.yul\":16381:16474   */\n      tag_353\n        /* \"#utility.yul\":16470:16473   */\n      dup3\n        /* \"#utility.yul\":16381:16474   */\n      tag_185\n      jump\t// in\n    tag_353:\n        /* \"#utility.yul\":16499:16501   */\n      0x20\n        /* \"#utility.yul\":16494:16497   */\n      dup3\n        /* \"#utility.yul\":16490:16502   */\n      add\n        /* \"#utility.yul\":16483:16502   */\n      swap1\n      pop\n        /* \"#utility.yul\":16142:16508   */\n      swap2\n      swap1\n      pop\n      jump\t// out\n        /* \"#utility.yul\":16514:16933   */\n    tag_110:\n        /* \"#utility.yul\":16680:16684   */\n      0x00\n        /* \"#utility.yul\":16718:16720   */\n      0x20\n        /* \"#utility.yul\":16707:16716   */\n      dup3\n        /* \"#utility.yul\":16703:16721   */\n      add\n        /* \"#utility.yul\":16695:16721   */\n      swap1\n      pop\n        /* \"#utility.yul\":16767:16776   */\n      dup2\n        /* \"#utility.yul\":16761:16765   */\n      dup2\n        /* \"#utility.yul\":16757:16777   */\n      sub\n        /* \"#utility.yul\":16753:16754   */\n      0x00\n        /* \"#utility.yul\":16742:16751   */\n      dup4\n        /* \"#utility.yul\":16738:16755   */\n      add\n        /* \"#utility.yul\":16731:16778   */\n      mstore\n        /* \"#utility.yul\":16795:16926   */\n      tag_355\n        /* \"#utility.yul\":16921:16925   */\n      dup2\n        /* \"#utility.yul\":16795:16926   */\n      tag_186\n      jump\t// in\n    tag_355:\n        /* \"#utility.yul\":16787:16926   */\n      swap1\n      pop\n        /* \"#utility.yul\":16514:16933   */\n      swap2\n      swap1\n      pop\n      jump\t// out\n        /* \"#utility.yul\":16939:17087   */\n    tag_187:\n        /* \"#utility.yul\":17037:17043   */\n      dup3\n        /* \"#utility.yul\":17032:17035   */\n      dup2\n        /* \"#utility.yul\":17027:17030   */\n      dup4\n        /* \"#utility.yul\":17014:17044   */\n      calldatacopy\n        /* \"#utility.yul\":17078:17079   */\n      0x00\n        /* \"#utility.yul\":17069:17075   */\n      dup4\n        /* \"#utility.yul\":17064:17067   */\n      dup4\n        /* \"#utility.yul\":17060:17076   */\n      add\n        /* \"#utility.yul\":17053:17080   */\n      mstore\n        /* \"#utility.yul\":16939:17087   */\n      pop\n      pop\n      pop\n      jump\t// out\n        /* \"#utility.yul\":17093:17195   */\n    tag_188:\n        /* \"#utility.yul\":17134:17140   */\n      0x00\n        /* \"#utility.yul\":17185:17187   */\n      0x1f\n        /* \"#utility.yul\":17181:17188   */\n      not\n        /* \"#utility.yul\":17176:17178   */\n      0x1f\n        /* \"#utility.yul\":17169:17174   */\n      dup4\n        /* \"#utility.yul\":17165:17179   */\n      add\n        /* \"#utility.yul\":17161:17189   */\n      and\n        /* \"#utility.yul\":17151:17189   */\n      swap1\n      pop\n        /* \"#utility.yul\":17093:17195   */\n      swap2\n      swap1\n      pop\n      jump\t// out\n        /* \"#utility.yul\":17223:17537   */\n    tag_189:\n        /* \"#utility.yul\":17319:17322   */\n      0x00\n        /* \"#utility.yul\":17340:17410   */\n      tag_359\n        /* \"#utility.yul\":17403:17409   */\n      dup4\n        /* \"#utility.yul\":17398:17401   */\n      dup6\n        /* \"#utility.yul\":17340:17410   */\n      tag_181\n      jump\t// in\n    tag_359:\n        /* \"#utility.yul\":17333:17410   */\n      swap4\n      pop\n        /* \"#utility.yul\":17420:17476   */\n      tag_360\n        /* \"#utility.yul\":17469:17475   */\n      dup4\n        /* \"#utility.yul\":17464:17467   */\n      dup6\n        /* \"#utility.yul\":17457:17462   */\n      dup5\n        /* \"#utility.yul\":17420:17476   */\n      tag_187\n      jump\t// in\n    tag_360:\n        /* \"#utility.yul\":17501:17530   */\n      tag_361\n        /* \"#utility.yul\":17523:17529   */\n      dup4\n        /* \"#utility.yul\":17501:17530   */\n      tag_188\n      jump\t// in\n    tag_361:\n        /* \"#utility.yul\":17496:17499   */\n      dup5\n        /* \"#utility.yul\":17492:17531   */\n      add\n        /* \"#utility.yul\":17485:17531   */\n      swap1\n      pop\n        /* \"#utility.yul\":17223:17537   */\n      swap4\n      swap3\n      pop\n      pop\n      pop\n      jump\t// out\n        /* \"#utility.yul\":17543:18203   */\n    tag_124:\n        /* \"#utility.yul\":17748:17752   */\n      0x00\n        /* \"#utility.yul\":17786:17789   */\n      0x80\n        /* \"#utility.yul\":17775:17784   */\n      dup3\n        /* \"#utility.yul\":17771:17790   */\n      add\n        /* \"#utility.yul\":17763:17790   */\n      swap1\n      pop\n        /* \"#utility.yul\":17800:17871   */\n      tag_363\n        /* \"#utility.yul\":17868:17869   */\n      0x00\n        /* \"#utility.yul\":17857:17866   */\n      dup4\n        /* \"#utility.yul\":17853:17870   */\n      add\n        /* \"#utility.yul\":17844:17850   */\n      dup9\n        /* \"#utility.yul\":17800:17871   */\n      tag_159\n      jump\t// in\n    tag_363:\n        /* \"#utility.yul\":17881:17953   */\n      tag_364\n        /* \"#utility.yul\":17949:17951   */\n      0x20\n        /* \"#utility.yul\":17938:17947   */\n      dup4\n        /* \"#utility.yul\":17934:17952   */\n      add\n        /* \"#utility.yul\":17925:17931   */\n      dup8\n        /* \"#utility.yul\":17881:17953   */\n      tag_159\n      jump\t// in\n    tag_364:\n        /* \"#utility.yul\":17963:18035   */\n      tag_365\n        /* \"#utility.yul\":18031:18033   */\n      0x40\n        /* \"#utility.yul\":18020:18029   */\n      dup4\n        /* \"#utility.yul\":18016:18034   */\n      add\n        /* \"#utility.yul\":18007:18013   */\n      dup7\n        /* \"#utility.yul\":17963:18035   */\n      tag_162\n      jump\t// in\n    tag_365:\n        /* \"#utility.yul\":18082:18091   */\n      dup2\n        /* \"#utility.yul\":18076:18080   */\n      dup2\n        /* \"#utility.yul\":18072:18092   */\n      sub\n        /* \"#utility.yul\":18067:18069   */\n      0x60\n        /* \"#utility.yul\":18056:18065   */\n      dup4\n        /* \"#utility.yul\":18052:18070   */\n      add\n        /* \"#utility.yul\":18045:18093   */\n      mstore\n        /* \"#utility.yul\":18110:18196   */\n      tag_366\n        /* \"#utility.yul\":18191:18195   */\n      dup2\n        /* \"#utility.yul\":18182:18188   */\n      dup5\n        /* \"#utility.yul\":18174:18180   */\n      dup7\n        /* \"#utility.yul\":18110:18196   */\n      tag_189\n      jump\t// in\n    tag_366:\n        /* \"#utility.yul\":18102:18196   */\n      swap1\n      pop\n        /* \"#utility.yul\":17543:18203   */\n      swap7\n      swap6\n      pop\n      pop\n      pop\n      pop\n      pop\n      pop\n      jump\t// out\n        /* \"#utility.yul\":18209:18379   */\n    tag_190:\n        /* \"#utility.yul\":18349:18371   */\n      0x6d696e7420746f207a65726f2061646472657373000000000000000000000000\n        /* \"#utility.yul\":18345:18346   */\n      0x00\n        /* \"#utility.yul\":18337:18343   */\n      dup3\n        /* \"#utility.yul\":18333:18347   */\n      add\n        /* \"#utility.yul\":18326:18372   */\n      mstore\n        /* \"#utility.yul\":18209:18379   */\n      pop\n      jump\t// out\n        /* \"#utility.yul\":18385:18751   */\n    tag_191:\n        /* \"#utility.yul\":18527:18530   */\n      0x00\n        /* \"#utility.yul\":18548:18615   */\n      tag_369\n        /* \"#utility.yul\":18612:18614   */\n      0x14\n        /* \"#utility.yul\":18607:18610   */\n      dup4\n        /* \"#utility.yul\":18548:18615   */\n      tag_169\n      jump\t// in\n    tag_369:\n        /* \"#utility.yul\":18541:18615   */\n      swap2\n      pop\n        /* \"#utility.yul\":18624:18717   */\n      tag_370\n        /* \"#utility.yul\":18713:18716   */\n      dup3\n        /* \"#utility.yul\":18624:18717   */\n      tag_190\n      jump\t// in\n    tag_370:\n        /* \"#utility.yul\":18742:18744   */\n      0x20\n        /* \"#utility.yul\":18737:18740   */\n      dup3\n        /* \"#utility.yul\":18733:18745   */\n      add\n        /* \"#utility.yul\":18726:18745   */\n      swap1\n      pop\n        /* \"#utility.yul\":18385:18751   */\n      swap2\n      swap1\n      pop\n      jump\t// out\n        /* \"#utility.yul\":18757:19176   */\n    tag_133:\n        /* \"#utility.yul\":18923:18927   */\n      0x00\n        /* \"#utility.yul\":18961:18963   */\n      0x20\n        /* \"#utility.yul\":18950:18959   */\n      dup3\n        /* \"#utility.yul\":18946:18964   */\n      add\n        /* \"#utility.yul\":18938:18964   */\n      swap1\n      pop\n        /* \"#utility.yul\":19010:19019   */\n      dup2\n        /* \"#utility.yul\":19004:19008   */\n      dup2\n        /* \"#utility.yul\":19000:19020   */\n      sub\n        /* \"#utility.yul\":18996:18997   */\n      0x00\n        /* \"#utility.yul\":18985:18994   */\n      dup4\n        /* \"#utility.yul\":18981:18998   */\n      add\n        /* \"#utility.yul\":18974:19021   */\n      mstore\n        /* \"#utility.yul\":19038:19169   */\n      tag_372\n        /* \"#utility.yul\":19164:19168   */\n      dup2\n        /* \"#utility.yul\":19038:19169   */\n      tag_191\n      jump\t// in\n    tag_372:\n        /* \"#utility.yul\":19030:19169   */\n      swap1\n      pop\n        /* \"#utility.yul\":18757:19176   */\n      swap2\n      swap1\n      pop\n      jump\t// out\n        /* \"#utility.yul\":19182:19346   */\n    tag_192:\n        /* \"#utility.yul\":19322:19338   */\n      0x616c7265616479206d696e746564000000000000000000000000000000000000\n        /* \"#utility.yul\":19318:19319   */\n      0x00\n        /* \"#utility.yul\":19310:19316   */\n      dup3\n        /* \"#utility.yul\":19306:19320   */\n      add\n        /* \"#utility.yul\":19299:19339   */\n      mstore\n        /* \"#utility.yul\":19182:19346   */\n      pop\n      jump\t// out\n        /* \"#utility.yul\":19352:19718   */\n    tag_193:\n        /* \"#utility.yul\":19494:19497   */\n      0x00\n        /* \"#utility.yul\":19515:19582   */\n      tag_375\n        /* \"#utility.yul\":19579:19581   */\n      0x0e\n        /* \"#utility.yul\":19574:19577   */\n      dup4\n        /* \"#utility.yul\":19515:19582   */\n      tag_169\n      jump\t// in\n    tag_375:\n        /* \"#utility.yul\":19508:19582   */\n      swap2\n      pop\n        /* \"#utility.yul\":19591:19684   */\n      tag_376\n        /* \"#utility.yul\":19680:19683   */\n      dup3\n        /* \"#utility.yul\":19591:19684   */\n      tag_192\n      jump\t// in\n    tag_376:\n        /* \"#utility.yul\":19709:19711   */\n      0x20\n        /* \"#utility.yul\":19704:19707   */\n      dup3\n        /* \"#utility.yul\":19700:19712   */\n      add\n        /* \"#utility.yul\":19693:19712   */\n      swap1\n      pop\n        /* \"#utility.yul\":19352:19718   */\n      swap2\n      swap1\n      pop\n      jump\t// out\n        /* \"#utility.yul\":19724:20143   */\n    tag_136:\n        /* \"#utility.yul\":19890:19894   */\n      0x00\n        /* \"#utility.yul\":19928:19930   */\n      0x20\n        /* \"#utility.yul\":19917:19926   */\n      dup3\n        /* \"#utility.yul\":19913:19931   */\n      add\n        /* \"#utility.yul\":19905:19931   */\n      swap1\n      pop\n        /* \"#utility.yul\":19977:19986   */\n      dup2\n        /* \"#utility.yul\":19971:19975   */\n      dup2\n        /* \"#utility.yul\":19967:19987   */\n      sub\n        /* \"#utility.yul\":19963:19964   */\n      0x00\n        /* \"#utility.yul\":19952:19961   */\n      dup4\n        /* \"#utility.yul\":19948:19965   */\n      add\n        /* \"#utility.yul\":19941:19988   */\n      mstore\n        /* \"#utility.yul\":20005:20136   */\n      tag_378\n        /* \"#utility.yul\":20131:20135   */\n      dup2\n        /* \"#utility.yul\":20005:20136   */\n      tag_193\n      jump\t// in\n    tag_378:\n        /* \"#utility.yul\":19997:20136   */\n      swap1\n      pop\n        /* \"#utility.yul\":19724:20143   */\n      swap2\n      swap1\n      pop\n      jump\t// out\n        /* \"#utility.yul\":20149:20309   */\n    tag_194:\n        /* \"#utility.yul\":20289:20301   */\n      0x6e6f74206d696e74656400000000000000000000000000000000000000000000\n        /* \"#utility.yul\":20285:20286   */\n      0x00\n        /* \"#utility.yul\":20277:20283   */\n      dup3\n        /* \"#utility.yul\":20273:20287   */\n      add\n        /* \"#utility.yul\":20266:20302   */\n      mstore\n        /* \"#utility.yul\":20149:20309   */\n      pop\n      jump\t// out\n        /* \"#utility.yul\":20315:20681   */\n    tag_195:\n        /* \"#utility.yul\":20457:20460   */\n      0x00\n        /* \"#utility.yul\":20478:20545   */\n      tag_381\n        /* \"#utility.yul\":20542:20544   */\n      0x0a\n        /* \"#utility.yul\":20537:20540   */\n      dup4\n        /* \"#utility.yul\":20478:20545   */\n      tag_169\n      jump\t// in\n    tag_381:\n        /* \"#utility.yul\":20471:20545   */\n      swap2\n      pop\n        /* \"#utility.yul\":20554:20647   */\n      tag_382\n        /* \"#utility.yul\":20643:20646   */\n      dup3\n        /* \"#utility.yul\":20554:20647   */\n      tag_194\n      jump\t// in\n    tag_382:\n        /* \"#utility.yul\":20672:20674   */\n      0x20\n        /* \"#utility.yul\":20667:20670   */\n      dup3\n        /* \"#utility.yul\":20663:20675   */\n      add\n        /* \"#utility.yul\":20656:20675   */\n      swap1\n      pop\n        /* \"#utility.yul\":20315:20681   */\n      swap2\n      swap1\n      pop\n      jump\t// out\n        /* \"#utility.yul\":20687:21106   */\n    tag_142:\n        /* \"#utility.yul\":20853:20857   */\n      0x00\n        /* \"#utility.yul\":20891:20893   */\n      0x20\n        /* \"#utility.yul\":20880:20889   */\n      dup3\n        /* \"#utility.yul\":20876:20894   */\n      add\n        /* \"#utility.yul\":20868:20894   */\n      swap1\n      pop\n        /* \"#utility.yul\":20940:20949   */\n      dup2\n        /* \"#utility.yul\":20934:20938   */\n      dup2\n        /* \"#utility.yul\":20930:20950   */\n      sub\n        /* \"#utility.yul\":20926:20927   */\n      0x00\n        /* \"#utility.yul\":20915:20924   */\n      dup4\n        /* \"#utility.yul\":20911:20928   */\n      add\n        /* \"#utility.yul\":20904:20951   */\n      mstore\n        /* \"#utility.yul\":20968:21099   */\n      tag_384\n        /* \"#utility.yul\":21094:21098   */\n      dup2\n        /* \"#utility.yul\":20968:21099   */\n      tag_195\n      jump\t// in\n    tag_384:\n        /* \"#utility.yul\":20960:21099   */\n      swap1\n      pop\n        /* \"#utility.yul\":20687:21106   */\n      swap2\n      swap1\n      pop\n      jump\t// out\n        /* \"#utility.yul\":21112:21306   */\n    tag_144:\n        /* \"#utility.yul\":21152:21156   */\n      0x00\n        /* \"#utility.yul\":21172:21192   */\n      tag_386\n        /* \"#utility.yul\":21190:21191   */\n      dup3\n        /* \"#utility.yul\":21172:21192   */\n      tag_154\n      jump\t// in\n    tag_386:\n        /* \"#utility.yul\":21167:21192   */\n      swap2\n      pop\n        /* \"#utility.yul\":21206:21226   */\n      tag_387\n        /* \"#utility.yul\":21224:21225   */\n      dup4\n        /* \"#utility.yul\":21206:21226   */\n      tag_154\n      jump\t// in\n    tag_387:\n        /* \"#utility.yul\":21201:21226   */\n      swap3\n      pop\n        /* \"#utility.yul\":21250:21251   */\n      dup3\n        /* \"#utility.yul\":21247:21248   */\n      dup3\n        /* \"#utility.yul\":21243:21252   */\n      sub\n        /* \"#utility.yul\":21235:21252   */\n      swap1\n      pop\n        /* \"#utility.yul\":21274:21275   */\n      dup2\n        /* \"#utility.yul\":21268:21272   */\n      dup2\n        /* \"#utility.yul\":21265:21276   */\n      gt\n        /* \"#utility.yul\":21262:21299   */\n      iszero\n      tag_388\n      jumpi\n        /* \"#utility.yul\":21279:21297   */\n      tag_389\n      tag_180\n      jump\t// in\n    tag_389:\n        /* \"#utility.yul\":21262:21299   */\n    tag_388:\n        /* \"#utility.yul\":21112:21306   */\n      swap3\n      swap2\n      pop\n      pop\n      jump\t// out\n\n    auxdata: 0xa26469706673582212207080da68309072d09d553397e968fe32df567e36d6a25d1e47d98f42479127b564736f6c634300081a0033\n}\n",
				"bytecode": {
					"linkReferences": {},
					"object": "6080604052348015600e575f80fd5b50611b918061001c5f395ff3fe608060405234801561000f575f80fd5b50600436106100b2575f3560e01c806342966c681161006f57806342966c68146101865780636352211e146101a257806370a08231146101d2578063a22cb46514610202578063b88d4fde1461021e578063e985e9c51461023a576100b2565b806301ffc9a7146100b6578063081812fc146100e6578063095ea7b31461011657806323b872dd1461013257806340c10f191461014e57806342842e0e1461016a575b5f80fd5b6100d060048036038101906100cb91906111a6565b61026a565b6040516100dd91906111eb565b60405180910390f35b61010060048036038101906100fb9190611237565b61033b565b60405161010d91906112a1565b60405180910390f35b610130600480360381019061012b91906112e4565b610411565b005b61014c60048036038101906101479190611322565b6105cd565b005b610168600480360381019061016391906112e4565b610901565b005b610184600480360381019061017f9190611322565b61090f565b005b6101a0600480360381019061019b9190611237565b610a43565b005b6101bc60048036038101906101b79190611237565b610aec565b6040516101c991906112a1565b60405180910390f35b6101ec60048036038101906101e79190611372565b610b24565b6040516101f991906113ac565b60405180910390f35b61021c600480360381019061021791906113ef565b610b6a565b005b6102386004803603810190610233919061148e565b610c63565b005b610254600480360381019061024f9190611512565b610d9d565b60405161026191906111eb565b60405180910390f35b5f7f80ac58cd000000000000000000000000000000000000000000000000000000007bffffffffffffffffffffffffffffffffffffffffffffffffffffffff1916827bffffffffffffffffffffffffffffffffffffffffffffffffffffffff1916148061033457507f01ffc9a7000000000000000000000000000000000000000000000000000000007bffffffffffffffffffffffffffffffffffffffffffffffffffffffff1916827bffffffffffffffffffffffffffffffffffffffffffffffffffffffff1916145b9050919050565b5f8073ffffffffffffffffffffffffffffffffffffffff165f808481526020019081526020015f205f9054906101000a900473ffffffffffffffffffffffffffffffffffffffff1673ffffffffffffffffffffffffffffffffffffffff16036103d9576040517f08c379a00000000000000000000000000000000000000000000000000000000081526004016103d0906115aa565b60405180910390fd5b60025f8381526020019081526020015f205f9054906101000a900473ffffffffffffffffffffffffffffffffffffffff169050919050565b5f805f8381526020019081526020015f205f9054906101000a900473ffffffffffffffffffffffffffffffffffffffff1690508073ffffffffffffffffffffffffffffffffffffffff163373ffffffffffffffffffffffffffffffffffffffff1614806104ff575060035f8273ffffffffffffffffffffffffffffffffffffffff1673ffffffffffffffffffffffffffffffffffffffff1681526020019081526020015f205f3373ffffffffffffffffffffffffffffffffffffffff1673ffffffffffffffffffffffffffffffffffffffff1681526020019081526020015f205f9054906101000a900460ff165b61053e576040517f08c379a000000000000000000000000000000000000000000000000000000000815260040161053590611612565b60405180910390fd5b8260025f8481526020019081526020015f205f6101000a81548173ffffffffffffffffffffffffffffffffffffffff021916908373ffffffffffffffffffffffffffffffffffffffff1602179055507f6e11fb1b7f119e3f2fa29896ef5fdf8b8a2d0d4df6fe90ba8668e7d8b2ffa25e8184846040516105c093929190611630565b60405180910390a1505050565b5f808281526020019081526020015f205f9054906101000a900473ffffffffffffffffffffffffffffffffffffffff1673ffffffffffffffffffffffffffffffffffffffff168373ffffffffffffffffffffffffffffffffffffffff161461066a576040517f08c379a0000000000000000000000000000000000000000000000000000000008152600401610661906116af565b60405180910390fd5b5f73ffffffffffffffffffffffffffffffffffffffff168273ffffffffffffffffffffffffffffffffffffffff16036106d8576040517f08c379a00000000000000000000000000000000000000000000000000000000081526004016106cf90611717565b60405180910390fd5b60035f8473ffffffffffffffffffffffffffffffffffffffff1673ffffffffffffffffffffffffffffffffffffffff1681526020019081526020015f205f3373ffffffffffffffffffffffffffffffffffffffff1673ffffffffffffffffffffffffffffffffffffffff1681526020019081526020015f205f9054906101000a900460ff1661079c576040517f08c379a00000000000000000000000000000000000000000000000000000000081526004016107939061177f565b60405180910390fd5b60015f8473ffffffffffffffffffffffffffffffffffffffff1673ffffffffffffffffffffffffffffffffffffffff1681526020019081526020015f205f8154809291906107e9906117ca565b919050555060015f8373ffffffffffffffffffffffffffffffffffffffff1673ffffffffffffffffffffffffffffffffffffffff1681526020019081526020015f205f81548092919061083b906117f1565b9190505550815f808381526020019081526020015f205f6101000a81548173ffffffffffffffffffffffffffffffffffffffff021916908373ffffffffffffffffffffffffffffffffffffffff16021790555060025f8281526020019081526020015f205f6101000a81549073ffffffffffffffffffffffffffffffffffffffff02191690557fddf252ad1be2c89b69c2b068fc378daa952ba7f163c4a11628f55a4df523b3ef8383836040516108f493929190611630565b60405180910390a1505050565b61090b8282610dc7565b5050565b61091a8383836105cd565b5f8273ffffffffffffffffffffffffffffffffffffffff163b14806109ff575063150b7a0260e01b7bffffffffffffffffffffffffffffffffffffffffffffffffffffffff19168273ffffffffffffffffffffffffffffffffffffffff1663150b7a023386856040518463ffffffff1660e01b815260040161099e9392919061186b565b6020604051808303815f875af11580156109ba573d5f803e3d5ffd5b505050506040513d601f19601f820116820180604052508101906109de91906118c7565b7bffffffffffffffffffffffffffffffffffffffffffffffffffffffff1916145b610a3e576040517f08c379a0000000000000000000000000000000000000000000000000000000008152600401610a359061193c565b60405180910390fd5b505050565b5f808281526020019081526020015f205f9054906101000a900473ffffffffffffffffffffffffffffffffffffffff1673ffffffffffffffffffffffffffffffffffffffff163373ffffffffffffffffffffffffffffffffffffffff1614610ae0576040517f08c379a0000000000000000000000000000000000000000000000000000000008152600401610ad7906116af565b60405180910390fd5b610ae981610fb1565b50565b5f805f8381526020019081526020015f205f9054906101000a900473ffffffffffffffffffffffffffffffffffffffff169050919050565b5f60015f8373ffffffffffffffffffffffffffffffffffffffff1673ffffffffffffffffffffffffffffffffffffffff1681526020019081526020015f20549050919050565b600160035f3373ffffffffffffffffffffffffffffffffffffffff1673ffffffffffffffffffffffffffffffffffffffff1681526020019081526020015f205f8473ffffffffffffffffffffffffffffffffffffffff1673ffffffffffffffffffffffffffffffffffffffff1681526020019081526020015f205f6101000a81548160ff0219169083151502179055508173ffffffffffffffffffffffffffffffffffffffff163373ffffffffffffffffffffffffffffffffffffffff167f17307eab39ab6107e8899845ad3d59bd9653f200f220920489ca2b5937696c3183604051610c5791906111eb565b60405180910390a35050565b610c6e8585856105cd565b5f8473ffffffffffffffffffffffffffffffffffffffff163b1480610d57575063150b7a0260e01b7bffffffffffffffffffffffffffffffffffffffffffffffffffffffff19168473ffffffffffffffffffffffffffffffffffffffff1663150b7a0233888787876040518663ffffffff1660e01b8152600401610cf69594939291906119a4565b6020604051808303815f875af1158015610d12573d5f803e3d5ffd5b505050506040513d601f19601f82011682018060405250810190610d3691906118c7565b7bffffffffffffffffffffffffffffffffffffffffffffffffffffffff1916145b610d96576040517f08c379a0000000000000000000000000000000000000000000000000000000008152600401610d8d9061193c565b60405180910390fd5b5050505050565b6003602052815f5260405f20602052805f5260405f205f915091509054906101000a900460ff1681565b5f73ffffffffffffffffffffffffffffffffffffffff168273ffffffffffffffffffffffffffffffffffffffff1603610e35576040517f08c379a0000000000000000000000000000000000000000000000000000000008152600401610e2c90611a3a565b60405180910390fd5b5f73ffffffffffffffffffffffffffffffffffffffff165f808381526020019081526020015f205f9054906101000a900473ffffffffffffffffffffffffffffffffffffffff1673ffffffffffffffffffffffffffffffffffffffff1614610ed2576040517f08c379a0000000000000000000000000000000000000000000000000000000008152600401610ec990611aa2565b60405180910390fd5b60015f8373ffffffffffffffffffffffffffffffffffffffff1673ffffffffffffffffffffffffffffffffffffffff1681526020019081526020015f205f815480929190610f1f906117f1565b9190505550815f808381526020019081526020015f205f6101000a81548173ffffffffffffffffffffffffffffffffffffffff021916908373ffffffffffffffffffffffffffffffffffffffff1602179055507fddf252ad1be2c89b69c2b068fc378daa952ba7f163c4a11628f55a4df523b3ef5f8383604051610fa593929190611630565b60405180910390a15050565b5f805f8381526020019081526020015f205f9054906101000a900473ffffffffffffffffffffffffffffffffffffffff1690505f73ffffffffffffffffffffffffffffffffffffffff168173ffffffffffffffffffffffffffffffffffffffff1603611052576040517f08c379a000000000000000000000000000000000000000000000000000000000815260040161104990611b0a565b60405180910390fd5b6001805f8373ffffffffffffffffffffffffffffffffffffffff1673ffffffffffffffffffffffffffffffffffffffff1681526020019081526020015f205f82825461109e9190611b28565b925050819055505f808381526020019081526020015f205f6101000a81549073ffffffffffffffffffffffffffffffffffffffff021916905560025f8381526020019081526020015f205f6101000a81549073ffffffffffffffffffffffffffffffffffffffff02191690557fddf252ad1be2c89b69c2b068fc378daa952ba7f163c4a11628f55a4df523b3ef815f8460405161113d93929190611630565b60405180910390a15050565b5f80fd5b5f80fd5b5f7fffffffff0000000000000000000000000000000000000000000000000000000082169050919050565b61118581611151565b811461118f575f80fd5b50565b5f813590506111a08161117c565b92915050565b5f602082840312156111bb576111ba611149565b5b5f6111c884828501611192565b91505092915050565b5f8115159050919050565b6111e5816111d1565b82525050565b5f6020820190506111fe5f8301846111dc565b92915050565b5f819050919050565b61121681611204565b8114611220575f80fd5b50565b5f813590506112318161120d565b92915050565b5f6020828403121561124c5761124b611149565b5b5f61125984828501611223565b91505092915050565b5f73ffffffffffffffffffffffffffffffffffffffff82169050919050565b5f61128b82611262565b9050919050565b61129b81611281565b82525050565b5f6020820190506112b45f830184611292565b92915050565b6112c381611281565b81146112cd575f80fd5b50565b5f813590506112de816112ba565b92915050565b5f80604083850312156112fa576112f9611149565b5b5f611307858286016112d0565b925050602061131885828601611223565b9150509250929050565b5f805f6060848603121561133957611338611149565b5b5f611346868287016112d0565b9350506020611357868287016112d0565b925050604061136886828701611223565b9150509250925092565b5f6020828403121561138757611386611149565b5b5f611394848285016112d0565b91505092915050565b6113a681611204565b82525050565b5f6020820190506113bf5f83018461139d565b92915050565b6113ce816111d1565b81146113d8575f80fd5b50565b5f813590506113e9816113c5565b92915050565b5f806040838503121561140557611404611149565b5b5f611412858286016112d0565b9250506020611423858286016113db565b9150509250929050565b5f80fd5b5f80fd5b5f80fd5b5f8083601f84011261144e5761144d61142d565b5b8235905067ffffffffffffffff81111561146b5761146a611431565b5b60208301915083600182028301111561148757611486611435565b5b9250929050565b5f805f805f608086880312156114a7576114a6611149565b5b5f6114b4888289016112d0565b95505060206114c5888289016112d0565b94505060406114d688828901611223565b935050606086013567ffffffffffffffff8111156114f7576114f661114d565b5b61150388828901611439565b92509250509295509295909350565b5f806040838503121561152857611527611149565b5b5f611535858286016112d0565b9250506020611546858286016112d0565b9150509250929050565b5f82825260208201905092915050565b7f746f6b656e20646f6573206e6f742065786973740000000000000000000000005f82015250565b5f611594601483611550565b915061159f82611560565b602082019050919050565b5f6020820190508181035f8301526115c181611588565b9050919050565b7f6e6f7420617070726f76656400000000000000000000000000000000000000005f82015250565b5f6115fc600c83611550565b9150611607826115c8565b602082019050919050565b5f6020820190508181035f830152611629816115f0565b9050919050565b5f6060820190506116435f830186611292565b6116506020830185611292565b61165d604083018461139d565b949350505050565b7f6e6f74206f776e657200000000000000000000000000000000000000000000005f82015250565b5f611699600983611550565b91506116a482611665565b602082019050919050565b5f6020820190508181035f8301526116c68161168d565b9050919050565b7f746f206973206e6f742061207a65726f206164647265737300000000000000005f82015250565b5f611701601883611550565b915061170c826116cd565b602082019050919050565b5f6020820190508181035f83015261172e816116f5565b9050919050565b7f6e6f7420617574686f72697a65640000000000000000000000000000000000005f82015250565b5f611769600e83611550565b915061177482611735565b602082019050919050565b5f6020820190508181035f8301526117968161175d565b9050919050565b7f4e487b71000000000000000000000000000000000000000000000000000000005f52601160045260245ffd5b5f6117d482611204565b91505f82036117e6576117e561179d565b5b600182039050919050565b5f6117fb82611204565b91507fffffffffffffffffffffffffffffffffffffffffffffffffffffffffffffffff820361182d5761182c61179d565b5b600182019050919050565b5f82825260208201905092915050565b50565b5f6118565f83611838565b915061186182611848565b5f82019050919050565b5f60808201905061187e5f830186611292565b61188b6020830185611292565b611898604083018461139d565b81810360608301526118a98161184b565b9050949350505050565b5f815190506118c18161117c565b92915050565b5f602082840312156118dc576118db611149565b5b5f6118e9848285016118b3565b91505092915050565b7f756e7361666520726563697069656e74000000000000000000000000000000005f82015250565b5f611926601083611550565b9150611931826118f2565b602082019050919050565b5f6020820190508181035f8301526119538161191a565b9050919050565b828183375f83830152505050565b5f601f19601f8301169050919050565b5f6119838385611838565b935061199083858461195a565b61199983611968565b840190509392505050565b5f6080820190506119b75f830188611292565b6119c46020830187611292565b6119d1604083018661139d565b81810360608301526119e4818486611978565b90509695505050505050565b7f6d696e7420746f207a65726f20616464726573730000000000000000000000005f82015250565b5f611a24601483611550565b9150611a2f826119f0565b602082019050919050565b5f6020820190508181035f830152611a5181611a18565b9050919050565b7f616c7265616479206d696e7465640000000000000000000000000000000000005f82015250565b5f611a8c600e83611550565b9150611a9782611a58565b602082019050919050565b5f6020820190508181035f830152611ab981611a80565b9050919050565b7f6e6f74206d696e746564000000000000000000000000000000000000000000005f82015250565b5f611af4600a83611550565b9150611aff82611ac0565b602082019050919050565b5f6020820190508181035f830152611b2181611ae8565b9050919050565b5f611b3282611204565b9150611b3d83611204565b9250828203905081811115611b5557611b5461179d565b5b9291505056fea26469706673582212207080da68309072d09d553397e968fe32df567e36d6a25d1e47d98f42479127b564736f6c634300081a0033",
					"opcodes": "PUSH1 0x80 PUSH1 0x40 MSTORE CALLVALUE DUP1 ISZERO PUSH1 0xE JUMPI PUSH0 DUP1 REVERT JUMPDEST POP PUSH2 0x1B91 DUP1 PUSH2 0x1C PUSH0 CODECOPY PUSH0 RETURN INVALID PUSH1 0x80 PUSH1 0x40 MSTORE CALLVALUE DUP1 ISZERO PUSH2 0xF JUMPI PUSH0 DUP1 REVERT JUMPDEST POP PUSH1 0x4 CALLDATASIZE LT PUSH2 0xB2 JUMPI PUSH0 CALLDATALOAD PUSH1 0xE0 SHR DUP1 PUSH4 0x42966C68 GT PUSH2 0x6F JUMPI DUP1 PUSH4 0x42966C68 EQ PUSH2 0x186 JUMPI DUP1 PUSH4 0x6352211E EQ PUSH2 0x1A2 JUMPI DUP1 PUSH4 0x70A08231 EQ PUSH2 0x1D2 JUMPI DUP1 PUSH4 0xA22CB465 EQ PUSH2 0x202 JUMPI DUP1 PUSH4 0xB88D4FDE EQ PUSH2 0x21E JUMPI DUP1 PUSH4 0xE985E9C5 EQ PUSH2 0x23A JUMPI PUSH2 0xB2 JUMP JUMPDEST DUP1 PUSH4 0x1FFC9A7 EQ PUSH2 0xB6 JUMPI DUP1 PUSH4 0x81812FC EQ PUSH2 0xE6 JUMPI DUP1 PUSH4 0x95EA7B3 EQ PUSH2 0x116 JUMPI DUP1 PUSH4 0x23B872DD EQ PUSH2 0x132 JUMPI DUP1 PUSH4 0x40C10F19 EQ PUSH2 0x14E JUMPI DUP1 PUSH4 0x42842E0E EQ PUSH2 0x16A JUMPI JUMPDEST PUSH0 DUP1 REVERT JUMPDEST PUSH2 0xD0 PUSH1 0x4 DUP1 CALLDATASIZE SUB DUP2 ADD SWAP1 PUSH2 0xCB SWAP2 SWAP1 PUSH2 0x11A6 JUMP JUMPDEST PUSH2 0x26A JUMP JUMPDEST PUSH1 0x40 MLOAD PUSH2 0xDD SWAP2 SWAP1 PUSH2 0x11EB JUMP JUMPDEST PUSH1 0x40 MLOAD DUP1 SWAP2 SUB SWAP1 RETURN JUMPDEST PUSH2 0x100 PUSH1 0x4 DUP1 CALLDATASIZE SUB DUP2 ADD SWAP1 PUSH2 0xFB SWAP2 SWAP1 PUSH2 0x1237 JUMP JUMPDEST PUSH2 0x33B JUMP JUMPDEST PUSH1 0x40 MLOAD PUSH2 0x10D SWAP2 SWAP1 PUSH2 0x12A1 JUMP JUMPDEST PUSH1 0x40 MLOAD DUP1 SWAP2 SUB SWAP1 RETURN JUMPDEST PUSH2 0x130 PUSH1 0x4 DUP1 CALLDATASIZE SUB DUP2 ADD SWAP1 PUSH2 0x12B SWAP2 SWAP1 PUSH2 0x12E4 JUMP JUMPDEST PUSH2 0x411 JUMP JUMPDEST STOP JUMPDEST PUSH2 0x14C PUSH1 0x4 DUP1 CALLDATASIZE SUB DUP2 ADD SWAP1 PUSH2 0x147 SWAP2 SWAP1 PUSH2 0x1322 JUMP JUMPDEST PUSH2 0x5CD JUMP JUMPDEST STOP JUMPDEST PUSH2 0x168 PUSH1 0x4 DUP1 CALLDATASIZE SUB DUP2 ADD SWAP1 PUSH2 0x163 SWAP2 SWAP1 PUSH2 0x12E4 JUMP JUMPDEST PUSH2 0x901 JUMP JUMPDEST STOP JUMPDEST PUSH2 0x184 PUSH1 0x4 DUP1 CALLDATASIZE SUB DUP2 ADD SWAP1 PUSH2 0x17F SWAP2 SWAP1 PUSH2 0x1322 JUMP JUMPDEST PUSH2 0x90F JUMP JUMPDEST STOP JUMPDEST PUSH2 0x1A0 PUSH1 0x4 DUP1 CALLDATASIZE SUB DUP2 ADD SWAP1 PUSH2 0x19B SWAP2 SWAP1 PUSH2 0x1237 JUMP JUMPDEST PUSH2 0xA43 JUMP JUMPDEST STOP JUMPDEST PUSH2 0x1BC PUSH1 0x4 DUP1 CALLDATASIZE SUB DUP2 ADD SWAP1 PUSH2 0x1B7 SWAP2 SWAP1 PUSH2 0x1237 JUMP JUMPDEST PUSH2 0xAEC JUMP JUMPDEST PUSH1 0x40 MLOAD PUSH2 0x1C9 SWAP2 SWAP1 PUSH2 0x12A1 JUMP JUMPDEST PUSH1 0x40 MLOAD DUP1 SWAP2 SUB SWAP1 RETURN JUMPDEST PUSH2 0x1EC PUSH1 0x4 DUP1 CALLDATASIZE SUB DUP2 ADD SWAP1 PUSH2 0x1E7 SWAP2 SWAP1 PUSH2 0x1372 JUMP JUMPDEST PUSH2 0xB24 JUMP JUMPDEST PUSH1 0x40 MLOAD PUSH2 0x1F9 SWAP2 SWAP1 PUSH2 0x13AC JUMP JUMPDEST PUSH1 0x40 MLOAD DUP1 SWAP2 SUB SWAP1 RETURN JUMPDEST PUSH2 0x21C PUSH1 0x4 DUP1 CALLDATASIZE SUB DUP2 ADD SWAP1 PUSH2 0x217 SWAP2 SWAP1 PUSH2 0x13EF JUMP JUMPDEST PUSH2 0xB6A JUMP JUMPDEST STOP JUMPDEST PUSH2 0x238 PUSH1 0x4 DUP1 CALLDATASIZE SUB DUP2 ADD SWAP1 PUSH2 0x233 SWAP2 SWAP1 PUSH2 0x148E JUMP JUMPDEST PUSH2 0xC63 JUMP JUMPDEST STOP JUMPDEST PUSH2 0x254 PUSH1 0x4 DUP1 CALLDATASIZE SUB DUP2 ADD SWAP1 PUSH2 0x24F SWAP2 SWAP1 PUSH2 0x1512 JUMP JUMPDEST PUSH2 0xD9D JUMP JUMPDEST PUSH1 0x40 MLOAD PUSH2 0x261 SWAP2 SWAP1 PUSH2 0x11EB JUMP JUMPDEST PUSH1 0x40 MLOAD DUP1 SWAP2 SUB SWAP1 RETURN JUMPDEST PUSH0 PUSH32 0x80AC58CD00000000000000000000000000000000000000000000000000000000 PUSH28 0xFFFFFFFFFFFFFFFFFFFFFFFFFFFFFFFFFFFFFFFFFFFFFFFFFFFFFFFF NOT AND DUP3 PUSH28 0xFFFFFFFFFFFFFFFFFFFFFFFFFFFFFFFFFFFFFFFFFFFFFFFFFFFFFFFF NOT AND EQ DUP1 PUSH2 0x334 JUMPI POP PUSH32 0x1FFC9A700000000000000000000000000000000000000000000000000000000 PUSH28 0xFFFFFFFFFFFFFFFFFFFFFFFFFFFFFFFFFFFFFFFFFFFFFFFFFFFFFFFF NOT AND DUP3 PUSH28 0xFFFFFFFFFFFFFFFFFFFFFFFFFFFFFFFFFFFFFFFFFFFFFFFFFFFFFFFF NOT AND EQ JUMPDEST SWAP1 POP SWAP2 SWAP1 POP JUMP JUMPDEST PUSH0 DUP1 PUSH20 0xFFFFFFFFFFFFFFFFFFFFFFFFFFFFFFFFFFFFFFFF AND PUSH0 DUP1 DUP5 DUP2 MSTORE PUSH1 0x20 ADD SWAP1 DUP2 MSTORE PUSH1 0x20 ADD PUSH0 KECCAK256 PUSH0 SWAP1 SLOAD SWAP1 PUSH2 0x100 EXP SWAP1 DIV PUSH20 0xFFFFFFFFFFFFFFFFFFFFFFFFFFFFFFFFFFFFFFFF AND PUSH20 0xFFFFFFFFFFFFFFFFFFFFFFFFFFFFFFFFFFFFFFFF AND SUB PUSH2 0x3D9 JUMPI PUSH1 0x40 MLOAD PUSH32 0x8C379A000000000000000000000000000000000000000000000000000000000 DUP2 MSTORE PUSH1 0x4 ADD PUSH2 0x3D0 SWAP1 PUSH2 0x15AA JUMP JUMPDEST PUSH1 0x40 MLOAD DUP1 SWAP2 SUB SWAP1 REVERT JUMPDEST PUSH1 0x2 PUSH0 DUP4 DUP2 MSTORE PUSH1 0x20 ADD SWAP1 DUP2 MSTORE PUSH1 0x20 ADD PUSH0 KECCAK256 PUSH0 SWAP1 SLOAD SWAP1 PUSH2 0x100 EXP SWAP1 DIV PUSH20 0xFFFFFFFFFFFFFFFFFFFFFFFFFFFFFFFFFFFFFFFF AND SWAP1 POP SWAP2 SWAP1 POP JUMP JUMPDEST PUSH0 DUP1 PUSH0 DUP4 DUP2 MSTORE PUSH1 0x20 ADD SWAP1 DUP2 MSTORE PUSH1 0x20 ADD PUSH0 KECCAK256 PUSH0 SWAP1 SLOAD SWAP1 PUSH2 0x100 EXP SWAP1 DIV PUSH20 0xFFFFFFFFFFFFFFFFFFFFFFFFFFFFFFFFFFFFFFFF AND SWAP1 POP DUP1 PUSH20 0xFFFFFFFFFFFFFFFFFFFFFFFFFFFFFFFFFFFFFFFF AND CALLER PUSH20 0xFFFFFFFFFFFFFFFFFFFFFFFFFFFFFFFFFFFFFFFF AND EQ DUP1 PUSH2 0x4FF JUMPI POP PUSH1 0x3 PUSH0 DUP3 PUSH20 0xFFFFFFFFFFFFFFFFFFFFFFFFFFFFFFFFFFFFFFFF AND PUSH20 0xFFFFFFFFFFFFFFFFFFFFFFFFFFFFFFFFFFFFFFFF AND DUP2 MSTORE PUSH1 0x20 ADD SWAP1 DUP2 MSTORE PUSH1 0x20 ADD PUSH0 KECCAK256 PUSH0 CALLER PUSH20 0xFFFFFFFFFFFFFFFFFFFFFFFFFFFFFFFFFFFFFFFF AND PUSH20 0xFFFFFFFFFFFFFFFFFFFFFFFFFFFFFFFFFFFFFFFF AND DUP2 MSTORE PUSH1 0x20 ADD SWAP1 DUP2 MSTORE PUSH1 0x20 ADD PUSH0 KECCAK256 PUSH0 SWAP1 SLOAD SWAP1 PUSH2 0x100 EXP SWAP1 DIV PUSH1 0xFF AND JUMPDEST PUSH2 0x53E JUMPI PUSH1 0x40 MLOAD PUSH32 0x8C379A000000000000000000000000000000000000000000000000000000000 DUP2 MSTORE PUSH1 0x4 ADD PUSH2 0x535 SWAP1 PUSH2 0x1612 JUMP JUMPDEST PUSH1 0x40 MLOAD DUP1 SWAP2 SUB SWAP1 REVERT JUMPDEST DUP3 PUSH1 0x2 PUSH0 DUP5 DUP2 MSTORE PUSH1 0x20 ADD SWAP1 DUP2 MSTORE PUSH1 0x20 ADD PUSH0 KECCAK256 PUSH0 PUSH2 0x100 EXP DUP2 SLOAD DUP2 PUSH20 0xFFFFFFFFFFFFFFFFFFFFFFFFFFFFFFFFFFFFFFFF MUL NOT AND SWAP1 DUP4 PUSH20 0xFFFFFFFFFFFFFFFFFFFFFFFFFFFFFFFFFFFFFFFF AND MUL OR SWAP1 SSTORE POP PUSH32 0x6E11FB1B7F119E3F2FA29896EF5FDF8B8A2D0D4DF6FE90BA8668E7D8B2FFA25E DUP2 DUP5 DUP5 PUSH1 0x40 MLOAD PUSH2 0x5C0 SWAP4 SWAP3 SWAP2 SWAP1 PUSH2 0x1630 JUMP JUMPDEST PUSH1 0x40 MLOAD DUP1 SWAP2 SUB SWAP1 LOG1 POP POP POP JUMP JUMPDEST PUSH0 DUP1 DUP3 DUP2 MSTORE PUSH1 0x20 ADD SWAP1 DUP2 MSTORE PUSH1 0x20 ADD PUSH0 KECCAK256 PUSH0 SWAP1 SLOAD SWAP1 PUSH2 0x100 EXP SWAP1 DIV PUSH20 0xFFFFFFFFFFFFFFFFFFFFFFFFFFFFFFFFFFFFFFFF AND PUSH20 0xFFFFFFFFFFFFFFFFFFFFFFFFFFFFFFFFFFFFFFFF AND DUP4 PUSH20 0xFFFFFFFFFFFFFFFFFFFFFFFFFFFFFFFFFFFFFFFF AND EQ PUSH2 0x66A JUMPI PUSH1 0x40 MLOAD PUSH32 0x8C379A000000000000000000000000000000000000000000000000000000000 DUP2 MSTORE PUSH1 0x4 ADD PUSH2 0x661 SWAP1 PUSH2 0x16AF JUMP JUMPDEST PUSH1 0x40 MLOAD DUP1 SWAP2 SUB SWAP1 REVERT JUMPDEST PUSH0 PUSH20 0xFFFFFFFFFFFFFFFFFFFFFFFFFFFFFFFFFFFFFFFF AND DUP3 PUSH20 0xFFFFFFFFFFFFFFFFFFFFFFFFFFFFFFFFFFFFFFFF AND SUB PUSH2 0x6D8 JUMPI PUSH1 0x40 MLOAD PUSH32 0x8C379A000000000000000000000000000000000000000000000000000000000 DUP2 MSTORE PUSH1 0x4 ADD PUSH2 0x6CF SWAP1 PUSH2 0x1717 JUMP JUMPDEST PUSH1 0x40 MLOAD DUP1 SWAP2 SUB SWAP1 REVERT JUMPDEST PUSH1 0x3 PUSH0 DUP5 PUSH20 0xFFFFFFFFFFFFFFFFFFFFFFFFFFFFFFFFFFFFFFFF AND PUSH20 0xFFFFFFFFFFFFFFFFFFFFFFFFFFFFFFFFFFFFFFFF AND DUP2 MSTORE PUSH1 0x20 ADD SWAP1 DUP2 MSTORE PUSH1 0x20 ADD PUSH0 KECCAK256 PUSH0 CALLER PUSH20 0xFFFFFFFFFFFFFFFFFFFFFFFFFFFFFFFFFFFFFFFF AND PUSH20 0xFFFFFFFFFFFFFFFFFFFFFFFFFFFFFFFFFFFFFFFF AND DUP2 MSTORE PUSH1 0x20 ADD SWAP1 DUP2 MSTORE PUSH1 0x20 ADD PUSH0 KECCAK256 PUSH0 SWAP1 SLOAD SWAP1 PUSH2 0x100 EXP SWAP1 DIV PUSH1 0xFF AND PUSH2 0x79C JUMPI PUSH1 0x40 MLOAD PUSH32 0x8C379A000000000000000000000000000000000000000000000000000000000 DUP2 MSTORE PUSH1 0x4 ADD PUSH2 0x793 SWAP1 PUSH2 0x177F JUMP JUMPDEST PUSH1 0x40 MLOAD DUP1 SWAP2 SUB SWAP1 REVERT JUMPDEST PUSH1 0x1 PUSH0 DUP5 PUSH20 0xFFFFFFFFFFFFFFFFFFFFFFFFFFFFFFFFFFFFFFFF AND PUSH20 0xFFFFFFFFFFFFFFFFFFFFFFFFFFFFFFFFFFFFFFFF AND DUP2 MSTORE PUSH1 0x20 ADD SWAP1 DUP2 MSTORE PUSH1 0x20 ADD PUSH0 KECCAK256 PUSH0 DUP2 SLOAD DUP1 SWAP3 SWAP2 SWAP1 PUSH2 0x7E9 SWAP1 PUSH2 0x17CA JUMP JUMPDEST SWAP2 SWAP1 POP SSTORE POP PUSH1 0x1 PUSH0 DUP4 PUSH20 0xFFFFFFFFFFFFFFFFFFFFFFFFFFFFFFFFFFFFFFFF AND PUSH20 0xFFFFFFFFFFFFFFFFFFFFFFFFFFFFFFFFFFFFFFFF AND DUP2 MSTORE PUSH1 0x20 ADD SWAP1 DUP2 MSTORE PUSH1 0x20 ADD PUSH0 KECCAK256 PUSH0 DUP2 SLOAD DUP1 SWAP3 SWAP2 SWAP1 PUSH2 0x83B SWAP1 PUSH2 0x17F1 JUMP JUMPDEST SWAP2 SWAP1 POP SSTORE POP DUP2 PUSH0 DUP1 DUP4 DUP2 MSTORE PUSH1 0x20 ADD SWAP1 DUP2 MSTORE PUSH1 0x20 ADD PUSH0 KECCAK256 PUSH0 PUSH2 0x100 EXP DUP2 SLOAD DUP2 PUSH20 0xFFFFFFFFFFFFFFFFFFFFFFFFFFFFFFFFFFFFFFFF MUL NOT AND SWAP1 DUP4 PUSH20 0xFFFFFFFFFFFFFFFFFFFFFFFFFFFFFFFFFFFFFFFF AND MUL OR SWAP1 SSTORE POP PUSH1 0x2 PUSH0 DUP3 DUP2 MSTORE PUSH1 0x20 ADD SWAP1 DUP2 MSTORE PUSH1 0x20 ADD PUSH0 KECCAK256 PUSH0 PUSH2 0x100 EXP DUP2 SLOAD SWAP1 PUSH20 0xFFFFFFFFFFFFFFFFFFFFFFFFFFFFFFFFFFFFFFFF MUL NOT AND SWAP1 SSTORE PUSH32 0xDDF252AD1BE2C89B69C2B068FC378DAA952BA7F163C4A11628F55A4DF523B3EF DUP4 DUP4 DUP4 PUSH1 0x40 MLOAD PUSH2 0x8F4 SWAP4 SWAP3 SWAP2 SWAP1 PUSH2 0x1630 JUMP JUMPDEST PUSH1 0x40 MLOAD DUP1 SWAP2 SUB SWAP1 LOG1 POP POP POP JUMP JUMPDEST PUSH2 0x90B DUP3 DUP3 PUSH2 0xDC7 JUMP JUMPDEST POP POP JUMP JUMPDEST PUSH2 0x91A DUP4 DUP4 DUP4 PUSH2 0x5CD JUMP JUMPDEST PUSH0 DUP3 PUSH20 0xFFFFFFFFFFFFFFFFFFFFFFFFFFFFFFFFFFFFFFFF AND EXTCODESIZE EQ DUP1 PUSH2 0x9FF JUMPI POP PUSH4 0x150B7A02 PUSH1 0xE0 SHL PUSH28 0xFFFFFFFFFFFFFFFFFFFFFFFFFFFFFFFFFFFFFFFFFFFFFFFFFFFFFFFF NOT AND DUP3 PUSH20 0xFFFFFFFFFFFFFFFFFFFFFFFFFFFFFFFFFFFFFFFF AND PUSH4 0x150B7A02 CALLER DUP7 DUP6 PUSH1 0x40 MLOAD DUP5 PUSH4 0xFFFFFFFF AND PUSH1 0xE0 SHL DUP2 MSTORE PUSH1 0x4 ADD PUSH2 0x99E SWAP4 SWAP3 SWAP2 SWAP1 PUSH2 0x186B JUMP JUMPDEST PUSH1 0x20 PUSH1 0x40 MLOAD DUP1 DUP4 SUB DUP2 PUSH0 DUP8 GAS CALL ISZERO DUP1 ISZERO PUSH2 0x9BA JUMPI RETURNDATASIZE PUSH0 DUP1 RETURNDATACOPY RETURNDATASIZE PUSH0 REVERT JUMPDEST POP POP POP POP PUSH1 0x40 MLOAD RETURNDATASIZE PUSH1 0x1F NOT PUSH1 0x1F DUP3 ADD AND DUP3 ADD DUP1 PUSH1 0x40 MSTORE POP DUP2 ADD SWAP1 PUSH2 0x9DE SWAP2 SWAP1 PUSH2 0x18C7 JUMP JUMPDEST PUSH28 0xFFFFFFFFFFFFFFFFFFFFFFFFFFFFFFFFFFFFFFFFFFFFFFFFFFFFFFFF NOT AND EQ JUMPDEST PUSH2 0xA3E JUMPI PUSH1 0x40 MLOAD PUSH32 0x8C379A000000000000000000000000000000000000000000000000000000000 DUP2 MSTORE PUSH1 0x4 ADD PUSH2 0xA35 SWAP1 PUSH2 0x193C JUMP JUMPDEST PUSH1 0x40 MLOAD DUP1 SWAP2 SUB SWAP1 REVERT JUMPDEST POP POP POP JUMP JUMPDEST PUSH0 DUP1 DUP3 DUP2 MSTORE PUSH1 0x20 ADD SWAP1 DUP2 MSTORE PUSH1 0x20 ADD PUSH0 KECCAK256 PUSH0 SWAP1 SLOAD SWAP1 PUSH2 0x100 EXP SWAP1 DIV PUSH20 0xFFFFFFFFFFFFFFFFFFFFFFFFFFFFFFFFFFFFFFFF AND PUSH20 0xFFFFFFFFFFFFFFFFFFFFFFFFFFFFFFFFFFFFFFFF AND CALLER PUSH20 0xFFFFFFFFFFFFFFFFFFFFFFFFFFFFFFFFFFFFFFFF AND EQ PUSH2 0xAE0 JUMPI PUSH1 0x40 MLOAD PUSH32 0x8C379A000000000000000000000000000000000000000000000000000000000 DUP2 MSTORE PUSH1 0x4 ADD PUSH2 0xAD7 SWAP1 PUSH2 0x16AF JUMP JUMPDEST PUSH1 0x40 MLOAD DUP1 SWAP2 SUB SWAP1 REVERT JUMPDEST PUSH2 0xAE9 DUP2 PUSH2 0xFB1 JUMP JUMPDEST POP JUMP JUMPDEST PUSH0 DUP1 PUSH0 DUP4 DUP2 MSTORE PUSH1 0x20 ADD SWAP1 DUP2 MSTORE PUSH1 0x20 ADD PUSH0 KECCAK256 PUSH0 SWAP1 SLOAD SWAP1 PUSH2 0x100 EXP SWAP1 DIV PUSH20 0xFFFFFFFFFFFFFFFFFFFFFFFFFFFFFFFFFFFFFFFF AND SWAP1 POP SWAP2 SWAP1 POP JUMP JUMPDEST PUSH0 PUSH1 0x1 PUSH0 DUP4 PUSH20 0xFFFFFFFFFFFFFFFFFFFFFFFFFFFFFFFFFFFFFFFF AND PUSH20 0xFFFFFFFFFFFFFFFFFFFFFFFFFFFFFFFFFFFFFFFF AND DUP2 MSTORE PUSH1 0x20 ADD SWAP1 DUP2 MSTORE PUSH1 0x20 ADD PUSH0 KECCAK256 SLOAD SWAP1 POP SWAP2 SWAP1 POP JUMP JUMPDEST PUSH1 0x1 PUSH1 0x3 PUSH0 CALLER PUSH20 0xFFFFFFFFFFFFFFFFFFFFFFFFFFFFFFFFFFFFFFFF AND PUSH20 0xFFFFFFFFFFFFFFFFFFFFFFFFFFFFFFFFFFFFFFFF AND DUP2 MSTORE PUSH1 0x20 ADD SWAP1 DUP2 MSTORE PUSH1 0x20 ADD PUSH0 KECCAK256 PUSH0 DUP5 PUSH20 0xFFFFFFFFFFFFFFFFFFFFFFFFFFFFFFFFFFFFFFFF AND PUSH20 0xFFFFFFFFFFFFFFFFFFFFFFFFFFFFFFFFFFFFFFFF AND DUP2 MSTORE PUSH1 0x20 ADD SWAP1 DUP2 MSTORE PUSH1 0x20 ADD PUSH0 KECCAK256 PUSH0 PUSH2 0x100 EXP DUP2 SLOAD DUP2 PUSH1 0xFF MUL NOT AND SWAP1 DUP4 ISZERO ISZERO MUL OR SWAP1 SSTORE POP DUP2 PUSH20 0xFFFFFFFFFFFFFFFFFFFFFFFFFFFFFFFFFFFFFFFF AND CALLER PUSH20 0xFFFFFFFFFFFFFFFFFFFFFFFFFFFFFFFFFFFFFFFF AND PUSH32 0x17307EAB39AB6107E8899845AD3D59BD9653F200F220920489CA2B5937696C31 DUP4 PUSH1 0x40 MLOAD PUSH2 0xC57 SWAP2 SWAP1 PUSH2 0x11EB JUMP JUMPDEST PUSH1 0x40 MLOAD DUP1 SWAP2 SUB SWAP1 LOG3 POP POP JUMP JUMPDEST PUSH2 0xC6E DUP6 DUP6 DUP6 PUSH2 0x5CD JUMP JUMPDEST PUSH0 DUP5 PUSH20 0xFFFFFFFFFFFFFFFFFFFFFFFFFFFFFFFFFFFFFFFF AND EXTCODESIZE EQ DUP1 PUSH2 0xD57 JUMPI POP PUSH4 0x150B7A02 PUSH1 0xE0 SHL PUSH28 0xFFFFFFFFFFFFFFFFFFFFFFFFFFFFFFFFFFFFFFFFFFFFFFFFFFFFFFFF NOT AND DUP5 PUSH20 0xFFFFFFFFFFFFFFFFFFFFFFFFFFFFFFFFFFFFFFFF AND PUSH4 0x150B7A02 CALLER DUP9 DUP8 DUP8 DUP8 PUSH1 0x40 MLOAD DUP7 PUSH4 0xFFFFFFFF AND PUSH1 0xE0 SHL DUP2 MSTORE PUSH1 0x4 ADD PUSH2 0xCF6 SWAP6 SWAP5 SWAP4 SWAP3 SWAP2 SWAP1 PUSH2 0x19A4 JUMP JUMPDEST PUSH1 0x20 PUSH1 0x40 MLOAD DUP1 DUP4 SUB DUP2 PUSH0 DUP8 GAS CALL ISZERO DUP1 ISZERO PUSH2 0xD12 JUMPI RETURNDATASIZE PUSH0 DUP1 RETURNDATACOPY RETURNDATASIZE PUSH0 REVERT JUMPDEST POP POP POP POP PUSH1 0x40 MLOAD RETURNDATASIZE PUSH1 0x1F NOT PUSH1 0x1F DUP3 ADD AND DUP3 ADD DUP1 PUSH1 0x40 MSTORE POP DUP2 ADD SWAP1 PUSH2 0xD36 SWAP2 SWAP1 PUSH2 0x18C7 JUMP JUMPDEST PUSH28 0xFFFFFFFFFFFFFFFFFFFFFFFFFFFFFFFFFFFFFFFFFFFFFFFFFFFFFFFF NOT AND EQ JUMPDEST PUSH2 0xD96 JUMPI PUSH1 0x40 MLOAD PUSH32 0x8C379A000000000000000000000000000000000000000000000000000000000 DUP2 MSTORE PUSH1 0x4 ADD PUSH2 0xD8D SWAP1 PUSH2 0x193C JUMP JUMPDEST PUSH1 0x40 MLOAD DUP1 SWAP2 SUB SWAP1 REVERT JUMPDEST POP POP POP POP POP JUMP JUMPDEST PUSH1 0x3 PUSH1 0x20 MSTORE DUP2 PUSH0 MSTORE PUSH1 0x40 PUSH0 KECCAK256 PUSH1 0x20 MSTORE DUP1 PUSH0 MSTORE PUSH1 0x40 PUSH0 KECCAK256 PUSH0 SWAP2 POP SWAP2 POP SWAP1 SLOAD SWAP1 PUSH2 0x100 EXP SWAP1 DIV PUSH1 0xFF AND DUP2 JUMP JUMPDEST PUSH0 PUSH20 0xFFFFFFFFFFFFFFFFFFFFFFFFFFFFFFFFFFFFFFFF AND DUP3 PUSH20 0xFFFFFFFFFFFFFFFFFFFFFFFFFFFFFFFFFFFFFFFF AND SUB PUSH2 0xE35 JUMPI PUSH1 0x40 MLOAD PUSH32 0x8C379A000000000000000000000000000000000000000000000000000000000 DUP2 MSTORE PUSH1 0x4 ADD PUSH2 0xE2C SWAP1 PUSH2 0x1A3A JUMP JUMPDEST PUSH1 0x40 MLOAD DUP1 SWAP2 SUB SWAP1 REVERT JUMPDEST PUSH0 PUSH20 0xFFFFFFFFFFFFFFFFFFFFFFFFFFFFFFFFFFFFFFFF AND PUSH0 DUP1 DUP4 DUP2 MSTORE PUSH1 0x20 ADD SWAP1 DUP2 MSTORE PUSH1 0x20 ADD PUSH0 KECCAK256 PUSH0 SWAP1 SLOAD SWAP1 PUSH2 0x100 EXP SWAP1 DIV PUSH20 0xFFFFFFFFFFFFFFFFFFFFFFFFFFFFFFFFFFFFFFFF AND PUSH20 0xFFFFFFFFFFFFFFFFFFFFFFFFFFFFFFFFFFFFFFFF AND EQ PUSH2 0xED2 JUMPI PUSH1 0x40 MLOAD PUSH32 0x8C379A000000000000000000000000000000000000000000000000000000000 DUP2 MSTORE PUSH1 0x4 ADD PUSH2 0xEC9 SWAP1 PUSH2 0x1AA2 JUMP JUMPDEST PUSH1 0x40 MLOAD DUP1 SWAP2 SUB SWAP1 REVERT JUMPDEST PUSH1 0x1 PUSH0 DUP4 PUSH20 0xFFFFFFFFFFFFFFFFFFFFFFFFFFFFFFFFFFFFFFFF AND PUSH20 0xFFFFFFFFFFFFFFFFFFFFFFFFFFFFFFFFFFFFFFFF AND DUP2 MSTORE PUSH1 0x20 ADD SWAP1 DUP2 MSTORE PUSH1 0x20 ADD PUSH0 KECCAK256 PUSH0 DUP2 SLOAD DUP1 SWAP3 SWAP2 SWAP1 PUSH2 0xF1F SWAP1 PUSH2 0x17F1 JUMP JUMPDEST SWAP2 SWAP1 POP SSTORE POP DUP2 PUSH0 DUP1 DUP4 DUP2 MSTORE PUSH1 0x20 ADD SWAP1 DUP2 MSTORE PUSH1 0x20 ADD PUSH0 KECCAK256 PUSH0 PUSH2 0x100 EXP DUP2 SLOAD DUP2 PUSH20 0xFFFFFFFFFFFFFFFFFFFFFFFFFFFFFFFFFFFFFFFF MUL NOT AND SWAP1 DUP4 PUSH20 0xFFFFFFFFFFFFFFFFFFFFFFFFFFFFFFFFFFFFFFFF AND MUL OR SWAP1 SSTORE POP PUSH32 0xDDF252AD1BE2C89B69C2B068FC378DAA952BA7F163C4A11628F55A4DF523B3EF PUSH0 DUP4 DUP4 PUSH1 0x40 MLOAD PUSH2 0xFA5 SWAP4 SWAP3 SWAP2 SWAP1 PUSH2 0x1630 JUMP JUMPDEST PUSH1 0x40 MLOAD DUP1 SWAP2 SUB SWAP1 LOG1 POP POP JUMP JUMPDEST PUSH0 DUP1 PUSH0 DUP4 DUP2 MSTORE PUSH1 0x20 ADD SWAP1 DUP2 MSTORE PUSH1 0x20 ADD PUSH0 KECCAK256 PUSH0 SWAP1 SLOAD SWAP1 PUSH2 0x100 EXP SWAP1 DIV PUSH20 0xFFFFFFFFFFFFFFFFFFFFFFFFFFFFFFFFFFFFFFFF AND SWAP1 POP PUSH0 PUSH20 0xFFFFFFFFFFFFFFFFFFFFFFFFFFFFFFFFFFFFFFFF AND DUP2 PUSH20 0xFFFFFFFFFFFFFFFFFFFFFFFFFFFFFFFFFFFFFFFF AND SUB PUSH2 0x1052 JUMPI PUSH1 0x40 MLOAD PUSH32 0x8C379A000000000000000000000000000000000000000000000000000000000 DUP2 MSTORE PUSH1 0x4 ADD PUSH2 0x1049 SWAP1 PUSH2 0x1B0A JUMP JUMPDEST PUSH1 0x40 MLOAD DUP1 SWAP2 SUB SWAP1 REVERT JUMPDEST PUSH1 0x1 DUP1 PUSH0 DUP4 PUSH20 0xFFFFFFFFFFFFFFFFFFFFFFFFFFFFFFFFFFFFFFFF AND PUSH20 0xFFFFFFFFFFFFFFFFFFFFFFFFFFFFFFFFFFFFFFFF AND DUP2 MSTORE PUSH1 0x20 ADD SWAP1 DUP2 MSTORE PUSH1 0x20 ADD PUSH0 KECCAK256 PUSH0 DUP3 DUP3 SLOAD PUSH2 0x109E SWAP2 SWAP1 PUSH2 0x1B28 JUMP JUMPDEST SWAP3 POP POP DUP2 SWAP1 SSTORE POP PUSH0 DUP1 DUP4 DUP2 MSTORE PUSH1 0x20 ADD SWAP1 DUP2 MSTORE PUSH1 0x20 ADD PUSH0 KECCAK256 PUSH0 PUSH2 0x100 EXP DUP2 SLOAD SWAP1 PUSH20 0xFFFFFFFFFFFFFFFFFFFFFFFFFFFFFFFFFFFFFFFF MUL NOT AND SWAP1 SSTORE PUSH1 0x2 PUSH0 DUP4 DUP2 MSTORE PUSH1 0x20 ADD SWAP1 DUP2 MSTORE PUSH1 0x20 ADD PUSH0 KECCAK256 PUSH0 PUSH2 0x100 EXP DUP2 SLOAD SWAP1 PUSH20 0xFFFFFFFFFFFFFFFFFFFFFFFFFFFFFFFFFFFFFFFF MUL NOT AND SWAP1 SSTORE PUSH32 0xDDF252AD1BE2C89B69C2B068FC378DAA952BA7F163C4A11628F55A4DF523B3EF DUP2 PUSH0 DUP5 PUSH1 0x40 MLOAD PUSH2 0x113D SWAP4 SWAP3 SWAP2 SWAP1 PUSH2 0x1630 JUMP JUMPDEST PUSH1 0x40 MLOAD DUP1 SWAP2 SUB SWAP1 LOG1 POP POP JUMP JUMPDEST PUSH0 DUP1 REVERT JUMPDEST PUSH0 DUP1 REVERT JUMPDEST PUSH0 PUSH32 0xFFFFFFFF00000000000000000000000000000000000000000000000000000000 DUP3 AND SWAP1 POP SWAP2 SWAP1 POP JUMP JUMPDEST PUSH2 0x1185 DUP2 PUSH2 0x1151 JUMP JUMPDEST DUP2 EQ PUSH2 0x118F JUMPI PUSH0 DUP1 REVERT JUMPDEST POP JUMP JUMPDEST PUSH0 DUP2 CALLDATALOAD SWAP1 POP PUSH2 0x11A0 DUP2 PUSH2 0x117C JUMP JUMPDEST SWAP3 SWAP2 POP POP JUMP JUMPDEST PUSH0 PUSH1 0x20 DUP3 DUP5 SUB SLT ISZERO PUSH2 0x11BB JUMPI PUSH2 0x11BA PUSH2 0x1149 JUMP JUMPDEST JUMPDEST PUSH0 PUSH2 0x11C8 DUP5 DUP3 DUP6 ADD PUSH2 0x1192 JUMP JUMPDEST SWAP2 POP POP SWAP3 SWAP2 POP POP JUMP JUMPDEST PUSH0 DUP2 ISZERO ISZERO SWAP1 POP SWAP2 SWAP1 POP JUMP JUMPDEST PUSH2 0x11E5 DUP2 PUSH2 0x11D1 JUMP JUMPDEST DUP3 MSTORE POP POP JUMP JUMPDEST PUSH0 PUSH1 0x20 DUP3 ADD SWAP1 POP PUSH2 0x11FE PUSH0 DUP4 ADD DUP5 PUSH2 0x11DC JUMP JUMPDEST SWAP3 SWAP2 POP POP JUMP JUMPDEST PUSH0 DUP2 SWAP1 POP SWAP2 SWAP1 POP JUMP JUMPDEST PUSH2 0x1216 DUP2 PUSH2 0x1204 JUMP JUMPDEST DUP2 EQ PUSH2 0x1220 JUMPI PUSH0 DUP1 REVERT JUMPDEST POP JUMP JUMPDEST PUSH0 DUP2 CALLDATALOAD SWAP1 POP PUSH2 0x1231 DUP2 PUSH2 0x120D JUMP JUMPDEST SWAP3 SWAP2 POP POP JUMP JUMPDEST PUSH0 PUSH1 0x20 DUP3 DUP5 SUB SLT ISZERO PUSH2 0x124C JUMPI PUSH2 0x124B PUSH2 0x1149 JUMP JUMPDEST JUMPDEST PUSH0 PUSH2 0x1259 DUP5 DUP3 DUP6 ADD PUSH2 0x1223 JUMP JUMPDEST SWAP2 POP POP SWAP3 SWAP2 POP POP JUMP JUMPDEST PUSH0 PUSH20 0xFFFFFFFFFFFFFFFFFFFFFFFFFFFFFFFFFFFFFFFF DUP3 AND SWAP1 POP SWAP2 SWAP1 POP JUMP JUMPDEST PUSH0 PUSH2 0x128B DUP3 PUSH2 0x1262 JUMP JUMPDEST SWAP1 POP SWAP2 SWAP1 POP JUMP JUMPDEST PUSH2 0x129B DUP2 PUSH2 0x1281 JUMP JUMPDEST DUP3 MSTORE POP POP JUMP JUMPDEST PUSH0 PUSH1 0x20 DUP3 ADD SWAP1 POP PUSH2 0x12B4 PUSH0 DUP4 ADD DUP5 PUSH2 0x1292 JUMP JUMPDEST SWAP3 SWAP2 POP POP JUMP JUMPDEST PUSH2 0x12C3 DUP2 PUSH2 0x1281 JUMP JUMPDEST DUP2 EQ PUSH2 0x12CD JUMPI PUSH0 DUP1 REVERT JUMPDEST POP JUMP JUMPDEST PUSH0 DUP2 CALLDATALOAD SWAP1 POP PUSH2 0x12DE DUP2 PUSH2 0x12BA JUMP JUMPDEST SWAP3 SWAP2 POP POP JUMP JUMPDEST PUSH0 DUP1 PUSH1 0x40 DUP4 DUP6 SUB SLT ISZERO PUSH2 0x12FA JUMPI PUSH2 0x12F9 PUSH2 0x1149 JUMP JUMPDEST JUMPDEST PUSH0 PUSH2 0x1307 DUP6 DUP3 DUP7 ADD PUSH2 0x12D0 JUMP JUMPDEST SWAP3 POP POP PUSH1 0x20 PUSH2 0x1318 DUP6 DUP3 DUP7 ADD PUSH2 0x1223 JUMP JUMPDEST SWAP2 POP POP SWAP3 POP SWAP3 SWAP1 POP JUMP JUMPDEST PUSH0 DUP1 PUSH0 PUSH1 0x60 DUP5 DUP7 SUB SLT ISZERO PUSH2 0x1339 JUMPI PUSH2 0x1338 PUSH2 0x1149 JUMP JUMPDEST JUMPDEST PUSH0 PUSH2 0x1346 DUP7 DUP3 DUP8 ADD PUSH2 0x12D0 JUMP JUMPDEST SWAP4 POP POP PUSH1 0x20 PUSH2 0x1357 DUP7 DUP3 DUP8 ADD PUSH2 0x12D0 JUMP JUMPDEST SWAP3 POP POP PUSH1 0x40 PUSH2 0x1368 DUP7 DUP3 DUP8 ADD PUSH2 0x1223 JUMP JUMPDEST SWAP2 POP POP SWAP3 POP SWAP3 POP SWAP3 JUMP JUMPDEST PUSH0 PUSH1 0x20 DUP3 DUP5 SUB SLT ISZERO PUSH2 0x1387 JUMPI PUSH2 0x1386 PUSH2 0x1149 JUMP JUMPDEST JUMPDEST PUSH0 PUSH2 0x1394 DUP5 DUP3 DUP6 ADD PUSH2 0x12D0 JUMP JUMPDEST SWAP2 POP POP SWAP3 SWAP2 POP POP JUMP JUMPDEST PUSH2 0x13A6 DUP2 PUSH2 0x1204 JUMP JUMPDEST DUP3 MSTORE POP POP JUMP JUMPDEST PUSH0 PUSH1 0x20 DUP3 ADD SWAP1 POP PUSH2 0x13BF PUSH0 DUP4 ADD DUP5 PUSH2 0x139D JUMP JUMPDEST SWAP3 SWAP2 POP POP JUMP JUMPDEST PUSH2 0x13CE DUP2 PUSH2 0x11D1 JUMP JUMPDEST DUP2 EQ PUSH2 0x13D8 JUMPI PUSH0 DUP1 REVERT JUMPDEST POP JUMP JUMPDEST PUSH0 DUP2 CALLDATALOAD SWAP1 POP PUSH2 0x13E9 DUP2 PUSH2 0x13C5 JUMP JUMPDEST SWAP3 SWAP2 POP POP JUMP JUMPDEST PUSH0 DUP1 PUSH1 0x40 DUP4 DUP6 SUB SLT ISZERO PUSH2 0x1405 JUMPI PUSH2 0x1404 PUSH2 0x1149 JUMP JUMPDEST JUMPDEST PUSH0 PUSH2 0x1412 DUP6 DUP3 DUP7 ADD PUSH2 0x12D0 JUMP JUMPDEST SWAP3 POP POP PUSH1 0x20 PUSH2 0x1423 DUP6 DUP3 DUP7 ADD PUSH2 0x13DB JUMP JUMPDEST SWAP2 POP POP SWAP3 POP SWAP3 SWAP1 POP JUMP JUMPDEST PUSH0 DUP1 REVERT JUMPDEST PUSH0 DUP1 REVERT JUMPDEST PUSH0 DUP1 REVERT JUMPDEST PUSH0 DUP1 DUP4 PUSH1 0x1F DUP5 ADD SLT PUSH2 0x144E JUMPI PUSH2 0x144D PUSH2 0x142D JUMP JUMPDEST JUMPDEST DUP3 CALLDATALOAD SWAP1 POP PUSH8 0xFFFFFFFFFFFFFFFF DUP2 GT ISZERO PUSH2 0x146B JUMPI PUSH2 0x146A PUSH2 0x1431 JUMP JUMPDEST JUMPDEST PUSH1 0x20 DUP4 ADD SWAP2 POP DUP4 PUSH1 0x1 DUP3 MUL DUP4 ADD GT ISZERO PUSH2 0x1487 JUMPI PUSH2 0x1486 PUSH2 0x1435 JUMP JUMPDEST JUMPDEST SWAP3 POP SWAP3 SWAP1 POP JUMP JUMPDEST PUSH0 DUP1 PUSH0 DUP1 PUSH0 PUSH1 0x80 DUP7 DUP9 SUB SLT ISZERO PUSH2 0x14A7 JUMPI PUSH2 0x14A6 PUSH2 0x1149 JUMP JUMPDEST JUMPDEST PUSH0 PUSH2 0x14B4 DUP9 DUP3 DUP10 ADD PUSH2 0x12D0 JUMP JUMPDEST SWAP6 POP POP PUSH1 0x20 PUSH2 0x14C5 DUP9 DUP3 DUP10 ADD PUSH2 0x12D0 JUMP JUMPDEST SWAP5 POP POP PUSH1 0x40 PUSH2 0x14D6 DUP9 DUP3 DUP10 ADD PUSH2 0x1223 JUMP JUMPDEST SWAP4 POP POP PUSH1 0x60 DUP7 ADD CALLDATALOAD PUSH8 0xFFFFFFFFFFFFFFFF DUP2 GT ISZERO PUSH2 0x14F7 JUMPI PUSH2 0x14F6 PUSH2 0x114D JUMP JUMPDEST JUMPDEST PUSH2 0x1503 DUP9 DUP3 DUP10 ADD PUSH2 0x1439 JUMP JUMPDEST SWAP3 POP SWAP3 POP POP SWAP3 SWAP6 POP SWAP3 SWAP6 SWAP1 SWAP4 POP JUMP JUMPDEST PUSH0 DUP1 PUSH1 0x40 DUP4 DUP6 SUB SLT ISZERO PUSH2 0x1528 JUMPI PUSH2 0x1527 PUSH2 0x1149 JUMP JUMPDEST JUMPDEST PUSH0 PUSH2 0x1535 DUP6 DUP3 DUP7 ADD PUSH2 0x12D0 JUMP JUMPDEST SWAP3 POP POP PUSH1 0x20 PUSH2 0x1546 DUP6 DUP3 DUP7 ADD PUSH2 0x12D0 JUMP JUMPDEST SWAP2 POP POP SWAP3 POP SWAP3 SWAP1 POP JUMP JUMPDEST PUSH0 DUP3 DUP3 MSTORE PUSH1 0x20 DUP3 ADD SWAP1 POP SWAP3 SWAP2 POP POP JUMP JUMPDEST PUSH32 0x746F6B656E20646F6573206E6F74206578697374000000000000000000000000 PUSH0 DUP3 ADD MSTORE POP JUMP JUMPDEST PUSH0 PUSH2 0x1594 PUSH1 0x14 DUP4 PUSH2 0x1550 JUMP JUMPDEST SWAP2 POP PUSH2 0x159F DUP3 PUSH2 0x1560 JUMP JUMPDEST PUSH1 0x20 DUP3 ADD SWAP1 POP SWAP2 SWAP1 POP JUMP JUMPDEST PUSH0 PUSH1 0x20 DUP3 ADD SWAP1 POP DUP2 DUP2 SUB PUSH0 DUP4 ADD MSTORE PUSH2 0x15C1 DUP2 PUSH2 0x1588 JUMP JUMPDEST SWAP1 POP SWAP2 SWAP1 POP JUMP JUMPDEST PUSH32 0x6E6F7420617070726F7665640000000000000000000000000000000000000000 PUSH0 DUP3 ADD MSTORE POP JUMP JUMPDEST PUSH0 PUSH2 0x15FC PUSH1 0xC DUP4 PUSH2 0x1550 JUMP JUMPDEST SWAP2 POP PUSH2 0x1607 DUP3 PUSH2 0x15C8 JUMP JUMPDEST PUSH1 0x20 DUP3 ADD SWAP1 POP SWAP2 SWAP1 POP JUMP JUMPDEST PUSH0 PUSH1 0x20 DUP3 ADD SWAP1 POP DUP2 DUP2 SUB PUSH0 DUP4 ADD MSTORE PUSH2 0x1629 DUP2 PUSH2 0x15F0 JUMP JUMPDEST SWAP1 POP SWAP2 SWAP1 POP JUMP JUMPDEST PUSH0 PUSH1 0x60 DUP3 ADD SWAP1 POP PUSH2 0x1643 PUSH0 DUP4 ADD DUP7 PUSH2 0x1292 JUMP JUMPDEST PUSH2 0x1650 PUSH1 0x20 DUP4 ADD DUP6 PUSH2 0x1292 JUMP JUMPDEST PUSH2 0x165D PUSH1 0x40 DUP4 ADD DUP5 PUSH2 0x139D JUMP JUMPDEST SWAP5 SWAP4 POP POP POP POP JUMP JUMPDEST PUSH32 0x6E6F74206F776E65720000000000000000000000000000000000000000000000 PUSH0 DUP3 ADD MSTORE POP JUMP JUMPDEST PUSH0 PUSH2 0x1699 PUSH1 0x9 DUP4 PUSH2 0x1550 JUMP JUMPDEST SWAP2 POP PUSH2 0x16A4 DUP3 PUSH2 0x1665 JUMP JUMPDEST PUSH1 0x20 DUP3 ADD SWAP1 POP SWAP2 SWAP1 POP JUMP JUMPDEST PUSH0 PUSH1 0x20 DUP3 ADD SWAP1 POP DUP2 DUP2 SUB PUSH0 DUP4 ADD MSTORE PUSH2 0x16C6 DUP2 PUSH2 0x168D JUMP JUMPDEST SWAP1 POP SWAP2 SWAP1 POP JUMP JUMPDEST PUSH32 0x746F206973206E6F742061207A65726F20616464726573730000000000000000 PUSH0 DUP3 ADD MSTORE POP JUMP JUMPDEST PUSH0 PUSH2 0x1701 PUSH1 0x18 DUP4 PUSH2 0x1550 JUMP JUMPDEST SWAP2 POP PUSH2 0x170C DUP3 PUSH2 0x16CD JUMP JUMPDEST PUSH1 0x20 DUP3 ADD SWAP1 POP SWAP2 SWAP1 POP JUMP JUMPDEST PUSH0 PUSH1 0x20 DUP3 ADD SWAP1 POP DUP2 DUP2 SUB PUSH0 DUP4 ADD MSTORE PUSH2 0x172E DUP2 PUSH2 0x16F5 JUMP JUMPDEST SWAP1 POP SWAP2 SWAP1 POP JUMP JUMPDEST PUSH32 0x6E6F7420617574686F72697A6564000000000000000000000000000000000000 PUSH0 DUP3 ADD MSTORE POP JUMP JUMPDEST PUSH0 PUSH2 0x1769 PUSH1 0xE DUP4 PUSH2 0x1550 JUMP JUMPDEST SWAP2 POP PUSH2 0x1774 DUP3 PUSH2 0x1735 JUMP JUMPDEST PUSH1 0x20 DUP3 ADD SWAP1 POP SWAP2 SWAP1 POP JUMP JUMPDEST PUSH0 PUSH1 0x20 DUP3 ADD SWAP1 POP DUP2 DUP2 SUB PUSH0 DUP4 ADD MSTORE PUSH2 0x1796 DUP2 PUSH2 0x175D JUMP JUMPDEST SWAP1 POP SWAP2 SWAP1 POP JUMP JUMPDEST PUSH32 0x4E487B7100000000000000000000000000000000000000000000000000000000 PUSH0 MSTORE PUSH1 0x11 PUSH1 0x4 MSTORE PUSH1 0x24 PUSH0 REVERT JUMPDEST PUSH0 PUSH2 0x17D4 DUP3 PUSH2 0x1204 JUMP JUMPDEST SWAP2 POP PUSH0 DUP3 SUB PUSH2 0x17E6 JUMPI PUSH2 0x17E5 PUSH2 0x179D JUMP JUMPDEST JUMPDEST PUSH1 0x1 DUP3 SUB SWAP1 POP SWAP2 SWAP1 POP JUMP JUMPDEST PUSH0 PUSH2 0x17FB DUP3 PUSH2 0x1204 JUMP JUMPDEST SWAP2 POP PUSH32 0xFFFFFFFFFFFFFFFFFFFFFFFFFFFFFFFFFFFFFFFFFFFFFFFFFFFFFFFFFFFFFFFF DUP3 SUB PUSH2 0x182D JUMPI PUSH2 0x182C PUSH2 0x179D JUMP JUMPDEST JUMPDEST PUSH1 0x1 DUP3 ADD SWAP1 POP SWAP2 SWAP1 POP JUMP JUMPDEST PUSH0 DUP3 DUP3 MSTORE PUSH1 0x20 DUP3 ADD SWAP1 POP SWAP3 SWAP2 POP POP JUMP JUMPDEST POP JUMP JUMPDEST PUSH0 PUSH2 0x1856 PUSH0 DUP4 PUSH2 0x1838 JUMP JUMPDEST SWAP2 POP PUSH2 0x1861 DUP3 PUSH2 0x1848 JUMP JUMPDEST PUSH0 DUP3 ADD SWAP1 POP SWAP2 SWAP1 POP JUMP JUMPDEST PUSH0 PUSH1 0x80 DUP3 ADD SWAP1 POP PUSH2 0x187E PUSH0 DUP4 ADD DUP7 PUSH2 0x1292 JUMP JUMPDEST PUSH2 0x188B PUSH1 0x20 DUP4 ADD DUP6 PUSH2 0x1292 JUMP JUMPDEST PUSH2 0x1898 PUSH1 0x40 DUP4 ADD DUP5 PUSH2 0x139D JUMP JUMPDEST DUP2 DUP2 SUB PUSH1 0x60 DUP4 ADD MSTORE PUSH2 0x18A9 DUP2 PUSH2 0x184B JUMP JUMPDEST SWAP1 POP SWAP5 SWAP4 POP POP POP POP JUMP JUMPDEST PUSH0 DUP2 MLOAD SWAP1 POP PUSH2 0x18C1 DUP2 PUSH2 0x117C JUMP JUMPDEST SWAP3 SWAP2 POP POP JUMP JUMPDEST PUSH0 PUSH1 0x20 DUP3 DUP5 SUB SLT ISZERO PUSH2 0x18DC JUMPI PUSH2 0x18DB PUSH2 0x1149 JUMP JUMPDEST JUMPDEST PUSH0 PUSH2 0x18E9 DUP5 DUP3 DUP6 ADD PUSH2 0x18B3 JUMP JUMPDEST SWAP2 POP POP SWAP3 SWAP2 POP POP JUMP JUMPDEST PUSH32 0x756E7361666520726563697069656E7400000000000000000000000000000000 PUSH0 DUP3 ADD MSTORE POP JUMP JUMPDEST PUSH0 PUSH2 0x1926 PUSH1 0x10 DUP4 PUSH2 0x1550 JUMP JUMPDEST SWAP2 POP PUSH2 0x1931 DUP3 PUSH2 0x18F2 JUMP JUMPDEST PUSH1 0x20 DUP3 ADD SWAP1 POP SWAP2 SWAP1 POP JUMP JUMPDEST PUSH0 PUSH1 0x20 DUP3 ADD SWAP1 POP DUP2 DUP2 SUB PUSH0 DUP4 ADD MSTORE PUSH2 0x1953 DUP2 PUSH2 0x191A JUMP JUMPDEST SWAP1 POP SWAP2 SWAP1 POP JUMP JUMPDEST DUP3 DUP2 DUP4 CALLDATACOPY PUSH0 DUP4 DUP4 ADD MSTORE POP POP POP JUMP JUMPDEST PUSH0 PUSH1 0x1F NOT PUSH1 0x1F DUP4 ADD AND SWAP1 POP SWAP2 SWAP1 POP JUMP JUMPDEST PUSH0 PUSH2 0x1983 DUP4 DUP6 PUSH2 0x1838 JUMP JUMPDEST SWAP4 POP PUSH2 0x1990 DUP4 DUP6 DUP5 PUSH2 0x195A JUMP JUMPDEST PUSH2 0x1999 DUP4 PUSH2 0x1968 JUMP JUMPDEST DUP5 ADD SWAP1 POP SWAP4 SWAP3 POP POP POP JUMP JUMPDEST PUSH0 PUSH1 0x80 DUP3 ADD SWAP1 POP PUSH2 0x19B7 PUSH0 DUP4 ADD DUP9 PUSH2 0x1292 JUMP JUMPDEST PUSH2 0x19C4 PUSH1 0x20 DUP4 ADD DUP8 PUSH2 0x1292 JUMP JUMPDEST PUSH2 0x19D1 PUSH1 0x40 DUP4 ADD DUP7 PUSH2 0x139D JUMP JUMPDEST DUP2 DUP2 SUB PUSH1 0x60 DUP4 ADD MSTORE PUSH2 0x19E4 DUP2 DUP5 DUP7 PUSH2 0x1978 JUMP JUMPDEST SWAP1 POP SWAP7 SWAP6 POP POP POP POP POP POP JUMP JUMPDEST PUSH32 0x6D696E7420746F207A65726F2061646472657373000000000000000000000000 PUSH0 DUP3 ADD MSTORE POP JUMP JUMPDEST PUSH0 PUSH2 0x1A24 PUSH1 0x14 DUP4 PUSH2 0x1550 JUMP JUMPDEST SWAP2 POP PUSH2 0x1A2F DUP3 PUSH2 0x19F0 JUMP JUMPDEST PUSH1 0x20 DUP3 ADD SWAP1 POP SWAP2 SWAP1 POP JUMP JUMPDEST PUSH0 PUSH1 0x20 DUP3 ADD SWAP1 POP DUP2 DUP2 SUB PUSH0 DUP4 ADD MSTORE PUSH2 0x1A51 DUP2 PUSH2 0x1A18 JUMP JUMPDEST SWAP1 POP SWAP2 SWAP1 POP JUMP JUMPDEST PUSH32 0x616C7265616479206D696E746564000000000000000000000000000000000000 PUSH0 DUP3 ADD MSTORE POP JUMP JUMPDEST PUSH0 PUSH2 0x1A8C PUSH1 0xE DUP4 PUSH2 0x1550 JUMP JUMPDEST SWAP2 POP PUSH2 0x1A97 DUP3 PUSH2 0x1A58 JUMP JUMPDEST PUSH1 0x20 DUP3 ADD SWAP1 POP SWAP2 SWAP1 POP JUMP JUMPDEST PUSH0 PUSH1 0x20 DUP3 ADD SWAP1 POP DUP2 DUP2 SUB PUSH0 DUP4 ADD MSTORE PUSH2 0x1AB9 DUP2 PUSH2 0x1A80 JUMP JUMPDEST SWAP1 POP SWAP2 SWAP1 POP JUMP JUMPDEST PUSH32 0x6E6F74206D696E74656400000000000000000000000000000000000000000000 PUSH0 DUP3 ADD MSTORE POP JUMP JUMPDEST PUSH0 PUSH2 0x1AF4 PUSH1 0xA DUP4 PUSH2 0x1550 JUMP JUMPDEST SWAP2 POP PUSH2 0x1AFF DUP3 PUSH2 0x1AC0 JUMP JUMPDEST PUSH1 0x20 DUP3 ADD SWAP1 POP SWAP2 SWAP1 POP JUMP JUMPDEST PUSH0 PUSH1 0x20 DUP3 ADD SWAP1 POP DUP2 DUP2 SUB PUSH0 DUP4 ADD MSTORE PUSH2 0x1B21 DUP2 PUSH2 0x1AE8 JUMP JUMPDEST SWAP1 POP SWAP2 SWAP1 POP JUMP JUMPDEST PUSH0 PUSH2 0x1B32 DUP3 PUSH2 0x1204 JUMP JUMPDEST SWAP2 POP PUSH2 0x1B3D DUP4 PUSH2 0x1204 JUMP JUMPDEST SWAP3 POP DUP3 DUP3 SUB SWAP1 POP DUP2 DUP2 GT ISZERO PUSH2 0x1B55 JUMPI PUSH2 0x1B54 PUSH2 0x179D JUMP JUMPDEST JUMPDEST SWAP3 SWAP2 POP POP JUMP INVALID LOG2 PUSH5 0x6970667358 0x22 SLT KECCAK256 PUSH17 0x80DA68309072D09D553397E968FE32DF56 PUSH31 0x36D6A25D1E47D98F42479127B564736F6C634300081A003300000000000000 "
				},
				"gasEstimates": {
					"creation": {
						"codeDepositCost": "1411400",
						"executionCost": "1470",
						"totalCost": "1412870"
					},
					"external": {
						"approve(address,uint256)": "infinite",
						"balanceOf(address)": "2873",
						"burn(uint256)": "infinite",
						"getApproved(uint256)": "5121",
						"isApprovedForAll(address,address)": "infinite",
						"mint(address,uint256)": "infinite",
						"ownerOf(uint256)": "2874",
						"safeTransferFrom(address,address,uint256)": "infinite",
						"safeTransferFrom(address,address,uint256,bytes)": "infinite",
						"setApprovalForAll(address,bool)": "infinite",
						"supportsInterface(bytes4)": "676",
						"transferFrom(address,address,uint256)": "infinite"
					}
				},
				"methodIdentifiers": {
					"approve(address,uint256)": "095ea7b3",
					"balanceOf(address)": "70a08231",
					"burn(uint256)": "42966c68",
					"getApproved(uint256)": "081812fc",
					"isApprovedForAll(address,address)": "e985e9c5",
					"mint(address,uint256)": "40c10f19",
					"ownerOf(uint256)": "6352211e",
					"safeTransferFrom(address,address,uint256)": "42842e0e",
					"safeTransferFrom(address,address,uint256,bytes)": "b88d4fde",
					"setApprovalForAll(address,bool)": "a22cb465",
					"supportsInterface(bytes4)": "01ffc9a7",
					"transferFrom(address,address,uint256)": "23b872dd"
				}
			},
			"storageLayout": {
				"storage": [
					{
						"astId": 129,
						"contract": "contracts/ERC721.sol:MyNFT",
						"label": "_ownerOf",
						"offset": 0,
						"slot": "0",
						"type": "t_mapping(t_uint256,t_address)"
					},
					{
						"astId": 133,
						"contract": "contracts/ERC721.sol:MyNFT",
						"label": "_balanceOf",
						"offset": 0,
						"slot": "1",
						"type": "t_mapping(t_address,t_uint256)"
					},
					{
						"astId": 137,
						"contract": "contracts/ERC721.sol:MyNFT",
						"label": "_approvals",
						"offset": 0,
						"slot": "2",
						"type": "t_mapping(t_uint256,t_address)"
					},
					{
						"astId": 143,
						"contract": "contracts/ERC721.sol:MyNFT",
						"label": "isApprovedForAll",
						"offset": 0,
						"slot": "3",
						"type": "t_mapping(t_address,t_mapping(t_address,t_bool))"
					}
				],
				"types": {
					"t_address": {
						"encoding": "inplace",
						"label": "address",
						"numberOfBytes": "20"
					},
					"t_bool": {
						"encoding": "inplace",
						"label": "bool",
						"numberOfBytes": "1"
					},
					"t_mapping(t_address,t_bool)": {
						"encoding": "mapping",
						"key": "t_address",
						"label": "mapping(address => bool)",
						"numberOfBytes": "32",
						"value": "t_bool"
					},
					"t_mapping(t_address,t_mapping(t_address,t_bool))": {
						"encoding": "mapping",
						"key": "t_address",
						"label": "mapping(address => mapping(address => bool))",
						"numberOfBytes": "32",
						"value": "t_mapping(t_address,t_bool)"
					},
					"t_mapping(t_address,t_uint256)": {
						"encoding": "mapping",
						"key": "t_address",
						"label": "mapping(address => uint256)",
						"numberOfBytes": "32",
						"value": "t_uint256"
					},
					"t_mapping(t_uint256,t_address)": {
						"encoding": "mapping",
						"key": "t_uint256",
						"label": "mapping(uint256 => address)",
						"numberOfBytes": "32",
						"value": "t_address"
					},
					"t_uint256": {
						"encoding": "inplace",
						"label": "uint256",
						"numberOfBytes": "32"
					}
				}
			},
			"userdoc": {
				"kind": "user",
				"methods": {},
				"version": 1
			}
		}
	}
}