{
	"contracts/crowdfund.sol": {
		"crowdFund": {
			"abi": [
				{
					"inputs": [
						{
							"internalType": "address",
							"name": "_token",
							"type": "address"
						}
					],
					"stateMutability": "nonpayable",
					"type": "constructor"
				},
				{
					"anonymous": false,
					"inputs": [
						{
							"indexed": false,
							"internalType": "uint256",
							"name": "",
							"type": "uint256"
						}
					],
					"name": "Cancel",
					"type": "event"
				},
				{
					"anonymous": false,
					"inputs": [
						{
							"indexed": false,
							"internalType": "uint256",
							"name": "id",
							"type": "uint256"
						}
					],
					"name": "Claim",
					"type": "event"
				},
				{
					"anonymous": false,
					"inputs": [
						{
							"indexed": true,
							"internalType": "uint256",
							"name": "id",
							"type": "uint256"
						},
						{
							"indexed": true,
							"internalType": "address",
							"name": "caller",
							"type": "address"
						},
						{
							"indexed": false,
							"internalType": "uint256",
							"name": "amount",
							"type": "uint256"
						}
					],
					"name": "Pledge",
					"type": "event"
				},
				{
					"anonymous": false,
					"inputs": [
						{
							"indexed": false,
							"internalType": "uint256",
							"name": "id",
							"type": "uint256"
						},
						{
							"indexed": true,
							"internalType": "address",
							"name": "caller",
							"type": "address"
						},
						{
							"indexed": false,
							"internalType": "uint256",
							"name": "amount",
							"type": "uint256"
						}
					],
					"name": "Refund",
					"type": "event"
				},
				{
					"anonymous": false,
					"inputs": [
						{
							"indexed": true,
							"internalType": "uint256",
							"name": "id",
							"type": "uint256"
						},
						{
							"indexed": true,
							"internalType": "address",
							"name": "caller",
							"type": "address"
						},
						{
							"indexed": false,
							"internalType": "uint256",
							"name": "amount",
							"type": "uint256"
						}
					],
					"name": "Unpledge",
					"type": "event"
				},
				{
					"inputs": [
						{
							"internalType": "uint256",
							"name": "",
							"type": "uint256"
						}
					],
					"name": "campaigns",
					"outputs": [
						{
							"internalType": "address",
							"name": "creator",
							"type": "address"
						},
						{
							"internalType": "uint256",
							"name": "goal",
							"type": "uint256"
						},
						{
							"internalType": "uint256",
							"name": "pledged",
							"type": "uint256"
						},
						{
							"internalType": "uint32",
							"name": "startAt",
							"type": "uint32"
						},
						{
							"internalType": "uint32",
							"name": "endAt",
							"type": "uint32"
						},
						{
							"internalType": "bool",
							"name": "claimed",
							"type": "bool"
						}
					],
					"stateMutability": "view",
					"type": "function"
				},
				{
					"inputs": [
						{
							"internalType": "uint256",
							"name": "_id",
							"type": "uint256"
						}
					],
					"name": "cancel",
					"outputs": [],
					"stateMutability": "nonpayable",
					"type": "function"
				},
				{
					"inputs": [
						{
							"internalType": "uint256",
							"name": "_id",
							"type": "uint256"
						}
					],
					"name": "claim",
					"outputs": [],
					"stateMutability": "nonpayable",
					"type": "function"
				},
				{
					"inputs": [],
					"name": "count",
					"outputs": [
						{
							"internalType": "uint256",
							"name": "",
							"type": "uint256"
						}
					],
					"stateMutability": "view",
					"type": "function"
				},
				{
					"inputs": [
						{
							"internalType": "uint256",
							"name": "_goal",
							"type": "uint256"
						},
						{
							"internalType": "uint32",
							"name": "_startAt",
							"type": "uint32"
						},
						{
							"internalType": "uint32",
							"name": "_endAt",
							"type": "uint32"
						}
					],
					"name": "launch",
					"outputs": [],
					"stateMutability": "nonpayable",
					"type": "function"
				},
				{
					"inputs": [
						{
							"internalType": "uint256",
							"name": "_id",
							"type": "uint256"
						},
						{
							"internalType": "uint256",
							"name": "_amount",
							"type": "uint256"
						}
					],
					"name": "pledge",
					"outputs": [],
					"stateMutability": "nonpayable",
					"type": "function"
				},
				{
					"inputs": [
						{
							"internalType": "uint256",
							"name": "",
							"type": "uint256"
						},
						{
							"internalType": "address",
							"name": "",
							"type": "address"
						}
					],
					"name": "pledgedAmount",
					"outputs": [
						{
							"internalType": "uint256",
							"name": "",
							"type": "uint256"
						}
					],
					"stateMutability": "view",
					"type": "function"
				},
				{
					"inputs": [
						{
							"internalType": "uint256",
							"name": "_id",
							"type": "uint256"
						}
					],
					"name": "refund",
					"outputs": [],
					"stateMutability": "nonpayable",
					"type": "function"
				},
				{
					"inputs": [],
					"name": "token",
					"outputs": [
						{
							"internalType": "contract IERC20",
							"name": "",
							"type": "address"
						}
					],
					"stateMutability": "view",
					"type": "function"
				},
				{
					"inputs": [
						{
							"internalType": "uint256",
							"name": "_id",
							"type": "uint256"
						},
						{
							"internalType": "uint256",
							"name": "_amount",
							"type": "uint256"
						}
					],
					"name": "unPledge",
					"outputs": [],
					"stateMutability": "nonpayable",
					"type": "function"
				}
			],
			"devdoc": {
				"kind": "dev",
				"methods": {},
				"version": 1
			},
			"evm": {
				"assembly": "    /* \"contracts/crowdfund.sol\":234:3548  contract crowdFund{... */\n  mstore(0x40, 0xa0)\n    /* \"contracts/crowdfund.sol\":868:932  constructor(address _token){... */\n  callvalue\n  dup1\n  iszero\n  tag_1\n  jumpi\n  0x00\n  dup1\n  revert\ntag_1:\n  pop\n  mload(0x40)\n  sub(codesize, bytecodeSize)\n  dup1\n  bytecodeSize\n  dup4\n  codecopy\n  dup2\n  dup2\n  add\n  0x40\n  mstore\n  dup2\n  add\n  swap1\n  tag_2\n  swap2\n  swap1\n  tag_3\n  jump\t// in\ntag_2:\n    /* \"contracts/crowdfund.sol\":918:924  _token */\n  dup1\n    /* \"contracts/crowdfund.sol\":905:925  token=IERC20(_token) */\n  0xffffffffffffffffffffffffffffffffffffffff\n  and\n  0x80\n  dup2\n  0xffffffffffffffffffffffffffffffffffffffff\n  and\n  dup2\n  mstore\n  pop\n  pop\n    /* \"contracts/crowdfund.sol\":868:932  constructor(address _token){... */\n  pop\n    /* \"contracts/crowdfund.sol\":234:3548  contract crowdFund{... */\n  jump(tag_6)\n    /* \"#utility.yul\":88:205   */\ntag_8:\n    /* \"#utility.yul\":197:198   */\n  0x00\n    /* \"#utility.yul\":194:195   */\n  dup1\n    /* \"#utility.yul\":187:199   */\n  revert\n    /* \"#utility.yul\":334:460   */\ntag_10:\n    /* \"#utility.yul\":371:378   */\n  0x00\n    /* \"#utility.yul\":411:453   */\n  0xffffffffffffffffffffffffffffffffffffffff\n    /* \"#utility.yul\":404:409   */\n  dup3\n    /* \"#utility.yul\":400:454   */\n  and\n    /* \"#utility.yul\":389:454   */\n  swap1\n  pop\n    /* \"#utility.yul\":334:460   */\n  swap2\n  swap1\n  pop\n  jump\t// out\n    /* \"#utility.yul\":466:562   */\ntag_11:\n    /* \"#utility.yul\":503:510   */\n  0x00\n    /* \"#utility.yul\":532:556   */\n  tag_20\n    /* \"#utility.yul\":550:555   */\n  dup3\n    /* \"#utility.yul\":532:556   */\n  tag_10\n  jump\t// in\ntag_20:\n    /* \"#utility.yul\":521:556   */\n  swap1\n  pop\n    /* \"#utility.yul\":466:562   */\n  swap2\n  swap1\n  pop\n  jump\t// out\n    /* \"#utility.yul\":568:690   */\ntag_12:\n    /* \"#utility.yul\":641:665   */\n  tag_22\n    /* \"#utility.yul\":659:664   */\n  dup2\n    /* \"#utility.yul\":641:665   */\n  tag_11\n  jump\t// in\ntag_22:\n    /* \"#utility.yul\":634:639   */\n  dup2\n    /* \"#utility.yul\":631:666   */\n  eq\n    /* \"#utility.yul\":621:684   */\n  tag_23\n  jumpi\n    /* \"#utility.yul\":680:681   */\n  0x00\n    /* \"#utility.yul\":677:678   */\n  dup1\n    /* \"#utility.yul\":670:682   */\n  revert\n    /* \"#utility.yul\":621:684   */\ntag_23:\n    /* \"#utility.yul\":568:690   */\n  pop\n  jump\t// out\n    /* \"#utility.yul\":696:839   */\ntag_13:\n    /* \"#utility.yul\":753:758   */\n  0x00\n    /* \"#utility.yul\":784:790   */\n  dup2\n    /* \"#utility.yul\":778:791   */\n  mload\n    /* \"#utility.yul\":769:791   */\n  swap1\n  pop\n    /* \"#utility.yul\":800:833   */\n  tag_25\n    /* \"#utility.yul\":827:832   */\n  dup2\n    /* \"#utility.yul\":800:833   */\n  tag_12\n  jump\t// in\ntag_25:\n    /* \"#utility.yul\":696:839   */\n  swap3\n  swap2\n  pop\n  pop\n  jump\t// out\n    /* \"#utility.yul\":845:1196   */\ntag_3:\n    /* \"#utility.yul\":915:921   */\n  0x00\n    /* \"#utility.yul\":964:966   */\n  0x20\n    /* \"#utility.yul\":952:961   */\n  dup3\n    /* \"#utility.yul\":943:950   */\n  dup5\n    /* \"#utility.yul\":939:962   */\n  sub\n    /* \"#utility.yul\":935:967   */\n  slt\n    /* \"#utility.yul\":932:1051   */\n  iszero\n  tag_27\n  jumpi\n    /* \"#utility.yul\":970:1049   */\n  tag_28\n  tag_8\n  jump\t// in\ntag_28:\n    /* \"#utility.yul\":932:1051   */\ntag_27:\n    /* \"#utility.yul\":1090:1091   */\n  0x00\n    /* \"#utility.yul\":1115:1179   */\n  tag_29\n    /* \"#utility.yul\":1171:1178   */\n  dup5\n    /* \"#utility.yul\":1162:1168   */\n  dup3\n    /* \"#utility.yul\":1151:1160   */\n  dup6\n    /* \"#utility.yul\":1147:1169   */\n  add\n    /* \"#utility.yul\":1115:1179   */\n  tag_13\n  jump\t// in\ntag_29:\n    /* \"#utility.yul\":1105:1179   */\n  swap2\n  pop\n    /* \"#utility.yul\":1061:1189   */\n  pop\n    /* \"#utility.yul\":845:1196   */\n  swap3\n  swap2\n  pop\n  pop\n  jump\t// out\n    /* \"contracts/crowdfund.sol\":234:3548  contract crowdFund{... */\ntag_6:\n  mload(0x80)\n  codecopy(0x00, dataOffset(sub_0), dataSize(sub_0))\n  0x00\n  assignImmutable(\"0xcdbc23227c72e0a3f4683bdbccfcbed38047ca1a70d48b78c210dc5393029019\")\n  return(0x00, dataSize(sub_0))\nstop\n\nsub_0: assembly {\n        /* \"contracts/crowdfund.sol\":234:3548  contract crowdFund{... */\n      mstore(0x40, 0x80)\n      callvalue\n      dup1\n      iszero\n      tag_1\n      jumpi\n      0x00\n      dup1\n      revert\n    tag_1:\n      pop\n      jumpi(tag_2, lt(calldatasize, 0x04))\n      shr(0xe0, calldataload(0x00))\n      dup1\n      0x40e58ee5\n      gt\n      tag_13\n      jumpi\n      dup1\n      0x40e58ee5\n      eq\n      tag_8\n      jumpi\n      dup1\n      0xa3a0e936\n      eq\n      tag_9\n      jumpi\n      dup1\n      0xaa4fb63a\n      eq\n      tag_10\n      jumpi\n      dup1\n      0xfc0c546a\n      eq\n      tag_11\n      jumpi\n      dup1\n      0xfde327be\n      eq\n      tag_12\n      jumpi\n      jump(tag_2)\n    tag_13:\n      dup1\n      0x06661abd\n      eq\n      tag_3\n      jumpi\n      dup1\n      0x141961bc\n      eq\n      tag_4\n      jumpi\n      dup1\n      0x278ecde1\n      eq\n      tag_5\n      jumpi\n      dup1\n      0x2c63f146\n      eq\n      tag_6\n      jumpi\n      dup1\n      0x379607f5\n      eq\n      tag_7\n      jumpi\n    tag_2:\n      0x00\n      dup1\n      revert\n        /* \"contracts/crowdfund.sol\":735:752  uint public count */\n    tag_3:\n      tag_14\n      tag_15\n      jump\t// in\n    tag_14:\n      mload(0x40)\n      tag_16\n      swap2\n      swap1\n      tag_17\n      jump\t// in\n    tag_16:\n      mload(0x40)\n      dup1\n      swap2\n      sub\n      swap1\n      return\n        /* \"contracts/crowdfund.sol\":758:797  mapping(uint=>Campaign)public campaigns */\n    tag_4:\n      tag_18\n      0x04\n      dup1\n      calldatasize\n      sub\n      dup2\n      add\n      swap1\n      tag_19\n      swap2\n      swap1\n      tag_20\n      jump\t// in\n    tag_19:\n      tag_21\n      jump\t// in\n    tag_18:\n      mload(0x40)\n      tag_22\n      swap7\n      swap6\n      swap5\n      swap4\n      swap3\n      swap2\n      swap1\n      tag_23\n      jump\t// in\n    tag_22:\n      mload(0x40)\n      dup1\n      swap2\n      sub\n      swap1\n      return\n        /* \"contracts/crowdfund.sol\":3086:3541  function refund(uint _id)external{... */\n    tag_5:\n      tag_24\n      0x04\n      dup1\n      calldatasize\n      sub\n      dup2\n      add\n      swap1\n      tag_25\n      swap2\n      swap1\n      tag_20\n      jump\t// in\n    tag_25:\n      tag_26\n      jump\t// in\n    tag_24:\n      stop\n        /* \"contracts/crowdfund.sol\":938:1453  function launch(uint _goal,uint32 _startAt,uint32 _endAt)external{... */\n    tag_6:\n      tag_27\n      0x04\n      dup1\n      calldatasize\n      sub\n      dup2\n      add\n      swap1\n      tag_28\n      swap2\n      swap1\n      tag_29\n      jump\t// in\n    tag_28:\n      tag_30\n      jump\t// in\n    tag_27:\n      stop\n        /* \"contracts/crowdfund.sol\":2629:3080  function claim(uint _id)external{... */\n    tag_7:\n      tag_31\n      0x04\n      dup1\n      calldatasize\n      sub\n      dup2\n      add\n      swap1\n      tag_32\n      swap2\n      swap1\n      tag_20\n      jump\t// in\n    tag_32:\n      tag_33\n      jump\t// in\n    tag_31:\n      stop\n        /* \"contracts/crowdfund.sol\":1459:1737  function cancel(uint _id)external{... */\n    tag_8:\n      tag_34\n      0x04\n      dup1\n      calldatasize\n      sub\n      dup2\n      add\n      swap1\n      tag_35\n      swap2\n      swap1\n      tag_20\n      jump\t// in\n    tag_35:\n      tag_36\n      jump\t// in\n    tag_34:\n      stop\n        /* \"contracts/crowdfund.sol\":2200:2623  function unPledge(uint _id,uint _amount)external{... */\n    tag_9:\n      tag_37\n      0x04\n      dup1\n      calldatasize\n      sub\n      dup2\n      add\n      swap1\n      tag_38\n      swap2\n      swap1\n      tag_39\n      jump\t// in\n    tag_38:\n      tag_40\n      jump\t// in\n    tag_37:\n      stop\n        /* \"contracts/crowdfund.sol\":803:861  mapping(uint=>mapping(address=>uint)) public pledgedAmount */\n    tag_10:\n      tag_41\n      0x04\n      dup1\n      calldatasize\n      sub\n      dup2\n      add\n      swap1\n      tag_42\n      swap2\n      swap1\n      tag_43\n      jump\t// in\n    tag_42:\n      tag_44\n      jump\t// in\n    tag_41:\n      mload(0x40)\n      tag_45\n      swap2\n      swap1\n      tag_17\n      jump\t// in\n    tag_45:\n      mload(0x40)\n      dup1\n      swap2\n      sub\n      swap1\n      return\n        /* \"contracts/crowdfund.sol\":700:729  IERC20 public immutable token */\n    tag_11:\n      tag_46\n      tag_47\n      jump\t// in\n    tag_46:\n      mload(0x40)\n      tag_48\n      swap2\n      swap1\n      tag_49\n      jump\t// in\n    tag_48:\n      mload(0x40)\n      dup1\n      swap2\n      sub\n      swap1\n      return\n        /* \"contracts/crowdfund.sol\":1743:2194  function pledge(uint256 _id, uint256 _amount) external{... */\n    tag_12:\n      tag_50\n      0x04\n      dup1\n      calldatasize\n      sub\n      dup2\n      add\n      swap1\n      tag_51\n      swap2\n      swap1\n      tag_39\n      jump\t// in\n    tag_51:\n      tag_52\n      jump\t// in\n    tag_50:\n      stop\n        /* \"contracts/crowdfund.sol\":735:752  uint public count */\n    tag_15:\n      sload(0x00)\n      dup2\n      jump\t// out\n        /* \"contracts/crowdfund.sol\":758:797  mapping(uint=>Campaign)public campaigns */\n    tag_21:\n      mstore(0x20, 0x01)\n      dup1\n      0x00\n      mstore\n      keccak256(0x00, 0x40)\n      0x00\n      swap2\n      pop\n      swap1\n      pop\n      dup1\n      0x00\n      add\n      0x00\n      swap1\n      sload\n      swap1\n      0x0100\n      exp\n      swap1\n      div\n      0xffffffffffffffffffffffffffffffffffffffff\n      and\n      swap1\n      dup1\n      0x01\n      add\n      sload\n      swap1\n      dup1\n      0x02\n      add\n      sload\n      swap1\n      dup1\n      0x03\n      add\n      0x00\n      swap1\n      sload\n      swap1\n      0x0100\n      exp\n      swap1\n      div\n      0xffffffff\n      and\n      swap1\n      dup1\n      0x03\n      add\n      0x04\n      swap1\n      sload\n      swap1\n      0x0100\n      exp\n      swap1\n      div\n      0xffffffff\n      and\n      swap1\n      dup1\n      0x03\n      add\n      0x08\n      swap1\n      sload\n      swap1\n      0x0100\n      exp\n      swap1\n      div\n      0xff\n      and\n      swap1\n      pop\n      dup7\n      jump\t// out\n        /* \"contracts/crowdfund.sol\":3086:3541  function refund(uint _id)external{... */\n    tag_26:\n        /* \"contracts/crowdfund.sol\":3129:3154  Campaign storage campaign */\n      0x00\n        /* \"contracts/crowdfund.sol\":3155:3164  campaigns */\n      0x01\n        /* \"contracts/crowdfund.sol\":3155:3169  campaigns[_id] */\n      0x00\n        /* \"contracts/crowdfund.sol\":3165:3168  _id */\n      dup4\n        /* \"contracts/crowdfund.sol\":3155:3169  campaigns[_id] */\n      dup2\n      mstore\n      0x20\n      add\n      swap1\n      dup2\n      mstore\n      0x20\n      add\n      0x00\n      keccak256\n        /* \"contracts/crowdfund.sol\":3129:3169  Campaign storage campaign=campaigns[_id] */\n      swap1\n      pop\n        /* \"contracts/crowdfund.sol\":3204:3212  campaign */\n      dup1\n        /* \"contracts/crowdfund.sol\":3204:3218  campaign.endAt */\n      0x03\n      add\n      0x04\n      swap1\n      sload\n      swap1\n      0x0100\n      exp\n      swap1\n      div\n      0xffffffff\n      and\n        /* \"contracts/crowdfund.sol\":3187:3218  block.timestamp >campaign.endAt */\n      0xffffffff\n      and\n        /* \"contracts/crowdfund.sol\":3187:3202  block.timestamp */\n      timestamp\n        /* \"contracts/crowdfund.sol\":3187:3218  block.timestamp >campaign.endAt */\n      gt\n        /* \"contracts/crowdfund.sol\":3179:3232  require(block.timestamp >campaign.endAt, \"not ended\") */\n      tag_54\n      jumpi\n      mload(0x40)\n      0x08c379a000000000000000000000000000000000000000000000000000000000\n      dup2\n      mstore\n      0x04\n      add\n      tag_55\n      swap1\n      tag_56\n      jump\t// in\n    tag_55:\n      mload(0x40)\n      dup1\n      swap2\n      sub\n      swap1\n      revert\n    tag_54:\n        /* \"contracts/crowdfund.sol\":3268:3278  msg.sender */\n      caller\n        /* \"contracts/crowdfund.sol\":3250:3278  campaign.creator==msg.sender */\n      0xffffffffffffffffffffffffffffffffffffffff\n      and\n        /* \"contracts/crowdfund.sol\":3250:3258  campaign */\n      dup2\n        /* \"contracts/crowdfund.sol\":3250:3266  campaign.creator */\n      0x00\n      add\n      0x00\n      swap1\n      sload\n      swap1\n      0x0100\n      exp\n      swap1\n      div\n      0xffffffffffffffffffffffffffffffffffffffff\n      and\n        /* \"contracts/crowdfund.sol\":3250:3278  campaign.creator==msg.sender */\n      0xffffffffffffffffffffffffffffffffffffffff\n      and\n      eq\n        /* \"contracts/crowdfund.sol\":3242:3291  require(campaign.creator==msg.sender,\"not owner\") */\n      tag_57\n      jumpi\n      mload(0x40)\n      0x08c379a000000000000000000000000000000000000000000000000000000000\n      dup2\n      mstore\n      0x04\n      add\n      tag_58\n      swap1\n      tag_59\n      jump\t// in\n    tag_58:\n      mload(0x40)\n      dup1\n      swap2\n      sub\n      swap1\n      revert\n    tag_57:\n        /* \"contracts/crowdfund.sol\":3326:3334  campaign */\n      dup1\n        /* \"contracts/crowdfund.sol\":3326:3339  campaign.goal */\n      0x01\n      add\n      sload\n        /* \"contracts/crowdfund.sol\":3309:3317  campaign */\n      dup2\n        /* \"contracts/crowdfund.sol\":3309:3325  campaign.pledged */\n      0x02\n      add\n      sload\n        /* \"contracts/crowdfund.sol\":3309:3339  campaign.pledged<campaign.goal */\n      lt\n        /* \"contracts/crowdfund.sol\":3301:3360  require(campaign.pledged<campaign.goal,\"not enough amount\") */\n      tag_60\n      jumpi\n      mload(0x40)\n      0x08c379a000000000000000000000000000000000000000000000000000000000\n      dup2\n      mstore\n      0x04\n      add\n      tag_61\n      swap1\n      tag_62\n      jump\t// in\n    tag_61:\n      mload(0x40)\n      dup1\n      swap2\n      sub\n      swap1\n      revert\n    tag_60:\n        /* \"contracts/crowdfund.sol\":3370:3378  uint bal */\n      0x00\n        /* \"contracts/crowdfund.sol\":3379:3392  pledgedAmount */\n      0x02\n        /* \"contracts/crowdfund.sol\":3379:3397  pledgedAmount[_id] */\n      0x00\n        /* \"contracts/crowdfund.sol\":3393:3396  _id */\n      dup5\n        /* \"contracts/crowdfund.sol\":3379:3397  pledgedAmount[_id] */\n      dup2\n      mstore\n      0x20\n      add\n      swap1\n      dup2\n      mstore\n      0x20\n      add\n      0x00\n      keccak256\n        /* \"contracts/crowdfund.sol\":3379:3409  pledgedAmount[_id][msg.sender] */\n      0x00\n        /* \"contracts/crowdfund.sol\":3398:3408  msg.sender */\n      caller\n        /* \"contracts/crowdfund.sol\":3379:3409  pledgedAmount[_id][msg.sender] */\n      0xffffffffffffffffffffffffffffffffffffffff\n      and\n      0xffffffffffffffffffffffffffffffffffffffff\n      and\n      dup2\n      mstore\n      0x20\n      add\n      swap1\n      dup2\n      mstore\n      0x20\n      add\n      0x00\n      keccak256\n      sload\n        /* \"contracts/crowdfund.sol\":3370:3409  uint bal=pledgedAmount[_id][msg.sender] */\n      swap1\n      pop\n        /* \"contracts/crowdfund.sol\":3450:3451  0 */\n      0x00\n        /* \"contracts/crowdfund.sol\":3419:3432  pledgedAmount */\n      0x02\n        /* \"contracts/crowdfund.sol\":3419:3437  pledgedAmount[_id] */\n      0x00\n        /* \"contracts/crowdfund.sol\":3433:3436  _id */\n      dup6\n        /* \"contracts/crowdfund.sol\":3419:3437  pledgedAmount[_id] */\n      dup2\n      mstore\n      0x20\n      add\n      swap1\n      dup2\n      mstore\n      0x20\n      add\n      0x00\n      keccak256\n        /* \"contracts/crowdfund.sol\":3419:3449  pledgedAmount[_id][msg.sender] */\n      0x00\n        /* \"contracts/crowdfund.sol\":3438:3448  msg.sender */\n      caller\n        /* \"contracts/crowdfund.sol\":3419:3449  pledgedAmount[_id][msg.sender] */\n      0xffffffffffffffffffffffffffffffffffffffff\n      and\n      0xffffffffffffffffffffffffffffffffffffffff\n      and\n      dup2\n      mstore\n      0x20\n      add\n      swap1\n      dup2\n      mstore\n      0x20\n      add\n      0x00\n      keccak256\n        /* \"contracts/crowdfund.sol\":3419:3451  pledgedAmount[_id][msg.sender]=0 */\n      dup2\n      swap1\n      sstore\n      pop\n        /* \"contracts/crowdfund.sol\":3461:3466  token */\n      immutable(\"0xcdbc23227c72e0a3f4683bdbccfcbed38047ca1a70d48b78c210dc5393029019\")\n        /* \"contracts/crowdfund.sol\":3461:3475  token.transfer */\n      0xffffffffffffffffffffffffffffffffffffffff\n      and\n      0xa9059cbb\n        /* \"contracts/crowdfund.sol\":3476:3486  msg.sender */\n      caller\n        /* \"contracts/crowdfund.sol\":3487:3490  bal */\n      dup4\n        /* \"contracts/crowdfund.sol\":3461:3491  token.transfer(msg.sender,bal) */\n      mload(0x40)\n      dup4\n      0xffffffff\n      and\n      0xe0\n      shl\n      dup2\n      mstore\n      0x04\n      add\n      tag_63\n      swap3\n      swap2\n      swap1\n      tag_64\n      jump\t// in\n    tag_63:\n      0x20\n      mload(0x40)\n      dup1\n      dup4\n      sub\n      dup2\n      0x00\n      dup8\n      gas\n      call\n      iszero\n      dup1\n      iszero\n      tag_66\n      jumpi\n      returndatasize\n      0x00\n      dup1\n      returndatacopy\n      revert(0x00, returndatasize)\n    tag_66:\n      pop\n      pop\n      pop\n      pop\n      mload(0x40)\n      returndatasize\n      not(0x1f)\n      0x1f\n      dup3\n      add\n      and\n      dup3\n      add\n      dup1\n      0x40\n      mstore\n      pop\n      dup2\n      add\n      swap1\n      tag_67\n      swap2\n      swap1\n      tag_68\n      jump\t// in\n    tag_67:\n      pop\n        /* \"contracts/crowdfund.sol\":3518:3528  msg.sender */\n      caller\n        /* \"contracts/crowdfund.sol\":3506:3534  Refund(_id, msg.sender, bal) */\n      0xffffffffffffffffffffffffffffffffffffffff\n      and\n      0x21e12a7cad0da5928167e1084ea4d5fdf8d9af66657a2543a9ac76a0ca081477\n        /* \"contracts/crowdfund.sol\":3513:3516  _id */\n      dup5\n        /* \"contracts/crowdfund.sol\":3530:3533  bal */\n      dup4\n        /* \"contracts/crowdfund.sol\":3506:3534  Refund(_id, msg.sender, bal) */\n      mload(0x40)\n      tag_69\n      swap3\n      swap2\n      swap1\n      tag_70\n      jump\t// in\n    tag_69:\n      mload(0x40)\n      dup1\n      swap2\n      sub\n      swap1\n      log2\n        /* \"contracts/crowdfund.sol\":3119:3541  {... */\n      pop\n      pop\n        /* \"contracts/crowdfund.sol\":3086:3541  function refund(uint _id)external{... */\n      pop\n      jump\t// out\n        /* \"contracts/crowdfund.sol\":938:1453  function launch(uint _goal,uint32 _startAt,uint32 _endAt)external{... */\n    tag_30:\n        /* \"contracts/crowdfund.sol\":1031:1046  block.timestamp */\n      timestamp\n        /* \"contracts/crowdfund.sol\":1021:1029  _startAt */\n      dup3\n        /* \"contracts/crowdfund.sol\":1021:1046  _startAt>=block.timestamp */\n      0xffffffff\n      and\n      lt\n      iszero\n        /* \"contracts/crowdfund.sol\":1013:1064  require(_startAt>=block.timestamp,\"start at < now\") */\n      tag_72\n      jumpi\n      mload(0x40)\n      0x08c379a000000000000000000000000000000000000000000000000000000000\n      dup2\n      mstore\n      0x04\n      add\n      tag_73\n      swap1\n      tag_74\n      jump\t// in\n    tag_73:\n      mload(0x40)\n      dup1\n      swap2\n      sub\n      swap1\n      revert\n    tag_72:\n        /* \"contracts/crowdfund.sol\":1090:1098  _startAt */\n      dup2\n        /* \"contracts/crowdfund.sol\":1082:1098  _endAt>=_startAt */\n      0xffffffff\n      and\n        /* \"contracts/crowdfund.sol\":1082:1088  _endAt */\n      dup2\n        /* \"contracts/crowdfund.sol\":1082:1098  _endAt>=_startAt */\n      0xffffffff\n      and\n      lt\n      iszero\n        /* \"contracts/crowdfund.sol\":1074:1124  require(_endAt>=_startAt,\"end at < starting time\") */\n      tag_75\n      jumpi\n      mload(0x40)\n      0x08c379a000000000000000000000000000000000000000000000000000000000\n      dup2\n      mstore\n      0x04\n      add\n      tag_76\n      swap1\n      tag_77\n      jump\t// in\n    tag_76:\n      mload(0x40)\n      dup1\n      swap2\n      sub\n      swap1\n      revert\n    tag_75:\n        /* \"contracts/crowdfund.sol\":1166:1173  90 days */\n      0x76a700\n        /* \"contracts/crowdfund.sol\":1150:1165  block.timestamp */\n      timestamp\n        /* \"contracts/crowdfund.sol\":1150:1173  block.timestamp+90 days */\n      tag_78\n      swap2\n      swap1\n      tag_79\n      jump\t// in\n    tag_78:\n        /* \"contracts/crowdfund.sol\":1142:1148  _endAt */\n      dup2\n        /* \"contracts/crowdfund.sol\":1142:1173  _endAt<=block.timestamp+90 days */\n      0xffffffff\n      and\n      gt\n      iszero\n        /* \"contracts/crowdfund.sol\":1134:1199  require(_endAt<=block.timestamp+90 days,\"end at > max duration \") */\n      tag_80\n      jumpi\n      mload(0x40)\n      0x08c379a000000000000000000000000000000000000000000000000000000000\n      dup2\n      mstore\n      0x04\n      add\n      tag_81\n      swap1\n      tag_82\n      jump\t// in\n    tag_81:\n      mload(0x40)\n      dup1\n      swap2\n      sub\n      swap1\n      revert\n    tag_80:\n        /* \"contracts/crowdfund.sol\":1218:1223  count */\n      0x00\n      dup1\n        /* \"contracts/crowdfund.sol\":1218:1225  count++ */\n      dup2\n      sload\n      dup1\n      swap3\n      swap2\n      swap1\n      tag_83\n      swap1\n      tag_84\n      jump\t// in\n    tag_83:\n      swap2\n      swap1\n      pop\n      sstore\n      pop\n        /* \"contracts/crowdfund.sol\":1252:1445  Campaign({... */\n      mload(0x40)\n      dup1\n      0xc0\n      add\n      0x40\n      mstore\n      dup1\n        /* \"contracts/crowdfund.sol\":1285:1295  msg.sender */\n      caller\n        /* \"contracts/crowdfund.sol\":1252:1445  Campaign({... */\n      0xffffffffffffffffffffffffffffffffffffffff\n      and\n      dup2\n      mstore\n      0x20\n      add\n        /* \"contracts/crowdfund.sol\":1316:1321  _goal */\n      dup5\n        /* \"contracts/crowdfund.sol\":1252:1445  Campaign({... */\n      dup2\n      mstore\n      0x20\n      add\n        /* \"contracts/crowdfund.sol\":1345:1346  0 */\n      0x00\n        /* \"contracts/crowdfund.sol\":1252:1445  Campaign({... */\n      dup2\n      mstore\n      0x20\n      add\n        /* \"contracts/crowdfund.sol\":1370:1378  _startAt */\n      dup4\n        /* \"contracts/crowdfund.sol\":1252:1445  Campaign({... */\n      0xffffffff\n      and\n      dup2\n      mstore\n      0x20\n      add\n        /* \"contracts/crowdfund.sol\":1400:1406  _endAt */\n      dup3\n        /* \"contracts/crowdfund.sol\":1252:1445  Campaign({... */\n      0xffffffff\n      and\n      dup2\n      mstore\n      0x20\n      add\n        /* \"contracts/crowdfund.sol\":1429:1434  false */\n      0x00\n        /* \"contracts/crowdfund.sol\":1252:1445  Campaign({... */\n      iszero\n      iszero\n      dup2\n      mstore\n      pop\n        /* \"contracts/crowdfund.sol\":1235:1244  campaigns */\n      0x01\n        /* \"contracts/crowdfund.sol\":1235:1251  campaigns[count] */\n      0x00\n        /* \"contracts/crowdfund.sol\":1245:1250  count */\n      dup1\n      sload\n        /* \"contracts/crowdfund.sol\":1235:1251  campaigns[count] */\n      dup2\n      mstore\n      0x20\n      add\n      swap1\n      dup2\n      mstore\n      0x20\n      add\n      0x00\n      keccak256\n        /* \"contracts/crowdfund.sol\":1235:1445  campaigns[count]=Campaign({... */\n      0x00\n      dup3\n      add\n      mload\n      dup2\n      0x00\n      add\n      exp(0x0100, 0x00)\n      dup2\n      sload\n      dup2\n      0xffffffffffffffffffffffffffffffffffffffff\n      mul\n      not\n      and\n      swap1\n      dup4\n      0xffffffffffffffffffffffffffffffffffffffff\n      and\n      mul\n      or\n      swap1\n      sstore\n      pop\n      0x20\n      dup3\n      add\n      mload\n      dup2\n      0x01\n      add\n      sstore\n      0x40\n      dup3\n      add\n      mload\n      dup2\n      0x02\n      add\n      sstore\n      0x60\n      dup3\n      add\n      mload\n      dup2\n      0x03\n      add\n      exp(0x0100, 0x00)\n      dup2\n      sload\n      dup2\n      0xffffffff\n      mul\n      not\n      and\n      swap1\n      dup4\n      0xffffffff\n      and\n      mul\n      or\n      swap1\n      sstore\n      pop\n      0x80\n      dup3\n      add\n      mload\n      dup2\n      0x03\n      add\n      exp(0x0100, 0x04)\n      dup2\n      sload\n      dup2\n      0xffffffff\n      mul\n      not\n      and\n      swap1\n      dup4\n      0xffffffff\n      and\n      mul\n      or\n      swap1\n      sstore\n      pop\n      0xa0\n      dup3\n      add\n      mload\n      dup2\n      0x03\n      add\n      exp(0x0100, 0x08)\n      dup2\n      sload\n      dup2\n      0xff\n      mul\n      not\n      and\n      swap1\n      dup4\n      iszero\n      iszero\n      mul\n      or\n      swap1\n      sstore\n      pop\n      swap1\n      pop\n      pop\n        /* \"contracts/crowdfund.sol\":938:1453  function launch(uint _goal,uint32 _startAt,uint32 _endAt)external{... */\n      pop\n      pop\n      pop\n      jump\t// out\n        /* \"contracts/crowdfund.sol\":2629:3080  function claim(uint _id)external{... */\n    tag_33:\n        /* \"contracts/crowdfund.sol\":2671:2696  Campaign storage campaign */\n      0x00\n        /* \"contracts/crowdfund.sol\":2697:2706  campaigns */\n      0x01\n        /* \"contracts/crowdfund.sol\":2697:2711  campaigns[_id] */\n      0x00\n        /* \"contracts/crowdfund.sol\":2707:2710  _id */\n      dup4\n        /* \"contracts/crowdfund.sol\":2697:2711  campaigns[_id] */\n      dup2\n      mstore\n      0x20\n      add\n      swap1\n      dup2\n      mstore\n      0x20\n      add\n      0x00\n      keccak256\n        /* \"contracts/crowdfund.sol\":2671:2711  Campaign storage campaign=campaigns[_id] */\n      swap1\n      pop\n        /* \"contracts/crowdfund.sol\":2746:2754  campaign */\n      dup1\n        /* \"contracts/crowdfund.sol\":2746:2760  campaign.endAt */\n      0x03\n      add\n      0x04\n      swap1\n      sload\n      swap1\n      0x0100\n      exp\n      swap1\n      div\n      0xffffffff\n      and\n        /* \"contracts/crowdfund.sol\":2729:2760  block.timestamp >campaign.endAt */\n      0xffffffff\n      and\n        /* \"contracts/crowdfund.sol\":2729:2744  block.timestamp */\n      timestamp\n        /* \"contracts/crowdfund.sol\":2729:2760  block.timestamp >campaign.endAt */\n      gt\n        /* \"contracts/crowdfund.sol\":2721:2774  require(block.timestamp >campaign.endAt, \"not ended\") */\n      tag_86\n      jumpi\n      mload(0x40)\n      0x08c379a000000000000000000000000000000000000000000000000000000000\n      dup2\n      mstore\n      0x04\n      add\n      tag_87\n      swap1\n      tag_56\n      jump\t// in\n    tag_87:\n      mload(0x40)\n      dup1\n      swap2\n      sub\n      swap1\n      revert\n    tag_86:\n        /* \"contracts/crowdfund.sol\":2810:2820  msg.sender */\n      caller\n        /* \"contracts/crowdfund.sol\":2792:2820  campaign.creator==msg.sender */\n      0xffffffffffffffffffffffffffffffffffffffff\n      and\n        /* \"contracts/crowdfund.sol\":2792:2800  campaign */\n      dup2\n        /* \"contracts/crowdfund.sol\":2792:2808  campaign.creator */\n      0x00\n      add\n      0x00\n      swap1\n      sload\n      swap1\n      0x0100\n      exp\n      swap1\n      div\n      0xffffffffffffffffffffffffffffffffffffffff\n      and\n        /* \"contracts/crowdfund.sol\":2792:2820  campaign.creator==msg.sender */\n      0xffffffffffffffffffffffffffffffffffffffff\n      and\n      eq\n        /* \"contracts/crowdfund.sol\":2784:2833  require(campaign.creator==msg.sender,\"not owner\") */\n      tag_88\n      jumpi\n      mload(0x40)\n      0x08c379a000000000000000000000000000000000000000000000000000000000\n      dup2\n      mstore\n      0x04\n      add\n      tag_89\n      swap1\n      tag_59\n      jump\t// in\n    tag_89:\n      mload(0x40)\n      dup1\n      swap2\n      sub\n      swap1\n      revert\n    tag_88:\n        /* \"contracts/crowdfund.sol\":2869:2877  campaign */\n      dup1\n        /* \"contracts/crowdfund.sol\":2869:2882  campaign.goal */\n      0x01\n      add\n      sload\n        /* \"contracts/crowdfund.sol\":2851:2859  campaign */\n      dup2\n        /* \"contracts/crowdfund.sol\":2851:2867  campaign.pledged */\n      0x02\n      add\n      sload\n        /* \"contracts/crowdfund.sol\":2851:2882  campaign.pledged>=campaign.goal */\n      lt\n      iszero\n        /* \"contracts/crowdfund.sol\":2843:2903  require(campaign.pledged>=campaign.goal,\"not enough amount\") */\n      tag_90\n      jumpi\n      mload(0x40)\n      0x08c379a000000000000000000000000000000000000000000000000000000000\n      dup2\n      mstore\n      0x04\n      add\n      tag_91\n      swap1\n      tag_62\n      jump\t// in\n    tag_91:\n      mload(0x40)\n      dup1\n      swap2\n      sub\n      swap1\n      revert\n    tag_90:\n        /* \"contracts/crowdfund.sol\":2922:2930  campaign */\n      dup1\n        /* \"contracts/crowdfund.sol\":2922:2938  campaign.claimed */\n      0x03\n      add\n      0x08\n      swap1\n      sload\n      swap1\n      0x0100\n      exp\n      swap1\n      div\n      0xff\n      and\n        /* \"contracts/crowdfund.sol\":2921:2938  !campaign.claimed */\n      iszero\n        /* \"contracts/crowdfund.sol\":2913:2957  require(!campaign.claimed,\"already claimed\") */\n      tag_92\n      jumpi\n      mload(0x40)\n      0x08c379a000000000000000000000000000000000000000000000000000000000\n      dup2\n      mstore\n      0x04\n      add\n      tag_93\n      swap1\n      tag_94\n      jump\t// in\n    tag_93:\n      mload(0x40)\n      dup1\n      swap2\n      sub\n      swap1\n      revert\n    tag_92:\n        /* \"contracts/crowdfund.sol\":2985:2989  true */\n      0x01\n        /* \"contracts/crowdfund.sol\":2968:2976  campaign */\n      dup2\n        /* \"contracts/crowdfund.sol\":2968:2984  campaign.claimed */\n      0x03\n      add\n      0x08\n        /* \"contracts/crowdfund.sol\":2968:2989  campaign.claimed=true */\n      0x0100\n      exp\n      dup2\n      sload\n      dup2\n      0xff\n      mul\n      not\n      and\n      swap1\n      dup4\n      iszero\n      iszero\n      mul\n      or\n      swap1\n      sstore\n      pop\n        /* \"contracts/crowdfund.sol\":2999:3004  token */\n      immutable(\"0xcdbc23227c72e0a3f4683bdbccfcbed38047ca1a70d48b78c210dc5393029019\")\n        /* \"contracts/crowdfund.sol\":2999:3013  token.transfer */\n      0xffffffffffffffffffffffffffffffffffffffff\n      and\n      0xa9059cbb\n        /* \"contracts/crowdfund.sol\":3014:3022  campaign */\n      dup3\n        /* \"contracts/crowdfund.sol\":3014:3030  campaign.creator */\n      0x00\n      add\n      0x00\n      swap1\n      sload\n      swap1\n      0x0100\n      exp\n      swap1\n      div\n      0xffffffffffffffffffffffffffffffffffffffff\n      and\n        /* \"contracts/crowdfund.sol\":3031:3039  campaign */\n      dup4\n        /* \"contracts/crowdfund.sol\":3031:3047  campaign.pledged */\n      0x02\n      add\n      sload\n        /* \"contracts/crowdfund.sol\":2999:3048  token.transfer(campaign.creator,campaign.pledged) */\n      mload(0x40)\n      dup4\n      0xffffffff\n      and\n      0xe0\n      shl\n      dup2\n      mstore\n      0x04\n      add\n      tag_95\n      swap3\n      swap2\n      swap1\n      tag_64\n      jump\t// in\n    tag_95:\n      0x20\n      mload(0x40)\n      dup1\n      dup4\n      sub\n      dup2\n      0x00\n      dup8\n      gas\n      call\n      iszero\n      dup1\n      iszero\n      tag_97\n      jumpi\n      returndatasize\n      0x00\n      dup1\n      returndatacopy\n      revert(0x00, returndatasize)\n    tag_97:\n      pop\n      pop\n      pop\n      pop\n      mload(0x40)\n      returndatasize\n      not(0x1f)\n      0x1f\n      dup3\n      add\n      and\n      dup3\n      add\n      dup1\n      0x40\n      mstore\n      pop\n      dup2\n      add\n      swap1\n      tag_98\n      swap2\n      swap1\n      tag_68\n      jump\t// in\n    tag_98:\n      pop\n        /* \"contracts/crowdfund.sol\":3063:3073  Claim(_id) */\n      0x7bb2b3c10797baccb6f8c4791f1edd6ca2f0d028ee0eda64b01a9a57e3a653f7\n        /* \"contracts/crowdfund.sol\":3069:3072  _id */\n      dup3\n        /* \"contracts/crowdfund.sol\":3063:3073  Claim(_id) */\n      mload(0x40)\n      tag_99\n      swap2\n      swap1\n      tag_17\n      jump\t// in\n    tag_99:\n      mload(0x40)\n      dup1\n      swap2\n      sub\n      swap1\n      log1\n        /* \"contracts/crowdfund.sol\":2661:3080  {... */\n      pop\n        /* \"contracts/crowdfund.sol\":2629:3080  function claim(uint _id)external{... */\n      pop\n      jump\t// out\n        /* \"contracts/crowdfund.sol\":1459:1737  function cancel(uint _id)external{... */\n    tag_36:\n        /* \"contracts/crowdfund.sol\":1502:1526  Campaign memory campaign */\n      0x00\n        /* \"contracts/crowdfund.sol\":1527:1536  campaigns */\n      0x01\n        /* \"contracts/crowdfund.sol\":1527:1541  campaigns[_id] */\n      0x00\n        /* \"contracts/crowdfund.sol\":1537:1540  _id */\n      dup4\n        /* \"contracts/crowdfund.sol\":1527:1541  campaigns[_id] */\n      dup2\n      mstore\n      0x20\n      add\n      swap1\n      dup2\n      mstore\n      0x20\n      add\n      0x00\n      keccak256\n        /* \"contracts/crowdfund.sol\":1502:1541  Campaign memory campaign=campaigns[_id] */\n      mload(0x40)\n      dup1\n      0xc0\n      add\n      0x40\n      mstore\n      swap1\n      dup2\n      0x00\n      dup3\n      add\n      0x00\n      swap1\n      sload\n      swap1\n      0x0100\n      exp\n      swap1\n      div\n      0xffffffffffffffffffffffffffffffffffffffff\n      and\n      0xffffffffffffffffffffffffffffffffffffffff\n      and\n      0xffffffffffffffffffffffffffffffffffffffff\n      and\n      dup2\n      mstore\n      0x20\n      add\n      0x01\n      dup3\n      add\n      sload\n      dup2\n      mstore\n      0x20\n      add\n      0x02\n      dup3\n      add\n      sload\n      dup2\n      mstore\n      0x20\n      add\n      0x03\n      dup3\n      add\n      0x00\n      swap1\n      sload\n      swap1\n      0x0100\n      exp\n      swap1\n      div\n      0xffffffff\n      and\n      0xffffffff\n      and\n      0xffffffff\n      and\n      dup2\n      mstore\n      0x20\n      add\n      0x03\n      dup3\n      add\n      0x04\n      swap1\n      sload\n      swap1\n      0x0100\n      exp\n      swap1\n      div\n      0xffffffff\n      and\n      0xffffffff\n      and\n      0xffffffff\n      and\n      dup2\n      mstore\n      0x20\n      add\n      0x03\n      dup3\n      add\n      0x08\n      swap1\n      sload\n      swap1\n      0x0100\n      exp\n      swap1\n      div\n      0xff\n      and\n      iszero\n      iszero\n      iszero\n      iszero\n      dup2\n      mstore\n      pop\n      pop\n      swap1\n      pop\n        /* \"contracts/crowdfund.sol\":1577:1587  msg.sender */\n      caller\n        /* \"contracts/crowdfund.sol\":1559:1587  campaign.creator==msg.sender */\n      0xffffffffffffffffffffffffffffffffffffffff\n      and\n        /* \"contracts/crowdfund.sol\":1559:1567  campaign */\n      dup2\n        /* \"contracts/crowdfund.sol\":1559:1575  campaign.creator */\n      0x00\n      add\n      mload\n        /* \"contracts/crowdfund.sol\":1559:1587  campaign.creator==msg.sender */\n      0xffffffffffffffffffffffffffffffffffffffff\n      and\n      eq\n        /* \"contracts/crowdfund.sol\":1551:1602  require(campaign.creator==msg.sender,\"not creator\") */\n      tag_101\n      jumpi\n      mload(0x40)\n      0x08c379a000000000000000000000000000000000000000000000000000000000\n      dup2\n      mstore\n      0x04\n      add\n      tag_102\n      swap1\n      tag_103\n      jump\t// in\n    tag_102:\n      mload(0x40)\n      dup1\n      swap2\n      sub\n      swap1\n      revert\n    tag_101:\n        /* \"contracts/crowdfund.sol\":1636:1644  campaign */\n      dup1\n        /* \"contracts/crowdfund.sol\":1636:1652  campaign.startAt */\n      0x60\n      add\n      mload\n        /* \"contracts/crowdfund.sol\":1620:1652  block.timestamp<campaign.startAt */\n      0xffffffff\n      and\n        /* \"contracts/crowdfund.sol\":1620:1635  block.timestamp */\n      timestamp\n        /* \"contracts/crowdfund.sol\":1620:1652  block.timestamp<campaign.startAt */\n      lt\n        /* \"contracts/crowdfund.sol\":1612:1672  require(block.timestamp<campaign.startAt,\"campaign started\") */\n      tag_104\n      jumpi\n      mload(0x40)\n      0x08c379a000000000000000000000000000000000000000000000000000000000\n      dup2\n      mstore\n      0x04\n      add\n      tag_105\n      swap1\n      tag_106\n      jump\t// in\n    tag_105:\n      mload(0x40)\n      dup1\n      swap2\n      sub\n      swap1\n      revert\n    tag_104:\n        /* \"contracts/crowdfund.sol\":1690:1699  campaigns */\n      0x01\n        /* \"contracts/crowdfund.sol\":1690:1704  campaigns[_id] */\n      0x00\n        /* \"contracts/crowdfund.sol\":1700:1703  _id */\n      dup4\n        /* \"contracts/crowdfund.sol\":1690:1704  campaigns[_id] */\n      dup2\n      mstore\n      0x20\n      add\n      swap1\n      dup2\n      mstore\n      0x20\n      add\n      0x00\n      keccak256\n      0x00\n        /* \"contracts/crowdfund.sol\":1683:1704  delete campaigns[_id] */\n      dup1\n      dup3\n      add\n      exp(0x0100, 0x00)\n      dup2\n      sload\n      swap1\n      0xffffffffffffffffffffffffffffffffffffffff\n      mul\n      not\n      and\n      swap1\n      sstore\n      0x01\n      dup3\n      add\n      0x00\n      swap1\n      sstore\n      0x02\n      dup3\n      add\n      0x00\n      swap1\n      sstore\n      0x03\n      dup3\n      add\n      exp(0x0100, 0x00)\n      dup2\n      sload\n      swap1\n      0xffffffff\n      mul\n      not\n      and\n      swap1\n      sstore\n      0x03\n      dup3\n      add\n      exp(0x0100, 0x04)\n      dup2\n      sload\n      swap1\n      0xffffffff\n      mul\n      not\n      and\n      swap1\n      sstore\n      0x03\n      dup3\n      add\n      exp(0x0100, 0x08)\n      dup2\n      sload\n      swap1\n      0xff\n      mul\n      not\n      and\n      swap1\n      sstore\n      pop\n      pop\n        /* \"contracts/crowdfund.sol\":1719:1730  Cancel(_id) */\n      0x8bf30e7ff26833413be5f69e1d373744864d600b664204b4a2f9844a8eedb9ed\n        /* \"contracts/crowdfund.sol\":1726:1729  _id */\n      dup3\n        /* \"contracts/crowdfund.sol\":1719:1730  Cancel(_id) */\n      mload(0x40)\n      tag_107\n      swap2\n      swap1\n      tag_17\n      jump\t// in\n    tag_107:\n      mload(0x40)\n      dup1\n      swap2\n      sub\n      swap1\n      log1\n        /* \"contracts/crowdfund.sol\":1492:1737  {... */\n      pop\n        /* \"contracts/crowdfund.sol\":1459:1737  function cancel(uint _id)external{... */\n      pop\n      jump\t// out\n        /* \"contracts/crowdfund.sol\":2200:2623  function unPledge(uint _id,uint _amount)external{... */\n    tag_40:\n        /* \"contracts/crowdfund.sol\":2258:2283  Campaign storage campaign */\n      0x00\n        /* \"contracts/crowdfund.sol\":2284:2293  campaigns */\n      0x01\n        /* \"contracts/crowdfund.sol\":2284:2298  campaigns[_id] */\n      0x00\n        /* \"contracts/crowdfund.sol\":2294:2297  _id */\n      dup5\n        /* \"contracts/crowdfund.sol\":2284:2298  campaigns[_id] */\n      dup2\n      mstore\n      0x20\n      add\n      swap1\n      dup2\n      mstore\n      0x20\n      add\n      0x00\n      keccak256\n        /* \"contracts/crowdfund.sol\":2258:2298  Campaign storage campaign=campaigns[_id] */\n      swap1\n      pop\n        /* \"contracts/crowdfund.sol\":2413:2421  campaign */\n      dup1\n        /* \"contracts/crowdfund.sol\":2413:2427  campaign.endAt */\n      0x03\n      add\n      0x04\n      swap1\n      sload\n      swap1\n      0x0100\n      exp\n      swap1\n      div\n      0xffffffff\n      and\n        /* \"contracts/crowdfund.sol\":2394:2427  block.timestamp <= campaign.endAt */\n      0xffffffff\n      and\n        /* \"contracts/crowdfund.sol\":2394:2409  block.timestamp */\n      timestamp\n        /* \"contracts/crowdfund.sol\":2394:2427  block.timestamp <= campaign.endAt */\n      gt\n      iszero\n        /* \"contracts/crowdfund.sol\":2386:2437  require(block.timestamp <= campaign.endAt, \"ended\") */\n      tag_109\n      jumpi\n      mload(0x40)\n      0x08c379a000000000000000000000000000000000000000000000000000000000\n      dup2\n      mstore\n      0x04\n      add\n      tag_110\n      swap1\n      tag_111\n      jump\t// in\n    tag_110:\n      mload(0x40)\n      dup1\n      swap2\n      sub\n      swap1\n      revert\n    tag_109:\n        /* \"contracts/crowdfund.sol\":2466:2473  _amount */\n      dup2\n        /* \"contracts/crowdfund.sol\":2448:2456  campaign */\n      dup2\n        /* \"contracts/crowdfund.sol\":2448:2464  campaign.pledged */\n      0x02\n      add\n      0x00\n        /* \"contracts/crowdfund.sol\":2448:2473  campaign.pledged-=_amount */\n      dup3\n      dup3\n      sload\n      tag_112\n      swap2\n      swap1\n      tag_113\n      jump\t// in\n    tag_112:\n      swap3\n      pop\n      pop\n      dup2\n      swap1\n      sstore\n      pop\n        /* \"contracts/crowdfund.sol\":2515:2522  _amount */\n      dup2\n        /* \"contracts/crowdfund.sol\":2483:2496  pledgedAmount */\n      0x02\n        /* \"contracts/crowdfund.sol\":2483:2501  pledgedAmount[_id] */\n      0x00\n        /* \"contracts/crowdfund.sol\":2497:2500  _id */\n      dup6\n        /* \"contracts/crowdfund.sol\":2483:2501  pledgedAmount[_id] */\n      dup2\n      mstore\n      0x20\n      add\n      swap1\n      dup2\n      mstore\n      0x20\n      add\n      0x00\n      keccak256\n        /* \"contracts/crowdfund.sol\":2483:2513  pledgedAmount[_id][msg.sender] */\n      0x00\n        /* \"contracts/crowdfund.sol\":2502:2512  msg.sender */\n      caller\n        /* \"contracts/crowdfund.sol\":2483:2513  pledgedAmount[_id][msg.sender] */\n      0xffffffffffffffffffffffffffffffffffffffff\n      and\n      0xffffffffffffffffffffffffffffffffffffffff\n      and\n      dup2\n      mstore\n      0x20\n      add\n      swap1\n      dup2\n      mstore\n      0x20\n      add\n      0x00\n      keccak256\n      0x00\n        /* \"contracts/crowdfund.sol\":2483:2522  pledgedAmount[_id][msg.sender]-=_amount */\n      dup3\n      dup3\n      sload\n      tag_114\n      swap2\n      swap1\n      tag_113\n      jump\t// in\n    tag_114:\n      swap3\n      pop\n      pop\n      dup2\n      swap1\n      sstore\n      pop\n        /* \"contracts/crowdfund.sol\":2532:2537  token */\n      immutable(\"0xcdbc23227c72e0a3f4683bdbccfcbed38047ca1a70d48b78c210dc5393029019\")\n        /* \"contracts/crowdfund.sol\":2532:2546  token.transfer */\n      0xffffffffffffffffffffffffffffffffffffffff\n      and\n      0xa9059cbb\n        /* \"contracts/crowdfund.sol\":2547:2557  msg.sender */\n      caller\n        /* \"contracts/crowdfund.sol\":2558:2565  _amount */\n      dup5\n        /* \"contracts/crowdfund.sol\":2532:2566  token.transfer(msg.sender,_amount) */\n      mload(0x40)\n      dup4\n      0xffffffff\n      and\n      0xe0\n      shl\n      dup2\n      mstore\n      0x04\n      add\n      tag_115\n      swap3\n      swap2\n      swap1\n      tag_64\n      jump\t// in\n    tag_115:\n      0x20\n      mload(0x40)\n      dup1\n      dup4\n      sub\n      dup2\n      0x00\n      dup8\n      gas\n      call\n      iszero\n      dup1\n      iszero\n      tag_117\n      jumpi\n      returndatasize\n      0x00\n      dup1\n      returndatacopy\n      revert(0x00, returndatasize)\n    tag_117:\n      pop\n      pop\n      pop\n      pop\n      mload(0x40)\n      returndatasize\n      not(0x1f)\n      0x1f\n      dup3\n      add\n      and\n      dup3\n      add\n      dup1\n      0x40\n      mstore\n      pop\n      dup2\n      add\n      swap1\n      tag_118\n      swap2\n      swap1\n      tag_68\n      jump\t// in\n    tag_118:\n      pop\n        /* \"contracts/crowdfund.sol\":2596:2606  msg.sender */\n      caller\n        /* \"contracts/crowdfund.sol\":2582:2616  Unpledge(_id, msg.sender, _amount) */\n      0xffffffffffffffffffffffffffffffffffffffff\n      and\n        /* \"contracts/crowdfund.sol\":2591:2594  _id */\n      dup4\n        /* \"contracts/crowdfund.sol\":2582:2616  Unpledge(_id, msg.sender, _amount) */\n      0x2eeeab891b26a214d1b25749f88a406bdea852bd8c9bfda977e0ef8114c180ba\n        /* \"contracts/crowdfund.sol\":2608:2615  _amount */\n      dup5\n        /* \"contracts/crowdfund.sol\":2582:2616  Unpledge(_id, msg.sender, _amount) */\n      mload(0x40)\n      tag_119\n      swap2\n      swap1\n      tag_17\n      jump\t// in\n    tag_119:\n      mload(0x40)\n      dup1\n      swap2\n      sub\n      swap1\n      log3\n        /* \"contracts/crowdfund.sol\":2248:2623  {... */\n      pop\n        /* \"contracts/crowdfund.sol\":2200:2623  function unPledge(uint _id,uint _amount)external{... */\n      pop\n      pop\n      jump\t// out\n        /* \"contracts/crowdfund.sol\":803:861  mapping(uint=>mapping(address=>uint)) public pledgedAmount */\n    tag_44:\n      mstore(0x20, 0x02)\n      dup2\n      0x00\n      mstore\n      mstore(0x20, keccak256(0x00, 0x40))\n      dup1\n      0x00\n      mstore\n      keccak256(0x00, 0x40)\n      0x00\n      swap2\n      pop\n      swap2\n      pop\n      pop\n      sload\n      dup2\n      jump\t// out\n        /* \"contracts/crowdfund.sol\":700:729  IERC20 public immutable token */\n    tag_47:\n      immutable(\"0xcdbc23227c72e0a3f4683bdbccfcbed38047ca1a70d48b78c210dc5393029019\")\n      dup2\n      jump\t// out\n        /* \"contracts/crowdfund.sol\":1743:2194  function pledge(uint256 _id, uint256 _amount) external{... */\n    tag_52:\n        /* \"contracts/crowdfund.sol\":1807:1832  Campaign storage campaign */\n      0x00\n        /* \"contracts/crowdfund.sol\":1833:1842  campaigns */\n      0x01\n        /* \"contracts/crowdfund.sol\":1833:1847  campaigns[_id] */\n      0x00\n        /* \"contracts/crowdfund.sol\":1843:1846  _id */\n      dup5\n        /* \"contracts/crowdfund.sol\":1833:1847  campaigns[_id] */\n      dup2\n      mstore\n      0x20\n      add\n      swap1\n      dup2\n      mstore\n      0x20\n      add\n      0x00\n      keccak256\n        /* \"contracts/crowdfund.sol\":1807:1847  Campaign storage campaign=campaigns[_id] */\n      swap1\n      pop\n        /* \"contracts/crowdfund.sol\":1882:1890  campaign */\n      dup1\n        /* \"contracts/crowdfund.sol\":1882:1898  campaign.startAt */\n      0x03\n      add\n      0x00\n      swap1\n      sload\n      swap1\n      0x0100\n      exp\n      swap1\n      div\n      0xffffffff\n      and\n        /* \"contracts/crowdfund.sol\":1865:1898  block.timestamp>=campaign.startAt */\n      0xffffffff\n      and\n        /* \"contracts/crowdfund.sol\":1865:1880  block.timestamp */\n      timestamp\n        /* \"contracts/crowdfund.sol\":1865:1898  block.timestamp>=campaign.startAt */\n      lt\n      iszero\n        /* \"contracts/crowdfund.sol\":1857:1922  require(block.timestamp>=campaign.startAt,\"campaign not started\") */\n      tag_121\n      jumpi\n      mload(0x40)\n      0x08c379a000000000000000000000000000000000000000000000000000000000\n      dup2\n      mstore\n      0x04\n      add\n      tag_122\n      swap1\n      tag_123\n      jump\t// in\n    tag_122:\n      mload(0x40)\n      dup1\n      swap2\n      sub\n      swap1\n      revert\n    tag_121:\n        /* \"contracts/crowdfund.sol\":1959:1967  campaign */\n      dup1\n        /* \"contracts/crowdfund.sol\":1959:1973  campaign.endAt */\n      0x03\n      add\n      0x04\n      swap1\n      sload\n      swap1\n      0x0100\n      exp\n      swap1\n      div\n      0xffffffff\n      and\n        /* \"contracts/crowdfund.sol\":1940:1973  block.timestamp <= campaign.endAt */\n      0xffffffff\n      and\n        /* \"contracts/crowdfund.sol\":1940:1955  block.timestamp */\n      timestamp\n        /* \"contracts/crowdfund.sol\":1940:1973  block.timestamp <= campaign.endAt */\n      gt\n      iszero\n        /* \"contracts/crowdfund.sol\":1932:1983  require(block.timestamp <= campaign.endAt, \"ended\") */\n      tag_124\n      jumpi\n      mload(0x40)\n      0x08c379a000000000000000000000000000000000000000000000000000000000\n      dup2\n      mstore\n      0x04\n      add\n      tag_125\n      swap1\n      tag_111\n      jump\t// in\n    tag_125:\n      mload(0x40)\n      dup1\n      swap2\n      sub\n      swap1\n      revert\n    tag_124:\n        /* \"contracts/crowdfund.sol\":2020:2027  _amount */\n      dup2\n        /* \"contracts/crowdfund.sol\":2002:2010  campaign */\n      dup2\n        /* \"contracts/crowdfund.sol\":2002:2018  campaign.pledged */\n      0x02\n      add\n      0x00\n        /* \"contracts/crowdfund.sol\":2002:2027  campaign.pledged+=_amount */\n      dup3\n      dup3\n      sload\n      tag_126\n      swap2\n      swap1\n      tag_79\n      jump\t// in\n    tag_126:\n      swap3\n      pop\n      pop\n      dup2\n      swap1\n      sstore\n      pop\n        /* \"contracts/crowdfund.sol\":2069:2076  _amount */\n      dup2\n        /* \"contracts/crowdfund.sol\":2037:2050  pledgedAmount */\n      0x02\n        /* \"contracts/crowdfund.sol\":2037:2055  pledgedAmount[_id] */\n      0x00\n        /* \"contracts/crowdfund.sol\":2051:2054  _id */\n      dup6\n        /* \"contracts/crowdfund.sol\":2037:2055  pledgedAmount[_id] */\n      dup2\n      mstore\n      0x20\n      add\n      swap1\n      dup2\n      mstore\n      0x20\n      add\n      0x00\n      keccak256\n        /* \"contracts/crowdfund.sol\":2037:2067  pledgedAmount[_id][msg.sender] */\n      0x00\n        /* \"contracts/crowdfund.sol\":2056:2066  msg.sender */\n      caller\n        /* \"contracts/crowdfund.sol\":2037:2067  pledgedAmount[_id][msg.sender] */\n      0xffffffffffffffffffffffffffffffffffffffff\n      and\n      0xffffffffffffffffffffffffffffffffffffffff\n      and\n      dup2\n      mstore\n      0x20\n      add\n      swap1\n      dup2\n      mstore\n      0x20\n      add\n      0x00\n      keccak256\n      0x00\n        /* \"contracts/crowdfund.sol\":2037:2076  pledgedAmount[_id][msg.sender]+=_amount */\n      dup3\n      dup3\n      sload\n      tag_127\n      swap2\n      swap1\n      tag_79\n      jump\t// in\n    tag_127:\n      swap3\n      pop\n      pop\n      dup2\n      swap1\n      sstore\n      pop\n        /* \"contracts/crowdfund.sol\":2086:2091  token */\n      immutable(\"0xcdbc23227c72e0a3f4683bdbccfcbed38047ca1a70d48b78c210dc5393029019\")\n        /* \"contracts/crowdfund.sol\":2086:2104  token.transferFrom */\n      0xffffffffffffffffffffffffffffffffffffffff\n      and\n      0x23b872dd\n        /* \"contracts/crowdfund.sol\":2105:2115  msg.sender */\n      caller\n        /* \"contracts/crowdfund.sol\":2124:2128  this */\n      address\n        /* \"contracts/crowdfund.sol\":2130:2137  _amount */\n      dup6\n        /* \"contracts/crowdfund.sol\":2086:2139  token.transferFrom(msg.sender,address(this),_amount ) */\n      mload(0x40)\n      dup5\n      0xffffffff\n      and\n      0xe0\n      shl\n      dup2\n      mstore\n      0x04\n      add\n      tag_128\n      swap4\n      swap3\n      swap2\n      swap1\n      tag_129\n      jump\t// in\n    tag_128:\n      0x20\n      mload(0x40)\n      dup1\n      dup4\n      sub\n      dup2\n      0x00\n      dup8\n      gas\n      call\n      iszero\n      dup1\n      iszero\n      tag_131\n      jumpi\n      returndatasize\n      0x00\n      dup1\n      returndatacopy\n      revert(0x00, returndatasize)\n    tag_131:\n      pop\n      pop\n      pop\n      pop\n      mload(0x40)\n      returndatasize\n      not(0x1f)\n      0x1f\n      dup3\n      add\n      and\n      dup3\n      add\n      dup1\n      0x40\n      mstore\n      pop\n      dup2\n      add\n      swap1\n      tag_132\n      swap2\n      swap1\n      tag_68\n      jump\t// in\n    tag_132:\n      pop\n        /* \"contracts/crowdfund.sol\":2167:2177  msg.sender */\n      caller\n        /* \"contracts/crowdfund.sol\":2155:2187  Pledge(_id, msg.sender, _amount) */\n      0xffffffffffffffffffffffffffffffffffffffff\n      and\n        /* \"contracts/crowdfund.sol\":2162:2165  _id */\n      dup4\n        /* \"contracts/crowdfund.sol\":2155:2187  Pledge(_id, msg.sender, _amount) */\n      0x06bdb975df800a73232998e71ed585d536222f1dfeaa622d7f62a23ada686c82\n        /* \"contracts/crowdfund.sol\":2179:2186  _amount */\n      dup5\n        /* \"contracts/crowdfund.sol\":2155:2187  Pledge(_id, msg.sender, _amount) */\n      mload(0x40)\n      tag_133\n      swap2\n      swap1\n      tag_17\n      jump\t// in\n    tag_133:\n      mload(0x40)\n      dup1\n      swap2\n      sub\n      swap1\n      log3\n        /* \"contracts/crowdfund.sol\":1797:2194  {... */\n      pop\n        /* \"contracts/crowdfund.sol\":1743:2194  function pledge(uint256 _id, uint256 _amount) external{... */\n      pop\n      pop\n      jump\t// out\n        /* \"#utility.yul\":7:84   */\n    tag_134:\n        /* \"#utility.yul\":44:51   */\n      0x00\n        /* \"#utility.yul\":73:78   */\n      dup2\n        /* \"#utility.yul\":62:78   */\n      swap1\n      pop\n        /* \"#utility.yul\":7:84   */\n      swap2\n      swap1\n      pop\n      jump\t// out\n        /* \"#utility.yul\":90:208   */\n    tag_135:\n        /* \"#utility.yul\":177:201   */\n      tag_186\n        /* \"#utility.yul\":195:200   */\n      dup2\n        /* \"#utility.yul\":177:201   */\n      tag_134\n      jump\t// in\n    tag_186:\n        /* \"#utility.yul\":172:175   */\n      dup3\n        /* \"#utility.yul\":165:202   */\n      mstore\n        /* \"#utility.yul\":90:208   */\n      pop\n      pop\n      jump\t// out\n        /* \"#utility.yul\":214:436   */\n    tag_17:\n        /* \"#utility.yul\":307:311   */\n      0x00\n        /* \"#utility.yul\":345:347   */\n      0x20\n        /* \"#utility.yul\":334:343   */\n      dup3\n        /* \"#utility.yul\":330:348   */\n      add\n        /* \"#utility.yul\":322:348   */\n      swap1\n      pop\n        /* \"#utility.yul\":358:429   */\n      tag_188\n        /* \"#utility.yul\":426:427   */\n      0x00\n        /* \"#utility.yul\":415:424   */\n      dup4\n        /* \"#utility.yul\":411:428   */\n      add\n        /* \"#utility.yul\":402:408   */\n      dup5\n        /* \"#utility.yul\":358:429   */\n      tag_135\n      jump\t// in\n    tag_188:\n        /* \"#utility.yul\":214:436   */\n      swap3\n      swap2\n      pop\n      pop\n      jump\t// out\n        /* \"#utility.yul\":523:640   */\n    tag_137:\n        /* \"#utility.yul\":632:633   */\n      0x00\n        /* \"#utility.yul\":629:630   */\n      dup1\n        /* \"#utility.yul\":622:634   */\n      revert\n        /* \"#utility.yul\":769:891   */\n    tag_139:\n        /* \"#utility.yul\":842:866   */\n      tag_193\n        /* \"#utility.yul\":860:865   */\n      dup2\n        /* \"#utility.yul\":842:866   */\n      tag_134\n      jump\t// in\n    tag_193:\n        /* \"#utility.yul\":835:840   */\n      dup2\n        /* \"#utility.yul\":832:867   */\n      eq\n        /* \"#utility.yul\":822:885   */\n      tag_194\n      jumpi\n        /* \"#utility.yul\":881:882   */\n      0x00\n        /* \"#utility.yul\":878:879   */\n      dup1\n        /* \"#utility.yul\":871:883   */\n      revert\n        /* \"#utility.yul\":822:885   */\n    tag_194:\n        /* \"#utility.yul\":769:891   */\n      pop\n      jump\t// out\n        /* \"#utility.yul\":897:1036   */\n    tag_140:\n        /* \"#utility.yul\":943:948   */\n      0x00\n        /* \"#utility.yul\":981:987   */\n      dup2\n        /* \"#utility.yul\":968:988   */\n      calldataload\n        /* \"#utility.yul\":959:988   */\n      swap1\n      pop\n        /* \"#utility.yul\":997:1030   */\n      tag_196\n        /* \"#utility.yul\":1024:1029   */\n      dup2\n        /* \"#utility.yul\":997:1030   */\n      tag_139\n      jump\t// in\n    tag_196:\n        /* \"#utility.yul\":897:1036   */\n      swap3\n      swap2\n      pop\n      pop\n      jump\t// out\n        /* \"#utility.yul\":1042:1371   */\n    tag_20:\n        /* \"#utility.yul\":1101:1107   */\n      0x00\n        /* \"#utility.yul\":1150:1152   */\n      0x20\n        /* \"#utility.yul\":1138:1147   */\n      dup3\n        /* \"#utility.yul\":1129:1136   */\n      dup5\n        /* \"#utility.yul\":1125:1148   */\n      sub\n        /* \"#utility.yul\":1121:1153   */\n      slt\n        /* \"#utility.yul\":1118:1237   */\n      iszero\n      tag_198\n      jumpi\n        /* \"#utility.yul\":1156:1235   */\n      tag_199\n      tag_137\n      jump\t// in\n    tag_199:\n        /* \"#utility.yul\":1118:1237   */\n    tag_198:\n        /* \"#utility.yul\":1276:1277   */\n      0x00\n        /* \"#utility.yul\":1301:1354   */\n      tag_200\n        /* \"#utility.yul\":1346:1353   */\n      dup5\n        /* \"#utility.yul\":1337:1343   */\n      dup3\n        /* \"#utility.yul\":1326:1335   */\n      dup6\n        /* \"#utility.yul\":1322:1344   */\n      add\n        /* \"#utility.yul\":1301:1354   */\n      tag_140\n      jump\t// in\n    tag_200:\n        /* \"#utility.yul\":1291:1354   */\n      swap2\n      pop\n        /* \"#utility.yul\":1247:1364   */\n      pop\n        /* \"#utility.yul\":1042:1371   */\n      swap3\n      swap2\n      pop\n      pop\n      jump\t// out\n        /* \"#utility.yul\":1377:1503   */\n    tag_141:\n        /* \"#utility.yul\":1414:1421   */\n      0x00\n        /* \"#utility.yul\":1454:1496   */\n      0xffffffffffffffffffffffffffffffffffffffff\n        /* \"#utility.yul\":1447:1452   */\n      dup3\n        /* \"#utility.yul\":1443:1497   */\n      and\n        /* \"#utility.yul\":1432:1497   */\n      swap1\n      pop\n        /* \"#utility.yul\":1377:1503   */\n      swap2\n      swap1\n      pop\n      jump\t// out\n        /* \"#utility.yul\":1509:1605   */\n    tag_142:\n        /* \"#utility.yul\":1546:1553   */\n      0x00\n        /* \"#utility.yul\":1575:1599   */\n      tag_203\n        /* \"#utility.yul\":1593:1598   */\n      dup3\n        /* \"#utility.yul\":1575:1599   */\n      tag_141\n      jump\t// in\n    tag_203:\n        /* \"#utility.yul\":1564:1599   */\n      swap1\n      pop\n        /* \"#utility.yul\":1509:1605   */\n      swap2\n      swap1\n      pop\n      jump\t// out\n        /* \"#utility.yul\":1611:1729   */\n    tag_143:\n        /* \"#utility.yul\":1698:1722   */\n      tag_205\n        /* \"#utility.yul\":1716:1721   */\n      dup2\n        /* \"#utility.yul\":1698:1722   */\n      tag_142\n      jump\t// in\n    tag_205:\n        /* \"#utility.yul\":1693:1696   */\n      dup3\n        /* \"#utility.yul\":1686:1723   */\n      mstore\n        /* \"#utility.yul\":1611:1729   */\n      pop\n      pop\n      jump\t// out\n        /* \"#utility.yul\":1735:1828   */\n    tag_144:\n        /* \"#utility.yul\":1771:1778   */\n      0x00\n        /* \"#utility.yul\":1811:1821   */\n      0xffffffff\n        /* \"#utility.yul\":1804:1809   */\n      dup3\n        /* \"#utility.yul\":1800:1822   */\n      and\n        /* \"#utility.yul\":1789:1822   */\n      swap1\n      pop\n        /* \"#utility.yul\":1735:1828   */\n      swap2\n      swap1\n      pop\n      jump\t// out\n        /* \"#utility.yul\":1834:1949   */\n    tag_145:\n        /* \"#utility.yul\":1919:1942   */\n      tag_208\n        /* \"#utility.yul\":1936:1941   */\n      dup2\n        /* \"#utility.yul\":1919:1942   */\n      tag_144\n      jump\t// in\n    tag_208:\n        /* \"#utility.yul\":1914:1917   */\n      dup3\n        /* \"#utility.yul\":1907:1943   */\n      mstore\n        /* \"#utility.yul\":1834:1949   */\n      pop\n      pop\n      jump\t// out\n        /* \"#utility.yul\":1955:2045   */\n    tag_146:\n        /* \"#utility.yul\":1989:1996   */\n      0x00\n        /* \"#utility.yul\":2032:2037   */\n      dup2\n        /* \"#utility.yul\":2025:2038   */\n      iszero\n        /* \"#utility.yul\":2018:2039   */\n      iszero\n        /* \"#utility.yul\":2007:2039   */\n      swap1\n      pop\n        /* \"#utility.yul\":1955:2045   */\n      swap2\n      swap1\n      pop\n      jump\t// out\n        /* \"#utility.yul\":2051:2160   */\n    tag_147:\n        /* \"#utility.yul\":2132:2153   */\n      tag_211\n        /* \"#utility.yul\":2147:2152   */\n      dup2\n        /* \"#utility.yul\":2132:2153   */\n      tag_146\n      jump\t// in\n    tag_211:\n        /* \"#utility.yul\":2127:2130   */\n      dup3\n        /* \"#utility.yul\":2120:2154   */\n      mstore\n        /* \"#utility.yul\":2051:2160   */\n      pop\n      pop\n      jump\t// out\n        /* \"#utility.yul\":2166:2921   */\n    tag_23:\n        /* \"#utility.yul\":2389:2393   */\n      0x00\n        /* \"#utility.yul\":2427:2430   */\n      0xc0\n        /* \"#utility.yul\":2416:2425   */\n      dup3\n        /* \"#utility.yul\":2412:2431   */\n      add\n        /* \"#utility.yul\":2404:2431   */\n      swap1\n      pop\n        /* \"#utility.yul\":2441:2512   */\n      tag_213\n        /* \"#utility.yul\":2509:2510   */\n      0x00\n        /* \"#utility.yul\":2498:2507   */\n      dup4\n        /* \"#utility.yul\":2494:2511   */\n      add\n        /* \"#utility.yul\":2485:2491   */\n      dup10\n        /* \"#utility.yul\":2441:2512   */\n      tag_143\n      jump\t// in\n    tag_213:\n        /* \"#utility.yul\":2522:2594   */\n      tag_214\n        /* \"#utility.yul\":2590:2592   */\n      0x20\n        /* \"#utility.yul\":2579:2588   */\n      dup4\n        /* \"#utility.yul\":2575:2593   */\n      add\n        /* \"#utility.yul\":2566:2572   */\n      dup9\n        /* \"#utility.yul\":2522:2594   */\n      tag_135\n      jump\t// in\n    tag_214:\n        /* \"#utility.yul\":2604:2676   */\n      tag_215\n        /* \"#utility.yul\":2672:2674   */\n      0x40\n        /* \"#utility.yul\":2661:2670   */\n      dup4\n        /* \"#utility.yul\":2657:2675   */\n      add\n        /* \"#utility.yul\":2648:2654   */\n      dup8\n        /* \"#utility.yul\":2604:2676   */\n      tag_135\n      jump\t// in\n    tag_215:\n        /* \"#utility.yul\":2686:2756   */\n      tag_216\n        /* \"#utility.yul\":2752:2754   */\n      0x60\n        /* \"#utility.yul\":2741:2750   */\n      dup4\n        /* \"#utility.yul\":2737:2755   */\n      add\n        /* \"#utility.yul\":2728:2734   */\n      dup7\n        /* \"#utility.yul\":2686:2756   */\n      tag_145\n      jump\t// in\n    tag_216:\n        /* \"#utility.yul\":2766:2837   */\n      tag_217\n        /* \"#utility.yul\":2832:2835   */\n      0x80\n        /* \"#utility.yul\":2821:2830   */\n      dup4\n        /* \"#utility.yul\":2817:2836   */\n      add\n        /* \"#utility.yul\":2808:2814   */\n      dup6\n        /* \"#utility.yul\":2766:2837   */\n      tag_145\n      jump\t// in\n    tag_217:\n        /* \"#utility.yul\":2847:2914   */\n      tag_218\n        /* \"#utility.yul\":2909:2912   */\n      0xa0\n        /* \"#utility.yul\":2898:2907   */\n      dup4\n        /* \"#utility.yul\":2894:2913   */\n      add\n        /* \"#utility.yul\":2885:2891   */\n      dup5\n        /* \"#utility.yul\":2847:2914   */\n      tag_147\n      jump\t// in\n    tag_218:\n        /* \"#utility.yul\":2166:2921   */\n      swap8\n      swap7\n      pop\n      pop\n      pop\n      pop\n      pop\n      pop\n      pop\n      jump\t// out\n        /* \"#utility.yul\":2927:3047   */\n    tag_148:\n        /* \"#utility.yul\":2999:3022   */\n      tag_220\n        /* \"#utility.yul\":3016:3021   */\n      dup2\n        /* \"#utility.yul\":2999:3022   */\n      tag_144\n      jump\t// in\n    tag_220:\n        /* \"#utility.yul\":2992:2997   */\n      dup2\n        /* \"#utility.yul\":2989:3023   */\n      eq\n        /* \"#utility.yul\":2979:3041   */\n      tag_221\n      jumpi\n        /* \"#utility.yul\":3037:3038   */\n      0x00\n        /* \"#utility.yul\":3034:3035   */\n      dup1\n        /* \"#utility.yul\":3027:3039   */\n      revert\n        /* \"#utility.yul\":2979:3041   */\n    tag_221:\n        /* \"#utility.yul\":2927:3047   */\n      pop\n      jump\t// out\n        /* \"#utility.yul\":3053:3190   */\n    tag_149:\n        /* \"#utility.yul\":3098:3103   */\n      0x00\n        /* \"#utility.yul\":3136:3142   */\n      dup2\n        /* \"#utility.yul\":3123:3143   */\n      calldataload\n        /* \"#utility.yul\":3114:3143   */\n      swap1\n      pop\n        /* \"#utility.yul\":3152:3184   */\n      tag_223\n        /* \"#utility.yul\":3178:3183   */\n      dup2\n        /* \"#utility.yul\":3152:3184   */\n      tag_148\n      jump\t// in\n    tag_223:\n        /* \"#utility.yul\":3053:3190   */\n      swap3\n      swap2\n      pop\n      pop\n      jump\t// out\n        /* \"#utility.yul\":3196:3811   */\n    tag_29:\n        /* \"#utility.yul\":3271:3277   */\n      0x00\n        /* \"#utility.yul\":3279:3285   */\n      dup1\n        /* \"#utility.yul\":3287:3293   */\n      0x00\n        /* \"#utility.yul\":3336:3338   */\n      0x60\n        /* \"#utility.yul\":3324:3333   */\n      dup5\n        /* \"#utility.yul\":3315:3322   */\n      dup7\n        /* \"#utility.yul\":3311:3334   */\n      sub\n        /* \"#utility.yul\":3307:3339   */\n      slt\n        /* \"#utility.yul\":3304:3423   */\n      iszero\n      tag_225\n      jumpi\n        /* \"#utility.yul\":3342:3421   */\n      tag_226\n      tag_137\n      jump\t// in\n    tag_226:\n        /* \"#utility.yul\":3304:3423   */\n    tag_225:\n        /* \"#utility.yul\":3462:3463   */\n      0x00\n        /* \"#utility.yul\":3487:3540   */\n      tag_227\n        /* \"#utility.yul\":3532:3539   */\n      dup7\n        /* \"#utility.yul\":3523:3529   */\n      dup3\n        /* \"#utility.yul\":3512:3521   */\n      dup8\n        /* \"#utility.yul\":3508:3530   */\n      add\n        /* \"#utility.yul\":3487:3540   */\n      tag_140\n      jump\t// in\n    tag_227:\n        /* \"#utility.yul\":3477:3540   */\n      swap4\n      pop\n        /* \"#utility.yul\":3433:3550   */\n      pop\n        /* \"#utility.yul\":3589:3591   */\n      0x20\n        /* \"#utility.yul\":3615:3667   */\n      tag_228\n        /* \"#utility.yul\":3659:3666   */\n      dup7\n        /* \"#utility.yul\":3650:3656   */\n      dup3\n        /* \"#utility.yul\":3639:3648   */\n      dup8\n        /* \"#utility.yul\":3635:3657   */\n      add\n        /* \"#utility.yul\":3615:3667   */\n      tag_149\n      jump\t// in\n    tag_228:\n        /* \"#utility.yul\":3605:3667   */\n      swap3\n      pop\n        /* \"#utility.yul\":3560:3677   */\n      pop\n        /* \"#utility.yul\":3716:3718   */\n      0x40\n        /* \"#utility.yul\":3742:3794   */\n      tag_229\n        /* \"#utility.yul\":3786:3793   */\n      dup7\n        /* \"#utility.yul\":3777:3783   */\n      dup3\n        /* \"#utility.yul\":3766:3775   */\n      dup8\n        /* \"#utility.yul\":3762:3784   */\n      add\n        /* \"#utility.yul\":3742:3794   */\n      tag_149\n      jump\t// in\n    tag_229:\n        /* \"#utility.yul\":3732:3794   */\n      swap2\n      pop\n        /* \"#utility.yul\":3687:3804   */\n      pop\n        /* \"#utility.yul\":3196:3811   */\n      swap3\n      pop\n      swap3\n      pop\n      swap3\n      jump\t// out\n        /* \"#utility.yul\":3817:4291   */\n    tag_39:\n        /* \"#utility.yul\":3885:3891   */\n      0x00\n        /* \"#utility.yul\":3893:3899   */\n      dup1\n        /* \"#utility.yul\":3942:3944   */\n      0x40\n        /* \"#utility.yul\":3930:3939   */\n      dup4\n        /* \"#utility.yul\":3921:3928   */\n      dup6\n        /* \"#utility.yul\":3917:3940   */\n      sub\n        /* \"#utility.yul\":3913:3945   */\n      slt\n        /* \"#utility.yul\":3910:4029   */\n      iszero\n      tag_231\n      jumpi\n        /* \"#utility.yul\":3948:4027   */\n      tag_232\n      tag_137\n      jump\t// in\n    tag_232:\n        /* \"#utility.yul\":3910:4029   */\n    tag_231:\n        /* \"#utility.yul\":4068:4069   */\n      0x00\n        /* \"#utility.yul\":4093:4146   */\n      tag_233\n        /* \"#utility.yul\":4138:4145   */\n      dup6\n        /* \"#utility.yul\":4129:4135   */\n      dup3\n        /* \"#utility.yul\":4118:4127   */\n      dup7\n        /* \"#utility.yul\":4114:4136   */\n      add\n        /* \"#utility.yul\":4093:4146   */\n      tag_140\n      jump\t// in\n    tag_233:\n        /* \"#utility.yul\":4083:4146   */\n      swap3\n      pop\n        /* \"#utility.yul\":4039:4156   */\n      pop\n        /* \"#utility.yul\":4195:4197   */\n      0x20\n        /* \"#utility.yul\":4221:4274   */\n      tag_234\n        /* \"#utility.yul\":4266:4273   */\n      dup6\n        /* \"#utility.yul\":4257:4263   */\n      dup3\n        /* \"#utility.yul\":4246:4255   */\n      dup7\n        /* \"#utility.yul\":4242:4264   */\n      add\n        /* \"#utility.yul\":4221:4274   */\n      tag_140\n      jump\t// in\n    tag_234:\n        /* \"#utility.yul\":4211:4274   */\n      swap2\n      pop\n        /* \"#utility.yul\":4166:4284   */\n      pop\n        /* \"#utility.yul\":3817:4291   */\n      swap3\n      pop\n      swap3\n      swap1\n      pop\n      jump\t// out\n        /* \"#utility.yul\":4297:4419   */\n    tag_150:\n        /* \"#utility.yul\":4370:4394   */\n      tag_236\n        /* \"#utility.yul\":4388:4393   */\n      dup2\n        /* \"#utility.yul\":4370:4394   */\n      tag_142\n      jump\t// in\n    tag_236:\n        /* \"#utility.yul\":4363:4368   */\n      dup2\n        /* \"#utility.yul\":4360:4395   */\n      eq\n        /* \"#utility.yul\":4350:4413   */\n      tag_237\n      jumpi\n        /* \"#utility.yul\":4409:4410   */\n      0x00\n        /* \"#utility.yul\":4406:4407   */\n      dup1\n        /* \"#utility.yul\":4399:4411   */\n      revert\n        /* \"#utility.yul\":4350:4413   */\n    tag_237:\n        /* \"#utility.yul\":4297:4419   */\n      pop\n      jump\t// out\n        /* \"#utility.yul\":4425:4564   */\n    tag_151:\n        /* \"#utility.yul\":4471:4476   */\n      0x00\n        /* \"#utility.yul\":4509:4515   */\n      dup2\n        /* \"#utility.yul\":4496:4516   */\n      calldataload\n        /* \"#utility.yul\":4487:4516   */\n      swap1\n      pop\n        /* \"#utility.yul\":4525:4558   */\n      tag_239\n        /* \"#utility.yul\":4552:4557   */\n      dup2\n        /* \"#utility.yul\":4525:4558   */\n      tag_150\n      jump\t// in\n    tag_239:\n        /* \"#utility.yul\":4425:4564   */\n      swap3\n      swap2\n      pop\n      pop\n      jump\t// out\n        /* \"#utility.yul\":4570:5044   */\n    tag_43:\n        /* \"#utility.yul\":4638:4644   */\n      0x00\n        /* \"#utility.yul\":4646:4652   */\n      dup1\n        /* \"#utility.yul\":4695:4697   */\n      0x40\n        /* \"#utility.yul\":4683:4692   */\n      dup4\n        /* \"#utility.yul\":4674:4681   */\n      dup6\n        /* \"#utility.yul\":4670:4693   */\n      sub\n        /* \"#utility.yul\":4666:4698   */\n      slt\n        /* \"#utility.yul\":4663:4782   */\n      iszero\n      tag_241\n      jumpi\n        /* \"#utility.yul\":4701:4780   */\n      tag_242\n      tag_137\n      jump\t// in\n    tag_242:\n        /* \"#utility.yul\":4663:4782   */\n    tag_241:\n        /* \"#utility.yul\":4821:4822   */\n      0x00\n        /* \"#utility.yul\":4846:4899   */\n      tag_243\n        /* \"#utility.yul\":4891:4898   */\n      dup6\n        /* \"#utility.yul\":4882:4888   */\n      dup3\n        /* \"#utility.yul\":4871:4880   */\n      dup7\n        /* \"#utility.yul\":4867:4889   */\n      add\n        /* \"#utility.yul\":4846:4899   */\n      tag_140\n      jump\t// in\n    tag_243:\n        /* \"#utility.yul\":4836:4899   */\n      swap3\n      pop\n        /* \"#utility.yul\":4792:4909   */\n      pop\n        /* \"#utility.yul\":4948:4950   */\n      0x20\n        /* \"#utility.yul\":4974:5027   */\n      tag_244\n        /* \"#utility.yul\":5019:5026   */\n      dup6\n        /* \"#utility.yul\":5010:5016   */\n      dup3\n        /* \"#utility.yul\":4999:5008   */\n      dup7\n        /* \"#utility.yul\":4995:5017   */\n      add\n        /* \"#utility.yul\":4974:5027   */\n      tag_151\n      jump\t// in\n    tag_244:\n        /* \"#utility.yul\":4964:5027   */\n      swap2\n      pop\n        /* \"#utility.yul\":4919:5037   */\n      pop\n        /* \"#utility.yul\":4570:5044   */\n      swap3\n      pop\n      swap3\n      swap1\n      pop\n      jump\t// out\n        /* \"#utility.yul\":5050:5110   */\n    tag_152:\n        /* \"#utility.yul\":5078:5081   */\n      0x00\n        /* \"#utility.yul\":5099:5104   */\n      dup2\n        /* \"#utility.yul\":5092:5104   */\n      swap1\n      pop\n        /* \"#utility.yul\":5050:5110   */\n      swap2\n      swap1\n      pop\n      jump\t// out\n        /* \"#utility.yul\":5116:5258   */\n    tag_153:\n        /* \"#utility.yul\":5166:5175   */\n      0x00\n        /* \"#utility.yul\":5199:5252   */\n      tag_247\n        /* \"#utility.yul\":5217:5251   */\n      tag_248\n        /* \"#utility.yul\":5226:5250   */\n      tag_249\n        /* \"#utility.yul\":5244:5249   */\n      dup5\n        /* \"#utility.yul\":5226:5250   */\n      tag_141\n      jump\t// in\n    tag_249:\n        /* \"#utility.yul\":5217:5251   */\n      tag_152\n      jump\t// in\n    tag_248:\n        /* \"#utility.yul\":5199:5252   */\n      tag_141\n      jump\t// in\n    tag_247:\n        /* \"#utility.yul\":5186:5252   */\n      swap1\n      pop\n        /* \"#utility.yul\":5116:5258   */\n      swap2\n      swap1\n      pop\n      jump\t// out\n        /* \"#utility.yul\":5264:5390   */\n    tag_154:\n        /* \"#utility.yul\":5314:5323   */\n      0x00\n        /* \"#utility.yul\":5347:5384   */\n      tag_251\n        /* \"#utility.yul\":5378:5383   */\n      dup3\n        /* \"#utility.yul\":5347:5384   */\n      tag_153\n      jump\t// in\n    tag_251:\n        /* \"#utility.yul\":5334:5384   */\n      swap1\n      pop\n        /* \"#utility.yul\":5264:5390   */\n      swap2\n      swap1\n      pop\n      jump\t// out\n        /* \"#utility.yul\":5396:5535   */\n    tag_155:\n        /* \"#utility.yul\":5459:5468   */\n      0x00\n        /* \"#utility.yul\":5492:5529   */\n      tag_253\n        /* \"#utility.yul\":5523:5528   */\n      dup3\n        /* \"#utility.yul\":5492:5529   */\n      tag_154\n      jump\t// in\n    tag_253:\n        /* \"#utility.yul\":5479:5529   */\n      swap1\n      pop\n        /* \"#utility.yul\":5396:5535   */\n      swap2\n      swap1\n      pop\n      jump\t// out\n        /* \"#utility.yul\":5541:5698   */\n    tag_156:\n        /* \"#utility.yul\":5641:5691   */\n      tag_255\n        /* \"#utility.yul\":5685:5690   */\n      dup2\n        /* \"#utility.yul\":5641:5691   */\n      tag_155\n      jump\t// in\n    tag_255:\n        /* \"#utility.yul\":5636:5639   */\n      dup3\n        /* \"#utility.yul\":5629:5692   */\n      mstore\n        /* \"#utility.yul\":5541:5698   */\n      pop\n      pop\n      jump\t// out\n        /* \"#utility.yul\":5704:5952   */\n    tag_49:\n        /* \"#utility.yul\":5810:5814   */\n      0x00\n        /* \"#utility.yul\":5848:5850   */\n      0x20\n        /* \"#utility.yul\":5837:5846   */\n      dup3\n        /* \"#utility.yul\":5833:5851   */\n      add\n        /* \"#utility.yul\":5825:5851   */\n      swap1\n      pop\n        /* \"#utility.yul\":5861:5945   */\n      tag_257\n        /* \"#utility.yul\":5942:5943   */\n      0x00\n        /* \"#utility.yul\":5931:5940   */\n      dup4\n        /* \"#utility.yul\":5927:5944   */\n      add\n        /* \"#utility.yul\":5918:5924   */\n      dup5\n        /* \"#utility.yul\":5861:5945   */\n      tag_156\n      jump\t// in\n    tag_257:\n        /* \"#utility.yul\":5704:5952   */\n      swap3\n      swap2\n      pop\n      pop\n      jump\t// out\n        /* \"#utility.yul\":5958:6127   */\n    tag_157:\n        /* \"#utility.yul\":6042:6053   */\n      0x00\n        /* \"#utility.yul\":6076:6082   */\n      dup3\n        /* \"#utility.yul\":6071:6074   */\n      dup3\n        /* \"#utility.yul\":6064:6083   */\n      mstore\n        /* \"#utility.yul\":6116:6120   */\n      0x20\n        /* \"#utility.yul\":6111:6114   */\n      dup3\n        /* \"#utility.yul\":6107:6121   */\n      add\n        /* \"#utility.yul\":6092:6121   */\n      swap1\n      pop\n        /* \"#utility.yul\":5958:6127   */\n      swap3\n      swap2\n      pop\n      pop\n      jump\t// out\n        /* \"#utility.yul\":6133:6292   */\n    tag_158:\n        /* \"#utility.yul\":6273:6284   */\n      0x6e6f7420656e6465640000000000000000000000000000000000000000000000\n        /* \"#utility.yul\":6269:6270   */\n      0x00\n        /* \"#utility.yul\":6261:6267   */\n      dup3\n        /* \"#utility.yul\":6257:6271   */\n      add\n        /* \"#utility.yul\":6250:6285   */\n      mstore\n        /* \"#utility.yul\":6133:6292   */\n      pop\n      jump\t// out\n        /* \"#utility.yul\":6298:6663   */\n    tag_159:\n        /* \"#utility.yul\":6440:6443   */\n      0x00\n        /* \"#utility.yul\":6461:6527   */\n      tag_261\n        /* \"#utility.yul\":6525:6526   */\n      0x09\n        /* \"#utility.yul\":6520:6523   */\n      dup4\n        /* \"#utility.yul\":6461:6527   */\n      tag_157\n      jump\t// in\n    tag_261:\n        /* \"#utility.yul\":6454:6527   */\n      swap2\n      pop\n        /* \"#utility.yul\":6536:6629   */\n      tag_262\n        /* \"#utility.yul\":6625:6628   */\n      dup3\n        /* \"#utility.yul\":6536:6629   */\n      tag_158\n      jump\t// in\n    tag_262:\n        /* \"#utility.yul\":6654:6656   */\n      0x20\n        /* \"#utility.yul\":6649:6652   */\n      dup3\n        /* \"#utility.yul\":6645:6657   */\n      add\n        /* \"#utility.yul\":6638:6657   */\n      swap1\n      pop\n        /* \"#utility.yul\":6298:6663   */\n      swap2\n      swap1\n      pop\n      jump\t// out\n        /* \"#utility.yul\":6669:7088   */\n    tag_56:\n        /* \"#utility.yul\":6835:6839   */\n      0x00\n        /* \"#utility.yul\":6873:6875   */\n      0x20\n        /* \"#utility.yul\":6862:6871   */\n      dup3\n        /* \"#utility.yul\":6858:6876   */\n      add\n        /* \"#utility.yul\":6850:6876   */\n      swap1\n      pop\n        /* \"#utility.yul\":6922:6931   */\n      dup2\n        /* \"#utility.yul\":6916:6920   */\n      dup2\n        /* \"#utility.yul\":6912:6932   */\n      sub\n        /* \"#utility.yul\":6908:6909   */\n      0x00\n        /* \"#utility.yul\":6897:6906   */\n      dup4\n        /* \"#utility.yul\":6893:6910   */\n      add\n        /* \"#utility.yul\":6886:6933   */\n      mstore\n        /* \"#utility.yul\":6950:7081   */\n      tag_264\n        /* \"#utility.yul\":7076:7080   */\n      dup2\n        /* \"#utility.yul\":6950:7081   */\n      tag_159\n      jump\t// in\n    tag_264:\n        /* \"#utility.yul\":6942:7081   */\n      swap1\n      pop\n        /* \"#utility.yul\":6669:7088   */\n      swap2\n      swap1\n      pop\n      jump\t// out\n        /* \"#utility.yul\":7094:7253   */\n    tag_160:\n        /* \"#utility.yul\":7234:7245   */\n      0x6e6f74206f776e65720000000000000000000000000000000000000000000000\n        /* \"#utility.yul\":7230:7231   */\n      0x00\n        /* \"#utility.yul\":7222:7228   */\n      dup3\n        /* \"#utility.yul\":7218:7232   */\n      add\n        /* \"#utility.yul\":7211:7246   */\n      mstore\n        /* \"#utility.yul\":7094:7253   */\n      pop\n      jump\t// out\n        /* \"#utility.yul\":7259:7624   */\n    tag_161:\n        /* \"#utility.yul\":7401:7404   */\n      0x00\n        /* \"#utility.yul\":7422:7488   */\n      tag_267\n        /* \"#utility.yul\":7486:7487   */\n      0x09\n        /* \"#utility.yul\":7481:7484   */\n      dup4\n        /* \"#utility.yul\":7422:7488   */\n      tag_157\n      jump\t// in\n    tag_267:\n        /* \"#utility.yul\":7415:7488   */\n      swap2\n      pop\n        /* \"#utility.yul\":7497:7590   */\n      tag_268\n        /* \"#utility.yul\":7586:7589   */\n      dup3\n        /* \"#utility.yul\":7497:7590   */\n      tag_160\n      jump\t// in\n    tag_268:\n        /* \"#utility.yul\":7615:7617   */\n      0x20\n        /* \"#utility.yul\":7610:7613   */\n      dup3\n        /* \"#utility.yul\":7606:7618   */\n      add\n        /* \"#utility.yul\":7599:7618   */\n      swap1\n      pop\n        /* \"#utility.yul\":7259:7624   */\n      swap2\n      swap1\n      pop\n      jump\t// out\n        /* \"#utility.yul\":7630:8049   */\n    tag_59:\n        /* \"#utility.yul\":7796:7800   */\n      0x00\n        /* \"#utility.yul\":7834:7836   */\n      0x20\n        /* \"#utility.yul\":7823:7832   */\n      dup3\n        /* \"#utility.yul\":7819:7837   */\n      add\n        /* \"#utility.yul\":7811:7837   */\n      swap1\n      pop\n        /* \"#utility.yul\":7883:7892   */\n      dup2\n        /* \"#utility.yul\":7877:7881   */\n      dup2\n        /* \"#utility.yul\":7873:7893   */\n      sub\n        /* \"#utility.yul\":7869:7870   */\n      0x00\n        /* \"#utility.yul\":7858:7867   */\n      dup4\n        /* \"#utility.yul\":7854:7871   */\n      add\n        /* \"#utility.yul\":7847:7894   */\n      mstore\n        /* \"#utility.yul\":7911:8042   */\n      tag_270\n        /* \"#utility.yul\":8037:8041   */\n      dup2\n        /* \"#utility.yul\":7911:8042   */\n      tag_161\n      jump\t// in\n    tag_270:\n        /* \"#utility.yul\":7903:8042   */\n      swap1\n      pop\n        /* \"#utility.yul\":7630:8049   */\n      swap2\n      swap1\n      pop\n      jump\t// out\n        /* \"#utility.yul\":8055:8222   */\n    tag_162:\n        /* \"#utility.yul\":8195:8214   */\n      0x6e6f7420656e6f75676820616d6f756e74000000000000000000000000000000\n        /* \"#utility.yul\":8191:8192   */\n      0x00\n        /* \"#utility.yul\":8183:8189   */\n      dup3\n        /* \"#utility.yul\":8179:8193   */\n      add\n        /* \"#utility.yul\":8172:8215   */\n      mstore\n        /* \"#utility.yul\":8055:8222   */\n      pop\n      jump\t// out\n        /* \"#utility.yul\":8228:8594   */\n    tag_163:\n        /* \"#utility.yul\":8370:8373   */\n      0x00\n        /* \"#utility.yul\":8391:8458   */\n      tag_273\n        /* \"#utility.yul\":8455:8457   */\n      0x11\n        /* \"#utility.yul\":8450:8453   */\n      dup4\n        /* \"#utility.yul\":8391:8458   */\n      tag_157\n      jump\t// in\n    tag_273:\n        /* \"#utility.yul\":8384:8458   */\n      swap2\n      pop\n        /* \"#utility.yul\":8467:8560   */\n      tag_274\n        /* \"#utility.yul\":8556:8559   */\n      dup3\n        /* \"#utility.yul\":8467:8560   */\n      tag_162\n      jump\t// in\n    tag_274:\n        /* \"#utility.yul\":8585:8587   */\n      0x20\n        /* \"#utility.yul\":8580:8583   */\n      dup3\n        /* \"#utility.yul\":8576:8588   */\n      add\n        /* \"#utility.yul\":8569:8588   */\n      swap1\n      pop\n        /* \"#utility.yul\":8228:8594   */\n      swap2\n      swap1\n      pop\n      jump\t// out\n        /* \"#utility.yul\":8600:9019   */\n    tag_62:\n        /* \"#utility.yul\":8766:8770   */\n      0x00\n        /* \"#utility.yul\":8804:8806   */\n      0x20\n        /* \"#utility.yul\":8793:8802   */\n      dup3\n        /* \"#utility.yul\":8789:8807   */\n      add\n        /* \"#utility.yul\":8781:8807   */\n      swap1\n      pop\n        /* \"#utility.yul\":8853:8862   */\n      dup2\n        /* \"#utility.yul\":8847:8851   */\n      dup2\n        /* \"#utility.yul\":8843:8863   */\n      sub\n        /* \"#utility.yul\":8839:8840   */\n      0x00\n        /* \"#utility.yul\":8828:8837   */\n      dup4\n        /* \"#utility.yul\":8824:8841   */\n      add\n        /* \"#utility.yul\":8817:8864   */\n      mstore\n        /* \"#utility.yul\":8881:9012   */\n      tag_276\n        /* \"#utility.yul\":9007:9011   */\n      dup2\n        /* \"#utility.yul\":8881:9012   */\n      tag_163\n      jump\t// in\n    tag_276:\n        /* \"#utility.yul\":8873:9012   */\n      swap1\n      pop\n        /* \"#utility.yul\":8600:9019   */\n      swap2\n      swap1\n      pop\n      jump\t// out\n        /* \"#utility.yul\":9025:9357   */\n    tag_64:\n        /* \"#utility.yul\":9146:9150   */\n      0x00\n        /* \"#utility.yul\":9184:9186   */\n      0x40\n        /* \"#utility.yul\":9173:9182   */\n      dup3\n        /* \"#utility.yul\":9169:9187   */\n      add\n        /* \"#utility.yul\":9161:9187   */\n      swap1\n      pop\n        /* \"#utility.yul\":9197:9268   */\n      tag_278\n        /* \"#utility.yul\":9265:9266   */\n      0x00\n        /* \"#utility.yul\":9254:9263   */\n      dup4\n        /* \"#utility.yul\":9250:9267   */\n      add\n        /* \"#utility.yul\":9241:9247   */\n      dup6\n        /* \"#utility.yul\":9197:9268   */\n      tag_143\n      jump\t// in\n    tag_278:\n        /* \"#utility.yul\":9278:9350   */\n      tag_279\n        /* \"#utility.yul\":9346:9348   */\n      0x20\n        /* \"#utility.yul\":9335:9344   */\n      dup4\n        /* \"#utility.yul\":9331:9349   */\n      add\n        /* \"#utility.yul\":9322:9328   */\n      dup5\n        /* \"#utility.yul\":9278:9350   */\n      tag_135\n      jump\t// in\n    tag_279:\n        /* \"#utility.yul\":9025:9357   */\n      swap4\n      swap3\n      pop\n      pop\n      pop\n      jump\t// out\n        /* \"#utility.yul\":9363:9479   */\n    tag_164:\n        /* \"#utility.yul\":9433:9454   */\n      tag_281\n        /* \"#utility.yul\":9448:9453   */\n      dup2\n        /* \"#utility.yul\":9433:9454   */\n      tag_146\n      jump\t// in\n    tag_281:\n        /* \"#utility.yul\":9426:9431   */\n      dup2\n        /* \"#utility.yul\":9423:9455   */\n      eq\n        /* \"#utility.yul\":9413:9473   */\n      tag_282\n      jumpi\n        /* \"#utility.yul\":9469:9470   */\n      0x00\n        /* \"#utility.yul\":9466:9467   */\n      dup1\n        /* \"#utility.yul\":9459:9471   */\n      revert\n        /* \"#utility.yul\":9413:9473   */\n    tag_282:\n        /* \"#utility.yul\":9363:9479   */\n      pop\n      jump\t// out\n        /* \"#utility.yul\":9485:9622   */\n    tag_165:\n        /* \"#utility.yul\":9539:9544   */\n      0x00\n        /* \"#utility.yul\":9570:9576   */\n      dup2\n        /* \"#utility.yul\":9564:9577   */\n      mload\n        /* \"#utility.yul\":9555:9577   */\n      swap1\n      pop\n        /* \"#utility.yul\":9586:9616   */\n      tag_284\n        /* \"#utility.yul\":9610:9615   */\n      dup2\n        /* \"#utility.yul\":9586:9616   */\n      tag_164\n      jump\t// in\n    tag_284:\n        /* \"#utility.yul\":9485:9622   */\n      swap3\n      swap2\n      pop\n      pop\n      jump\t// out\n        /* \"#utility.yul\":9628:9973   */\n    tag_68:\n        /* \"#utility.yul\":9695:9701   */\n      0x00\n        /* \"#utility.yul\":9744:9746   */\n      0x20\n        /* \"#utility.yul\":9732:9741   */\n      dup3\n        /* \"#utility.yul\":9723:9730   */\n      dup5\n        /* \"#utility.yul\":9719:9742   */\n      sub\n        /* \"#utility.yul\":9715:9747   */\n      slt\n        /* \"#utility.yul\":9712:9831   */\n      iszero\n      tag_286\n      jumpi\n        /* \"#utility.yul\":9750:9829   */\n      tag_287\n      tag_137\n      jump\t// in\n    tag_287:\n        /* \"#utility.yul\":9712:9831   */\n    tag_286:\n        /* \"#utility.yul\":9870:9871   */\n      0x00\n        /* \"#utility.yul\":9895:9956   */\n      tag_288\n        /* \"#utility.yul\":9948:9955   */\n      dup5\n        /* \"#utility.yul\":9939:9945   */\n      dup3\n        /* \"#utility.yul\":9928:9937   */\n      dup6\n        /* \"#utility.yul\":9924:9946   */\n      add\n        /* \"#utility.yul\":9895:9956   */\n      tag_165\n      jump\t// in\n    tag_288:\n        /* \"#utility.yul\":9885:9956   */\n      swap2\n      pop\n        /* \"#utility.yul\":9841:9966   */\n      pop\n        /* \"#utility.yul\":9628:9973   */\n      swap3\n      swap2\n      pop\n      pop\n      jump\t// out\n        /* \"#utility.yul\":9979:10311   */\n    tag_70:\n        /* \"#utility.yul\":10100:10104   */\n      0x00\n        /* \"#utility.yul\":10138:10140   */\n      0x40\n        /* \"#utility.yul\":10127:10136   */\n      dup3\n        /* \"#utility.yul\":10123:10141   */\n      add\n        /* \"#utility.yul\":10115:10141   */\n      swap1\n      pop\n        /* \"#utility.yul\":10151:10222   */\n      tag_290\n        /* \"#utility.yul\":10219:10220   */\n      0x00\n        /* \"#utility.yul\":10208:10217   */\n      dup4\n        /* \"#utility.yul\":10204:10221   */\n      add\n        /* \"#utility.yul\":10195:10201   */\n      dup6\n        /* \"#utility.yul\":10151:10222   */\n      tag_135\n      jump\t// in\n    tag_290:\n        /* \"#utility.yul\":10232:10304   */\n      tag_291\n        /* \"#utility.yul\":10300:10302   */\n      0x20\n        /* \"#utility.yul\":10289:10298   */\n      dup4\n        /* \"#utility.yul\":10285:10303   */\n      add\n        /* \"#utility.yul\":10276:10282   */\n      dup5\n        /* \"#utility.yul\":10232:10304   */\n      tag_135\n      jump\t// in\n    tag_291:\n        /* \"#utility.yul\":9979:10311   */\n      swap4\n      swap3\n      pop\n      pop\n      pop\n      jump\t// out\n        /* \"#utility.yul\":10317:10481   */\n    tag_166:\n        /* \"#utility.yul\":10457:10473   */\n      0x7374617274206174203c206e6f77000000000000000000000000000000000000\n        /* \"#utility.yul\":10453:10454   */\n      0x00\n        /* \"#utility.yul\":10445:10451   */\n      dup3\n        /* \"#utility.yul\":10441:10455   */\n      add\n        /* \"#utility.yul\":10434:10474   */\n      mstore\n        /* \"#utility.yul\":10317:10481   */\n      pop\n      jump\t// out\n        /* \"#utility.yul\":10487:10853   */\n    tag_167:\n        /* \"#utility.yul\":10629:10632   */\n      0x00\n        /* \"#utility.yul\":10650:10717   */\n      tag_294\n        /* \"#utility.yul\":10714:10716   */\n      0x0e\n        /* \"#utility.yul\":10709:10712   */\n      dup4\n        /* \"#utility.yul\":10650:10717   */\n      tag_157\n      jump\t// in\n    tag_294:\n        /* \"#utility.yul\":10643:10717   */\n      swap2\n      pop\n        /* \"#utility.yul\":10726:10819   */\n      tag_295\n        /* \"#utility.yul\":10815:10818   */\n      dup3\n        /* \"#utility.yul\":10726:10819   */\n      tag_166\n      jump\t// in\n    tag_295:\n        /* \"#utility.yul\":10844:10846   */\n      0x20\n        /* \"#utility.yul\":10839:10842   */\n      dup3\n        /* \"#utility.yul\":10835:10847   */\n      add\n        /* \"#utility.yul\":10828:10847   */\n      swap1\n      pop\n        /* \"#utility.yul\":10487:10853   */\n      swap2\n      swap1\n      pop\n      jump\t// out\n        /* \"#utility.yul\":10859:11278   */\n    tag_74:\n        /* \"#utility.yul\":11025:11029   */\n      0x00\n        /* \"#utility.yul\":11063:11065   */\n      0x20\n        /* \"#utility.yul\":11052:11061   */\n      dup3\n        /* \"#utility.yul\":11048:11066   */\n      add\n        /* \"#utility.yul\":11040:11066   */\n      swap1\n      pop\n        /* \"#utility.yul\":11112:11121   */\n      dup2\n        /* \"#utility.yul\":11106:11110   */\n      dup2\n        /* \"#utility.yul\":11102:11122   */\n      sub\n        /* \"#utility.yul\":11098:11099   */\n      0x00\n        /* \"#utility.yul\":11087:11096   */\n      dup4\n        /* \"#utility.yul\":11083:11100   */\n      add\n        /* \"#utility.yul\":11076:11123   */\n      mstore\n        /* \"#utility.yul\":11140:11271   */\n      tag_297\n        /* \"#utility.yul\":11266:11270   */\n      dup2\n        /* \"#utility.yul\":11140:11271   */\n      tag_167\n      jump\t// in\n    tag_297:\n        /* \"#utility.yul\":11132:11271   */\n      swap1\n      pop\n        /* \"#utility.yul\":10859:11278   */\n      swap2\n      swap1\n      pop\n      jump\t// out\n        /* \"#utility.yul\":11284:11456   */\n    tag_168:\n        /* \"#utility.yul\":11424:11448   */\n      0x656e64206174203c207374617274696e672074696d6500000000000000000000\n        /* \"#utility.yul\":11420:11421   */\n      0x00\n        /* \"#utility.yul\":11412:11418   */\n      dup3\n        /* \"#utility.yul\":11408:11422   */\n      add\n        /* \"#utility.yul\":11401:11449   */\n      mstore\n        /* \"#utility.yul\":11284:11456   */\n      pop\n      jump\t// out\n        /* \"#utility.yul\":11462:11828   */\n    tag_169:\n        /* \"#utility.yul\":11604:11607   */\n      0x00\n        /* \"#utility.yul\":11625:11692   */\n      tag_300\n        /* \"#utility.yul\":11689:11691   */\n      0x16\n        /* \"#utility.yul\":11684:11687   */\n      dup4\n        /* \"#utility.yul\":11625:11692   */\n      tag_157\n      jump\t// in\n    tag_300:\n        /* \"#utility.yul\":11618:11692   */\n      swap2\n      pop\n        /* \"#utility.yul\":11701:11794   */\n      tag_301\n        /* \"#utility.yul\":11790:11793   */\n      dup3\n        /* \"#utility.yul\":11701:11794   */\n      tag_168\n      jump\t// in\n    tag_301:\n        /* \"#utility.yul\":11819:11821   */\n      0x20\n        /* \"#utility.yul\":11814:11817   */\n      dup3\n        /* \"#utility.yul\":11810:11822   */\n      add\n        /* \"#utility.yul\":11803:11822   */\n      swap1\n      pop\n        /* \"#utility.yul\":11462:11828   */\n      swap2\n      swap1\n      pop\n      jump\t// out\n        /* \"#utility.yul\":11834:12253   */\n    tag_77:\n        /* \"#utility.yul\":12000:12004   */\n      0x00\n        /* \"#utility.yul\":12038:12040   */\n      0x20\n        /* \"#utility.yul\":12027:12036   */\n      dup3\n        /* \"#utility.yul\":12023:12041   */\n      add\n        /* \"#utility.yul\":12015:12041   */\n      swap1\n      pop\n        /* \"#utility.yul\":12087:12096   */\n      dup2\n        /* \"#utility.yul\":12081:12085   */\n      dup2\n        /* \"#utility.yul\":12077:12097   */\n      sub\n        /* \"#utility.yul\":12073:12074   */\n      0x00\n        /* \"#utility.yul\":12062:12071   */\n      dup4\n        /* \"#utility.yul\":12058:12075   */\n      add\n        /* \"#utility.yul\":12051:12098   */\n      mstore\n        /* \"#utility.yul\":12115:12246   */\n      tag_303\n        /* \"#utility.yul\":12241:12245   */\n      dup2\n        /* \"#utility.yul\":12115:12246   */\n      tag_169\n      jump\t// in\n    tag_303:\n        /* \"#utility.yul\":12107:12246   */\n      swap1\n      pop\n        /* \"#utility.yul\":11834:12253   */\n      swap2\n      swap1\n      pop\n      jump\t// out\n        /* \"#utility.yul\":12259:12439   */\n    tag_170:\n        /* \"#utility.yul\":12307:12384   */\n      0x4e487b7100000000000000000000000000000000000000000000000000000000\n        /* \"#utility.yul\":12304:12305   */\n      0x00\n        /* \"#utility.yul\":12297:12385   */\n      mstore\n        /* \"#utility.yul\":12404:12408   */\n      0x11\n        /* \"#utility.yul\":12401:12402   */\n      0x04\n        /* \"#utility.yul\":12394:12409   */\n      mstore\n        /* \"#utility.yul\":12428:12432   */\n      0x24\n        /* \"#utility.yul\":12425:12426   */\n      0x00\n        /* \"#utility.yul\":12418:12433   */\n      revert\n        /* \"#utility.yul\":12445:12636   */\n    tag_79:\n        /* \"#utility.yul\":12485:12488   */\n      0x00\n        /* \"#utility.yul\":12504:12524   */\n      tag_306\n        /* \"#utility.yul\":12522:12523   */\n      dup3\n        /* \"#utility.yul\":12504:12524   */\n      tag_134\n      jump\t// in\n    tag_306:\n        /* \"#utility.yul\":12499:12524   */\n      swap2\n      pop\n        /* \"#utility.yul\":12538:12558   */\n      tag_307\n        /* \"#utility.yul\":12556:12557   */\n      dup4\n        /* \"#utility.yul\":12538:12558   */\n      tag_134\n      jump\t// in\n    tag_307:\n        /* \"#utility.yul\":12533:12558   */\n      swap3\n      pop\n        /* \"#utility.yul\":12581:12582   */\n      dup3\n        /* \"#utility.yul\":12578:12579   */\n      dup3\n        /* \"#utility.yul\":12574:12583   */\n      add\n        /* \"#utility.yul\":12567:12583   */\n      swap1\n      pop\n        /* \"#utility.yul\":12602:12605   */\n      dup1\n        /* \"#utility.yul\":12599:12600   */\n      dup3\n        /* \"#utility.yul\":12596:12606   */\n      gt\n        /* \"#utility.yul\":12593:12629   */\n      iszero\n      tag_308\n      jumpi\n        /* \"#utility.yul\":12609:12627   */\n      tag_309\n      tag_170\n      jump\t// in\n    tag_309:\n        /* \"#utility.yul\":12593:12629   */\n    tag_308:\n        /* \"#utility.yul\":12445:12636   */\n      swap3\n      swap2\n      pop\n      pop\n      jump\t// out\n        /* \"#utility.yul\":12642:12814   */\n    tag_171:\n        /* \"#utility.yul\":12782:12806   */\n      0x656e64206174203e206d6178206475726174696f6e2000000000000000000000\n        /* \"#utility.yul\":12778:12779   */\n      0x00\n        /* \"#utility.yul\":12770:12776   */\n      dup3\n        /* \"#utility.yul\":12766:12780   */\n      add\n        /* \"#utility.yul\":12759:12807   */\n      mstore\n        /* \"#utility.yul\":12642:12814   */\n      pop\n      jump\t// out\n        /* \"#utility.yul\":12820:13186   */\n    tag_172:\n        /* \"#utility.yul\":12962:12965   */\n      0x00\n        /* \"#utility.yul\":12983:13050   */\n      tag_312\n        /* \"#utility.yul\":13047:13049   */\n      0x16\n        /* \"#utility.yul\":13042:13045   */\n      dup4\n        /* \"#utility.yul\":12983:13050   */\n      tag_157\n      jump\t// in\n    tag_312:\n        /* \"#utility.yul\":12976:13050   */\n      swap2\n      pop\n        /* \"#utility.yul\":13059:13152   */\n      tag_313\n        /* \"#utility.yul\":13148:13151   */\n      dup3\n        /* \"#utility.yul\":13059:13152   */\n      tag_171\n      jump\t// in\n    tag_313:\n        /* \"#utility.yul\":13177:13179   */\n      0x20\n        /* \"#utility.yul\":13172:13175   */\n      dup3\n        /* \"#utility.yul\":13168:13180   */\n      add\n        /* \"#utility.yul\":13161:13180   */\n      swap1\n      pop\n        /* \"#utility.yul\":12820:13186   */\n      swap2\n      swap1\n      pop\n      jump\t// out\n        /* \"#utility.yul\":13192:13611   */\n    tag_82:\n        /* \"#utility.yul\":13358:13362   */\n      0x00\n        /* \"#utility.yul\":13396:13398   */\n      0x20\n        /* \"#utility.yul\":13385:13394   */\n      dup3\n        /* \"#utility.yul\":13381:13399   */\n      add\n        /* \"#utility.yul\":13373:13399   */\n      swap1\n      pop\n        /* \"#utility.yul\":13445:13454   */\n      dup2\n        /* \"#utility.yul\":13439:13443   */\n      dup2\n        /* \"#utility.yul\":13435:13455   */\n      sub\n        /* \"#utility.yul\":13431:13432   */\n      0x00\n        /* \"#utility.yul\":13420:13429   */\n      dup4\n        /* \"#utility.yul\":13416:13433   */\n      add\n        /* \"#utility.yul\":13409:13456   */\n      mstore\n        /* \"#utility.yul\":13473:13604   */\n      tag_315\n        /* \"#utility.yul\":13599:13603   */\n      dup2\n        /* \"#utility.yul\":13473:13604   */\n      tag_172\n      jump\t// in\n    tag_315:\n        /* \"#utility.yul\":13465:13604   */\n      swap1\n      pop\n        /* \"#utility.yul\":13192:13611   */\n      swap2\n      swap1\n      pop\n      jump\t// out\n        /* \"#utility.yul\":13617:13850   */\n    tag_84:\n        /* \"#utility.yul\":13656:13659   */\n      0x00\n        /* \"#utility.yul\":13679:13703   */\n      tag_317\n        /* \"#utility.yul\":13697:13702   */\n      dup3\n        /* \"#utility.yul\":13679:13703   */\n      tag_134\n      jump\t// in\n    tag_317:\n        /* \"#utility.yul\":13670:13703   */\n      swap2\n      pop\n        /* \"#utility.yul\":13725:13791   */\n      0xffffffffffffffffffffffffffffffffffffffffffffffffffffffffffffffff\n        /* \"#utility.yul\":13718:13723   */\n      dup3\n        /* \"#utility.yul\":13715:13792   */\n      sub\n        /* \"#utility.yul\":13712:13815   */\n      tag_318\n      jumpi\n        /* \"#utility.yul\":13795:13813   */\n      tag_319\n      tag_170\n      jump\t// in\n    tag_319:\n        /* \"#utility.yul\":13712:13815   */\n    tag_318:\n        /* \"#utility.yul\":13842:13843   */\n      0x01\n        /* \"#utility.yul\":13835:13840   */\n      dup3\n        /* \"#utility.yul\":13831:13844   */\n      add\n        /* \"#utility.yul\":13824:13844   */\n      swap1\n      pop\n        /* \"#utility.yul\":13617:13850   */\n      swap2\n      swap1\n      pop\n      jump\t// out\n        /* \"#utility.yul\":13856:14021   */\n    tag_173:\n        /* \"#utility.yul\":13996:14013   */\n      0x616c726561647920636c61696d65640000000000000000000000000000000000\n        /* \"#utility.yul\":13992:13993   */\n      0x00\n        /* \"#utility.yul\":13984:13990   */\n      dup3\n        /* \"#utility.yul\":13980:13994   */\n      add\n        /* \"#utility.yul\":13973:14014   */\n      mstore\n        /* \"#utility.yul\":13856:14021   */\n      pop\n      jump\t// out\n        /* \"#utility.yul\":14027:14393   */\n    tag_174:\n        /* \"#utility.yul\":14169:14172   */\n      0x00\n        /* \"#utility.yul\":14190:14257   */\n      tag_322\n        /* \"#utility.yul\":14254:14256   */\n      0x0f\n        /* \"#utility.yul\":14249:14252   */\n      dup4\n        /* \"#utility.yul\":14190:14257   */\n      tag_157\n      jump\t// in\n    tag_322:\n        /* \"#utility.yul\":14183:14257   */\n      swap2\n      pop\n        /* \"#utility.yul\":14266:14359   */\n      tag_323\n        /* \"#utility.yul\":14355:14358   */\n      dup3\n        /* \"#utility.yul\":14266:14359   */\n      tag_173\n      jump\t// in\n    tag_323:\n        /* \"#utility.yul\":14384:14386   */\n      0x20\n        /* \"#utility.yul\":14379:14382   */\n      dup3\n        /* \"#utility.yul\":14375:14387   */\n      add\n        /* \"#utility.yul\":14368:14387   */\n      swap1\n      pop\n        /* \"#utility.yul\":14027:14393   */\n      swap2\n      swap1\n      pop\n      jump\t// out\n        /* \"#utility.yul\":14399:14818   */\n    tag_94:\n        /* \"#utility.yul\":14565:14569   */\n      0x00\n        /* \"#utility.yul\":14603:14605   */\n      0x20\n        /* \"#utility.yul\":14592:14601   */\n      dup3\n        /* \"#utility.yul\":14588:14606   */\n      add\n        /* \"#utility.yul\":14580:14606   */\n      swap1\n      pop\n        /* \"#utility.yul\":14652:14661   */\n      dup2\n        /* \"#utility.yul\":14646:14650   */\n      dup2\n        /* \"#utility.yul\":14642:14662   */\n      sub\n        /* \"#utility.yul\":14638:14639   */\n      0x00\n        /* \"#utility.yul\":14627:14636   */\n      dup4\n        /* \"#utility.yul\":14623:14640   */\n      add\n        /* \"#utility.yul\":14616:14663   */\n      mstore\n        /* \"#utility.yul\":14680:14811   */\n      tag_325\n        /* \"#utility.yul\":14806:14810   */\n      dup2\n        /* \"#utility.yul\":14680:14811   */\n      tag_174\n      jump\t// in\n    tag_325:\n        /* \"#utility.yul\":14672:14811   */\n      swap1\n      pop\n        /* \"#utility.yul\":14399:14818   */\n      swap2\n      swap1\n      pop\n      jump\t// out\n        /* \"#utility.yul\":14824:14985   */\n    tag_175:\n        /* \"#utility.yul\":14964:14977   */\n      0x6e6f742063726561746f72000000000000000000000000000000000000000000\n        /* \"#utility.yul\":14960:14961   */\n      0x00\n        /* \"#utility.yul\":14952:14958   */\n      dup3\n        /* \"#utility.yul\":14948:14962   */\n      add\n        /* \"#utility.yul\":14941:14978   */\n      mstore\n        /* \"#utility.yul\":14824:14985   */\n      pop\n      jump\t// out\n        /* \"#utility.yul\":14991:15357   */\n    tag_176:\n        /* \"#utility.yul\":15133:15136   */\n      0x00\n        /* \"#utility.yul\":15154:15221   */\n      tag_328\n        /* \"#utility.yul\":15218:15220   */\n      0x0b\n        /* \"#utility.yul\":15213:15216   */\n      dup4\n        /* \"#utility.yul\":15154:15221   */\n      tag_157\n      jump\t// in\n    tag_328:\n        /* \"#utility.yul\":15147:15221   */\n      swap2\n      pop\n        /* \"#utility.yul\":15230:15323   */\n      tag_329\n        /* \"#utility.yul\":15319:15322   */\n      dup3\n        /* \"#utility.yul\":15230:15323   */\n      tag_175\n      jump\t// in\n    tag_329:\n        /* \"#utility.yul\":15348:15350   */\n      0x20\n        /* \"#utility.yul\":15343:15346   */\n      dup3\n        /* \"#utility.yul\":15339:15351   */\n      add\n        /* \"#utility.yul\":15332:15351   */\n      swap1\n      pop\n        /* \"#utility.yul\":14991:15357   */\n      swap2\n      swap1\n      pop\n      jump\t// out\n        /* \"#utility.yul\":15363:15782   */\n    tag_103:\n        /* \"#utility.yul\":15529:15533   */\n      0x00\n        /* \"#utility.yul\":15567:15569   */\n      0x20\n        /* \"#utility.yul\":15556:15565   */\n      dup3\n        /* \"#utility.yul\":15552:15570   */\n      add\n        /* \"#utility.yul\":15544:15570   */\n      swap1\n      pop\n        /* \"#utility.yul\":15616:15625   */\n      dup2\n        /* \"#utility.yul\":15610:15614   */\n      dup2\n        /* \"#utility.yul\":15606:15626   */\n      sub\n        /* \"#utility.yul\":15602:15603   */\n      0x00\n        /* \"#utility.yul\":15591:15600   */\n      dup4\n        /* \"#utility.yul\":15587:15604   */\n      add\n        /* \"#utility.yul\":15580:15627   */\n      mstore\n        /* \"#utility.yul\":15644:15775   */\n      tag_331\n        /* \"#utility.yul\":15770:15774   */\n      dup2\n        /* \"#utility.yul\":15644:15775   */\n      tag_176\n      jump\t// in\n    tag_331:\n        /* \"#utility.yul\":15636:15775   */\n      swap1\n      pop\n        /* \"#utility.yul\":15363:15782   */\n      swap2\n      swap1\n      pop\n      jump\t// out\n        /* \"#utility.yul\":15788:15954   */\n    tag_177:\n        /* \"#utility.yul\":15928:15946   */\n      0x63616d706169676e207374617274656400000000000000000000000000000000\n        /* \"#utility.yul\":15924:15925   */\n      0x00\n        /* \"#utility.yul\":15916:15922   */\n      dup3\n        /* \"#utility.yul\":15912:15926   */\n      add\n        /* \"#utility.yul\":15905:15947   */\n      mstore\n        /* \"#utility.yul\":15788:15954   */\n      pop\n      jump\t// out\n        /* \"#utility.yul\":15960:16326   */\n    tag_178:\n        /* \"#utility.yul\":16102:16105   */\n      0x00\n        /* \"#utility.yul\":16123:16190   */\n      tag_334\n        /* \"#utility.yul\":16187:16189   */\n      0x10\n        /* \"#utility.yul\":16182:16185   */\n      dup4\n        /* \"#utility.yul\":16123:16190   */\n      tag_157\n      jump\t// in\n    tag_334:\n        /* \"#utility.yul\":16116:16190   */\n      swap2\n      pop\n        /* \"#utility.yul\":16199:16292   */\n      tag_335\n        /* \"#utility.yul\":16288:16291   */\n      dup3\n        /* \"#utility.yul\":16199:16292   */\n      tag_177\n      jump\t// in\n    tag_335:\n        /* \"#utility.yul\":16317:16319   */\n      0x20\n        /* \"#utility.yul\":16312:16315   */\n      dup3\n        /* \"#utility.yul\":16308:16320   */\n      add\n        /* \"#utility.yul\":16301:16320   */\n      swap1\n      pop\n        /* \"#utility.yul\":15960:16326   */\n      swap2\n      swap1\n      pop\n      jump\t// out\n        /* \"#utility.yul\":16332:16751   */\n    tag_106:\n        /* \"#utility.yul\":16498:16502   */\n      0x00\n        /* \"#utility.yul\":16536:16538   */\n      0x20\n        /* \"#utility.yul\":16525:16534   */\n      dup3\n        /* \"#utility.yul\":16521:16539   */\n      add\n        /* \"#utility.yul\":16513:16539   */\n      swap1\n      pop\n        /* \"#utility.yul\":16585:16594   */\n      dup2\n        /* \"#utility.yul\":16579:16583   */\n      dup2\n        /* \"#utility.yul\":16575:16595   */\n      sub\n        /* \"#utility.yul\":16571:16572   */\n      0x00\n        /* \"#utility.yul\":16560:16569   */\n      dup4\n        /* \"#utility.yul\":16556:16573   */\n      add\n        /* \"#utility.yul\":16549:16596   */\n      mstore\n        /* \"#utility.yul\":16613:16744   */\n      tag_337\n        /* \"#utility.yul\":16739:16743   */\n      dup2\n        /* \"#utility.yul\":16613:16744   */\n      tag_178\n      jump\t// in\n    tag_337:\n        /* \"#utility.yul\":16605:16744   */\n      swap1\n      pop\n        /* \"#utility.yul\":16332:16751   */\n      swap2\n      swap1\n      pop\n      jump\t// out\n        /* \"#utility.yul\":16757:16912   */\n    tag_179:\n        /* \"#utility.yul\":16897:16904   */\n      0x656e646564000000000000000000000000000000000000000000000000000000\n        /* \"#utility.yul\":16893:16894   */\n      0x00\n        /* \"#utility.yul\":16885:16891   */\n      dup3\n        /* \"#utility.yul\":16881:16895   */\n      add\n        /* \"#utility.yul\":16874:16905   */\n      mstore\n        /* \"#utility.yul\":16757:16912   */\n      pop\n      jump\t// out\n        /* \"#utility.yul\":16918:17283   */\n    tag_180:\n        /* \"#utility.yul\":17060:17063   */\n      0x00\n        /* \"#utility.yul\":17081:17147   */\n      tag_340\n        /* \"#utility.yul\":17145:17146   */\n      0x05\n        /* \"#utility.yul\":17140:17143   */\n      dup4\n        /* \"#utility.yul\":17081:17147   */\n      tag_157\n      jump\t// in\n    tag_340:\n        /* \"#utility.yul\":17074:17147   */\n      swap2\n      pop\n        /* \"#utility.yul\":17156:17249   */\n      tag_341\n        /* \"#utility.yul\":17245:17248   */\n      dup3\n        /* \"#utility.yul\":17156:17249   */\n      tag_179\n      jump\t// in\n    tag_341:\n        /* \"#utility.yul\":17274:17276   */\n      0x20\n        /* \"#utility.yul\":17269:17272   */\n      dup3\n        /* \"#utility.yul\":17265:17277   */\n      add\n        /* \"#utility.yul\":17258:17277   */\n      swap1\n      pop\n        /* \"#utility.yul\":16918:17283   */\n      swap2\n      swap1\n      pop\n      jump\t// out\n        /* \"#utility.yul\":17289:17708   */\n    tag_111:\n        /* \"#utility.yul\":17455:17459   */\n      0x00\n        /* \"#utility.yul\":17493:17495   */\n      0x20\n        /* \"#utility.yul\":17482:17491   */\n      dup3\n        /* \"#utility.yul\":17478:17496   */\n      add\n        /* \"#utility.yul\":17470:17496   */\n      swap1\n      pop\n        /* \"#utility.yul\":17542:17551   */\n      dup2\n        /* \"#utility.yul\":17536:17540   */\n      dup2\n        /* \"#utility.yul\":17532:17552   */\n      sub\n        /* \"#utility.yul\":17528:17529   */\n      0x00\n        /* \"#utility.yul\":17517:17526   */\n      dup4\n        /* \"#utility.yul\":17513:17530   */\n      add\n        /* \"#utility.yul\":17506:17553   */\n      mstore\n        /* \"#utility.yul\":17570:17701   */\n      tag_343\n        /* \"#utility.yul\":17696:17700   */\n      dup2\n        /* \"#utility.yul\":17570:17701   */\n      tag_180\n      jump\t// in\n    tag_343:\n        /* \"#utility.yul\":17562:17701   */\n      swap1\n      pop\n        /* \"#utility.yul\":17289:17708   */\n      swap2\n      swap1\n      pop\n      jump\t// out\n        /* \"#utility.yul\":17714:17908   */\n    tag_113:\n        /* \"#utility.yul\":17754:17758   */\n      0x00\n        /* \"#utility.yul\":17774:17794   */\n      tag_345\n        /* \"#utility.yul\":17792:17793   */\n      dup3\n        /* \"#utility.yul\":17774:17794   */\n      tag_134\n      jump\t// in\n    tag_345:\n        /* \"#utility.yul\":17769:17794   */\n      swap2\n      pop\n        /* \"#utility.yul\":17808:17828   */\n      tag_346\n        /* \"#utility.yul\":17826:17827   */\n      dup4\n        /* \"#utility.yul\":17808:17828   */\n      tag_134\n      jump\t// in\n    tag_346:\n        /* \"#utility.yul\":17803:17828   */\n      swap3\n      pop\n        /* \"#utility.yul\":17852:17853   */\n      dup3\n        /* \"#utility.yul\":17849:17850   */\n      dup3\n        /* \"#utility.yul\":17845:17854   */\n      sub\n        /* \"#utility.yul\":17837:17854   */\n      swap1\n      pop\n        /* \"#utility.yul\":17876:17877   */\n      dup2\n        /* \"#utility.yul\":17870:17874   */\n      dup2\n        /* \"#utility.yul\":17867:17878   */\n      gt\n        /* \"#utility.yul\":17864:17901   */\n      iszero\n      tag_347\n      jumpi\n        /* \"#utility.yul\":17881:17899   */\n      tag_348\n      tag_170\n      jump\t// in\n    tag_348:\n        /* \"#utility.yul\":17864:17901   */\n    tag_347:\n        /* \"#utility.yul\":17714:17908   */\n      swap3\n      swap2\n      pop\n      pop\n      jump\t// out\n        /* \"#utility.yul\":17914:18084   */\n    tag_181:\n        /* \"#utility.yul\":18054:18076   */\n      0x63616d706169676e206e6f742073746172746564000000000000000000000000\n        /* \"#utility.yul\":18050:18051   */\n      0x00\n        /* \"#utility.yul\":18042:18048   */\n      dup3\n        /* \"#utility.yul\":18038:18052   */\n      add\n        /* \"#utility.yul\":18031:18077   */\n      mstore\n        /* \"#utility.yul\":17914:18084   */\n      pop\n      jump\t// out\n        /* \"#utility.yul\":18090:18456   */\n    tag_182:\n        /* \"#utility.yul\":18232:18235   */\n      0x00\n        /* \"#utility.yul\":18253:18320   */\n      tag_351\n        /* \"#utility.yul\":18317:18319   */\n      0x14\n        /* \"#utility.yul\":18312:18315   */\n      dup4\n        /* \"#utility.yul\":18253:18320   */\n      tag_157\n      jump\t// in\n    tag_351:\n        /* \"#utility.yul\":18246:18320   */\n      swap2\n      pop\n        /* \"#utility.yul\":18329:18422   */\n      tag_352\n        /* \"#utility.yul\":18418:18421   */\n      dup3\n        /* \"#utility.yul\":18329:18422   */\n      tag_181\n      jump\t// in\n    tag_352:\n        /* \"#utility.yul\":18447:18449   */\n      0x20\n        /* \"#utility.yul\":18442:18445   */\n      dup3\n        /* \"#utility.yul\":18438:18450   */\n      add\n        /* \"#utility.yul\":18431:18450   */\n      swap1\n      pop\n        /* \"#utility.yul\":18090:18456   */\n      swap2\n      swap1\n      pop\n      jump\t// out\n        /* \"#utility.yul\":18462:18881   */\n    tag_123:\n        /* \"#utility.yul\":18628:18632   */\n      0x00\n        /* \"#utility.yul\":18666:18668   */\n      0x20\n        /* \"#utility.yul\":18655:18664   */\n      dup3\n        /* \"#utility.yul\":18651:18669   */\n      add\n        /* \"#utility.yul\":18643:18669   */\n      swap1\n      pop\n        /* \"#utility.yul\":18715:18724   */\n      dup2\n        /* \"#utility.yul\":18709:18713   */\n      dup2\n        /* \"#utility.yul\":18705:18725   */\n      sub\n        /* \"#utility.yul\":18701:18702   */\n      0x00\n        /* \"#utility.yul\":18690:18699   */\n      dup4\n        /* \"#utility.yul\":18686:18703   */\n      add\n        /* \"#utility.yul\":18679:18726   */\n      mstore\n        /* \"#utility.yul\":18743:18874   */\n      tag_354\n        /* \"#utility.yul\":18869:18873   */\n      dup2\n        /* \"#utility.yul\":18743:18874   */\n      tag_182\n      jump\t// in\n    tag_354:\n        /* \"#utility.yul\":18735:18874   */\n      swap1\n      pop\n        /* \"#utility.yul\":18462:18881   */\n      swap2\n      swap1\n      pop\n      jump\t// out\n        /* \"#utility.yul\":18887:19329   */\n    tag_129:\n        /* \"#utility.yul\":19036:19040   */\n      0x00\n        /* \"#utility.yul\":19074:19076   */\n      0x60\n        /* \"#utility.yul\":19063:19072   */\n      dup3\n        /* \"#utility.yul\":19059:19077   */\n      add\n        /* \"#utility.yul\":19051:19077   */\n      swap1\n      pop\n        /* \"#utility.yul\":19087:19158   */\n      tag_356\n        /* \"#utility.yul\":19155:19156   */\n      0x00\n        /* \"#utility.yul\":19144:19153   */\n      dup4\n        /* \"#utility.yul\":19140:19157   */\n      add\n        /* \"#utility.yul\":19131:19137   */\n      dup7\n        /* \"#utility.yul\":19087:19158   */\n      tag_143\n      jump\t// in\n    tag_356:\n        /* \"#utility.yul\":19168:19240   */\n      tag_357\n        /* \"#utility.yul\":19236:19238   */\n      0x20\n        /* \"#utility.yul\":19225:19234   */\n      dup4\n        /* \"#utility.yul\":19221:19239   */\n      add\n        /* \"#utility.yul\":19212:19218   */\n      dup6\n        /* \"#utility.yul\":19168:19240   */\n      tag_143\n      jump\t// in\n    tag_357:\n        /* \"#utility.yul\":19250:19322   */\n      tag_358\n        /* \"#utility.yul\":19318:19320   */\n      0x40\n        /* \"#utility.yul\":19307:19316   */\n      dup4\n        /* \"#utility.yul\":19303:19321   */\n      add\n        /* \"#utility.yul\":19294:19300   */\n      dup5\n        /* \"#utility.yul\":19250:19322   */\n      tag_135\n      jump\t// in\n    tag_358:\n        /* \"#utility.yul\":18887:19329   */\n      swap5\n      swap4\n      pop\n      pop\n      pop\n      pop\n      jump\t// out\n\n    auxdata: 0xa26469706673582212209a1e298d94548a9e14169ac75c517707f898af691c5264f46e74e66cd96e0c2c64736f6c634300081a0033\n}\n",
				"bytecode": {
					"linkReferences": {},
					"object": "60a060405234801561000f575f80fd5b50604051611b8e380380611b8e833981810160405281019061003191906100c9565b8073ffffffffffffffffffffffffffffffffffffffff1660808173ffffffffffffffffffffffffffffffffffffffff1681525050506100f4565b5f80fd5b5f73ffffffffffffffffffffffffffffffffffffffff82169050919050565b5f6100988261006f565b9050919050565b6100a88161008e565b81146100b2575f80fd5b50565b5f815190506100c38161009f565b92915050565b5f602082840312156100de576100dd61006b565b5b5f6100eb848285016100b5565b91505092915050565b608051611a666101285f395f818161045e0152818161093e01528181610d9501528181610ea501526110120152611a665ff3fe608060405234801561000f575f80fd5b506004361061009c575f3560e01c806340e58ee51161006457806340e58ee514610147578063a3a0e93614610163578063aa4fb63a1461017f578063fc0c546a146101af578063fde327be146101cd5761009c565b806306661abd146100a0578063141961bc146100be578063278ecde1146100f35780632c63f1461461010f578063379607f51461012b575b5f80fd5b6100a86101e9565b6040516100b5919061111a565b60405180910390f35b6100d860048036038101906100d39190611161565b6101ee565b6040516100ea96959493929190611203565b60405180910390f35b61010d60048036038101906101089190611161565b610271565b005b6101296004803603810190610124919061128c565b61054d565b005b61014560048036038101906101409190611161565b610782565b005b610161600480360381019061015c9190611161565b610a39565b005b61017d600480360381019061017891906112dc565b610ca6565b005b61019960048036038101906101949190611344565b610e83565b6040516101a6919061111a565b60405180910390f35b6101b7610ea3565b6040516101c491906113dd565b60405180910390f35b6101e760048036038101906101e291906112dc565b610ec7565b005b5f5481565b6001602052805f5260405f205f91509050805f015f9054906101000a900473ffffffffffffffffffffffffffffffffffffffff1690806001015490806002015490806003015f9054906101000a900463ffffffff16908060030160049054906101000a900463ffffffff16908060030160089054906101000a900460ff16905086565b5f60015f8381526020019081526020015f2090508060030160049054906101000a900463ffffffff1663ffffffff1642116102e1576040517f08c379a00000000000000000000000000000000000000000000000000000000081526004016102d890611450565b60405180910390fd5b3373ffffffffffffffffffffffffffffffffffffffff16815f015f9054906101000a900473ffffffffffffffffffffffffffffffffffffffff1673ffffffffffffffffffffffffffffffffffffffff1614610371576040517f08c379a0000000000000000000000000000000000000000000000000000000008152600401610368906114b8565b60405180910390fd5b80600101548160020154106103bb576040517f08c379a00000000000000000000000000000000000000000000000000000000081526004016103b290611520565b60405180910390fd5b5f60025f8481526020019081526020015f205f3373ffffffffffffffffffffffffffffffffffffffff1673ffffffffffffffffffffffffffffffffffffffff1681526020019081526020015f205490505f60025f8581526020019081526020015f205f3373ffffffffffffffffffffffffffffffffffffffff1673ffffffffffffffffffffffffffffffffffffffff1681526020019081526020015f20819055507f000000000000000000000000000000000000000000000000000000000000000073ffffffffffffffffffffffffffffffffffffffff1663a9059cbb33836040518363ffffffff1660e01b81526004016104b792919061153e565b6020604051808303815f875af11580156104d3573d5f803e3d5ffd5b505050506040513d601f19601f820116820180604052508101906104f7919061158f565b503373ffffffffffffffffffffffffffffffffffffffff167f21e12a7cad0da5928167e1084ea4d5fdf8d9af66657a2543a9ac76a0ca08147784836040516105409291906115ba565b60405180910390a2505050565b428263ffffffff161015610596576040517f08c379a000000000000000000000000000000000000000000000000000000000815260040161058d9061162b565b60405180910390fd5b8163ffffffff168163ffffffff1610156105e5576040517f08c379a00000000000000000000000000000000000000000000000000000000081526004016105dc90611693565b60405180910390fd5b6276a700426105f491906116de565b8163ffffffff16111561063c576040517f08c379a00000000000000000000000000000000000000000000000000000000081526004016106339061175b565b60405180910390fd5b5f8081548092919061064d90611779565b91905055506040518060c001604052803373ffffffffffffffffffffffffffffffffffffffff1681526020018481526020015f81526020018363ffffffff1681526020018263ffffffff1681526020015f151581525060015f805481526020019081526020015f205f820151815f015f6101000a81548173ffffffffffffffffffffffffffffffffffffffff021916908373ffffffffffffffffffffffffffffffffffffffff16021790555060208201518160010155604082015181600201556060820151816003015f6101000a81548163ffffffff021916908363ffffffff16021790555060808201518160030160046101000a81548163ffffffff021916908363ffffffff16021790555060a08201518160030160086101000a81548160ff021916908315150217905550905050505050565b5f60015f8381526020019081526020015f2090508060030160049054906101000a900463ffffffff1663ffffffff1642116107f2576040517f08c379a00000000000000000000000000000000000000000000000000000000081526004016107e990611450565b60405180910390fd5b3373ffffffffffffffffffffffffffffffffffffffff16815f015f9054906101000a900473ffffffffffffffffffffffffffffffffffffffff1673ffffffffffffffffffffffffffffffffffffffff1614610882576040517f08c379a0000000000000000000000000000000000000000000000000000000008152600401610879906114b8565b60405180910390fd5b8060010154816002015410156108cd576040517f08c379a00000000000000000000000000000000000000000000000000000000081526004016108c490611520565b60405180910390fd5b8060030160089054906101000a900460ff161561091f576040517f08c379a00000000000000000000000000000000000000000000000000000000081526004016109169061180a565b60405180910390fd5b60018160030160086101000a81548160ff0219169083151502179055507f000000000000000000000000000000000000000000000000000000000000000073ffffffffffffffffffffffffffffffffffffffff1663a9059cbb825f015f9054906101000a900473ffffffffffffffffffffffffffffffffffffffff1683600201546040518363ffffffff1660e01b81526004016109bd92919061153e565b6020604051808303815f875af11580156109d9573d5f803e3d5ffd5b505050506040513d601f19601f820116820180604052508101906109fd919061158f565b507f7bb2b3c10797baccb6f8c4791f1edd6ca2f0d028ee0eda64b01a9a57e3a653f782604051610a2d919061111a565b60405180910390a15050565b5f60015f8381526020019081526020015f206040518060c00160405290815f82015f9054906101000a900473ffffffffffffffffffffffffffffffffffffffff1673ffffffffffffffffffffffffffffffffffffffff1673ffffffffffffffffffffffffffffffffffffffff1681526020016001820154815260200160028201548152602001600382015f9054906101000a900463ffffffff1663ffffffff1663ffffffff1681526020016003820160049054906101000a900463ffffffff1663ffffffff1663ffffffff1681526020016003820160089054906101000a900460ff16151515158152505090503373ffffffffffffffffffffffffffffffffffffffff16815f015173ffffffffffffffffffffffffffffffffffffffff1614610b97576040517f08c379a0000000000000000000000000000000000000000000000000000000008152600401610b8e90611872565b60405180910390fd5b806060015163ffffffff164210610be3576040517f08c379a0000000000000000000000000000000000000000000000000000000008152600401610bda906118da565b60405180910390fd5b60015f8381526020019081526020015f205f8082015f6101000a81549073ffffffffffffffffffffffffffffffffffffffff0219169055600182015f9055600282015f9055600382015f6101000a81549063ffffffff02191690556003820160046101000a81549063ffffffff02191690556003820160086101000a81549060ff021916905550507f8bf30e7ff26833413be5f69e1d373744864d600b664204b4a2f9844a8eedb9ed82604051610c9a919061111a565b60405180910390a15050565b5f60015f8481526020019081526020015f2090508060030160049054906101000a900463ffffffff1663ffffffff16421115610d17576040517f08c379a0000000000000000000000000000000000000000000000000000000008152600401610d0e90611942565b60405180910390fd5b81816002015f828254610d2a9190611960565b925050819055508160025f8581526020019081526020015f205f3373ffffffffffffffffffffffffffffffffffffffff1673ffffffffffffffffffffffffffffffffffffffff1681526020019081526020015f205f828254610d8c9190611960565b925050819055507f000000000000000000000000000000000000000000000000000000000000000073ffffffffffffffffffffffffffffffffffffffff1663a9059cbb33846040518363ffffffff1660e01b8152600401610dee92919061153e565b6020604051808303815f875af1158015610e0a573d5f803e3d5ffd5b505050506040513d601f19601f82011682018060405250810190610e2e919061158f565b503373ffffffffffffffffffffffffffffffffffffffff16837f2eeeab891b26a214d1b25749f88a406bdea852bd8c9bfda977e0ef8114c180ba84604051610e76919061111a565b60405180910390a3505050565b6002602052815f5260405f20602052805f5260405f205f91509150505481565b7f000000000000000000000000000000000000000000000000000000000000000081565b5f60015f8481526020019081526020015f209050806003015f9054906101000a900463ffffffff1663ffffffff16421015610f37576040517f08c379a0000000000000000000000000000000000000000000000000000000008152600401610f2e906119dd565b60405180910390fd5b8060030160049054906101000a900463ffffffff1663ffffffff16421115610f94576040517f08c379a0000000000000000000000000000000000000000000000000000000008152600401610f8b90611942565b60405180910390fd5b81816002015f828254610fa791906116de565b925050819055508160025f8581526020019081526020015f205f3373ffffffffffffffffffffffffffffffffffffffff1673ffffffffffffffffffffffffffffffffffffffff1681526020019081526020015f205f82825461100991906116de565b925050819055507f000000000000000000000000000000000000000000000000000000000000000073ffffffffffffffffffffffffffffffffffffffff166323b872dd3330856040518463ffffffff1660e01b815260040161106d939291906119fb565b6020604051808303815f875af1158015611089573d5f803e3d5ffd5b505050506040513d601f19601f820116820180604052508101906110ad919061158f565b503373ffffffffffffffffffffffffffffffffffffffff16837f06bdb975df800a73232998e71ed585d536222f1dfeaa622d7f62a23ada686c82846040516110f5919061111a565b60405180910390a3505050565b5f819050919050565b61111481611102565b82525050565b5f60208201905061112d5f83018461110b565b92915050565b5f80fd5b61114081611102565b811461114a575f80fd5b50565b5f8135905061115b81611137565b92915050565b5f6020828403121561117657611175611133565b5b5f6111838482850161114d565b91505092915050565b5f73ffffffffffffffffffffffffffffffffffffffff82169050919050565b5f6111b58261118c565b9050919050565b6111c5816111ab565b82525050565b5f63ffffffff82169050919050565b6111e3816111cb565b82525050565b5f8115159050919050565b6111fd816111e9565b82525050565b5f60c0820190506112165f8301896111bc565b611223602083018861110b565b611230604083018761110b565b61123d60608301866111da565b61124a60808301856111da565b61125760a08301846111f4565b979650505050505050565b61126b816111cb565b8114611275575f80fd5b50565b5f8135905061128681611262565b92915050565b5f805f606084860312156112a3576112a2611133565b5b5f6112b08682870161114d565b93505060206112c186828701611278565b92505060406112d286828701611278565b9150509250925092565b5f80604083850312156112f2576112f1611133565b5b5f6112ff8582860161114d565b92505060206113108582860161114d565b9150509250929050565b611323816111ab565b811461132d575f80fd5b50565b5f8135905061133e8161131a565b92915050565b5f806040838503121561135a57611359611133565b5b5f6113678582860161114d565b925050602061137885828601611330565b9150509250929050565b5f819050919050565b5f6113a56113a061139b8461118c565b611382565b61118c565b9050919050565b5f6113b68261138b565b9050919050565b5f6113c7826113ac565b9050919050565b6113d7816113bd565b82525050565b5f6020820190506113f05f8301846113ce565b92915050565b5f82825260208201905092915050565b7f6e6f7420656e64656400000000000000000000000000000000000000000000005f82015250565b5f61143a6009836113f6565b915061144582611406565b602082019050919050565b5f6020820190508181035f8301526114678161142e565b9050919050565b7f6e6f74206f776e657200000000000000000000000000000000000000000000005f82015250565b5f6114a26009836113f6565b91506114ad8261146e565b602082019050919050565b5f6020820190508181035f8301526114cf81611496565b9050919050565b7f6e6f7420656e6f75676820616d6f756e740000000000000000000000000000005f82015250565b5f61150a6011836113f6565b9150611515826114d6565b602082019050919050565b5f6020820190508181035f830152611537816114fe565b9050919050565b5f6040820190506115515f8301856111bc565b61155e602083018461110b565b9392505050565b61156e816111e9565b8114611578575f80fd5b50565b5f8151905061158981611565565b92915050565b5f602082840312156115a4576115a3611133565b5b5f6115b18482850161157b565b91505092915050565b5f6040820190506115cd5f83018561110b565b6115da602083018461110b565b9392505050565b7f7374617274206174203c206e6f770000000000000000000000000000000000005f82015250565b5f611615600e836113f6565b9150611620826115e1565b602082019050919050565b5f6020820190508181035f83015261164281611609565b9050919050565b7f656e64206174203c207374617274696e672074696d65000000000000000000005f82015250565b5f61167d6016836113f6565b915061168882611649565b602082019050919050565b5f6020820190508181035f8301526116aa81611671565b9050919050565b7f4e487b71000000000000000000000000000000000000000000000000000000005f52601160045260245ffd5b5f6116e882611102565b91506116f383611102565b925082820190508082111561170b5761170a6116b1565b5b92915050565b7f656e64206174203e206d6178206475726174696f6e20000000000000000000005f82015250565b5f6117456016836113f6565b915061175082611711565b602082019050919050565b5f6020820190508181035f83015261177281611739565b9050919050565b5f61178382611102565b91507fffffffffffffffffffffffffffffffffffffffffffffffffffffffffffffffff82036117b5576117b46116b1565b5b600182019050919050565b7f616c726561647920636c61696d656400000000000000000000000000000000005f82015250565b5f6117f4600f836113f6565b91506117ff826117c0565b602082019050919050565b5f6020820190508181035f830152611821816117e8565b9050919050565b7f6e6f742063726561746f720000000000000000000000000000000000000000005f82015250565b5f61185c600b836113f6565b915061186782611828565b602082019050919050565b5f6020820190508181035f83015261188981611850565b9050919050565b7f63616d706169676e2073746172746564000000000000000000000000000000005f82015250565b5f6118c46010836113f6565b91506118cf82611890565b602082019050919050565b5f6020820190508181035f8301526118f1816118b8565b9050919050565b7f656e6465640000000000000000000000000000000000000000000000000000005f82015250565b5f61192c6005836113f6565b9150611937826118f8565b602082019050919050565b5f6020820190508181035f83015261195981611920565b9050919050565b5f61196a82611102565b915061197583611102565b925082820390508181111561198d5761198c6116b1565b5b92915050565b7f63616d706169676e206e6f7420737461727465640000000000000000000000005f82015250565b5f6119c76014836113f6565b91506119d282611993565b602082019050919050565b5f6020820190508181035f8301526119f4816119bb565b9050919050565b5f606082019050611a0e5f8301866111bc565b611a1b60208301856111bc565b611a28604083018461110b565b94935050505056fea26469706673582212209a1e298d94548a9e14169ac75c517707f898af691c5264f46e74e66cd96e0c2c64736f6c634300081a0033",
					"opcodes": "PUSH1 0xA0 PUSH1 0x40 MSTORE CALLVALUE DUP1 ISZERO PUSH2 0xF JUMPI PUSH0 DUP1 REVERT JUMPDEST POP PUSH1 0x40 MLOAD PUSH2 0x1B8E CODESIZE SUB DUP1 PUSH2 0x1B8E DUP4 CODECOPY DUP2 DUP2 ADD PUSH1 0x40 MSTORE DUP2 ADD SWAP1 PUSH2 0x31 SWAP2 SWAP1 PUSH2 0xC9 JUMP JUMPDEST DUP1 PUSH20 0xFFFFFFFFFFFFFFFFFFFFFFFFFFFFFFFFFFFFFFFF AND PUSH1 0x80 DUP2 PUSH20 0xFFFFFFFFFFFFFFFFFFFFFFFFFFFFFFFFFFFFFFFF AND DUP2 MSTORE POP POP POP PUSH2 0xF4 JUMP JUMPDEST PUSH0 DUP1 REVERT JUMPDEST PUSH0 PUSH20 0xFFFFFFFFFFFFFFFFFFFFFFFFFFFFFFFFFFFFFFFF DUP3 AND SWAP1 POP SWAP2 SWAP1 POP JUMP JUMPDEST PUSH0 PUSH2 0x98 DUP3 PUSH2 0x6F JUMP JUMPDEST SWAP1 POP SWAP2 SWAP1 POP JUMP JUMPDEST PUSH2 0xA8 DUP2 PUSH2 0x8E JUMP JUMPDEST DUP2 EQ PUSH2 0xB2 JUMPI PUSH0 DUP1 REVERT JUMPDEST POP JUMP JUMPDEST PUSH0 DUP2 MLOAD SWAP1 POP PUSH2 0xC3 DUP2 PUSH2 0x9F JUMP JUMPDEST SWAP3 SWAP2 POP POP JUMP JUMPDEST PUSH0 PUSH1 0x20 DUP3 DUP5 SUB SLT ISZERO PUSH2 0xDE JUMPI PUSH2 0xDD PUSH2 0x6B JUMP JUMPDEST JUMPDEST PUSH0 PUSH2 0xEB DUP5 DUP3 DUP6 ADD PUSH2 0xB5 JUMP JUMPDEST SWAP2 POP POP SWAP3 SWAP2 POP POP JUMP JUMPDEST PUSH1 0x80 MLOAD PUSH2 0x1A66 PUSH2 0x128 PUSH0 CODECOPY PUSH0 DUP2 DUP2 PUSH2 0x45E ADD MSTORE DUP2 DUP2 PUSH2 0x93E ADD MSTORE DUP2 DUP2 PUSH2 0xD95 ADD MSTORE DUP2 DUP2 PUSH2 0xEA5 ADD MSTORE PUSH2 0x1012 ADD MSTORE PUSH2 0x1A66 PUSH0 RETURN INVALID PUSH1 0x80 PUSH1 0x40 MSTORE CALLVALUE DUP1 ISZERO PUSH2 0xF JUMPI PUSH0 DUP1 REVERT JUMPDEST POP PUSH1 0x4 CALLDATASIZE LT PUSH2 0x9C JUMPI PUSH0 CALLDATALOAD PUSH1 0xE0 SHR DUP1 PUSH4 0x40E58EE5 GT PUSH2 0x64 JUMPI DUP1 PUSH4 0x40E58EE5 EQ PUSH2 0x147 JUMPI DUP1 PUSH4 0xA3A0E936 EQ PUSH2 0x163 JUMPI DUP1 PUSH4 0xAA4FB63A EQ PUSH2 0x17F JUMPI DUP1 PUSH4 0xFC0C546A EQ PUSH2 0x1AF JUMPI DUP1 PUSH4 0xFDE327BE EQ PUSH2 0x1CD JUMPI PUSH2 0x9C JUMP JUMPDEST DUP1 PUSH4 0x6661ABD EQ PUSH2 0xA0 JUMPI DUP1 PUSH4 0x141961BC EQ PUSH2 0xBE JUMPI DUP1 PUSH4 0x278ECDE1 EQ PUSH2 0xF3 JUMPI DUP1 PUSH4 0x2C63F146 EQ PUSH2 0x10F JUMPI DUP1 PUSH4 0x379607F5 EQ PUSH2 0x12B JUMPI JUMPDEST PUSH0 DUP1 REVERT JUMPDEST PUSH2 0xA8 PUSH2 0x1E9 JUMP JUMPDEST PUSH1 0x40 MLOAD PUSH2 0xB5 SWAP2 SWAP1 PUSH2 0x111A JUMP JUMPDEST PUSH1 0x40 MLOAD DUP1 SWAP2 SUB SWAP1 RETURN JUMPDEST PUSH2 0xD8 PUSH1 0x4 DUP1 CALLDATASIZE SUB DUP2 ADD SWAP1 PUSH2 0xD3 SWAP2 SWAP1 PUSH2 0x1161 JUMP JUMPDEST PUSH2 0x1EE JUMP JUMPDEST PUSH1 0x40 MLOAD PUSH2 0xEA SWAP7 SWAP6 SWAP5 SWAP4 SWAP3 SWAP2 SWAP1 PUSH2 0x1203 JUMP JUMPDEST PUSH1 0x40 MLOAD DUP1 SWAP2 SUB SWAP1 RETURN JUMPDEST PUSH2 0x10D PUSH1 0x4 DUP1 CALLDATASIZE SUB DUP2 ADD SWAP1 PUSH2 0x108 SWAP2 SWAP1 PUSH2 0x1161 JUMP JUMPDEST PUSH2 0x271 JUMP JUMPDEST STOP JUMPDEST PUSH2 0x129 PUSH1 0x4 DUP1 CALLDATASIZE SUB DUP2 ADD SWAP1 PUSH2 0x124 SWAP2 SWAP1 PUSH2 0x128C JUMP JUMPDEST PUSH2 0x54D JUMP JUMPDEST STOP JUMPDEST PUSH2 0x145 PUSH1 0x4 DUP1 CALLDATASIZE SUB DUP2 ADD SWAP1 PUSH2 0x140 SWAP2 SWAP1 PUSH2 0x1161 JUMP JUMPDEST PUSH2 0x782 JUMP JUMPDEST STOP JUMPDEST PUSH2 0x161 PUSH1 0x4 DUP1 CALLDATASIZE SUB DUP2 ADD SWAP1 PUSH2 0x15C SWAP2 SWAP1 PUSH2 0x1161 JUMP JUMPDEST PUSH2 0xA39 JUMP JUMPDEST STOP JUMPDEST PUSH2 0x17D PUSH1 0x4 DUP1 CALLDATASIZE SUB DUP2 ADD SWAP1 PUSH2 0x178 SWAP2 SWAP1 PUSH2 0x12DC JUMP JUMPDEST PUSH2 0xCA6 JUMP JUMPDEST STOP JUMPDEST PUSH2 0x199 PUSH1 0x4 DUP1 CALLDATASIZE SUB DUP2 ADD SWAP1 PUSH2 0x194 SWAP2 SWAP1 PUSH2 0x1344 JUMP JUMPDEST PUSH2 0xE83 JUMP JUMPDEST PUSH1 0x40 MLOAD PUSH2 0x1A6 SWAP2 SWAP1 PUSH2 0x111A JUMP JUMPDEST PUSH1 0x40 MLOAD DUP1 SWAP2 SUB SWAP1 RETURN JUMPDEST PUSH2 0x1B7 PUSH2 0xEA3 JUMP JUMPDEST PUSH1 0x40 MLOAD PUSH2 0x1C4 SWAP2 SWAP1 PUSH2 0x13DD JUMP JUMPDEST PUSH1 0x40 MLOAD DUP1 SWAP2 SUB SWAP1 RETURN JUMPDEST PUSH2 0x1E7 PUSH1 0x4 DUP1 CALLDATASIZE SUB DUP2 ADD SWAP1 PUSH2 0x1E2 SWAP2 SWAP1 PUSH2 0x12DC JUMP JUMPDEST PUSH2 0xEC7 JUMP JUMPDEST STOP JUMPDEST PUSH0 SLOAD DUP2 JUMP JUMPDEST PUSH1 0x1 PUSH1 0x20 MSTORE DUP1 PUSH0 MSTORE PUSH1 0x40 PUSH0 KECCAK256 PUSH0 SWAP2 POP SWAP1 POP DUP1 PUSH0 ADD PUSH0 SWAP1 SLOAD SWAP1 PUSH2 0x100 EXP SWAP1 DIV PUSH20 0xFFFFFFFFFFFFFFFFFFFFFFFFFFFFFFFFFFFFFFFF AND SWAP1 DUP1 PUSH1 0x1 ADD SLOAD SWAP1 DUP1 PUSH1 0x2 ADD SLOAD SWAP1 DUP1 PUSH1 0x3 ADD PUSH0 SWAP1 SLOAD SWAP1 PUSH2 0x100 EXP SWAP1 DIV PUSH4 0xFFFFFFFF AND SWAP1 DUP1 PUSH1 0x3 ADD PUSH1 0x4 SWAP1 SLOAD SWAP1 PUSH2 0x100 EXP SWAP1 DIV PUSH4 0xFFFFFFFF AND SWAP1 DUP1 PUSH1 0x3 ADD PUSH1 0x8 SWAP1 SLOAD SWAP1 PUSH2 0x100 EXP SWAP1 DIV PUSH1 0xFF AND SWAP1 POP DUP7 JUMP JUMPDEST PUSH0 PUSH1 0x1 PUSH0 DUP4 DUP2 MSTORE PUSH1 0x20 ADD SWAP1 DUP2 MSTORE PUSH1 0x20 ADD PUSH0 KECCAK256 SWAP1 POP DUP1 PUSH1 0x3 ADD PUSH1 0x4 SWAP1 SLOAD SWAP1 PUSH2 0x100 EXP SWAP1 DIV PUSH4 0xFFFFFFFF AND PUSH4 0xFFFFFFFF AND TIMESTAMP GT PUSH2 0x2E1 JUMPI PUSH1 0x40 MLOAD PUSH32 0x8C379A000000000000000000000000000000000000000000000000000000000 DUP2 MSTORE PUSH1 0x4 ADD PUSH2 0x2D8 SWAP1 PUSH2 0x1450 JUMP JUMPDEST PUSH1 0x40 MLOAD DUP1 SWAP2 SUB SWAP1 REVERT JUMPDEST CALLER PUSH20 0xFFFFFFFFFFFFFFFFFFFFFFFFFFFFFFFFFFFFFFFF AND DUP2 PUSH0 ADD PUSH0 SWAP1 SLOAD SWAP1 PUSH2 0x100 EXP SWAP1 DIV PUSH20 0xFFFFFFFFFFFFFFFFFFFFFFFFFFFFFFFFFFFFFFFF AND PUSH20 0xFFFFFFFFFFFFFFFFFFFFFFFFFFFFFFFFFFFFFFFF AND EQ PUSH2 0x371 JUMPI PUSH1 0x40 MLOAD PUSH32 0x8C379A000000000000000000000000000000000000000000000000000000000 DUP2 MSTORE PUSH1 0x4 ADD PUSH2 0x368 SWAP1 PUSH2 0x14B8 JUMP JUMPDEST PUSH1 0x40 MLOAD DUP1 SWAP2 SUB SWAP1 REVERT JUMPDEST DUP1 PUSH1 0x1 ADD SLOAD DUP2 PUSH1 0x2 ADD SLOAD LT PUSH2 0x3BB JUMPI PUSH1 0x40 MLOAD PUSH32 0x8C379A000000000000000000000000000000000000000000000000000000000 DUP2 MSTORE PUSH1 0x4 ADD PUSH2 0x3B2 SWAP1 PUSH2 0x1520 JUMP JUMPDEST PUSH1 0x40 MLOAD DUP1 SWAP2 SUB SWAP1 REVERT JUMPDEST PUSH0 PUSH1 0x2 PUSH0 DUP5 DUP2 MSTORE PUSH1 0x20 ADD SWAP1 DUP2 MSTORE PUSH1 0x20 ADD PUSH0 KECCAK256 PUSH0 CALLER PUSH20 0xFFFFFFFFFFFFFFFFFFFFFFFFFFFFFFFFFFFFFFFF AND PUSH20 0xFFFFFFFFFFFFFFFFFFFFFFFFFFFFFFFFFFFFFFFF AND DUP2 MSTORE PUSH1 0x20 ADD SWAP1 DUP2 MSTORE PUSH1 0x20 ADD PUSH0 KECCAK256 SLOAD SWAP1 POP PUSH0 PUSH1 0x2 PUSH0 DUP6 DUP2 MSTORE PUSH1 0x20 ADD SWAP1 DUP2 MSTORE PUSH1 0x20 ADD PUSH0 KECCAK256 PUSH0 CALLER PUSH20 0xFFFFFFFFFFFFFFFFFFFFFFFFFFFFFFFFFFFFFFFF AND PUSH20 0xFFFFFFFFFFFFFFFFFFFFFFFFFFFFFFFFFFFFFFFF AND DUP2 MSTORE PUSH1 0x20 ADD SWAP1 DUP2 MSTORE PUSH1 0x20 ADD PUSH0 KECCAK256 DUP2 SWAP1 SSTORE POP PUSH32 0x0 PUSH20 0xFFFFFFFFFFFFFFFFFFFFFFFFFFFFFFFFFFFFFFFF AND PUSH4 0xA9059CBB CALLER DUP4 PUSH1 0x40 MLOAD DUP4 PUSH4 0xFFFFFFFF AND PUSH1 0xE0 SHL DUP2 MSTORE PUSH1 0x4 ADD PUSH2 0x4B7 SWAP3 SWAP2 SWAP1 PUSH2 0x153E JUMP JUMPDEST PUSH1 0x20 PUSH1 0x40 MLOAD DUP1 DUP4 SUB DUP2 PUSH0 DUP8 GAS CALL ISZERO DUP1 ISZERO PUSH2 0x4D3 JUMPI RETURNDATASIZE PUSH0 DUP1 RETURNDATACOPY RETURNDATASIZE PUSH0 REVERT JUMPDEST POP POP POP POP PUSH1 0x40 MLOAD RETURNDATASIZE PUSH1 0x1F NOT PUSH1 0x1F DUP3 ADD AND DUP3 ADD DUP1 PUSH1 0x40 MSTORE POP DUP2 ADD SWAP1 PUSH2 0x4F7 SWAP2 SWAP1 PUSH2 0x158F JUMP JUMPDEST POP CALLER PUSH20 0xFFFFFFFFFFFFFFFFFFFFFFFFFFFFFFFFFFFFFFFF AND PUSH32 0x21E12A7CAD0DA5928167E1084EA4D5FDF8D9AF66657A2543A9AC76A0CA081477 DUP5 DUP4 PUSH1 0x40 MLOAD PUSH2 0x540 SWAP3 SWAP2 SWAP1 PUSH2 0x15BA JUMP JUMPDEST PUSH1 0x40 MLOAD DUP1 SWAP2 SUB SWAP1 LOG2 POP POP POP JUMP JUMPDEST TIMESTAMP DUP3 PUSH4 0xFFFFFFFF AND LT ISZERO PUSH2 0x596 JUMPI PUSH1 0x40 MLOAD PUSH32 0x8C379A000000000000000000000000000000000000000000000000000000000 DUP2 MSTORE PUSH1 0x4 ADD PUSH2 0x58D SWAP1 PUSH2 0x162B JUMP JUMPDEST PUSH1 0x40 MLOAD DUP1 SWAP2 SUB SWAP1 REVERT JUMPDEST DUP2 PUSH4 0xFFFFFFFF AND DUP2 PUSH4 0xFFFFFFFF AND LT ISZERO PUSH2 0x5E5 JUMPI PUSH1 0x40 MLOAD PUSH32 0x8C379A000000000000000000000000000000000000000000000000000000000 DUP2 MSTORE PUSH1 0x4 ADD PUSH2 0x5DC SWAP1 PUSH2 0x1693 JUMP JUMPDEST PUSH1 0x40 MLOAD DUP1 SWAP2 SUB SWAP1 REVERT JUMPDEST PUSH3 0x76A700 TIMESTAMP PUSH2 0x5F4 SWAP2 SWAP1 PUSH2 0x16DE JUMP JUMPDEST DUP2 PUSH4 0xFFFFFFFF AND GT ISZERO PUSH2 0x63C JUMPI PUSH1 0x40 MLOAD PUSH32 0x8C379A000000000000000000000000000000000000000000000000000000000 DUP2 MSTORE PUSH1 0x4 ADD PUSH2 0x633 SWAP1 PUSH2 0x175B JUMP JUMPDEST PUSH1 0x40 MLOAD DUP1 SWAP2 SUB SWAP1 REVERT JUMPDEST PUSH0 DUP1 DUP2 SLOAD DUP1 SWAP3 SWAP2 SWAP1 PUSH2 0x64D SWAP1 PUSH2 0x1779 JUMP JUMPDEST SWAP2 SWAP1 POP SSTORE POP PUSH1 0x40 MLOAD DUP1 PUSH1 0xC0 ADD PUSH1 0x40 MSTORE DUP1 CALLER PUSH20 0xFFFFFFFFFFFFFFFFFFFFFFFFFFFFFFFFFFFFFFFF AND DUP2 MSTORE PUSH1 0x20 ADD DUP5 DUP2 MSTORE PUSH1 0x20 ADD PUSH0 DUP2 MSTORE PUSH1 0x20 ADD DUP4 PUSH4 0xFFFFFFFF AND DUP2 MSTORE PUSH1 0x20 ADD DUP3 PUSH4 0xFFFFFFFF AND DUP2 MSTORE PUSH1 0x20 ADD PUSH0 ISZERO ISZERO DUP2 MSTORE POP PUSH1 0x1 PUSH0 DUP1 SLOAD DUP2 MSTORE PUSH1 0x20 ADD SWAP1 DUP2 MSTORE PUSH1 0x20 ADD PUSH0 KECCAK256 PUSH0 DUP3 ADD MLOAD DUP2 PUSH0 ADD PUSH0 PUSH2 0x100 EXP DUP2 SLOAD DUP2 PUSH20 0xFFFFFFFFFFFFFFFFFFFFFFFFFFFFFFFFFFFFFFFF MUL NOT AND SWAP1 DUP4 PUSH20 0xFFFFFFFFFFFFFFFFFFFFFFFFFFFFFFFFFFFFFFFF AND MUL OR SWAP1 SSTORE POP PUSH1 0x20 DUP3 ADD MLOAD DUP2 PUSH1 0x1 ADD SSTORE PUSH1 0x40 DUP3 ADD MLOAD DUP2 PUSH1 0x2 ADD SSTORE PUSH1 0x60 DUP3 ADD MLOAD DUP2 PUSH1 0x3 ADD PUSH0 PUSH2 0x100 EXP DUP2 SLOAD DUP2 PUSH4 0xFFFFFFFF MUL NOT AND SWAP1 DUP4 PUSH4 0xFFFFFFFF AND MUL OR SWAP1 SSTORE POP PUSH1 0x80 DUP3 ADD MLOAD DUP2 PUSH1 0x3 ADD PUSH1 0x4 PUSH2 0x100 EXP DUP2 SLOAD DUP2 PUSH4 0xFFFFFFFF MUL NOT AND SWAP1 DUP4 PUSH4 0xFFFFFFFF AND MUL OR SWAP1 SSTORE POP PUSH1 0xA0 DUP3 ADD MLOAD DUP2 PUSH1 0x3 ADD PUSH1 0x8 PUSH2 0x100 EXP DUP2 SLOAD DUP2 PUSH1 0xFF MUL NOT AND SWAP1 DUP4 ISZERO ISZERO MUL OR SWAP1 SSTORE POP SWAP1 POP POP POP POP POP JUMP JUMPDEST PUSH0 PUSH1 0x1 PUSH0 DUP4 DUP2 MSTORE PUSH1 0x20 ADD SWAP1 DUP2 MSTORE PUSH1 0x20 ADD PUSH0 KECCAK256 SWAP1 POP DUP1 PUSH1 0x3 ADD PUSH1 0x4 SWAP1 SLOAD SWAP1 PUSH2 0x100 EXP SWAP1 DIV PUSH4 0xFFFFFFFF AND PUSH4 0xFFFFFFFF AND TIMESTAMP GT PUSH2 0x7F2 JUMPI PUSH1 0x40 MLOAD PUSH32 0x8C379A000000000000000000000000000000000000000000000000000000000 DUP2 MSTORE PUSH1 0x4 ADD PUSH2 0x7E9 SWAP1 PUSH2 0x1450 JUMP JUMPDEST PUSH1 0x40 MLOAD DUP1 SWAP2 SUB SWAP1 REVERT JUMPDEST CALLER PUSH20 0xFFFFFFFFFFFFFFFFFFFFFFFFFFFFFFFFFFFFFFFF AND DUP2 PUSH0 ADD PUSH0 SWAP1 SLOAD SWAP1 PUSH2 0x100 EXP SWAP1 DIV PUSH20 0xFFFFFFFFFFFFFFFFFFFFFFFFFFFFFFFFFFFFFFFF AND PUSH20 0xFFFFFFFFFFFFFFFFFFFFFFFFFFFFFFFFFFFFFFFF AND EQ PUSH2 0x882 JUMPI PUSH1 0x40 MLOAD PUSH32 0x8C379A000000000000000000000000000000000000000000000000000000000 DUP2 MSTORE PUSH1 0x4 ADD PUSH2 0x879 SWAP1 PUSH2 0x14B8 JUMP JUMPDEST PUSH1 0x40 MLOAD DUP1 SWAP2 SUB SWAP1 REVERT JUMPDEST DUP1 PUSH1 0x1 ADD SLOAD DUP2 PUSH1 0x2 ADD SLOAD LT ISZERO PUSH2 0x8CD JUMPI PUSH1 0x40 MLOAD PUSH32 0x8C379A000000000000000000000000000000000000000000000000000000000 DUP2 MSTORE PUSH1 0x4 ADD PUSH2 0x8C4 SWAP1 PUSH2 0x1520 JUMP JUMPDEST PUSH1 0x40 MLOAD DUP1 SWAP2 SUB SWAP1 REVERT JUMPDEST DUP1 PUSH1 0x3 ADD PUSH1 0x8 SWAP1 SLOAD SWAP1 PUSH2 0x100 EXP SWAP1 DIV PUSH1 0xFF AND ISZERO PUSH2 0x91F JUMPI PUSH1 0x40 MLOAD PUSH32 0x8C379A000000000000000000000000000000000000000000000000000000000 DUP2 MSTORE PUSH1 0x4 ADD PUSH2 0x916 SWAP1 PUSH2 0x180A JUMP JUMPDEST PUSH1 0x40 MLOAD DUP1 SWAP2 SUB SWAP1 REVERT JUMPDEST PUSH1 0x1 DUP2 PUSH1 0x3 ADD PUSH1 0x8 PUSH2 0x100 EXP DUP2 SLOAD DUP2 PUSH1 0xFF MUL NOT AND SWAP1 DUP4 ISZERO ISZERO MUL OR SWAP1 SSTORE POP PUSH32 0x0 PUSH20 0xFFFFFFFFFFFFFFFFFFFFFFFFFFFFFFFFFFFFFFFF AND PUSH4 0xA9059CBB DUP3 PUSH0 ADD PUSH0 SWAP1 SLOAD SWAP1 PUSH2 0x100 EXP SWAP1 DIV PUSH20 0xFFFFFFFFFFFFFFFFFFFFFFFFFFFFFFFFFFFFFFFF AND DUP4 PUSH1 0x2 ADD SLOAD PUSH1 0x40 MLOAD DUP4 PUSH4 0xFFFFFFFF AND PUSH1 0xE0 SHL DUP2 MSTORE PUSH1 0x4 ADD PUSH2 0x9BD SWAP3 SWAP2 SWAP1 PUSH2 0x153E JUMP JUMPDEST PUSH1 0x20 PUSH1 0x40 MLOAD DUP1 DUP4 SUB DUP2 PUSH0 DUP8 GAS CALL ISZERO DUP1 ISZERO PUSH2 0x9D9 JUMPI RETURNDATASIZE PUSH0 DUP1 RETURNDATACOPY RETURNDATASIZE PUSH0 REVERT JUMPDEST POP POP POP POP PUSH1 0x40 MLOAD RETURNDATASIZE PUSH1 0x1F NOT PUSH1 0x1F DUP3 ADD AND DUP3 ADD DUP1 PUSH1 0x40 MSTORE POP DUP2 ADD SWAP1 PUSH2 0x9FD SWAP2 SWAP1 PUSH2 0x158F JUMP JUMPDEST POP PUSH32 0x7BB2B3C10797BACCB6F8C4791F1EDD6CA2F0D028EE0EDA64B01A9A57E3A653F7 DUP3 PUSH1 0x40 MLOAD PUSH2 0xA2D SWAP2 SWAP1 PUSH2 0x111A JUMP JUMPDEST PUSH1 0x40 MLOAD DUP1 SWAP2 SUB SWAP1 LOG1 POP POP JUMP JUMPDEST PUSH0 PUSH1 0x1 PUSH0 DUP4 DUP2 MSTORE PUSH1 0x20 ADD SWAP1 DUP2 MSTORE PUSH1 0x20 ADD PUSH0 KECCAK256 PUSH1 0x40 MLOAD DUP1 PUSH1 0xC0 ADD PUSH1 0x40 MSTORE SWAP1 DUP2 PUSH0 DUP3 ADD PUSH0 SWAP1 SLOAD SWAP1 PUSH2 0x100 EXP SWAP1 DIV PUSH20 0xFFFFFFFFFFFFFFFFFFFFFFFFFFFFFFFFFFFFFFFF AND PUSH20 0xFFFFFFFFFFFFFFFFFFFFFFFFFFFFFFFFFFFFFFFF AND PUSH20 0xFFFFFFFFFFFFFFFFFFFFFFFFFFFFFFFFFFFFFFFF AND DUP2 MSTORE PUSH1 0x20 ADD PUSH1 0x1 DUP3 ADD SLOAD DUP2 MSTORE PUSH1 0x20 ADD PUSH1 0x2 DUP3 ADD SLOAD DUP2 MSTORE PUSH1 0x20 ADD PUSH1 0x3 DUP3 ADD PUSH0 SWAP1 SLOAD SWAP1 PUSH2 0x100 EXP SWAP1 DIV PUSH4 0xFFFFFFFF AND PUSH4 0xFFFFFFFF AND PUSH4 0xFFFFFFFF AND DUP2 MSTORE PUSH1 0x20 ADD PUSH1 0x3 DUP3 ADD PUSH1 0x4 SWAP1 SLOAD SWAP1 PUSH2 0x100 EXP SWAP1 DIV PUSH4 0xFFFFFFFF AND PUSH4 0xFFFFFFFF AND PUSH4 0xFFFFFFFF AND DUP2 MSTORE PUSH1 0x20 ADD PUSH1 0x3 DUP3 ADD PUSH1 0x8 SWAP1 SLOAD SWAP1 PUSH2 0x100 EXP SWAP1 DIV PUSH1 0xFF AND ISZERO ISZERO ISZERO ISZERO DUP2 MSTORE POP POP SWAP1 POP CALLER PUSH20 0xFFFFFFFFFFFFFFFFFFFFFFFFFFFFFFFFFFFFFFFF AND DUP2 PUSH0 ADD MLOAD PUSH20 0xFFFFFFFFFFFFFFFFFFFFFFFFFFFFFFFFFFFFFFFF AND EQ PUSH2 0xB97 JUMPI PUSH1 0x40 MLOAD PUSH32 0x8C379A000000000000000000000000000000000000000000000000000000000 DUP2 MSTORE PUSH1 0x4 ADD PUSH2 0xB8E SWAP1 PUSH2 0x1872 JUMP JUMPDEST PUSH1 0x40 MLOAD DUP1 SWAP2 SUB SWAP1 REVERT JUMPDEST DUP1 PUSH1 0x60 ADD MLOAD PUSH4 0xFFFFFFFF AND TIMESTAMP LT PUSH2 0xBE3 JUMPI PUSH1 0x40 MLOAD PUSH32 0x8C379A000000000000000000000000000000000000000000000000000000000 DUP2 MSTORE PUSH1 0x4 ADD PUSH2 0xBDA SWAP1 PUSH2 0x18DA JUMP JUMPDEST PUSH1 0x40 MLOAD DUP1 SWAP2 SUB SWAP1 REVERT JUMPDEST PUSH1 0x1 PUSH0 DUP4 DUP2 MSTORE PUSH1 0x20 ADD SWAP1 DUP2 MSTORE PUSH1 0x20 ADD PUSH0 KECCAK256 PUSH0 DUP1 DUP3 ADD PUSH0 PUSH2 0x100 EXP DUP2 SLOAD SWAP1 PUSH20 0xFFFFFFFFFFFFFFFFFFFFFFFFFFFFFFFFFFFFFFFF MUL NOT AND SWAP1 SSTORE PUSH1 0x1 DUP3 ADD PUSH0 SWAP1 SSTORE PUSH1 0x2 DUP3 ADD PUSH0 SWAP1 SSTORE PUSH1 0x3 DUP3 ADD PUSH0 PUSH2 0x100 EXP DUP2 SLOAD SWAP1 PUSH4 0xFFFFFFFF MUL NOT AND SWAP1 SSTORE PUSH1 0x3 DUP3 ADD PUSH1 0x4 PUSH2 0x100 EXP DUP2 SLOAD SWAP1 PUSH4 0xFFFFFFFF MUL NOT AND SWAP1 SSTORE PUSH1 0x3 DUP3 ADD PUSH1 0x8 PUSH2 0x100 EXP DUP2 SLOAD SWAP1 PUSH1 0xFF MUL NOT AND SWAP1 SSTORE POP POP PUSH32 0x8BF30E7FF26833413BE5F69E1D373744864D600B664204B4A2F9844A8EEDB9ED DUP3 PUSH1 0x40 MLOAD PUSH2 0xC9A SWAP2 SWAP1 PUSH2 0x111A JUMP JUMPDEST PUSH1 0x40 MLOAD DUP1 SWAP2 SUB SWAP1 LOG1 POP POP JUMP JUMPDEST PUSH0 PUSH1 0x1 PUSH0 DUP5 DUP2 MSTORE PUSH1 0x20 ADD SWAP1 DUP2 MSTORE PUSH1 0x20 ADD PUSH0 KECCAK256 SWAP1 POP DUP1 PUSH1 0x3 ADD PUSH1 0x4 SWAP1 SLOAD SWAP1 PUSH2 0x100 EXP SWAP1 DIV PUSH4 0xFFFFFFFF AND PUSH4 0xFFFFFFFF AND TIMESTAMP GT ISZERO PUSH2 0xD17 JUMPI PUSH1 0x40 MLOAD PUSH32 0x8C379A000000000000000000000000000000000000000000000000000000000 DUP2 MSTORE PUSH1 0x4 ADD PUSH2 0xD0E SWAP1 PUSH2 0x1942 JUMP JUMPDEST PUSH1 0x40 MLOAD DUP1 SWAP2 SUB SWAP1 REVERT JUMPDEST DUP2 DUP2 PUSH1 0x2 ADD PUSH0 DUP3 DUP3 SLOAD PUSH2 0xD2A SWAP2 SWAP1 PUSH2 0x1960 JUMP JUMPDEST SWAP3 POP POP DUP2 SWAP1 SSTORE POP DUP2 PUSH1 0x2 PUSH0 DUP6 DUP2 MSTORE PUSH1 0x20 ADD SWAP1 DUP2 MSTORE PUSH1 0x20 ADD PUSH0 KECCAK256 PUSH0 CALLER PUSH20 0xFFFFFFFFFFFFFFFFFFFFFFFFFFFFFFFFFFFFFFFF AND PUSH20 0xFFFFFFFFFFFFFFFFFFFFFFFFFFFFFFFFFFFFFFFF AND DUP2 MSTORE PUSH1 0x20 ADD SWAP1 DUP2 MSTORE PUSH1 0x20 ADD PUSH0 KECCAK256 PUSH0 DUP3 DUP3 SLOAD PUSH2 0xD8C SWAP2 SWAP1 PUSH2 0x1960 JUMP JUMPDEST SWAP3 POP POP DUP2 SWAP1 SSTORE POP PUSH32 0x0 PUSH20 0xFFFFFFFFFFFFFFFFFFFFFFFFFFFFFFFFFFFFFFFF AND PUSH4 0xA9059CBB CALLER DUP5 PUSH1 0x40 MLOAD DUP4 PUSH4 0xFFFFFFFF AND PUSH1 0xE0 SHL DUP2 MSTORE PUSH1 0x4 ADD PUSH2 0xDEE SWAP3 SWAP2 SWAP1 PUSH2 0x153E JUMP JUMPDEST PUSH1 0x20 PUSH1 0x40 MLOAD DUP1 DUP4 SUB DUP2 PUSH0 DUP8 GAS CALL ISZERO DUP1 ISZERO PUSH2 0xE0A JUMPI RETURNDATASIZE PUSH0 DUP1 RETURNDATACOPY RETURNDATASIZE PUSH0 REVERT JUMPDEST POP POP POP POP PUSH1 0x40 MLOAD RETURNDATASIZE PUSH1 0x1F NOT PUSH1 0x1F DUP3 ADD AND DUP3 ADD DUP1 PUSH1 0x40 MSTORE POP DUP2 ADD SWAP1 PUSH2 0xE2E SWAP2 SWAP1 PUSH2 0x158F JUMP JUMPDEST POP CALLER PUSH20 0xFFFFFFFFFFFFFFFFFFFFFFFFFFFFFFFFFFFFFFFF AND DUP4 PUSH32 0x2EEEAB891B26A214D1B25749F88A406BDEA852BD8C9BFDA977E0EF8114C180BA DUP5 PUSH1 0x40 MLOAD PUSH2 0xE76 SWAP2 SWAP1 PUSH2 0x111A JUMP JUMPDEST PUSH1 0x40 MLOAD DUP1 SWAP2 SUB SWAP1 LOG3 POP POP POP JUMP JUMPDEST PUSH1 0x2 PUSH1 0x20 MSTORE DUP2 PUSH0 MSTORE PUSH1 0x40 PUSH0 KECCAK256 PUSH1 0x20 MSTORE DUP1 PUSH0 MSTORE PUSH1 0x40 PUSH0 KECCAK256 PUSH0 SWAP2 POP SWAP2 POP POP SLOAD DUP2 JUMP JUMPDEST PUSH32 0x0 DUP2 JUMP JUMPDEST PUSH0 PUSH1 0x1 PUSH0 DUP5 DUP2 MSTORE PUSH1 0x20 ADD SWAP1 DUP2 MSTORE PUSH1 0x20 ADD PUSH0 KECCAK256 SWAP1 POP DUP1 PUSH1 0x3 ADD PUSH0 SWAP1 SLOAD SWAP1 PUSH2 0x100 EXP SWAP1 DIV PUSH4 0xFFFFFFFF AND PUSH4 0xFFFFFFFF AND TIMESTAMP LT ISZERO PUSH2 0xF37 JUMPI PUSH1 0x40 MLOAD PUSH32 0x8C379A000000000000000000000000000000000000000000000000000000000 DUP2 MSTORE PUSH1 0x4 ADD PUSH2 0xF2E SWAP1 PUSH2 0x19DD JUMP JUMPDEST PUSH1 0x40 MLOAD DUP1 SWAP2 SUB SWAP1 REVERT JUMPDEST DUP1 PUSH1 0x3 ADD PUSH1 0x4 SWAP1 SLOAD SWAP1 PUSH2 0x100 EXP SWAP1 DIV PUSH4 0xFFFFFFFF AND PUSH4 0xFFFFFFFF AND TIMESTAMP GT ISZERO PUSH2 0xF94 JUMPI PUSH1 0x40 MLOAD PUSH32 0x8C379A000000000000000000000000000000000000000000000000000000000 DUP2 MSTORE PUSH1 0x4 ADD PUSH2 0xF8B SWAP1 PUSH2 0x1942 JUMP JUMPDEST PUSH1 0x40 MLOAD DUP1 SWAP2 SUB SWAP1 REVERT JUMPDEST DUP2 DUP2 PUSH1 0x2 ADD PUSH0 DUP3 DUP3 SLOAD PUSH2 0xFA7 SWAP2 SWAP1 PUSH2 0x16DE JUMP JUMPDEST SWAP3 POP POP DUP2 SWAP1 SSTORE POP DUP2 PUSH1 0x2 PUSH0 DUP6 DUP2 MSTORE PUSH1 0x20 ADD SWAP1 DUP2 MSTORE PUSH1 0x20 ADD PUSH0 KECCAK256 PUSH0 CALLER PUSH20 0xFFFFFFFFFFFFFFFFFFFFFFFFFFFFFFFFFFFFFFFF AND PUSH20 0xFFFFFFFFFFFFFFFFFFFFFFFFFFFFFFFFFFFFFFFF AND DUP2 MSTORE PUSH1 0x20 ADD SWAP1 DUP2 MSTORE PUSH1 0x20 ADD PUSH0 KECCAK256 PUSH0 DUP3 DUP3 SLOAD PUSH2 0x1009 SWAP2 SWAP1 PUSH2 0x16DE JUMP JUMPDEST SWAP3 POP POP DUP2 SWAP1 SSTORE POP PUSH32 0x0 PUSH20 0xFFFFFFFFFFFFFFFFFFFFFFFFFFFFFFFFFFFFFFFF AND PUSH4 0x23B872DD CALLER ADDRESS DUP6 PUSH1 0x40 MLOAD DUP5 PUSH4 0xFFFFFFFF AND PUSH1 0xE0 SHL DUP2 MSTORE PUSH1 0x4 ADD PUSH2 0x106D SWAP4 SWAP3 SWAP2 SWAP1 PUSH2 0x19FB JUMP JUMPDEST PUSH1 0x20 PUSH1 0x40 MLOAD DUP1 DUP4 SUB DUP2 PUSH0 DUP8 GAS CALL ISZERO DUP1 ISZERO PUSH2 0x1089 JUMPI RETURNDATASIZE PUSH0 DUP1 RETURNDATACOPY RETURNDATASIZE PUSH0 REVERT JUMPDEST POP POP POP POP PUSH1 0x40 MLOAD RETURNDATASIZE PUSH1 0x1F NOT PUSH1 0x1F DUP3 ADD AND DUP3 ADD DUP1 PUSH1 0x40 MSTORE POP DUP2 ADD SWAP1 PUSH2 0x10AD SWAP2 SWAP1 PUSH2 0x158F JUMP JUMPDEST POP CALLER PUSH20 0xFFFFFFFFFFFFFFFFFFFFFFFFFFFFFFFFFFFFFFFF AND DUP4 PUSH32 0x6BDB975DF800A73232998E71ED585D536222F1DFEAA622D7F62A23ADA686C82 DUP5 PUSH1 0x40 MLOAD PUSH2 0x10F5 SWAP2 SWAP1 PUSH2 0x111A JUMP JUMPDEST PUSH1 0x40 MLOAD DUP1 SWAP2 SUB SWAP1 LOG3 POP POP POP JUMP JUMPDEST PUSH0 DUP2 SWAP1 POP SWAP2 SWAP1 POP JUMP JUMPDEST PUSH2 0x1114 DUP2 PUSH2 0x1102 JUMP JUMPDEST DUP3 MSTORE POP POP JUMP JUMPDEST PUSH0 PUSH1 0x20 DUP3 ADD SWAP1 POP PUSH2 0x112D PUSH0 DUP4 ADD DUP5 PUSH2 0x110B JUMP JUMPDEST SWAP3 SWAP2 POP POP JUMP JUMPDEST PUSH0 DUP1 REVERT JUMPDEST PUSH2 0x1140 DUP2 PUSH2 0x1102 JUMP JUMPDEST DUP2 EQ PUSH2 0x114A JUMPI PUSH0 DUP1 REVERT JUMPDEST POP JUMP JUMPDEST PUSH0 DUP2 CALLDATALOAD SWAP1 POP PUSH2 0x115B DUP2 PUSH2 0x1137 JUMP JUMPDEST SWAP3 SWAP2 POP POP JUMP JUMPDEST PUSH0 PUSH1 0x20 DUP3 DUP5 SUB SLT ISZERO PUSH2 0x1176 JUMPI PUSH2 0x1175 PUSH2 0x1133 JUMP JUMPDEST JUMPDEST PUSH0 PUSH2 0x1183 DUP5 DUP3 DUP6 ADD PUSH2 0x114D JUMP JUMPDEST SWAP2 POP POP SWAP3 SWAP2 POP POP JUMP JUMPDEST PUSH0 PUSH20 0xFFFFFFFFFFFFFFFFFFFFFFFFFFFFFFFFFFFFFFFF DUP3 AND SWAP1 POP SWAP2 SWAP1 POP JUMP JUMPDEST PUSH0 PUSH2 0x11B5 DUP3 PUSH2 0x118C JUMP JUMPDEST SWAP1 POP SWAP2 SWAP1 POP JUMP JUMPDEST PUSH2 0x11C5 DUP2 PUSH2 0x11AB JUMP JUMPDEST DUP3 MSTORE POP POP JUMP JUMPDEST PUSH0 PUSH4 0xFFFFFFFF DUP3 AND SWAP1 POP SWAP2 SWAP1 POP JUMP JUMPDEST PUSH2 0x11E3 DUP2 PUSH2 0x11CB JUMP JUMPDEST DUP3 MSTORE POP POP JUMP JUMPDEST PUSH0 DUP2 ISZERO ISZERO SWAP1 POP SWAP2 SWAP1 POP JUMP JUMPDEST PUSH2 0x11FD DUP2 PUSH2 0x11E9 JUMP JUMPDEST DUP3 MSTORE POP POP JUMP JUMPDEST PUSH0 PUSH1 0xC0 DUP3 ADD SWAP1 POP PUSH2 0x1216 PUSH0 DUP4 ADD DUP10 PUSH2 0x11BC JUMP JUMPDEST PUSH2 0x1223 PUSH1 0x20 DUP4 ADD DUP9 PUSH2 0x110B JUMP JUMPDEST PUSH2 0x1230 PUSH1 0x40 DUP4 ADD DUP8 PUSH2 0x110B JUMP JUMPDEST PUSH2 0x123D PUSH1 0x60 DUP4 ADD DUP7 PUSH2 0x11DA JUMP JUMPDEST PUSH2 0x124A PUSH1 0x80 DUP4 ADD DUP6 PUSH2 0x11DA JUMP JUMPDEST PUSH2 0x1257 PUSH1 0xA0 DUP4 ADD DUP5 PUSH2 0x11F4 JUMP JUMPDEST SWAP8 SWAP7 POP POP POP POP POP POP POP JUMP JUMPDEST PUSH2 0x126B DUP2 PUSH2 0x11CB JUMP JUMPDEST DUP2 EQ PUSH2 0x1275 JUMPI PUSH0 DUP1 REVERT JUMPDEST POP JUMP JUMPDEST PUSH0 DUP2 CALLDATALOAD SWAP1 POP PUSH2 0x1286 DUP2 PUSH2 0x1262 JUMP JUMPDEST SWAP3 SWAP2 POP POP JUMP JUMPDEST PUSH0 DUP1 PUSH0 PUSH1 0x60 DUP5 DUP7 SUB SLT ISZERO PUSH2 0x12A3 JUMPI PUSH2 0x12A2 PUSH2 0x1133 JUMP JUMPDEST JUMPDEST PUSH0 PUSH2 0x12B0 DUP7 DUP3 DUP8 ADD PUSH2 0x114D JUMP JUMPDEST SWAP4 POP POP PUSH1 0x20 PUSH2 0x12C1 DUP7 DUP3 DUP8 ADD PUSH2 0x1278 JUMP JUMPDEST SWAP3 POP POP PUSH1 0x40 PUSH2 0x12D2 DUP7 DUP3 DUP8 ADD PUSH2 0x1278 JUMP JUMPDEST SWAP2 POP POP SWAP3 POP SWAP3 POP SWAP3 JUMP JUMPDEST PUSH0 DUP1 PUSH1 0x40 DUP4 DUP6 SUB SLT ISZERO PUSH2 0x12F2 JUMPI PUSH2 0x12F1 PUSH2 0x1133 JUMP JUMPDEST JUMPDEST PUSH0 PUSH2 0x12FF DUP6 DUP3 DUP7 ADD PUSH2 0x114D JUMP JUMPDEST SWAP3 POP POP PUSH1 0x20 PUSH2 0x1310 DUP6 DUP3 DUP7 ADD PUSH2 0x114D JUMP JUMPDEST SWAP2 POP POP SWAP3 POP SWAP3 SWAP1 POP JUMP JUMPDEST PUSH2 0x1323 DUP2 PUSH2 0x11AB JUMP JUMPDEST DUP2 EQ PUSH2 0x132D JUMPI PUSH0 DUP1 REVERT JUMPDEST POP JUMP JUMPDEST PUSH0 DUP2 CALLDATALOAD SWAP1 POP PUSH2 0x133E DUP2 PUSH2 0x131A JUMP JUMPDEST SWAP3 SWAP2 POP POP JUMP JUMPDEST PUSH0 DUP1 PUSH1 0x40 DUP4 DUP6 SUB SLT ISZERO PUSH2 0x135A JUMPI PUSH2 0x1359 PUSH2 0x1133 JUMP JUMPDEST JUMPDEST PUSH0 PUSH2 0x1367 DUP6 DUP3 DUP7 ADD PUSH2 0x114D JUMP JUMPDEST SWAP3 POP POP PUSH1 0x20 PUSH2 0x1378 DUP6 DUP3 DUP7 ADD PUSH2 0x1330 JUMP JUMPDEST SWAP2 POP POP SWAP3 POP SWAP3 SWAP1 POP JUMP JUMPDEST PUSH0 DUP2 SWAP1 POP SWAP2 SWAP1 POP JUMP JUMPDEST PUSH0 PUSH2 0x13A5 PUSH2 0x13A0 PUSH2 0x139B DUP5 PUSH2 0x118C JUMP JUMPDEST PUSH2 0x1382 JUMP JUMPDEST PUSH2 0x118C JUMP JUMPDEST SWAP1 POP SWAP2 SWAP1 POP JUMP JUMPDEST PUSH0 PUSH2 0x13B6 DUP3 PUSH2 0x138B JUMP JUMPDEST SWAP1 POP SWAP2 SWAP1 POP JUMP JUMPDEST PUSH0 PUSH2 0x13C7 DUP3 PUSH2 0x13AC JUMP JUMPDEST SWAP1 POP SWAP2 SWAP1 POP JUMP JUMPDEST PUSH2 0x13D7 DUP2 PUSH2 0x13BD JUMP JUMPDEST DUP3 MSTORE POP POP JUMP JUMPDEST PUSH0 PUSH1 0x20 DUP3 ADD SWAP1 POP PUSH2 0x13F0 PUSH0 DUP4 ADD DUP5 PUSH2 0x13CE JUMP JUMPDEST SWAP3 SWAP2 POP POP JUMP JUMPDEST PUSH0 DUP3 DUP3 MSTORE PUSH1 0x20 DUP3 ADD SWAP1 POP SWAP3 SWAP2 POP POP JUMP JUMPDEST PUSH32 0x6E6F7420656E6465640000000000000000000000000000000000000000000000 PUSH0 DUP3 ADD MSTORE POP JUMP JUMPDEST PUSH0 PUSH2 0x143A PUSH1 0x9 DUP4 PUSH2 0x13F6 JUMP JUMPDEST SWAP2 POP PUSH2 0x1445 DUP3 PUSH2 0x1406 JUMP JUMPDEST PUSH1 0x20 DUP3 ADD SWAP1 POP SWAP2 SWAP1 POP JUMP JUMPDEST PUSH0 PUSH1 0x20 DUP3 ADD SWAP1 POP DUP2 DUP2 SUB PUSH0 DUP4 ADD MSTORE PUSH2 0x1467 DUP2 PUSH2 0x142E JUMP JUMPDEST SWAP1 POP SWAP2 SWAP1 POP JUMP JUMPDEST PUSH32 0x6E6F74206F776E65720000000000000000000000000000000000000000000000 PUSH0 DUP3 ADD MSTORE POP JUMP JUMPDEST PUSH0 PUSH2 0x14A2 PUSH1 0x9 DUP4 PUSH2 0x13F6 JUMP JUMPDEST SWAP2 POP PUSH2 0x14AD DUP3 PUSH2 0x146E JUMP JUMPDEST PUSH1 0x20 DUP3 ADD SWAP1 POP SWAP2 SWAP1 POP JUMP JUMPDEST PUSH0 PUSH1 0x20 DUP3 ADD SWAP1 POP DUP2 DUP2 SUB PUSH0 DUP4 ADD MSTORE PUSH2 0x14CF DUP2 PUSH2 0x1496 JUMP JUMPDEST SWAP1 POP SWAP2 SWAP1 POP JUMP JUMPDEST PUSH32 0x6E6F7420656E6F75676820616D6F756E74000000000000000000000000000000 PUSH0 DUP3 ADD MSTORE POP JUMP JUMPDEST PUSH0 PUSH2 0x150A PUSH1 0x11 DUP4 PUSH2 0x13F6 JUMP JUMPDEST SWAP2 POP PUSH2 0x1515 DUP3 PUSH2 0x14D6 JUMP JUMPDEST PUSH1 0x20 DUP3 ADD SWAP1 POP SWAP2 SWAP1 POP JUMP JUMPDEST PUSH0 PUSH1 0x20 DUP3 ADD SWAP1 POP DUP2 DUP2 SUB PUSH0 DUP4 ADD MSTORE PUSH2 0x1537 DUP2 PUSH2 0x14FE JUMP JUMPDEST SWAP1 POP SWAP2 SWAP1 POP JUMP JUMPDEST PUSH0 PUSH1 0x40 DUP3 ADD SWAP1 POP PUSH2 0x1551 PUSH0 DUP4 ADD DUP6 PUSH2 0x11BC JUMP JUMPDEST PUSH2 0x155E PUSH1 0x20 DUP4 ADD DUP5 PUSH2 0x110B JUMP JUMPDEST SWAP4 SWAP3 POP POP POP JUMP JUMPDEST PUSH2 0x156E DUP2 PUSH2 0x11E9 JUMP JUMPDEST DUP2 EQ PUSH2 0x1578 JUMPI PUSH0 DUP1 REVERT JUMPDEST POP JUMP JUMPDEST PUSH0 DUP2 MLOAD SWAP1 POP PUSH2 0x1589 DUP2 PUSH2 0x1565 JUMP JUMPDEST SWAP3 SWAP2 POP POP JUMP JUMPDEST PUSH0 PUSH1 0x20 DUP3 DUP5 SUB SLT ISZERO PUSH2 0x15A4 JUMPI PUSH2 0x15A3 PUSH2 0x1133 JUMP JUMPDEST JUMPDEST PUSH0 PUSH2 0x15B1 DUP5 DUP3 DUP6 ADD PUSH2 0x157B JUMP JUMPDEST SWAP2 POP POP SWAP3 SWAP2 POP POP JUMP JUMPDEST PUSH0 PUSH1 0x40 DUP3 ADD SWAP1 POP PUSH2 0x15CD PUSH0 DUP4 ADD DUP6 PUSH2 0x110B JUMP JUMPDEST PUSH2 0x15DA PUSH1 0x20 DUP4 ADD DUP5 PUSH2 0x110B JUMP JUMPDEST SWAP4 SWAP3 POP POP POP JUMP JUMPDEST PUSH32 0x7374617274206174203C206E6F77000000000000000000000000000000000000 PUSH0 DUP3 ADD MSTORE POP JUMP JUMPDEST PUSH0 PUSH2 0x1615 PUSH1 0xE DUP4 PUSH2 0x13F6 JUMP JUMPDEST SWAP2 POP PUSH2 0x1620 DUP3 PUSH2 0x15E1 JUMP JUMPDEST PUSH1 0x20 DUP3 ADD SWAP1 POP SWAP2 SWAP1 POP JUMP JUMPDEST PUSH0 PUSH1 0x20 DUP3 ADD SWAP1 POP DUP2 DUP2 SUB PUSH0 DUP4 ADD MSTORE PUSH2 0x1642 DUP2 PUSH2 0x1609 JUMP JUMPDEST SWAP1 POP SWAP2 SWAP1 POP JUMP JUMPDEST PUSH32 0x656E64206174203C207374617274696E672074696D6500000000000000000000 PUSH0 DUP3 ADD MSTORE POP JUMP JUMPDEST PUSH0 PUSH2 0x167D PUSH1 0x16 DUP4 PUSH2 0x13F6 JUMP JUMPDEST SWAP2 POP PUSH2 0x1688 DUP3 PUSH2 0x1649 JUMP JUMPDEST PUSH1 0x20 DUP3 ADD SWAP1 POP SWAP2 SWAP1 POP JUMP JUMPDEST PUSH0 PUSH1 0x20 DUP3 ADD SWAP1 POP DUP2 DUP2 SUB PUSH0 DUP4 ADD MSTORE PUSH2 0x16AA DUP2 PUSH2 0x1671 JUMP JUMPDEST SWAP1 POP SWAP2 SWAP1 POP JUMP JUMPDEST PUSH32 0x4E487B7100000000000000000000000000000000000000000000000000000000 PUSH0 MSTORE PUSH1 0x11 PUSH1 0x4 MSTORE PUSH1 0x24 PUSH0 REVERT JUMPDEST PUSH0 PUSH2 0x16E8 DUP3 PUSH2 0x1102 JUMP JUMPDEST SWAP2 POP PUSH2 0x16F3 DUP4 PUSH2 0x1102 JUMP JUMPDEST SWAP3 POP DUP3 DUP3 ADD SWAP1 POP DUP1 DUP3 GT ISZERO PUSH2 0x170B JUMPI PUSH2 0x170A PUSH2 0x16B1 JUMP JUMPDEST JUMPDEST SWAP3 SWAP2 POP POP JUMP JUMPDEST PUSH32 0x656E64206174203E206D6178206475726174696F6E2000000000000000000000 PUSH0 DUP3 ADD MSTORE POP JUMP JUMPDEST PUSH0 PUSH2 0x1745 PUSH1 0x16 DUP4 PUSH2 0x13F6 JUMP JUMPDEST SWAP2 POP PUSH2 0x1750 DUP3 PUSH2 0x1711 JUMP JUMPDEST PUSH1 0x20 DUP3 ADD SWAP1 POP SWAP2 SWAP1 POP JUMP JUMPDEST PUSH0 PUSH1 0x20 DUP3 ADD SWAP1 POP DUP2 DUP2 SUB PUSH0 DUP4 ADD MSTORE PUSH2 0x1772 DUP2 PUSH2 0x1739 JUMP JUMPDEST SWAP1 POP SWAP2 SWAP1 POP JUMP JUMPDEST PUSH0 PUSH2 0x1783 DUP3 PUSH2 0x1102 JUMP JUMPDEST SWAP2 POP PUSH32 0xFFFFFFFFFFFFFFFFFFFFFFFFFFFFFFFFFFFFFFFFFFFFFFFFFFFFFFFFFFFFFFFF DUP3 SUB PUSH2 0x17B5 JUMPI PUSH2 0x17B4 PUSH2 0x16B1 JUMP JUMPDEST JUMPDEST PUSH1 0x1 DUP3 ADD SWAP1 POP SWAP2 SWAP1 POP JUMP JUMPDEST PUSH32 0x616C726561647920636C61696D65640000000000000000000000000000000000 PUSH0 DUP3 ADD MSTORE POP JUMP JUMPDEST PUSH0 PUSH2 0x17F4 PUSH1 0xF DUP4 PUSH2 0x13F6 JUMP JUMPDEST SWAP2 POP PUSH2 0x17FF DUP3 PUSH2 0x17C0 JUMP JUMPDEST PUSH1 0x20 DUP3 ADD SWAP1 POP SWAP2 SWAP1 POP JUMP JUMPDEST PUSH0 PUSH1 0x20 DUP3 ADD SWAP1 POP DUP2 DUP2 SUB PUSH0 DUP4 ADD MSTORE PUSH2 0x1821 DUP2 PUSH2 0x17E8 JUMP JUMPDEST SWAP1 POP SWAP2 SWAP1 POP JUMP JUMPDEST PUSH32 0x6E6F742063726561746F72000000000000000000000000000000000000000000 PUSH0 DUP3 ADD MSTORE POP JUMP JUMPDEST PUSH0 PUSH2 0x185C PUSH1 0xB DUP4 PUSH2 0x13F6 JUMP JUMPDEST SWAP2 POP PUSH2 0x1867 DUP3 PUSH2 0x1828 JUMP JUMPDEST PUSH1 0x20 DUP3 ADD SWAP1 POP SWAP2 SWAP1 POP JUMP JUMPDEST PUSH0 PUSH1 0x20 DUP3 ADD SWAP1 POP DUP2 DUP2 SUB PUSH0 DUP4 ADD MSTORE PUSH2 0x1889 DUP2 PUSH2 0x1850 JUMP JUMPDEST SWAP1 POP SWAP2 SWAP1 POP JUMP JUMPDEST PUSH32 0x63616D706169676E207374617274656400000000000000000000000000000000 PUSH0 DUP3 ADD MSTORE POP JUMP JUMPDEST PUSH0 PUSH2 0x18C4 PUSH1 0x10 DUP4 PUSH2 0x13F6 JUMP JUMPDEST SWAP2 POP PUSH2 0x18CF DUP3 PUSH2 0x1890 JUMP JUMPDEST PUSH1 0x20 DUP3 ADD SWAP1 POP SWAP2 SWAP1 POP JUMP JUMPDEST PUSH0 PUSH1 0x20 DUP3 ADD SWAP1 POP DUP2 DUP2 SUB PUSH0 DUP4 ADD MSTORE PUSH2 0x18F1 DUP2 PUSH2 0x18B8 JUMP JUMPDEST SWAP1 POP SWAP2 SWAP1 POP JUMP JUMPDEST PUSH32 0x656E646564000000000000000000000000000000000000000000000000000000 PUSH0 DUP3 ADD MSTORE POP JUMP JUMPDEST PUSH0 PUSH2 0x192C PUSH1 0x5 DUP4 PUSH2 0x13F6 JUMP JUMPDEST SWAP2 POP PUSH2 0x1937 DUP3 PUSH2 0x18F8 JUMP JUMPDEST PUSH1 0x20 DUP3 ADD SWAP1 POP SWAP2 SWAP1 POP JUMP JUMPDEST PUSH0 PUSH1 0x20 DUP3 ADD SWAP1 POP DUP2 DUP2 SUB PUSH0 DUP4 ADD MSTORE PUSH2 0x1959 DUP2 PUSH2 0x1920 JUMP JUMPDEST SWAP1 POP SWAP2 SWAP1 POP JUMP JUMPDEST PUSH0 PUSH2 0x196A DUP3 PUSH2 0x1102 JUMP JUMPDEST SWAP2 POP PUSH2 0x1975 DUP4 PUSH2 0x1102 JUMP JUMPDEST SWAP3 POP DUP3 DUP3 SUB SWAP1 POP DUP2 DUP2 GT ISZERO PUSH2 0x198D JUMPI PUSH2 0x198C PUSH2 0x16B1 JUMP JUMPDEST JUMPDEST SWAP3 SWAP2 POP POP JUMP JUMPDEST PUSH32 0x63616D706169676E206E6F742073746172746564000000000000000000000000 PUSH0 DUP3 ADD MSTORE POP JUMP JUMPDEST PUSH0 PUSH2 0x19C7 PUSH1 0x14 DUP4 PUSH2 0x13F6 JUMP JUMPDEST SWAP2 POP PUSH2 0x19D2 DUP3 PUSH2 0x1993 JUMP JUMPDEST PUSH1 0x20 DUP3 ADD SWAP1 POP SWAP2 SWAP1 POP JUMP JUMPDEST PUSH0 PUSH1 0x20 DUP3 ADD SWAP1 POP DUP2 DUP2 SUB PUSH0 DUP4 ADD MSTORE PUSH2 0x19F4 DUP2 PUSH2 0x19BB JUMP JUMPDEST SWAP1 POP SWAP2 SWAP1 POP JUMP JUMPDEST PUSH0 PUSH1 0x60 DUP3 ADD SWAP1 POP PUSH2 0x1A0E PUSH0 DUP4 ADD DUP7 PUSH2 0x11BC JUMP JUMPDEST PUSH2 0x1A1B PUSH1 0x20 DUP4 ADD DUP6 PUSH2 0x11BC JUMP JUMPDEST PUSH2 0x1A28 PUSH1 0x40 DUP4 ADD DUP5 PUSH2 0x110B JUMP JUMPDEST SWAP5 SWAP4 POP POP POP POP JUMP INVALID LOG2 PUSH5 0x6970667358 0x22 SLT KECCAK256 SWAP11 0x1E 0x29 DUP14 SWAP5 SLOAD DUP11 SWAP15 EQ AND SWAP11 0xC7 TLOAD MLOAD PUSH24 0x7F898AF691C5264F46E74E66CD96E0C2C64736F6C634300 ADDMOD BYTE STOP CALLER "
				},
				"gasEstimates": {
					"creation": {
						"codeDepositCost": "1351600",
						"executionCost": "infinite",
						"totalCost": "infinite"
					},
					"external": {
						"campaigns(uint256)": "infinite",
						"cancel(uint256)": "infinite",
						"claim(uint256)": "infinite",
						"count()": "2425",
						"launch(uint256,uint32,uint32)": "infinite",
						"pledge(uint256,uint256)": "infinite",
						"pledgedAmount(uint256,address)": "infinite",
						"refund(uint256)": "infinite",
						"token()": "infinite",
						"unPledge(uint256,uint256)": "infinite"
					}
				},
				"methodIdentifiers": {
					"campaigns(uint256)": "141961bc",
					"cancel(uint256)": "40e58ee5",
					"claim(uint256)": "379607f5",
					"count()": "06661abd",
					"launch(uint256,uint32,uint32)": "2c63f146",
					"pledge(uint256,uint256)": "fde327be",
					"pledgedAmount(uint256,address)": "aa4fb63a",
					"refund(uint256)": "278ecde1",
					"token()": "fc0c546a",
					"unPledge(uint256,uint256)": "a3a0e936"
				}
			},
			"storageLayout": {
				"storage": [
					{
						"astId": 72,
						"contract": "contracts/crowdfund.sol:crowdFund",
						"label": "count",
						"offset": 0,
						"slot": "0",
						"type": "t_uint256"
					},
					{
						"astId": 77,
						"contract": "contracts/crowdfund.sol:crowdFund",
						"label": "campaigns",
						"offset": 0,
						"slot": "1",
						"type": "t_mapping(t_uint256,t_struct(Campaign)67_storage)"
					},
					{
						"astId": 83,
						"contract": "contracts/crowdfund.sol:crowdFund",
						"label": "pledgedAmount",
						"offset": 0,
						"slot": "2",
						"type": "t_mapping(t_uint256,t_mapping(t_address,t_uint256))"
					}
				],
				"types": {
					"t_address": {
						"encoding": "inplace",
						"label": "address",
						"numberOfBytes": "20"
					},
					"t_bool": {
						"encoding": "inplace",
						"label": "bool",
						"numberOfBytes": "1"
					},
					"t_mapping(t_address,t_uint256)": {
						"encoding": "mapping",
						"key": "t_address",
						"label": "mapping(address => uint256)",
						"numberOfBytes": "32",
						"value": "t_uint256"
					},
					"t_mapping(t_uint256,t_mapping(t_address,t_uint256))": {
						"encoding": "mapping",
						"key": "t_uint256",
						"label": "mapping(uint256 => mapping(address => uint256))",
						"numberOfBytes": "32",
						"value": "t_mapping(t_address,t_uint256)"
					},
					"t_mapping(t_uint256,t_struct(Campaign)67_storage)": {
						"encoding": "mapping",
						"key": "t_uint256",
						"label": "mapping(uint256 => struct crowdFund.Campaign)",
						"numberOfBytes": "32",
						"value": "t_struct(Campaign)67_storage"
					},
					"t_struct(Campaign)67_storage": {
						"encoding": "inplace",
						"label": "struct crowdFund.Campaign",
						"members": [
							{
								"astId": 56,
								"contract": "contracts/crowdfund.sol:crowdFund",
								"label": "creator",
								"offset": 0,
								"slot": "0",
								"type": "t_address"
							},
							{
								"astId": 58,
								"contract": "contracts/crowdfund.sol:crowdFund",
								"label": "goal",
								"offset": 0,
								"slot": "1",
								"type": "t_uint256"
							},
							{
								"astId": 60,
								"contract": "contracts/crowdfund.sol:crowdFund",
								"label": "pledged",
								"offset": 0,
								"slot": "2",
								"type": "t_uint256"
							},
							{
								"astId": 62,
								"contract": "contracts/crowdfund.sol:crowdFund",
								"label": "startAt",
								"offset": 0,
								"slot": "3",
								"type": "t_uint32"
							},
							{
								"astId": 64,
								"contract": "contracts/crowdfund.sol:crowdFund",
								"label": "endAt",
								"offset": 4,
								"slot": "3",
								"type": "t_uint32"
							},
							{
								"astId": 66,
								"contract": "contracts/crowdfund.sol:crowdFund",
								"label": "claimed",
								"offset": 8,
								"slot": "3",
								"type": "t_bool"
							}
						],
						"numberOfBytes": "128"
					},
					"t_uint256": {
						"encoding": "inplace",
						"label": "uint256",
						"numberOfBytes": "32"
					},
					"t_uint32": {
						"encoding": "inplace",
						"label": "uint32",
						"numberOfBytes": "4"
					}
				}
			},
			"userdoc": {
				"kind": "user",
				"methods": {},
				"version": 1
			}
		}
	}
}