{
	"contracts/Multisig_wallet.sol": {
		"wallet": {
			"abi": [
				{
					"inputs": [
						{
							"internalType": "address[]",
							"name": "_owners",
							"type": "address[]"
						},
						{
							"internalType": "uint256",
							"name": "_required",
							"type": "uint256"
						}
					],
					"stateMutability": "nonpayable",
					"type": "constructor"
				},
				{
					"anonymous": false,
					"inputs": [
						{
							"indexed": true,
							"internalType": "address",
							"name": "owner",
							"type": "address"
						},
						{
							"indexed": false,
							"internalType": "uint256",
							"name": "txnid",
							"type": "uint256"
						}
					],
					"name": "Approved",
					"type": "event"
				},
				{
					"anonymous": false,
					"inputs": [
						{
							"indexed": true,
							"internalType": "address",
							"name": "sender",
							"type": "address"
						},
						{
							"indexed": false,
							"internalType": "uint256",
							"name": "value",
							"type": "uint256"
						},
						{
							"indexed": false,
							"internalType": "uint256",
							"name": "balance",
							"type": "uint256"
						}
					],
					"name": "Deposit",
					"type": "event"
				},
				{
					"anonymous": false,
					"inputs": [
						{
							"indexed": true,
							"internalType": "address",
							"name": "owner",
							"type": "address"
						},
						{
							"indexed": false,
							"internalType": "uint256",
							"name": "txnid",
							"type": "uint256"
						}
					],
					"name": "Executed",
					"type": "event"
				},
				{
					"anonymous": false,
					"inputs": [
						{
							"indexed": true,
							"internalType": "address",
							"name": "owner",
							"type": "address"
						},
						{
							"indexed": false,
							"internalType": "uint256",
							"name": "txnid",
							"type": "uint256"
						}
					],
					"name": "Revoked",
					"type": "event"
				},
				{
					"anonymous": false,
					"inputs": [
						{
							"indexed": true,
							"internalType": "address",
							"name": "owner",
							"type": "address"
						},
						{
							"indexed": false,
							"internalType": "uint256",
							"name": "txnid",
							"type": "uint256"
						},
						{
							"indexed": true,
							"internalType": "address",
							"name": "to",
							"type": "address"
						},
						{
							"indexed": false,
							"internalType": "uint256",
							"name": "value",
							"type": "uint256"
						}
					],
					"name": "Submitted",
					"type": "event"
				},
				{
					"inputs": [
						{
							"internalType": "uint256",
							"name": "_txnid",
							"type": "uint256"
						}
					],
					"name": "approve",
					"outputs": [],
					"stateMutability": "nonpayable",
					"type": "function"
				},
				{
					"inputs": [
						{
							"internalType": "uint256",
							"name": "_txnid",
							"type": "uint256"
						}
					],
					"name": "executed",
					"outputs": [],
					"stateMutability": "nonpayable",
					"type": "function"
				},
				{
					"inputs": [
						{
							"internalType": "uint256",
							"name": "",
							"type": "uint256"
						},
						{
							"internalType": "address",
							"name": "",
							"type": "address"
						}
					],
					"name": "isConfirmed",
					"outputs": [
						{
							"internalType": "bool",
							"name": "",
							"type": "bool"
						}
					],
					"stateMutability": "view",
					"type": "function"
				},
				{
					"inputs": [
						{
							"internalType": "address",
							"name": "",
							"type": "address"
						}
					],
					"name": "isOwner",
					"outputs": [
						{
							"internalType": "bool",
							"name": "",
							"type": "bool"
						}
					],
					"stateMutability": "view",
					"type": "function"
				},
				{
					"inputs": [
						{
							"internalType": "uint256",
							"name": "",
							"type": "uint256"
						}
					],
					"name": "owners",
					"outputs": [
						{
							"internalType": "address",
							"name": "",
							"type": "address"
						}
					],
					"stateMutability": "view",
					"type": "function"
				},
				{
					"inputs": [],
					"name": "required",
					"outputs": [
						{
							"internalType": "uint256",
							"name": "",
							"type": "uint256"
						}
					],
					"stateMutability": "view",
					"type": "function"
				},
				{
					"inputs": [
						{
							"internalType": "uint256",
							"name": "_txnid",
							"type": "uint256"
						}
					],
					"name": "revoke",
					"outputs": [],
					"stateMutability": "nonpayable",
					"type": "function"
				},
				{
					"inputs": [
						{
							"internalType": "address payable",
							"name": "_to",
							"type": "address"
						},
						{
							"internalType": "uint256",
							"name": "amount",
							"type": "uint256"
						}
					],
					"name": "submit",
					"outputs": [],
					"stateMutability": "nonpayable",
					"type": "function"
				},
				{
					"inputs": [
						{
							"internalType": "uint256",
							"name": "",
							"type": "uint256"
						}
					],
					"name": "transactions",
					"outputs": [
						{
							"internalType": "address payable",
							"name": "to",
							"type": "address"
						},
						{
							"internalType": "uint256",
							"name": "value",
							"type": "uint256"
						},
						{
							"internalType": "uint256",
							"name": "numberConfirmed",
							"type": "uint256"
						},
						{
							"internalType": "bool",
							"name": "executed",
							"type": "bool"
						}
					],
					"stateMutability": "view",
					"type": "function"
				},
				{
					"stateMutability": "payable",
					"type": "receive"
				}
			],
			"devdoc": {
				"kind": "dev",
				"methods": {},
				"version": 1
			},
			"evm": {
				"assembly": "    /* \"contracts/Multisig_wallet.sol\":68:3151  contract wallet{... */\n  mstore(0x40, 0x80)\n    /* \"contracts/Multisig_wallet.sol\":673:1183  constructor(address[] memory _owners, uint  _required) {... */\n  callvalue\n  dup1\n  iszero\n  tag_1\n  jumpi\n  0x00\n  dup1\n  revert\ntag_1:\n  pop\n  mload(0x40)\n  sub(codesize, bytecodeSize)\n  dup1\n  bytecodeSize\n  dup4\n  codecopy\n  dup2\n  dup2\n  add\n  0x40\n  mstore\n  dup2\n  add\n  swap1\n  tag_2\n  swap2\n  swap1\n  tag_3\n  jump\t// in\ntag_2:\n    /* \"contracts/Multisig_wallet.sol\":761:762  0 */\n  0x00\n    /* \"contracts/Multisig_wallet.sol\":746:753  _owners */\n  dup3\n    /* \"contracts/Multisig_wallet.sol\":746:760  _owners.length */\n  mload\n    /* \"contracts/Multisig_wallet.sol\":746:762  _owners.length>0 */\n  gt\n    /* \"contracts/Multisig_wallet.sol\":738:791  require(_owners.length>0,\"owners should not be zero\") */\n  tag_6\n  jumpi\n  mload(0x40)\n  0x08c379a000000000000000000000000000000000000000000000000000000000\n  dup2\n  mstore\n  0x04\n  add\n  tag_7\n  swap1\n  tag_8\n  jump\t// in\ntag_7:\n  mload(0x40)\n  dup1\n  swap2\n  sub\n  swap1\n  revert\ntag_6:\n    /* \"contracts/Multisig_wallet.sol\":819:820  0 */\n  0x00\n    /* \"contracts/Multisig_wallet.sol\":809:818  _required */\n  dup2\n    /* \"contracts/Multisig_wallet.sol\":809:820  _required>0 */\n  gt\n    /* \"contracts/Multisig_wallet.sol\":809:849  _required>0 && _required<=_owners.length */\n  dup1\n  iszero\n  tag_9\n  jumpi\n  pop\n    /* \"contracts/Multisig_wallet.sol\":835:842  _owners */\n  dup2\n    /* \"contracts/Multisig_wallet.sol\":835:849  _owners.length */\n  mload\n    /* \"contracts/Multisig_wallet.sol\":824:833  _required */\n  dup2\n    /* \"contracts/Multisig_wallet.sol\":824:849  _required<=_owners.length */\n  gt\n  iszero\n    /* \"contracts/Multisig_wallet.sol\":809:849  _required>0 && _required<=_owners.length */\ntag_9:\n    /* \"contracts/Multisig_wallet.sol\":801:872  require(_required>0 && _required<=_owners.length,\"Invalid Transaction\") */\n  tag_10\n  jumpi\n  mload(0x40)\n  0x08c379a000000000000000000000000000000000000000000000000000000000\n  dup2\n  mstore\n  0x04\n  add\n  tag_11\n  swap1\n  tag_12\n  jump\t// in\ntag_11:\n  mload(0x40)\n  dup1\n  swap2\n  sub\n  swap1\n  revert\ntag_10:\n    /* \"contracts/Multisig_wallet.sol\":886:892  uint i */\n  0x00\n    /* \"contracts/Multisig_wallet.sol\":882:1149  for(uint i=0;i<_owners.length;i++){... */\ntag_13:\n    /* \"contracts/Multisig_wallet.sol\":897:904  _owners */\n  dup3\n    /* \"contracts/Multisig_wallet.sol\":897:911  _owners.length */\n  mload\n    /* \"contracts/Multisig_wallet.sol\":895:896  i */\n  dup2\n    /* \"contracts/Multisig_wallet.sol\":895:911  i<_owners.length */\n  lt\n    /* \"contracts/Multisig_wallet.sol\":882:1149  for(uint i=0;i<_owners.length;i++){... */\n  iszero\n  tag_14\n  jumpi\n    /* \"contracts/Multisig_wallet.sol\":930:943  address owner */\n  0x00\n    /* \"contracts/Multisig_wallet.sol\":944:951  _owners */\n  dup4\n    /* \"contracts/Multisig_wallet.sol\":952:953  i */\n  dup3\n    /* \"contracts/Multisig_wallet.sol\":944:954  _owners[i] */\n  dup2\n  mload\n  dup2\n  lt\n  tag_16\n  jumpi\n  tag_17\n  tag_18\n  jump\t// in\ntag_17:\ntag_16:\n  0x20\n  mul\n  0x20\n  add\n  add\n  mload\n    /* \"contracts/Multisig_wallet.sol\":930:954  address owner=_owners[i] */\n  swap1\n  pop\n    /* \"contracts/Multisig_wallet.sol\":991:992  0 */\n  0x00\n    /* \"contracts/Multisig_wallet.sol\":976:993  owner!=address(0) */\n  0xffffffffffffffffffffffffffffffffffffffff\n  and\n    /* \"contracts/Multisig_wallet.sol\":976:981  owner */\n  dup2\n    /* \"contracts/Multisig_wallet.sol\":976:993  owner!=address(0) */\n  0xffffffffffffffffffffffffffffffffffffffff\n  and\n  sub\n    /* \"contracts/Multisig_wallet.sol\":968:1010  require(owner!=address(0),\"invalid owner\") */\n  tag_19\n  jumpi\n  mload(0x40)\n  0x08c379a000000000000000000000000000000000000000000000000000000000\n  dup2\n  mstore\n  0x04\n  add\n  tag_20\n  swap1\n  tag_21\n  jump\t// in\ntag_20:\n  mload(0x40)\n  dup1\n  swap2\n  sub\n  swap1\n  revert\ntag_19:\n    /* \"contracts/Multisig_wallet.sol\":1033:1040  isOwner */\n  0x03\n    /* \"contracts/Multisig_wallet.sol\":1033:1047  isOwner[owner] */\n  0x00\n    /* \"contracts/Multisig_wallet.sol\":1041:1046  owner */\n  dup3\n    /* \"contracts/Multisig_wallet.sol\":1033:1047  isOwner[owner] */\n  0xffffffffffffffffffffffffffffffffffffffff\n  and\n  0xffffffffffffffffffffffffffffffffffffffff\n  and\n  dup2\n  mstore\n  0x20\n  add\n  swap1\n  dup2\n  mstore\n  0x20\n  add\n  0x00\n  keccak256\n  0x00\n  swap1\n  sload\n  swap1\n  0x0100\n  exp\n  swap1\n  div\n  0xff\n  and\n    /* \"contracts/Multisig_wallet.sol\":1032:1047  !isOwner[owner] */\n  iszero\n    /* \"contracts/Multisig_wallet.sol\":1024:1072  require(!isOwner[owner],\"unique owner required\") */\n  tag_22\n  jumpi\n  mload(0x40)\n  0x08c379a000000000000000000000000000000000000000000000000000000000\n  dup2\n  mstore\n  0x04\n  add\n  tag_23\n  swap1\n  tag_24\n  jump\t// in\ntag_23:\n  mload(0x40)\n  dup1\n  swap2\n  sub\n  swap1\n  revert\ntag_22:\n    /* \"contracts/Multisig_wallet.sol\":1101:1105  true */\n  0x01\n    /* \"contracts/Multisig_wallet.sol\":1086:1093  isOwner */\n  0x03\n    /* \"contracts/Multisig_wallet.sol\":1086:1100  isOwner[owner] */\n  0x00\n    /* \"contracts/Multisig_wallet.sol\":1094:1099  owner */\n  dup4\n    /* \"contracts/Multisig_wallet.sol\":1086:1100  isOwner[owner] */\n  0xffffffffffffffffffffffffffffffffffffffff\n  and\n  0xffffffffffffffffffffffffffffffffffffffff\n  and\n  dup2\n  mstore\n  0x20\n  add\n  swap1\n  dup2\n  mstore\n  0x20\n  add\n  0x00\n  keccak256\n  0x00\n    /* \"contracts/Multisig_wallet.sol\":1086:1105  isOwner[owner]=true */\n  0x0100\n  exp\n  dup2\n  sload\n  dup2\n  0xff\n  mul\n  not\n  and\n  swap1\n  dup4\n  iszero\n  iszero\n  mul\n  or\n  swap1\n  sstore\n  pop\n    /* \"contracts/Multisig_wallet.sol\":1119:1125  owners */\n  0x02\n    /* \"contracts/Multisig_wallet.sol\":1131:1136  owner */\n  dup2\n    /* \"contracts/Multisig_wallet.sol\":1119:1137  owners.push(owner) */\n  swap1\n  dup1\n  0x01\n  dup2\n  sload\n  add\n  dup1\n  dup3\n  sstore\n  dup1\n  swap2\n  pop\n  pop\n  0x01\n  swap1\n  sub\n  swap1\n  0x00\n  mstore\n  keccak256(0x00, 0x20)\n  add\n  0x00\n  swap1\n  swap2\n  swap1\n  swap2\n  swap1\n  swap2\n  0x0100\n  exp\n  dup2\n  sload\n  dup2\n  0xffffffffffffffffffffffffffffffffffffffff\n  mul\n  not\n  and\n  swap1\n  dup4\n  0xffffffffffffffffffffffffffffffffffffffff\n  and\n  mul\n  or\n  swap1\n  sstore\n  pop\n    /* \"contracts/Multisig_wallet.sol\":916:1149  {... */\n  pop\n    /* \"contracts/Multisig_wallet.sol\":912:915  i++ */\n  dup1\n  dup1\n  0x01\n  add\n  swap2\n  pop\n  pop\n    /* \"contracts/Multisig_wallet.sol\":882:1149  for(uint i=0;i<_owners.length;i++){... */\n  jump(tag_13)\ntag_14:\n  pop\n    /* \"contracts/Multisig_wallet.sol\":1167:1176  _required */\n  dup1\n    /* \"contracts/Multisig_wallet.sol\":1158:1166  required */\n  0x00\n    /* \"contracts/Multisig_wallet.sol\":1158:1176  required=_required */\n  dup2\n  swap1\n  sstore\n  pop\n    /* \"contracts/Multisig_wallet.sol\":673:1183  constructor(address[] memory _owners, uint  _required) {... */\n  pop\n  pop\n    /* \"contracts/Multisig_wallet.sol\":68:3151  contract wallet{... */\n  jump(tag_26)\n    /* \"#utility.yul\":7:82   */\ntag_27:\n    /* \"#utility.yul\":40:46   */\n  0x00\n    /* \"#utility.yul\":73:75   */\n  0x40\n    /* \"#utility.yul\":67:76   */\n  mload\n    /* \"#utility.yul\":57:76   */\n  swap1\n  pop\n    /* \"#utility.yul\":7:82   */\n  swap1\n  jump\t// out\n    /* \"#utility.yul\":88:205   */\ntag_28:\n    /* \"#utility.yul\":197:198   */\n  0x00\n    /* \"#utility.yul\":194:195   */\n  dup1\n    /* \"#utility.yul\":187:199   */\n  revert\n    /* \"#utility.yul\":211:328   */\ntag_29:\n    /* \"#utility.yul\":320:321   */\n  0x00\n    /* \"#utility.yul\":317:318   */\n  dup1\n    /* \"#utility.yul\":310:322   */\n  revert\n    /* \"#utility.yul\":334:451   */\ntag_30:\n    /* \"#utility.yul\":443:444   */\n  0x00\n    /* \"#utility.yul\":440:441   */\n  dup1\n    /* \"#utility.yul\":433:445   */\n  revert\n    /* \"#utility.yul\":457:559   */\ntag_31:\n    /* \"#utility.yul\":498:504   */\n  0x00\n    /* \"#utility.yul\":549:551   */\n  0x1f\n    /* \"#utility.yul\":545:552   */\n  not\n    /* \"#utility.yul\":540:542   */\n  0x1f\n    /* \"#utility.yul\":533:538   */\n  dup4\n    /* \"#utility.yul\":529:543   */\n  add\n    /* \"#utility.yul\":525:553   */\n  and\n    /* \"#utility.yul\":515:553   */\n  swap1\n  pop\n    /* \"#utility.yul\":457:559   */\n  swap2\n  swap1\n  pop\n  jump\t// out\n    /* \"#utility.yul\":565:745   */\ntag_32:\n    /* \"#utility.yul\":613:690   */\n  0x4e487b7100000000000000000000000000000000000000000000000000000000\n    /* \"#utility.yul\":610:611   */\n  0x00\n    /* \"#utility.yul\":603:691   */\n  mstore\n    /* \"#utility.yul\":710:714   */\n  0x41\n    /* \"#utility.yul\":707:708   */\n  0x04\n    /* \"#utility.yul\":700:715   */\n  mstore\n    /* \"#utility.yul\":734:738   */\n  0x24\n    /* \"#utility.yul\":731:732   */\n  0x00\n    /* \"#utility.yul\":724:739   */\n  revert\n    /* \"#utility.yul\":751:1032   */\ntag_33:\n    /* \"#utility.yul\":834:861   */\n  tag_63\n    /* \"#utility.yul\":856:860   */\n  dup3\n    /* \"#utility.yul\":834:861   */\n  tag_31\n  jump\t// in\ntag_63:\n    /* \"#utility.yul\":826:832   */\n  dup2\n    /* \"#utility.yul\":822:862   */\n  add\n    /* \"#utility.yul\":964:970   */\n  dup2\n    /* \"#utility.yul\":952:962   */\n  dup2\n    /* \"#utility.yul\":949:971   */\n  lt\n    /* \"#utility.yul\":928:946   */\n  0xffffffffffffffff\n    /* \"#utility.yul\":916:926   */\n  dup3\n    /* \"#utility.yul\":913:947   */\n  gt\n    /* \"#utility.yul\":910:972   */\n  or\n    /* \"#utility.yul\":907:995   */\n  iszero\n  tag_64\n  jumpi\n    /* \"#utility.yul\":975:993   */\n  tag_65\n  tag_32\n  jump\t// in\ntag_65:\n    /* \"#utility.yul\":907:995   */\ntag_64:\n    /* \"#utility.yul\":1015:1025   */\n  dup1\n    /* \"#utility.yul\":1011:1013   */\n  0x40\n    /* \"#utility.yul\":1004:1026   */\n  mstore\n    /* \"#utility.yul\":794:1032   */\n  pop\n    /* \"#utility.yul\":751:1032   */\n  pop\n  pop\n  jump\t// out\n    /* \"#utility.yul\":1038:1167   */\ntag_34:\n    /* \"#utility.yul\":1072:1078   */\n  0x00\n    /* \"#utility.yul\":1099:1119   */\n  tag_67\n  tag_27\n  jump\t// in\ntag_67:\n    /* \"#utility.yul\":1089:1119   */\n  swap1\n  pop\n    /* \"#utility.yul\":1128:1161   */\n  tag_68\n    /* \"#utility.yul\":1156:1160   */\n  dup3\n    /* \"#utility.yul\":1148:1154   */\n  dup3\n    /* \"#utility.yul\":1128:1161   */\n  tag_33\n  jump\t// in\ntag_68:\n    /* \"#utility.yul\":1038:1167   */\n  swap2\n  swap1\n  pop\n  jump\t// out\n    /* \"#utility.yul\":1173:1484   */\ntag_35:\n    /* \"#utility.yul\":1250:1254   */\n  0x00\n    /* \"#utility.yul\":1340:1358   */\n  0xffffffffffffffff\n    /* \"#utility.yul\":1332:1338   */\n  dup3\n    /* \"#utility.yul\":1329:1359   */\n  gt\n    /* \"#utility.yul\":1326:1382   */\n  iszero\n  tag_70\n  jumpi\n    /* \"#utility.yul\":1362:1380   */\n  tag_71\n  tag_32\n  jump\t// in\ntag_71:\n    /* \"#utility.yul\":1326:1382   */\ntag_70:\n    /* \"#utility.yul\":1412:1416   */\n  0x20\n    /* \"#utility.yul\":1404:1410   */\n  dup3\n    /* \"#utility.yul\":1400:1417   */\n  mul\n    /* \"#utility.yul\":1392:1417   */\n  swap1\n  pop\n    /* \"#utility.yul\":1472:1476   */\n  0x20\n    /* \"#utility.yul\":1466:1470   */\n  dup2\n    /* \"#utility.yul\":1462:1477   */\n  add\n    /* \"#utility.yul\":1454:1477   */\n  swap1\n  pop\n    /* \"#utility.yul\":1173:1484   */\n  swap2\n  swap1\n  pop\n  jump\t// out\n    /* \"#utility.yul\":1490:1607   */\ntag_36:\n    /* \"#utility.yul\":1599:1600   */\n  0x00\n    /* \"#utility.yul\":1596:1597   */\n  dup1\n    /* \"#utility.yul\":1589:1601   */\n  revert\n    /* \"#utility.yul\":1613:1739   */\ntag_37:\n    /* \"#utility.yul\":1650:1657   */\n  0x00\n    /* \"#utility.yul\":1690:1732   */\n  0xffffffffffffffffffffffffffffffffffffffff\n    /* \"#utility.yul\":1683:1688   */\n  dup3\n    /* \"#utility.yul\":1679:1733   */\n  and\n    /* \"#utility.yul\":1668:1733   */\n  swap1\n  pop\n    /* \"#utility.yul\":1613:1739   */\n  swap2\n  swap1\n  pop\n  jump\t// out\n    /* \"#utility.yul\":1745:1841   */\ntag_38:\n    /* \"#utility.yul\":1782:1789   */\n  0x00\n    /* \"#utility.yul\":1811:1835   */\n  tag_75\n    /* \"#utility.yul\":1829:1834   */\n  dup3\n    /* \"#utility.yul\":1811:1835   */\n  tag_37\n  jump\t// in\ntag_75:\n    /* \"#utility.yul\":1800:1835   */\n  swap1\n  pop\n    /* \"#utility.yul\":1745:1841   */\n  swap2\n  swap1\n  pop\n  jump\t// out\n    /* \"#utility.yul\":1847:1969   */\ntag_39:\n    /* \"#utility.yul\":1920:1944   */\n  tag_77\n    /* \"#utility.yul\":1938:1943   */\n  dup2\n    /* \"#utility.yul\":1920:1944   */\n  tag_38\n  jump\t// in\ntag_77:\n    /* \"#utility.yul\":1913:1918   */\n  dup2\n    /* \"#utility.yul\":1910:1945   */\n  eq\n    /* \"#utility.yul\":1900:1963   */\n  tag_78\n  jumpi\n    /* \"#utility.yul\":1959:1960   */\n  0x00\n    /* \"#utility.yul\":1956:1957   */\n  dup1\n    /* \"#utility.yul\":1949:1961   */\n  revert\n    /* \"#utility.yul\":1900:1963   */\ntag_78:\n    /* \"#utility.yul\":1847:1969   */\n  pop\n  jump\t// out\n    /* \"#utility.yul\":1975:2118   */\ntag_40:\n    /* \"#utility.yul\":2032:2037   */\n  0x00\n    /* \"#utility.yul\":2063:2069   */\n  dup2\n    /* \"#utility.yul\":2057:2070   */\n  mload\n    /* \"#utility.yul\":2048:2070   */\n  swap1\n  pop\n    /* \"#utility.yul\":2079:2112   */\n  tag_80\n    /* \"#utility.yul\":2106:2111   */\n  dup2\n    /* \"#utility.yul\":2079:2112   */\n  tag_39\n  jump\t// in\ntag_80:\n    /* \"#utility.yul\":1975:2118   */\n  swap3\n  swap2\n  pop\n  pop\n  jump\t// out\n    /* \"#utility.yul\":2141:2873   */\ntag_41:\n    /* \"#utility.yul\":2248:2253   */\n  0x00\n    /* \"#utility.yul\":2273:2354   */\n  tag_82\n    /* \"#utility.yul\":2289:2353   */\n  tag_83\n    /* \"#utility.yul\":2346:2352   */\n  dup5\n    /* \"#utility.yul\":2289:2353   */\n  tag_35\n  jump\t// in\ntag_83:\n    /* \"#utility.yul\":2273:2354   */\n  tag_34\n  jump\t// in\ntag_82:\n    /* \"#utility.yul\":2264:2354   */\n  swap1\n  pop\n    /* \"#utility.yul\":2374:2379   */\n  dup1\n    /* \"#utility.yul\":2403:2409   */\n  dup4\n    /* \"#utility.yul\":2396:2401   */\n  dup3\n    /* \"#utility.yul\":2389:2410   */\n  mstore\n    /* \"#utility.yul\":2437:2441   */\n  0x20\n    /* \"#utility.yul\":2430:2435   */\n  dup3\n    /* \"#utility.yul\":2426:2442   */\n  add\n    /* \"#utility.yul\":2419:2442   */\n  swap1\n  pop\n    /* \"#utility.yul\":2490:2494   */\n  0x20\n    /* \"#utility.yul\":2482:2488   */\n  dup5\n    /* \"#utility.yul\":2478:2495   */\n  mul\n    /* \"#utility.yul\":2470:2476   */\n  dup4\n    /* \"#utility.yul\":2466:2496   */\n  add\n    /* \"#utility.yul\":2519:2522   */\n  dup6\n    /* \"#utility.yul\":2511:2517   */\n  dup2\n    /* \"#utility.yul\":2508:2523   */\n  gt\n    /* \"#utility.yul\":2505:2627   */\n  iszero\n  tag_84\n  jumpi\n    /* \"#utility.yul\":2538:2617   */\n  tag_85\n  tag_36\n  jump\t// in\ntag_85:\n    /* \"#utility.yul\":2505:2627   */\ntag_84:\n    /* \"#utility.yul\":2653:2659   */\n  dup4\n    /* \"#utility.yul\":2636:2867   */\ntag_86:\n    /* \"#utility.yul\":2670:2676   */\n  dup2\n    /* \"#utility.yul\":2665:2668   */\n  dup2\n    /* \"#utility.yul\":2662:2677   */\n  lt\n    /* \"#utility.yul\":2636:2867   */\n  iszero\n  tag_88\n  jumpi\n    /* \"#utility.yul\":2745:2748   */\n  dup1\n    /* \"#utility.yul\":2774:2822   */\n  tag_89\n    /* \"#utility.yul\":2818:2821   */\n  dup9\n    /* \"#utility.yul\":2806:2816   */\n  dup3\n    /* \"#utility.yul\":2774:2822   */\n  tag_40\n  jump\t// in\ntag_89:\n    /* \"#utility.yul\":2769:2772   */\n  dup5\n    /* \"#utility.yul\":2762:2823   */\n  mstore\n    /* \"#utility.yul\":2852:2856   */\n  0x20\n    /* \"#utility.yul\":2847:2850   */\n  dup5\n    /* \"#utility.yul\":2843:2857   */\n  add\n    /* \"#utility.yul\":2836:2857   */\n  swap4\n  pop\n    /* \"#utility.yul\":2712:2867   */\n  pop\n    /* \"#utility.yul\":2696:2700   */\n  0x20\n    /* \"#utility.yul\":2691:2694   */\n  dup2\n    /* \"#utility.yul\":2687:2701   */\n  add\n    /* \"#utility.yul\":2680:2701   */\n  swap1\n  pop\n    /* \"#utility.yul\":2636:2867   */\n  jump(tag_86)\ntag_88:\n    /* \"#utility.yul\":2640:2661   */\n  pop\n    /* \"#utility.yul\":2254:2873   */\n  pop\n  pop\n    /* \"#utility.yul\":2141:2873   */\n  swap4\n  swap3\n  pop\n  pop\n  pop\n  jump\t// out\n    /* \"#utility.yul\":2896:3281   */\ntag_42:\n    /* \"#utility.yul\":2978:2983   */\n  0x00\n    /* \"#utility.yul\":3027:3030   */\n  dup3\n    /* \"#utility.yul\":3020:3024   */\n  0x1f\n    /* \"#utility.yul\":3012:3018   */\n  dup4\n    /* \"#utility.yul\":3008:3025   */\n  add\n    /* \"#utility.yul\":3004:3031   */\n  slt\n    /* \"#utility.yul\":2994:3116   */\n  tag_91\n  jumpi\n    /* \"#utility.yul\":3035:3114   */\n  tag_92\n  tag_30\n  jump\t// in\ntag_92:\n    /* \"#utility.yul\":2994:3116   */\ntag_91:\n    /* \"#utility.yul\":3145:3151   */\n  dup2\n    /* \"#utility.yul\":3139:3152   */\n  mload\n    /* \"#utility.yul\":3170:3275   */\n  tag_93\n    /* \"#utility.yul\":3271:3274   */\n  dup5\n    /* \"#utility.yul\":3263:3269   */\n  dup3\n    /* \"#utility.yul\":3256:3260   */\n  0x20\n    /* \"#utility.yul\":3248:3254   */\n  dup7\n    /* \"#utility.yul\":3244:3261   */\n  add\n    /* \"#utility.yul\":3170:3275   */\n  tag_41\n  jump\t// in\ntag_93:\n    /* \"#utility.yul\":3161:3275   */\n  swap2\n  pop\n    /* \"#utility.yul\":2984:3281   */\n  pop\n    /* \"#utility.yul\":2896:3281   */\n  swap3\n  swap2\n  pop\n  pop\n  jump\t// out\n    /* \"#utility.yul\":3287:3364   */\ntag_43:\n    /* \"#utility.yul\":3324:3331   */\n  0x00\n    /* \"#utility.yul\":3353:3358   */\n  dup2\n    /* \"#utility.yul\":3342:3358   */\n  swap1\n  pop\n    /* \"#utility.yul\":3287:3364   */\n  swap2\n  swap1\n  pop\n  jump\t// out\n    /* \"#utility.yul\":3370:3492   */\ntag_44:\n    /* \"#utility.yul\":3443:3467   */\n  tag_96\n    /* \"#utility.yul\":3461:3466   */\n  dup2\n    /* \"#utility.yul\":3443:3467   */\n  tag_43\n  jump\t// in\ntag_96:\n    /* \"#utility.yul\":3436:3441   */\n  dup2\n    /* \"#utility.yul\":3433:3468   */\n  eq\n    /* \"#utility.yul\":3423:3486   */\n  tag_97\n  jumpi\n    /* \"#utility.yul\":3482:3483   */\n  0x00\n    /* \"#utility.yul\":3479:3480   */\n  dup1\n    /* \"#utility.yul\":3472:3484   */\n  revert\n    /* \"#utility.yul\":3423:3486   */\ntag_97:\n    /* \"#utility.yul\":3370:3492   */\n  pop\n  jump\t// out\n    /* \"#utility.yul\":3498:3641   */\ntag_45:\n    /* \"#utility.yul\":3555:3560   */\n  0x00\n    /* \"#utility.yul\":3586:3592   */\n  dup2\n    /* \"#utility.yul\":3580:3593   */\n  mload\n    /* \"#utility.yul\":3571:3593   */\n  swap1\n  pop\n    /* \"#utility.yul\":3602:3635   */\n  tag_99\n    /* \"#utility.yul\":3629:3634   */\n  dup2\n    /* \"#utility.yul\":3602:3635   */\n  tag_44\n  jump\t// in\ntag_99:\n    /* \"#utility.yul\":3498:3641   */\n  swap3\n  swap2\n  pop\n  pop\n  jump\t// out\n    /* \"#utility.yul\":3647:4357   */\ntag_3:\n    /* \"#utility.yul\":3751:3757   */\n  0x00\n    /* \"#utility.yul\":3759:3765   */\n  dup1\n    /* \"#utility.yul\":3808:3810   */\n  0x40\n    /* \"#utility.yul\":3796:3805   */\n  dup4\n    /* \"#utility.yul\":3787:3794   */\n  dup6\n    /* \"#utility.yul\":3783:3806   */\n  sub\n    /* \"#utility.yul\":3779:3811   */\n  slt\n    /* \"#utility.yul\":3776:3895   */\n  iszero\n  tag_101\n  jumpi\n    /* \"#utility.yul\":3814:3893   */\n  tag_102\n  tag_28\n  jump\t// in\ntag_102:\n    /* \"#utility.yul\":3776:3895   */\ntag_101:\n    /* \"#utility.yul\":3955:3956   */\n  0x00\n    /* \"#utility.yul\":3944:3953   */\n  dup4\n    /* \"#utility.yul\":3940:3957   */\n  add\n    /* \"#utility.yul\":3934:3958   */\n  mload\n    /* \"#utility.yul\":3985:4003   */\n  0xffffffffffffffff\n    /* \"#utility.yul\":3977:3983   */\n  dup2\n    /* \"#utility.yul\":3974:4004   */\n  gt\n    /* \"#utility.yul\":3971:4088   */\n  iszero\n  tag_103\n  jumpi\n    /* \"#utility.yul\":4007:4086   */\n  tag_104\n  tag_29\n  jump\t// in\ntag_104:\n    /* \"#utility.yul\":3971:4088   */\ntag_103:\n    /* \"#utility.yul\":4112:4201   */\n  tag_105\n    /* \"#utility.yul\":4193:4200   */\n  dup6\n    /* \"#utility.yul\":4184:4190   */\n  dup3\n    /* \"#utility.yul\":4173:4182   */\n  dup7\n    /* \"#utility.yul\":4169:4191   */\n  add\n    /* \"#utility.yul\":4112:4201   */\n  tag_42\n  jump\t// in\ntag_105:\n    /* \"#utility.yul\":4102:4201   */\n  swap3\n  pop\n    /* \"#utility.yul\":3905:4211   */\n  pop\n    /* \"#utility.yul\":4250:4252   */\n  0x20\n    /* \"#utility.yul\":4276:4340   */\n  tag_106\n    /* \"#utility.yul\":4332:4339   */\n  dup6\n    /* \"#utility.yul\":4323:4329   */\n  dup3\n    /* \"#utility.yul\":4312:4321   */\n  dup7\n    /* \"#utility.yul\":4308:4330   */\n  add\n    /* \"#utility.yul\":4276:4340   */\n  tag_45\n  jump\t// in\ntag_106:\n    /* \"#utility.yul\":4266:4340   */\n  swap2\n  pop\n    /* \"#utility.yul\":4221:4350   */\n  pop\n    /* \"#utility.yul\":3647:4357   */\n  swap3\n  pop\n  swap3\n  swap1\n  pop\n  jump\t// out\n    /* \"#utility.yul\":4363:4532   */\ntag_46:\n    /* \"#utility.yul\":4447:4458   */\n  0x00\n    /* \"#utility.yul\":4481:4487   */\n  dup3\n    /* \"#utility.yul\":4476:4479   */\n  dup3\n    /* \"#utility.yul\":4469:4488   */\n  mstore\n    /* \"#utility.yul\":4521:4525   */\n  0x20\n    /* \"#utility.yul\":4516:4519   */\n  dup3\n    /* \"#utility.yul\":4512:4526   */\n  add\n    /* \"#utility.yul\":4497:4526   */\n  swap1\n  pop\n    /* \"#utility.yul\":4363:4532   */\n  swap3\n  swap2\n  pop\n  pop\n  jump\t// out\n    /* \"#utility.yul\":4538:4713   */\ntag_47:\n    /* \"#utility.yul\":4678:4705   */\n  0x6f776e6572732073686f756c64206e6f74206265207a65726f00000000000000\n    /* \"#utility.yul\":4674:4675   */\n  0x00\n    /* \"#utility.yul\":4666:4672   */\n  dup3\n    /* \"#utility.yul\":4662:4676   */\n  add\n    /* \"#utility.yul\":4655:4706   */\n  mstore\n    /* \"#utility.yul\":4538:4713   */\n  pop\n  jump\t// out\n    /* \"#utility.yul\":4719:5085   */\ntag_48:\n    /* \"#utility.yul\":4861:4864   */\n  0x00\n    /* \"#utility.yul\":4882:4949   */\n  tag_110\n    /* \"#utility.yul\":4946:4948   */\n  0x19\n    /* \"#utility.yul\":4941:4944   */\n  dup4\n    /* \"#utility.yul\":4882:4949   */\n  tag_46\n  jump\t// in\ntag_110:\n    /* \"#utility.yul\":4875:4949   */\n  swap2\n  pop\n    /* \"#utility.yul\":4958:5051   */\n  tag_111\n    /* \"#utility.yul\":5047:5050   */\n  dup3\n    /* \"#utility.yul\":4958:5051   */\n  tag_47\n  jump\t// in\ntag_111:\n    /* \"#utility.yul\":5076:5078   */\n  0x20\n    /* \"#utility.yul\":5071:5074   */\n  dup3\n    /* \"#utility.yul\":5067:5079   */\n  add\n    /* \"#utility.yul\":5060:5079   */\n  swap1\n  pop\n    /* \"#utility.yul\":4719:5085   */\n  swap2\n  swap1\n  pop\n  jump\t// out\n    /* \"#utility.yul\":5091:5510   */\ntag_8:\n    /* \"#utility.yul\":5257:5261   */\n  0x00\n    /* \"#utility.yul\":5295:5297   */\n  0x20\n    /* \"#utility.yul\":5284:5293   */\n  dup3\n    /* \"#utility.yul\":5280:5298   */\n  add\n    /* \"#utility.yul\":5272:5298   */\n  swap1\n  pop\n    /* \"#utility.yul\":5344:5353   */\n  dup2\n    /* \"#utility.yul\":5338:5342   */\n  dup2\n    /* \"#utility.yul\":5334:5354   */\n  sub\n    /* \"#utility.yul\":5330:5331   */\n  0x00\n    /* \"#utility.yul\":5319:5328   */\n  dup4\n    /* \"#utility.yul\":5315:5332   */\n  add\n    /* \"#utility.yul\":5308:5355   */\n  mstore\n    /* \"#utility.yul\":5372:5503   */\n  tag_113\n    /* \"#utility.yul\":5498:5502   */\n  dup2\n    /* \"#utility.yul\":5372:5503   */\n  tag_48\n  jump\t// in\ntag_113:\n    /* \"#utility.yul\":5364:5503   */\n  swap1\n  pop\n    /* \"#utility.yul\":5091:5510   */\n  swap2\n  swap1\n  pop\n  jump\t// out\n    /* \"#utility.yul\":5516:5685   */\ntag_49:\n    /* \"#utility.yul\":5656:5677   */\n  0x496e76616c6964205472616e73616374696f6e00000000000000000000000000\n    /* \"#utility.yul\":5652:5653   */\n  0x00\n    /* \"#utility.yul\":5644:5650   */\n  dup3\n    /* \"#utility.yul\":5640:5654   */\n  add\n    /* \"#utility.yul\":5633:5678   */\n  mstore\n    /* \"#utility.yul\":5516:5685   */\n  pop\n  jump\t// out\n    /* \"#utility.yul\":5691:6057   */\ntag_50:\n    /* \"#utility.yul\":5833:5836   */\n  0x00\n    /* \"#utility.yul\":5854:5921   */\n  tag_116\n    /* \"#utility.yul\":5918:5920   */\n  0x13\n    /* \"#utility.yul\":5913:5916   */\n  dup4\n    /* \"#utility.yul\":5854:5921   */\n  tag_46\n  jump\t// in\ntag_116:\n    /* \"#utility.yul\":5847:5921   */\n  swap2\n  pop\n    /* \"#utility.yul\":5930:6023   */\n  tag_117\n    /* \"#utility.yul\":6019:6022   */\n  dup3\n    /* \"#utility.yul\":5930:6023   */\n  tag_49\n  jump\t// in\ntag_117:\n    /* \"#utility.yul\":6048:6050   */\n  0x20\n    /* \"#utility.yul\":6043:6046   */\n  dup3\n    /* \"#utility.yul\":6039:6051   */\n  add\n    /* \"#utility.yul\":6032:6051   */\n  swap1\n  pop\n    /* \"#utility.yul\":5691:6057   */\n  swap2\n  swap1\n  pop\n  jump\t// out\n    /* \"#utility.yul\":6063:6482   */\ntag_12:\n    /* \"#utility.yul\":6229:6233   */\n  0x00\n    /* \"#utility.yul\":6267:6269   */\n  0x20\n    /* \"#utility.yul\":6256:6265   */\n  dup3\n    /* \"#utility.yul\":6252:6270   */\n  add\n    /* \"#utility.yul\":6244:6270   */\n  swap1\n  pop\n    /* \"#utility.yul\":6316:6325   */\n  dup2\n    /* \"#utility.yul\":6310:6314   */\n  dup2\n    /* \"#utility.yul\":6306:6326   */\n  sub\n    /* \"#utility.yul\":6302:6303   */\n  0x00\n    /* \"#utility.yul\":6291:6300   */\n  dup4\n    /* \"#utility.yul\":6287:6304   */\n  add\n    /* \"#utility.yul\":6280:6327   */\n  mstore\n    /* \"#utility.yul\":6344:6475   */\n  tag_119\n    /* \"#utility.yul\":6470:6474   */\n  dup2\n    /* \"#utility.yul\":6344:6475   */\n  tag_50\n  jump\t// in\ntag_119:\n    /* \"#utility.yul\":6336:6475   */\n  swap1\n  pop\n    /* \"#utility.yul\":6063:6482   */\n  swap2\n  swap1\n  pop\n  jump\t// out\n    /* \"#utility.yul\":6488:6668   */\ntag_18:\n    /* \"#utility.yul\":6536:6613   */\n  0x4e487b7100000000000000000000000000000000000000000000000000000000\n    /* \"#utility.yul\":6533:6534   */\n  0x00\n    /* \"#utility.yul\":6526:6614   */\n  mstore\n    /* \"#utility.yul\":6633:6637   */\n  0x32\n    /* \"#utility.yul\":6630:6631   */\n  0x04\n    /* \"#utility.yul\":6623:6638   */\n  mstore\n    /* \"#utility.yul\":6657:6661   */\n  0x24\n    /* \"#utility.yul\":6654:6655   */\n  0x00\n    /* \"#utility.yul\":6647:6662   */\n  revert\n    /* \"#utility.yul\":6674:6837   */\ntag_51:\n    /* \"#utility.yul\":6814:6829   */\n  0x696e76616c6964206f776e657200000000000000000000000000000000000000\n    /* \"#utility.yul\":6810:6811   */\n  0x00\n    /* \"#utility.yul\":6802:6808   */\n  dup3\n    /* \"#utility.yul\":6798:6812   */\n  add\n    /* \"#utility.yul\":6791:6830   */\n  mstore\n    /* \"#utility.yul\":6674:6837   */\n  pop\n  jump\t// out\n    /* \"#utility.yul\":6843:7209   */\ntag_52:\n    /* \"#utility.yul\":6985:6988   */\n  0x00\n    /* \"#utility.yul\":7006:7073   */\n  tag_123\n    /* \"#utility.yul\":7070:7072   */\n  0x0d\n    /* \"#utility.yul\":7065:7068   */\n  dup4\n    /* \"#utility.yul\":7006:7073   */\n  tag_46\n  jump\t// in\ntag_123:\n    /* \"#utility.yul\":6999:7073   */\n  swap2\n  pop\n    /* \"#utility.yul\":7082:7175   */\n  tag_124\n    /* \"#utility.yul\":7171:7174   */\n  dup3\n    /* \"#utility.yul\":7082:7175   */\n  tag_51\n  jump\t// in\ntag_124:\n    /* \"#utility.yul\":7200:7202   */\n  0x20\n    /* \"#utility.yul\":7195:7198   */\n  dup3\n    /* \"#utility.yul\":7191:7203   */\n  add\n    /* \"#utility.yul\":7184:7203   */\n  swap1\n  pop\n    /* \"#utility.yul\":6843:7209   */\n  swap2\n  swap1\n  pop\n  jump\t// out\n    /* \"#utility.yul\":7215:7634   */\ntag_21:\n    /* \"#utility.yul\":7381:7385   */\n  0x00\n    /* \"#utility.yul\":7419:7421   */\n  0x20\n    /* \"#utility.yul\":7408:7417   */\n  dup3\n    /* \"#utility.yul\":7404:7422   */\n  add\n    /* \"#utility.yul\":7396:7422   */\n  swap1\n  pop\n    /* \"#utility.yul\":7468:7477   */\n  dup2\n    /* \"#utility.yul\":7462:7466   */\n  dup2\n    /* \"#utility.yul\":7458:7478   */\n  sub\n    /* \"#utility.yul\":7454:7455   */\n  0x00\n    /* \"#utility.yul\":7443:7452   */\n  dup4\n    /* \"#utility.yul\":7439:7456   */\n  add\n    /* \"#utility.yul\":7432:7479   */\n  mstore\n    /* \"#utility.yul\":7496:7627   */\n  tag_126\n    /* \"#utility.yul\":7622:7626   */\n  dup2\n    /* \"#utility.yul\":7496:7627   */\n  tag_52\n  jump\t// in\ntag_126:\n    /* \"#utility.yul\":7488:7627   */\n  swap1\n  pop\n    /* \"#utility.yul\":7215:7634   */\n  swap2\n  swap1\n  pop\n  jump\t// out\n    /* \"#utility.yul\":7640:7811   */\ntag_53:\n    /* \"#utility.yul\":7780:7803   */\n  0x756e69717565206f776e65722072657175697265640000000000000000000000\n    /* \"#utility.yul\":7776:7777   */\n  0x00\n    /* \"#utility.yul\":7768:7774   */\n  dup3\n    /* \"#utility.yul\":7764:7778   */\n  add\n    /* \"#utility.yul\":7757:7804   */\n  mstore\n    /* \"#utility.yul\":7640:7811   */\n  pop\n  jump\t// out\n    /* \"#utility.yul\":7817:8183   */\ntag_54:\n    /* \"#utility.yul\":7959:7962   */\n  0x00\n    /* \"#utility.yul\":7980:8047   */\n  tag_129\n    /* \"#utility.yul\":8044:8046   */\n  0x15\n    /* \"#utility.yul\":8039:8042   */\n  dup4\n    /* \"#utility.yul\":7980:8047   */\n  tag_46\n  jump\t// in\ntag_129:\n    /* \"#utility.yul\":7973:8047   */\n  swap2\n  pop\n    /* \"#utility.yul\":8056:8149   */\n  tag_130\n    /* \"#utility.yul\":8145:8148   */\n  dup3\n    /* \"#utility.yul\":8056:8149   */\n  tag_53\n  jump\t// in\ntag_130:\n    /* \"#utility.yul\":8174:8176   */\n  0x20\n    /* \"#utility.yul\":8169:8172   */\n  dup3\n    /* \"#utility.yul\":8165:8177   */\n  add\n    /* \"#utility.yul\":8158:8177   */\n  swap1\n  pop\n    /* \"#utility.yul\":7817:8183   */\n  swap2\n  swap1\n  pop\n  jump\t// out\n    /* \"#utility.yul\":8189:8608   */\ntag_24:\n    /* \"#utility.yul\":8355:8359   */\n  0x00\n    /* \"#utility.yul\":8393:8395   */\n  0x20\n    /* \"#utility.yul\":8382:8391   */\n  dup3\n    /* \"#utility.yul\":8378:8396   */\n  add\n    /* \"#utility.yul\":8370:8396   */\n  swap1\n  pop\n    /* \"#utility.yul\":8442:8451   */\n  dup2\n    /* \"#utility.yul\":8436:8440   */\n  dup2\n    /* \"#utility.yul\":8432:8452   */\n  sub\n    /* \"#utility.yul\":8428:8429   */\n  0x00\n    /* \"#utility.yul\":8417:8426   */\n  dup4\n    /* \"#utility.yul\":8413:8430   */\n  add\n    /* \"#utility.yul\":8406:8453   */\n  mstore\n    /* \"#utility.yul\":8470:8601   */\n  tag_132\n    /* \"#utility.yul\":8596:8600   */\n  dup2\n    /* \"#utility.yul\":8470:8601   */\n  tag_54\n  jump\t// in\ntag_132:\n    /* \"#utility.yul\":8462:8601   */\n  swap1\n  pop\n    /* \"#utility.yul\":8189:8608   */\n  swap2\n  swap1\n  pop\n  jump\t// out\n    /* \"contracts/Multisig_wallet.sol\":68:3151  contract wallet{... */\ntag_26:\n  dataSize(sub_0)\n  dup1\n  dataOffset(sub_0)\n  0x00\n  codecopy\n  0x00\n  return\nstop\n\nsub_0: assembly {\n        /* \"contracts/Multisig_wallet.sol\":68:3151  contract wallet{... */\n      mstore(0x40, 0x80)\n      jumpi(tag_1, lt(calldatasize, 0x04))\n      shr(0xe0, calldataload(0x00))\n      dup1\n      0x80f59a65\n      gt\n      tag_12\n      jumpi\n      dup1\n      0x80f59a65\n      eq\n      tag_7\n      jumpi\n      dup1\n      0x9ace38c2\n      eq\n      tag_8\n      jumpi\n      dup1\n      0xb759f954\n      eq\n      tag_9\n      jumpi\n      dup1\n      0xd3ecebd7\n      eq\n      tag_10\n      jumpi\n      dup1\n      0xdc8452cd\n      eq\n      tag_11\n      jumpi\n      jump(tag_2)\n    tag_12:\n      dup1\n      0x025e7c27\n      eq\n      tag_3\n      jumpi\n      dup1\n      0x203dd666\n      eq\n      tag_4\n      jumpi\n      dup1\n      0x20c5429b\n      eq\n      tag_5\n      jumpi\n      dup1\n      0x2f54bf6e\n      eq\n      tag_6\n      jumpi\n      jump(tag_2)\n    tag_1:\n      jumpi(tag_2, calldatasize)\n      stop\n    tag_2:\n      0x00\n      dup1\n      revert\n        /* \"contracts/Multisig_wallet.sol\":602:625  address[] public owners */\n    tag_3:\n      callvalue\n      dup1\n      iszero\n      tag_15\n      jumpi\n      0x00\n      dup1\n      revert\n    tag_15:\n      pop\n      tag_16\n      0x04\n      dup1\n      calldatasize\n      sub\n      dup2\n      add\n      swap1\n      tag_17\n      swap2\n      swap1\n      tag_18\n      jump\t// in\n    tag_17:\n      tag_19\n      jump\t// in\n    tag_16:\n      mload(0x40)\n      tag_20\n      swap2\n      swap1\n      tag_21\n      jump\t// in\n    tag_20:\n      mload(0x40)\n      dup1\n      swap2\n      sub\n      swap1\n      return\n        /* \"contracts/Multisig_wallet.sol\":1744:2070  function submit(address payable _to,uint amount)public  onlyOwners{... */\n    tag_4:\n      callvalue\n      dup1\n      iszero\n      tag_22\n      jumpi\n      0x00\n      dup1\n      revert\n    tag_22:\n      pop\n      tag_23\n      0x04\n      dup1\n      calldatasize\n      sub\n      dup2\n      add\n      swap1\n      tag_24\n      swap2\n      swap1\n      tag_25\n      jump\t// in\n    tag_24:\n      tag_26\n      jump\t// in\n    tag_23:\n      stop\n        /* \"contracts/Multisig_wallet.sol\":2844:3149  function revoke(uint _txnid) public onlyOwners txnExists(_txnid) notApproved(_txnid){... */\n    tag_5:\n      callvalue\n      dup1\n      iszero\n      tag_27\n      jumpi\n      0x00\n      dup1\n      revert\n    tag_27:\n      pop\n      tag_28\n      0x04\n      dup1\n      calldatasize\n      sub\n      dup2\n      add\n      swap1\n      tag_29\n      swap2\n      swap1\n      tag_18\n      jump\t// in\n    tag_29:\n      tag_30\n      jump\t// in\n    tag_28:\n      stop\n        /* \"contracts/Multisig_wallet.sol\":631:667  mapping(address=>bool)public isOwner */\n    tag_6:\n      callvalue\n      dup1\n      iszero\n      tag_31\n      jumpi\n      0x00\n      dup1\n      revert\n    tag_31:\n      pop\n      tag_32\n      0x04\n      dup1\n      calldatasize\n      sub\n      dup2\n      add\n      swap1\n      tag_33\n      swap2\n      swap1\n      tag_34\n      jump\t// in\n    tag_33:\n      tag_35\n      jump\t// in\n    tag_32:\n      mload(0x40)\n      tag_36\n      swap2\n      swap1\n      tag_37\n      jump\t// in\n    tag_36:\n      mload(0x40)\n      dup1\n      swap2\n      sub\n      swap1\n      return\n        /* \"contracts/Multisig_wallet.sol\":1522:1577  mapping(uint=>mapping(address=>bool))public isConfirmed */\n    tag_7:\n      callvalue\n      dup1\n      iszero\n      tag_38\n      jumpi\n      0x00\n      dup1\n      revert\n    tag_38:\n      pop\n      tag_39\n      0x04\n      dup1\n      calldatasize\n      sub\n      dup2\n      add\n      swap1\n      tag_40\n      swap2\n      swap1\n      tag_41\n      jump\t// in\n    tag_40:\n      tag_42\n      jump\t// in\n    tag_39:\n      mload(0x40)\n      tag_43\n      swap2\n      swap1\n      tag_37\n      jump\t// in\n    tag_43:\n      mload(0x40)\n      dup1\n      swap2\n      sub\n      swap1\n      return\n        /* \"contracts/Multisig_wallet.sol\":563:596  Transaction[] public transactions */\n    tag_8:\n      callvalue\n      dup1\n      iszero\n      tag_44\n      jumpi\n      0x00\n      dup1\n      revert\n    tag_44:\n      pop\n      tag_45\n      0x04\n      dup1\n      calldatasize\n      sub\n      dup2\n      add\n      swap1\n      tag_46\n      swap2\n      swap1\n      tag_18\n      jump\t// in\n    tag_46:\n      tag_47\n      jump\t// in\n    tag_45:\n      mload(0x40)\n      tag_48\n      swap5\n      swap4\n      swap3\n      swap2\n      swap1\n      tag_49\n      jump\t// in\n    tag_48:\n      mload(0x40)\n      dup1\n      swap2\n      sub\n      swap1\n      return\n        /* \"contracts/Multisig_wallet.sol\":2076:2391  function approve(uint _txnid)public onlyOwners ... */\n    tag_9:\n      callvalue\n      dup1\n      iszero\n      tag_50\n      jumpi\n      0x00\n      dup1\n      revert\n    tag_50:\n      pop\n      tag_51\n      0x04\n      dup1\n      calldatasize\n      sub\n      dup2\n      add\n      swap1\n      tag_52\n      swap2\n      swap1\n      tag_18\n      jump\t// in\n    tag_52:\n      tag_53\n      jump\t// in\n    tag_51:\n      stop\n        /* \"contracts/Multisig_wallet.sol\":2397:2838  function executed(uint _txnid)public onlyOwners... */\n    tag_10:\n      callvalue\n      dup1\n      iszero\n      tag_54\n      jumpi\n      0x00\n      dup1\n      revert\n    tag_54:\n      pop\n      tag_55\n      0x04\n      dup1\n      calldatasize\n      sub\n      dup2\n      add\n      swap1\n      tag_56\n      swap2\n      swap1\n      tag_18\n      jump\t// in\n    tag_56:\n      tag_57\n      jump\t// in\n    tag_55:\n      stop\n        /* \"contracts/Multisig_wallet.sol\":406:426  uint public required */\n    tag_11:\n      callvalue\n      dup1\n      iszero\n      tag_58\n      jumpi\n      0x00\n      dup1\n      revert\n    tag_58:\n      pop\n      tag_59\n      tag_60\n      jump\t// in\n    tag_59:\n      mload(0x40)\n      tag_61\n      swap2\n      swap1\n      tag_62\n      jump\t// in\n    tag_61:\n      mload(0x40)\n      dup1\n      swap2\n      sub\n      swap1\n      return\n        /* \"contracts/Multisig_wallet.sol\":602:625  address[] public owners */\n    tag_19:\n      0x02\n      dup2\n      dup2\n      sload\n      dup2\n      lt\n      tag_63\n      jumpi\n      0x00\n      dup1\n      revert\n    tag_63:\n      swap1\n      0x00\n      mstore\n      keccak256(0x00, 0x20)\n      add\n      0x00\n      swap2\n      pop\n      sload\n      swap1\n      0x0100\n      exp\n      swap1\n      div\n      0xffffffffffffffffffffffffffffffffffffffff\n      and\n      dup2\n      jump\t// out\n        /* \"contracts/Multisig_wallet.sol\":1744:2070  function submit(address payable _to,uint amount)public  onlyOwners{... */\n    tag_26:\n        /* \"contracts/Multisig_wallet.sol\":1231:1238  isOwner */\n      0x03\n        /* \"contracts/Multisig_wallet.sol\":1231:1250  isOwner[msg.sender] */\n      0x00\n        /* \"contracts/Multisig_wallet.sol\":1239:1249  msg.sender */\n      caller\n        /* \"contracts/Multisig_wallet.sol\":1231:1250  isOwner[msg.sender] */\n      0xffffffffffffffffffffffffffffffffffffffff\n      and\n      0xffffffffffffffffffffffffffffffffffffffff\n      and\n      dup2\n      mstore\n      0x20\n      add\n      swap1\n      dup2\n      mstore\n      0x20\n      add\n      0x00\n      keccak256\n      0x00\n      swap1\n      sload\n      swap1\n      0x0100\n      exp\n      swap1\n      div\n      0xff\n      and\n        /* \"contracts/Multisig_wallet.sol\":1223:1267  require(isOwner[msg.sender],\"invalid owner\") */\n      tag_66\n      jumpi\n      mload(0x40)\n      0x08c379a000000000000000000000000000000000000000000000000000000000\n      dup2\n      mstore\n      0x04\n      add\n      tag_67\n      swap1\n      tag_68\n      jump\t// in\n    tag_67:\n      mload(0x40)\n      dup1\n      swap2\n      sub\n      swap1\n      revert\n    tag_66:\n        /* \"contracts/Multisig_wallet.sol\":1820:1830  uint txnid */\n      0x00\n        /* \"contracts/Multisig_wallet.sol\":1831:1843  transactions */\n      0x01\n        /* \"contracts/Multisig_wallet.sol\":1831:1850  transactions.length */\n      dup1\n      sload\n      swap1\n      pop\n        /* \"contracts/Multisig_wallet.sol\":1820:1850  uint txnid=transactions.length */\n      swap1\n      pop\n        /* \"contracts/Multisig_wallet.sol\":1860:1872  transactions */\n      0x01\n        /* \"contracts/Multisig_wallet.sol\":1878:2006  Transaction({... */\n      mload(0x40)\n      dup1\n      0x80\n      add\n      0x40\n      mstore\n      dup1\n        /* \"contracts/Multisig_wallet.sol\":1907:1910  _to */\n      dup6\n        /* \"contracts/Multisig_wallet.sol\":1878:2006  Transaction({... */\n      0xffffffffffffffffffffffffffffffffffffffff\n      and\n      dup2\n      mstore\n      0x20\n      add\n        /* \"contracts/Multisig_wallet.sol\":1930:1936  amount */\n      dup5\n        /* \"contracts/Multisig_wallet.sol\":1878:2006  Transaction({... */\n      dup2\n      mstore\n      0x20\n      add\n        /* \"contracts/Multisig_wallet.sol\":1966:1967  0 */\n      0x00\n        /* \"contracts/Multisig_wallet.sol\":1878:2006  Transaction({... */\n      dup2\n      mstore\n      0x20\n      add\n        /* \"contracts/Multisig_wallet.sol\":1990:1995  false */\n      0x00\n        /* \"contracts/Multisig_wallet.sol\":1878:2006  Transaction({... */\n      iszero\n      iszero\n      dup2\n      mstore\n      pop\n        /* \"contracts/Multisig_wallet.sol\":1860:2007  transactions.push(Transaction({... */\n      swap1\n      dup1\n      0x01\n      dup2\n      sload\n      add\n      dup1\n      dup3\n      sstore\n      dup1\n      swap2\n      pop\n      pop\n      0x01\n      swap1\n      sub\n      swap1\n      0x00\n      mstore\n      keccak256(0x00, 0x20)\n      swap1\n      0x04\n      mul\n      add\n      0x00\n      swap1\n      swap2\n      swap1\n      swap2\n      swap1\n      swap2\n      pop\n      0x00\n      dup3\n      add\n      mload\n      dup2\n      0x00\n      add\n      exp(0x0100, 0x00)\n      dup2\n      sload\n      dup2\n      0xffffffffffffffffffffffffffffffffffffffff\n      mul\n      not\n      and\n      swap1\n      dup4\n      0xffffffffffffffffffffffffffffffffffffffff\n      and\n      mul\n      or\n      swap1\n      sstore\n      pop\n      0x20\n      dup3\n      add\n      mload\n      dup2\n      0x01\n      add\n      sstore\n      0x40\n      dup3\n      add\n      mload\n      dup2\n      0x02\n      add\n      sstore\n      0x60\n      dup3\n      add\n      mload\n      dup2\n      0x03\n      add\n      exp(0x0100, 0x00)\n      dup2\n      sload\n      dup2\n      0xff\n      mul\n      not\n      and\n      swap1\n      dup4\n      iszero\n      iszero\n      mul\n      or\n      swap1\n      sstore\n      pop\n      pop\n      pop\n        /* \"contracts/Multisig_wallet.sol\":2051:2054  _to */\n      dup3\n        /* \"contracts/Multisig_wallet.sol\":2022:2063  Submitted(msg.sender, txnid, _to, amount) */\n      0xffffffffffffffffffffffffffffffffffffffff\n      and\n        /* \"contracts/Multisig_wallet.sol\":2032:2042  msg.sender */\n      caller\n        /* \"contracts/Multisig_wallet.sol\":2022:2063  Submitted(msg.sender, txnid, _to, amount) */\n      0xffffffffffffffffffffffffffffffffffffffff\n      and\n      0x3fb97b920c2c07679e3e95269702a384038f15c8650ca65821c1d2f1c4bb4878\n        /* \"contracts/Multisig_wallet.sol\":2044:2049  txnid */\n      dup4\n        /* \"contracts/Multisig_wallet.sol\":2056:2062  amount */\n      dup6\n        /* \"contracts/Multisig_wallet.sol\":2022:2063  Submitted(msg.sender, txnid, _to, amount) */\n      mload(0x40)\n      tag_71\n      swap3\n      swap2\n      swap1\n      tag_72\n      jump\t// in\n    tag_71:\n      mload(0x40)\n      dup1\n      swap2\n      sub\n      swap1\n      log3\n        /* \"contracts/Multisig_wallet.sol\":1810:2070  {... */\n      pop\n        /* \"contracts/Multisig_wallet.sol\":1744:2070  function submit(address payable _to,uint amount)public  onlyOwners{... */\n      pop\n      pop\n      jump\t// out\n        /* \"contracts/Multisig_wallet.sol\":2844:3149  function revoke(uint _txnid) public onlyOwners txnExists(_txnid) notApproved(_txnid){... */\n    tag_30:\n        /* \"contracts/Multisig_wallet.sol\":1231:1238  isOwner */\n      0x03\n        /* \"contracts/Multisig_wallet.sol\":1231:1250  isOwner[msg.sender] */\n      0x00\n        /* \"contracts/Multisig_wallet.sol\":1239:1249  msg.sender */\n      caller\n        /* \"contracts/Multisig_wallet.sol\":1231:1250  isOwner[msg.sender] */\n      0xffffffffffffffffffffffffffffffffffffffff\n      and\n      0xffffffffffffffffffffffffffffffffffffffff\n      and\n      dup2\n      mstore\n      0x20\n      add\n      swap1\n      dup2\n      mstore\n      0x20\n      add\n      0x00\n      keccak256\n      0x00\n      swap1\n      sload\n      swap1\n      0x0100\n      exp\n      swap1\n      div\n      0xff\n      and\n        /* \"contracts/Multisig_wallet.sol\":1223:1267  require(isOwner[msg.sender],\"invalid owner\") */\n      tag_74\n      jumpi\n      mload(0x40)\n      0x08c379a000000000000000000000000000000000000000000000000000000000\n      dup2\n      mstore\n      0x04\n      add\n      tag_75\n      swap1\n      tag_68\n      jump\t// in\n    tag_75:\n      mload(0x40)\n      dup1\n      swap2\n      sub\n      swap1\n      revert\n    tag_74:\n        /* \"contracts/Multisig_wallet.sol\":2901:2907  _txnid */\n      dup1\n        /* \"contracts/Multisig_wallet.sol\":1346:1358  transactions */\n      0x01\n        /* \"contracts/Multisig_wallet.sol\":1346:1365  transactions.length */\n      dup1\n      sload\n      swap1\n      pop\n        /* \"contracts/Multisig_wallet.sol\":1339:1344  txnid */\n      dup2\n        /* \"contracts/Multisig_wallet.sol\":1339:1365  txnid<=transactions.length */\n      gt\n      iszero\n        /* \"contracts/Multisig_wallet.sol\":1331:1376  require(txnid<=transactions.length,\"invalid\") */\n      tag_77\n      jumpi\n      mload(0x40)\n      0x08c379a000000000000000000000000000000000000000000000000000000000\n      dup2\n      mstore\n      0x04\n      add\n      tag_78\n      swap1\n      tag_79\n      jump\t// in\n    tag_78:\n      mload(0x40)\n      dup1\n      swap2\n      sub\n      swap1\n      revert\n    tag_77:\n        /* \"contracts/Multisig_wallet.sol\":2921:2927  _txnid */\n      dup2\n        /* \"contracts/Multisig_wallet.sol\":1634:1645  isConfirmed */\n      0x04\n        /* \"contracts/Multisig_wallet.sol\":1634:1652  isConfirmed[txnid] */\n      0x00\n        /* \"contracts/Multisig_wallet.sol\":1646:1651  txnid */\n      dup3\n        /* \"contracts/Multisig_wallet.sol\":1634:1652  isConfirmed[txnid] */\n      dup2\n      mstore\n      0x20\n      add\n      swap1\n      dup2\n      mstore\n      0x20\n      add\n      0x00\n      keccak256\n        /* \"contracts/Multisig_wallet.sol\":1634:1664  isConfirmed[txnid][msg.sender] */\n      0x00\n        /* \"contracts/Multisig_wallet.sol\":1653:1663  msg.sender */\n      caller\n        /* \"contracts/Multisig_wallet.sol\":1634:1664  isConfirmed[txnid][msg.sender] */\n      0xffffffffffffffffffffffffffffffffffffffff\n      and\n      0xffffffffffffffffffffffffffffffffffffffff\n      and\n      dup2\n      mstore\n      0x20\n      add\n      swap1\n      dup2\n      mstore\n      0x20\n      add\n      0x00\n      keccak256\n      0x00\n      swap1\n      sload\n      swap1\n      0x0100\n      exp\n      swap1\n      div\n      0xff\n      and\n        /* \"contracts/Multisig_wallet.sol\":1633:1664  !isConfirmed[txnid][msg.sender] */\n      iszero\n        /* \"contracts/Multisig_wallet.sol\":1625:1684  require(!isConfirmed[txnid][msg.sender],\"already approved\") */\n      tag_81\n      jumpi\n      mload(0x40)\n      0x08c379a000000000000000000000000000000000000000000000000000000000\n      dup2\n      mstore\n      0x04\n      add\n      tag_82\n      swap1\n      tag_83\n      jump\t// in\n    tag_82:\n      mload(0x40)\n      dup1\n      swap2\n      sub\n      swap1\n      revert\n    tag_81:\n        /* \"contracts/Multisig_wallet.sol\":2938:2969  Transaction storage transaction */\n      0x00\n        /* \"contracts/Multisig_wallet.sol\":2970:2982  transactions */\n      0x01\n        /* \"contracts/Multisig_wallet.sol\":2983:2989  _txnid */\n      dup5\n        /* \"contracts/Multisig_wallet.sol\":2970:2990  transactions[_txnid] */\n      dup2\n      sload\n      dup2\n      lt\n      tag_85\n      jumpi\n      tag_86\n      tag_87\n      jump\t// in\n    tag_86:\n    tag_85:\n      swap1\n      0x00\n      mstore\n      keccak256(0x00, 0x20)\n      swap1\n      0x04\n      mul\n      add\n        /* \"contracts/Multisig_wallet.sol\":2938:2990  Transaction storage transaction=transactions[_txnid] */\n      swap1\n      pop\n        /* \"contracts/Multisig_wallet.sol\":3008:3019  isConfirmed */\n      0x04\n        /* \"contracts/Multisig_wallet.sol\":3008:3027  isConfirmed[_txnid] */\n      0x00\n        /* \"contracts/Multisig_wallet.sol\":3020:3026  _txnid */\n      dup6\n        /* \"contracts/Multisig_wallet.sol\":3008:3027  isConfirmed[_txnid] */\n      dup2\n      mstore\n      0x20\n      add\n      swap1\n      dup2\n      mstore\n      0x20\n      add\n      0x00\n      keccak256\n        /* \"contracts/Multisig_wallet.sol\":3008:3039  isConfirmed[_txnid][msg.sender] */\n      0x00\n        /* \"contracts/Multisig_wallet.sol\":3028:3038  msg.sender */\n      caller\n        /* \"contracts/Multisig_wallet.sol\":3008:3039  isConfirmed[_txnid][msg.sender] */\n      0xffffffffffffffffffffffffffffffffffffffff\n      and\n      0xffffffffffffffffffffffffffffffffffffffff\n      and\n      dup2\n      mstore\n      0x20\n      add\n      swap1\n      dup2\n      mstore\n      0x20\n      add\n      0x00\n      keccak256\n      0x00\n      swap1\n      sload\n      swap1\n      0x0100\n      exp\n      swap1\n      div\n      0xff\n      and\n        /* \"contracts/Multisig_wallet.sol\":3000:3056  require(isConfirmed[_txnid][msg.sender],\"not confirmed\") */\n      tag_89\n      jumpi\n      mload(0x40)\n      0x08c379a000000000000000000000000000000000000000000000000000000000\n      dup2\n      mstore\n      0x04\n      add\n      tag_90\n      swap1\n      tag_91\n      jump\t// in\n    tag_90:\n      mload(0x40)\n      dup1\n      swap2\n      sub\n      swap1\n      revert\n    tag_89:\n        /* \"contracts/Multisig_wallet.sol\":3066:3077  transaction */\n      dup1\n        /* \"contracts/Multisig_wallet.sol\":3066:3093  transaction.numberConfirmed */\n      0x02\n      add\n      0x00\n        /* \"contracts/Multisig_wallet.sol\":3066:3095  transaction.numberConfirmed-- */\n      dup2\n      sload\n      dup1\n      swap3\n      swap2\n      swap1\n      tag_92\n      swap1\n      tag_93\n      jump\t// in\n    tag_92:\n      swap2\n      swap1\n      pop\n      sstore\n      pop\n        /* \"contracts/Multisig_wallet.sol\":3137:3142  false */\n      0x00\n        /* \"contracts/Multisig_wallet.sol\":3105:3116  isConfirmed */\n      0x04\n        /* \"contracts/Multisig_wallet.sol\":3105:3124  isConfirmed[_txnid] */\n      0x00\n        /* \"contracts/Multisig_wallet.sol\":3117:3123  _txnid */\n      dup7\n        /* \"contracts/Multisig_wallet.sol\":3105:3124  isConfirmed[_txnid] */\n      dup2\n      mstore\n      0x20\n      add\n      swap1\n      dup2\n      mstore\n      0x20\n      add\n      0x00\n      keccak256\n        /* \"contracts/Multisig_wallet.sol\":3105:3136  isConfirmed[_txnid][msg.sender] */\n      0x00\n        /* \"contracts/Multisig_wallet.sol\":3125:3135  msg.sender */\n      caller\n        /* \"contracts/Multisig_wallet.sol\":3105:3136  isConfirmed[_txnid][msg.sender] */\n      0xffffffffffffffffffffffffffffffffffffffff\n      and\n      0xffffffffffffffffffffffffffffffffffffffff\n      and\n      dup2\n      mstore\n      0x20\n      add\n      swap1\n      dup2\n      mstore\n      0x20\n      add\n      0x00\n      keccak256\n      0x00\n        /* \"contracts/Multisig_wallet.sol\":3105:3142  isConfirmed[_txnid][msg.sender]=false */\n      0x0100\n      exp\n      dup2\n      sload\n      dup2\n      0xff\n      mul\n      not\n      and\n      swap1\n      dup4\n      iszero\n      iszero\n      mul\n      or\n      swap1\n      sstore\n      pop\n        /* \"contracts/Multisig_wallet.sol\":2928:3149  {... */\n      pop\n        /* \"contracts/Multisig_wallet.sol\":1386:1387  _ */\n      pop\n        /* \"contracts/Multisig_wallet.sol\":1277:1278  _ */\n      pop\n        /* \"contracts/Multisig_wallet.sol\":2844:3149  function revoke(uint _txnid) public onlyOwners txnExists(_txnid) notApproved(_txnid){... */\n      pop\n      jump\t// out\n        /* \"contracts/Multisig_wallet.sol\":631:667  mapping(address=>bool)public isOwner */\n    tag_35:\n      mstore(0x20, 0x03)\n      dup1\n      0x00\n      mstore\n      keccak256(0x00, 0x40)\n      0x00\n      swap2\n      pop\n      sload\n      swap1\n      0x0100\n      exp\n      swap1\n      div\n      0xff\n      and\n      dup2\n      jump\t// out\n        /* \"contracts/Multisig_wallet.sol\":1522:1577  mapping(uint=>mapping(address=>bool))public isConfirmed */\n    tag_42:\n      mstore(0x20, 0x04)\n      dup2\n      0x00\n      mstore\n      mstore(0x20, keccak256(0x00, 0x40))\n      dup1\n      0x00\n      mstore\n      keccak256(0x00, 0x40)\n      0x00\n      swap2\n      pop\n      swap2\n      pop\n      swap1\n      sload\n      swap1\n      0x0100\n      exp\n      swap1\n      div\n      0xff\n      and\n      dup2\n      jump\t// out\n        /* \"contracts/Multisig_wallet.sol\":563:596  Transaction[] public transactions */\n    tag_47:\n      0x01\n      dup2\n      dup2\n      sload\n      dup2\n      lt\n      tag_94\n      jumpi\n      0x00\n      dup1\n      revert\n    tag_94:\n      swap1\n      0x00\n      mstore\n      keccak256(0x00, 0x20)\n      swap1\n      0x04\n      mul\n      add\n      0x00\n      swap2\n      pop\n      swap1\n      pop\n      dup1\n      0x00\n      add\n      0x00\n      swap1\n      sload\n      swap1\n      0x0100\n      exp\n      swap1\n      div\n      0xffffffffffffffffffffffffffffffffffffffff\n      and\n      swap1\n      dup1\n      0x01\n      add\n      sload\n      swap1\n      dup1\n      0x02\n      add\n      sload\n      swap1\n      dup1\n      0x03\n      add\n      0x00\n      swap1\n      sload\n      swap1\n      0x0100\n      exp\n      swap1\n      div\n      0xff\n      and\n      swap1\n      pop\n      dup5\n      jump\t// out\n        /* \"contracts/Multisig_wallet.sol\":2076:2391  function approve(uint _txnid)public onlyOwners ... */\n    tag_53:\n        /* \"contracts/Multisig_wallet.sol\":1231:1238  isOwner */\n      0x03\n        /* \"contracts/Multisig_wallet.sol\":1231:1250  isOwner[msg.sender] */\n      0x00\n        /* \"contracts/Multisig_wallet.sol\":1239:1249  msg.sender */\n      caller\n        /* \"contracts/Multisig_wallet.sol\":1231:1250  isOwner[msg.sender] */\n      0xffffffffffffffffffffffffffffffffffffffff\n      and\n      0xffffffffffffffffffffffffffffffffffffffff\n      and\n      dup2\n      mstore\n      0x20\n      add\n      swap1\n      dup2\n      mstore\n      0x20\n      add\n      0x00\n      keccak256\n      0x00\n      swap1\n      sload\n      swap1\n      0x0100\n      exp\n      swap1\n      div\n      0xff\n      and\n        /* \"contracts/Multisig_wallet.sol\":1223:1267  require(isOwner[msg.sender],\"invalid owner\") */\n      tag_97\n      jumpi\n      mload(0x40)\n      0x08c379a000000000000000000000000000000000000000000000000000000000\n      dup2\n      mstore\n      0x04\n      add\n      tag_98\n      swap1\n      tag_68\n      jump\t// in\n    tag_98:\n      mload(0x40)\n      dup1\n      swap2\n      sub\n      swap1\n      revert\n    tag_97:\n        /* \"contracts/Multisig_wallet.sol\":2138:2144  _txnid */\n      dup1\n        /* \"contracts/Multisig_wallet.sol\":1346:1358  transactions */\n      0x01\n        /* \"contracts/Multisig_wallet.sol\":1346:1365  transactions.length */\n      dup1\n      sload\n      swap1\n      pop\n        /* \"contracts/Multisig_wallet.sol\":1339:1344  txnid */\n      dup2\n        /* \"contracts/Multisig_wallet.sol\":1339:1365  txnid<=transactions.length */\n      gt\n      iszero\n        /* \"contracts/Multisig_wallet.sol\":1331:1376  require(txnid<=transactions.length,\"invalid\") */\n      tag_100\n      jumpi\n      mload(0x40)\n      0x08c379a000000000000000000000000000000000000000000000000000000000\n      dup2\n      mstore\n      0x04\n      add\n      tag_101\n      swap1\n      tag_79\n      jump\t// in\n    tag_101:\n      mload(0x40)\n      dup1\n      swap2\n      sub\n      swap1\n      revert\n    tag_100:\n        /* \"contracts/Multisig_wallet.sol\":2162:2168  _txnid */\n      dup2\n        /* \"contracts/Multisig_wallet.sol\":1451:1463  transactions */\n      0x01\n        /* \"contracts/Multisig_wallet.sol\":1464:1469  txnid */\n      dup2\n        /* \"contracts/Multisig_wallet.sol\":1451:1470  transactions[txnid] */\n      dup2\n      sload\n      dup2\n      lt\n      tag_103\n      jumpi\n      tag_104\n      tag_87\n      jump\t// in\n    tag_104:\n    tag_103:\n      swap1\n      0x00\n      mstore\n      keccak256(0x00, 0x20)\n      swap1\n      0x04\n      mul\n      add\n        /* \"contracts/Multisig_wallet.sol\":1451:1479  transactions[txnid].executed */\n      0x03\n      add\n      0x00\n      swap1\n      sload\n      swap1\n      0x0100\n      exp\n      swap1\n      div\n      0xff\n      and\n        /* \"contracts/Multisig_wallet.sol\":1450:1479  !transactions[txnid].executed */\n      iszero\n        /* \"contracts/Multisig_wallet.sol\":1442:1499  require(!transactions[txnid].executed,\"already executed\") */\n      tag_106\n      jumpi\n      mload(0x40)\n      0x08c379a000000000000000000000000000000000000000000000000000000000\n      dup2\n      mstore\n      0x04\n      add\n      tag_107\n      swap1\n      tag_108\n      jump\t// in\n    tag_107:\n      mload(0x40)\n      dup1\n      swap2\n      sub\n      swap1\n      revert\n    tag_106:\n        /* \"contracts/Multisig_wallet.sol\":2186:2192  _txnid */\n      dup3\n        /* \"contracts/Multisig_wallet.sol\":1634:1645  isConfirmed */\n      0x04\n        /* \"contracts/Multisig_wallet.sol\":1634:1652  isConfirmed[txnid] */\n      0x00\n        /* \"contracts/Multisig_wallet.sol\":1646:1651  txnid */\n      dup3\n        /* \"contracts/Multisig_wallet.sol\":1634:1652  isConfirmed[txnid] */\n      dup2\n      mstore\n      0x20\n      add\n      swap1\n      dup2\n      mstore\n      0x20\n      add\n      0x00\n      keccak256\n        /* \"contracts/Multisig_wallet.sol\":1634:1664  isConfirmed[txnid][msg.sender] */\n      0x00\n        /* \"contracts/Multisig_wallet.sol\":1653:1663  msg.sender */\n      caller\n        /* \"contracts/Multisig_wallet.sol\":1634:1664  isConfirmed[txnid][msg.sender] */\n      0xffffffffffffffffffffffffffffffffffffffff\n      and\n      0xffffffffffffffffffffffffffffffffffffffff\n      and\n      dup2\n      mstore\n      0x20\n      add\n      swap1\n      dup2\n      mstore\n      0x20\n      add\n      0x00\n      keccak256\n      0x00\n      swap1\n      sload\n      swap1\n      0x0100\n      exp\n      swap1\n      div\n      0xff\n      and\n        /* \"contracts/Multisig_wallet.sol\":1633:1664  !isConfirmed[txnid][msg.sender] */\n      iszero\n        /* \"contracts/Multisig_wallet.sol\":1625:1684  require(!isConfirmed[txnid][msg.sender],\"already approved\") */\n      tag_110\n      jumpi\n      mload(0x40)\n      0x08c379a000000000000000000000000000000000000000000000000000000000\n      dup2\n      mstore\n      0x04\n      add\n      tag_111\n      swap1\n      tag_83\n      jump\t// in\n    tag_111:\n      mload(0x40)\n      dup1\n      swap2\n      sub\n      swap1\n      revert\n    tag_110:\n        /* \"contracts/Multisig_wallet.sol\":2203:2234  Transaction storage transaction */\n      0x00\n        /* \"contracts/Multisig_wallet.sol\":2235:2247  transactions */\n      0x01\n        /* \"contracts/Multisig_wallet.sol\":2248:2254  _txnid */\n      dup6\n        /* \"contracts/Multisig_wallet.sol\":2235:2255  transactions[_txnid] */\n      dup2\n      sload\n      dup2\n      lt\n      tag_113\n      jumpi\n      tag_114\n      tag_87\n      jump\t// in\n    tag_114:\n    tag_113:\n      swap1\n      0x00\n      mstore\n      keccak256(0x00, 0x20)\n      swap1\n      0x04\n      mul\n      add\n        /* \"contracts/Multisig_wallet.sol\":2203:2255  Transaction storage transaction=transactions[_txnid] */\n      swap1\n      pop\n        /* \"contracts/Multisig_wallet.sol\":2265:2276  transaction */\n      dup1\n        /* \"contracts/Multisig_wallet.sol\":2265:2292  transaction.numberConfirmed */\n      0x02\n      add\n      0x00\n        /* \"contracts/Multisig_wallet.sol\":2265:2294  transaction.numberConfirmed++ */\n      dup2\n      sload\n      dup1\n      swap3\n      swap2\n      swap1\n      tag_116\n      swap1\n      tag_117\n      jump\t// in\n    tag_116:\n      swap2\n      swap1\n      pop\n      sstore\n      pop\n        /* \"contracts/Multisig_wallet.sol\":2336:2340  true */\n      0x01\n        /* \"contracts/Multisig_wallet.sol\":2304:2315  isConfirmed */\n      0x04\n        /* \"contracts/Multisig_wallet.sol\":2304:2323  isConfirmed[_txnid] */\n      0x00\n        /* \"contracts/Multisig_wallet.sol\":2316:2322  _txnid */\n      dup8\n        /* \"contracts/Multisig_wallet.sol\":2304:2323  isConfirmed[_txnid] */\n      dup2\n      mstore\n      0x20\n      add\n      swap1\n      dup2\n      mstore\n      0x20\n      add\n      0x00\n      keccak256\n        /* \"contracts/Multisig_wallet.sol\":2304:2335  isConfirmed[_txnid][msg.sender] */\n      0x00\n        /* \"contracts/Multisig_wallet.sol\":2324:2334  msg.sender */\n      caller\n        /* \"contracts/Multisig_wallet.sol\":2304:2335  isConfirmed[_txnid][msg.sender] */\n      0xffffffffffffffffffffffffffffffffffffffff\n      and\n      0xffffffffffffffffffffffffffffffffffffffff\n      and\n      dup2\n      mstore\n      0x20\n      add\n      swap1\n      dup2\n      mstore\n      0x20\n      add\n      0x00\n      keccak256\n      0x00\n        /* \"contracts/Multisig_wallet.sol\":2304:2340  isConfirmed[_txnid][msg.sender]=true */\n      0x0100\n      exp\n      dup2\n      sload\n      dup2\n      0xff\n      mul\n      not\n      and\n      swap1\n      dup4\n      iszero\n      iszero\n      mul\n      or\n      swap1\n      sstore\n      pop\n        /* \"contracts/Multisig_wallet.sol\":2365:2375  msg.sender */\n      caller\n        /* \"contracts/Multisig_wallet.sol\":2356:2384  Approved(msg.sender, _txnid) */\n      0xffffffffffffffffffffffffffffffffffffffff\n      and\n      0xf13bfe0b6ec5df39265dccb0a01a09aa4162489c7a083dc6670bde0255d02ca7\n        /* \"contracts/Multisig_wallet.sol\":2377:2383  _txnid */\n      dup7\n        /* \"contracts/Multisig_wallet.sol\":2356:2384  Approved(msg.sender, _txnid) */\n      mload(0x40)\n      tag_118\n      swap2\n      swap1\n      tag_62\n      jump\t// in\n    tag_118:\n      mload(0x40)\n      dup1\n      swap2\n      sub\n      swap1\n      log2\n        /* \"contracts/Multisig_wallet.sol\":2193:2391  {... */\n      pop\n        /* \"contracts/Multisig_wallet.sol\":1509:1510  _ */\n      pop\n        /* \"contracts/Multisig_wallet.sol\":1386:1387  _ */\n      pop\n        /* \"contracts/Multisig_wallet.sol\":1277:1278  _ */\n      pop\n        /* \"contracts/Multisig_wallet.sol\":2076:2391  function approve(uint _txnid)public onlyOwners ... */\n      pop\n      jump\t// out\n        /* \"contracts/Multisig_wallet.sol\":2397:2838  function executed(uint _txnid)public onlyOwners... */\n    tag_57:\n        /* \"contracts/Multisig_wallet.sol\":1231:1238  isOwner */\n      0x03\n        /* \"contracts/Multisig_wallet.sol\":1231:1250  isOwner[msg.sender] */\n      0x00\n        /* \"contracts/Multisig_wallet.sol\":1239:1249  msg.sender */\n      caller\n        /* \"contracts/Multisig_wallet.sol\":1231:1250  isOwner[msg.sender] */\n      0xffffffffffffffffffffffffffffffffffffffff\n      and\n      0xffffffffffffffffffffffffffffffffffffffff\n      and\n      dup2\n      mstore\n      0x20\n      add\n      swap1\n      dup2\n      mstore\n      0x20\n      add\n      0x00\n      keccak256\n      0x00\n      swap1\n      sload\n      swap1\n      0x0100\n      exp\n      swap1\n      div\n      0xff\n      and\n        /* \"contracts/Multisig_wallet.sol\":1223:1267  require(isOwner[msg.sender],\"invalid owner\") */\n      tag_120\n      jumpi\n      mload(0x40)\n      0x08c379a000000000000000000000000000000000000000000000000000000000\n      dup2\n      mstore\n      0x04\n      add\n      tag_121\n      swap1\n      tag_68\n      jump\t// in\n    tag_121:\n      mload(0x40)\n      dup1\n      swap2\n      sub\n      swap1\n      revert\n    tag_120:\n        /* \"contracts/Multisig_wallet.sol\":2459:2465  _txnid */\n      dup1\n        /* \"contracts/Multisig_wallet.sol\":1346:1358  transactions */\n      0x01\n        /* \"contracts/Multisig_wallet.sol\":1346:1365  transactions.length */\n      dup1\n      sload\n      swap1\n      pop\n        /* \"contracts/Multisig_wallet.sol\":1339:1344  txnid */\n      dup2\n        /* \"contracts/Multisig_wallet.sol\":1339:1365  txnid<=transactions.length */\n      gt\n      iszero\n        /* \"contracts/Multisig_wallet.sol\":1331:1376  require(txnid<=transactions.length,\"invalid\") */\n      tag_123\n      jumpi\n      mload(0x40)\n      0x08c379a000000000000000000000000000000000000000000000000000000000\n      dup2\n      mstore\n      0x04\n      add\n      tag_124\n      swap1\n      tag_79\n      jump\t// in\n    tag_124:\n      mload(0x40)\n      dup1\n      swap2\n      sub\n      swap1\n      revert\n    tag_123:\n        /* \"contracts/Multisig_wallet.sol\":2484:2490  _txnid */\n      dup2\n        /* \"contracts/Multisig_wallet.sol\":1451:1463  transactions */\n      0x01\n        /* \"contracts/Multisig_wallet.sol\":1464:1469  txnid */\n      dup2\n        /* \"contracts/Multisig_wallet.sol\":1451:1470  transactions[txnid] */\n      dup2\n      sload\n      dup2\n      lt\n      tag_126\n      jumpi\n      tag_127\n      tag_87\n      jump\t// in\n    tag_127:\n    tag_126:\n      swap1\n      0x00\n      mstore\n      keccak256(0x00, 0x20)\n      swap1\n      0x04\n      mul\n      add\n        /* \"contracts/Multisig_wallet.sol\":1451:1479  transactions[txnid].executed */\n      0x03\n      add\n      0x00\n      swap1\n      sload\n      swap1\n      0x0100\n      exp\n      swap1\n      div\n      0xff\n      and\n        /* \"contracts/Multisig_wallet.sol\":1450:1479  !transactions[txnid].executed */\n      iszero\n        /* \"contracts/Multisig_wallet.sol\":1442:1499  require(!transactions[txnid].executed,\"already executed\") */\n      tag_129\n      jumpi\n      mload(0x40)\n      0x08c379a000000000000000000000000000000000000000000000000000000000\n      dup2\n      mstore\n      0x04\n      add\n      tag_130\n      swap1\n      tag_108\n      jump\t// in\n    tag_130:\n      mload(0x40)\n      dup1\n      swap2\n      sub\n      swap1\n      revert\n    tag_129:\n        /* \"contracts/Multisig_wallet.sol\":2502:2533  Transaction storage transaction */\n      0x00\n        /* \"contracts/Multisig_wallet.sol\":2534:2546  transactions */\n      0x01\n        /* \"contracts/Multisig_wallet.sol\":2547:2553  _txnid */\n      dup5\n        /* \"contracts/Multisig_wallet.sol\":2534:2554  transactions[_txnid] */\n      dup2\n      sload\n      dup2\n      lt\n      tag_132\n      jumpi\n      tag_133\n      tag_87\n      jump\t// in\n    tag_133:\n    tag_132:\n      swap1\n      0x00\n      mstore\n      keccak256(0x00, 0x20)\n      swap1\n      0x04\n      mul\n      add\n        /* \"contracts/Multisig_wallet.sol\":2502:2554  Transaction storage transaction=transactions[_txnid] */\n      swap1\n      pop\n        /* \"contracts/Multisig_wallet.sol\":2601:2609  required */\n      sload(0x00)\n        /* \"contracts/Multisig_wallet.sol\":2572:2583  transaction */\n      dup2\n        /* \"contracts/Multisig_wallet.sol\":2572:2599  transaction.numberConfirmed */\n      0x02\n      add\n      sload\n        /* \"contracts/Multisig_wallet.sol\":2572:2609  transaction.numberConfirmed>=required */\n      lt\n      iszero\n        /* \"contracts/Multisig_wallet.sol\":2564:2637  require(transaction.numberConfirmed>=required,\"not enough confirmations\") */\n      tag_135\n      jumpi\n      mload(0x40)\n      0x08c379a000000000000000000000000000000000000000000000000000000000\n      dup2\n      mstore\n      0x04\n      add\n      tag_136\n      swap1\n      tag_137\n      jump\t// in\n    tag_136:\n      mload(0x40)\n      dup1\n      swap2\n      sub\n      swap1\n      revert\n    tag_135:\n        /* \"contracts/Multisig_wallet.sol\":2668:2672  true */\n      0x01\n        /* \"contracts/Multisig_wallet.sol\":2647:2658  transaction */\n      dup2\n        /* \"contracts/Multisig_wallet.sol\":2647:2667  transaction.executed */\n      0x03\n      add\n      0x00\n        /* \"contracts/Multisig_wallet.sol\":2647:2672  transaction.executed=true */\n      0x0100\n      exp\n      dup2\n      sload\n      dup2\n      0xff\n      mul\n      not\n      and\n      swap1\n      dup4\n      iszero\n      iszero\n      mul\n      or\n      swap1\n      sstore\n      pop\n        /* \"contracts/Multisig_wallet.sol\":2684:2696  bool success */\n      0x00\n        /* \"contracts/Multisig_wallet.sol\":2699:2710  transaction */\n      dup2\n        /* \"contracts/Multisig_wallet.sol\":2699:2713  transaction.to */\n      0x00\n      add\n      0x00\n      swap1\n      sload\n      swap1\n      0x0100\n      exp\n      swap1\n      div\n      0xffffffffffffffffffffffffffffffffffffffff\n      and\n        /* \"contracts/Multisig_wallet.sol\":2699:2718  transaction.to.call */\n      0xffffffffffffffffffffffffffffffffffffffff\n      and\n        /* \"contracts/Multisig_wallet.sol\":2725:2736  transaction */\n      dup3\n        /* \"contracts/Multisig_wallet.sol\":2725:2742  transaction.value */\n      0x01\n      add\n      sload\n        /* \"contracts/Multisig_wallet.sol\":2699:2747  transaction.to.call{value:transaction.value}(\"\") */\n      mload(0x40)\n      tag_138\n      swap1\n      tag_139\n      jump\t// in\n    tag_138:\n      0x00\n      mload(0x40)\n      dup1\n      dup4\n      sub\n      dup2\n      dup6\n      dup8\n      gas\n      call\n      swap3\n      pop\n      pop\n      pop\n      returndatasize\n      dup1\n      0x00\n      dup2\n      eq\n      tag_142\n      jumpi\n      mload(0x40)\n      swap2\n      pop\n      and(add(returndatasize, 0x3f), not(0x1f))\n      dup3\n      add\n      0x40\n      mstore\n      returndatasize\n      dup3\n      mstore\n      returndatasize\n      0x00\n      0x20\n      dup5\n      add\n      returndatacopy\n      jump(tag_141)\n    tag_142:\n      0x60\n      swap2\n      pop\n    tag_141:\n      pop\n        /* \"contracts/Multisig_wallet.sol\":2683:2747  (bool success,)=transaction.to.call{value:transaction.value}(\"\") */\n      pop\n      swap1\n      pop\n        /* \"contracts/Multisig_wallet.sol\":2765:2772  success */\n      dup1\n        /* \"contracts/Multisig_wallet.sol\":2757:2788  require(success,\"not executed\") */\n      tag_143\n      jumpi\n      mload(0x40)\n      0x08c379a000000000000000000000000000000000000000000000000000000000\n      dup2\n      mstore\n      0x04\n      add\n      tag_144\n      swap1\n      tag_145\n      jump\t// in\n    tag_144:\n      mload(0x40)\n      dup1\n      swap2\n      sub\n      swap1\n      revert\n    tag_143:\n        /* \"contracts/Multisig_wallet.sol\":2812:2822  msg.sender */\n      caller\n        /* \"contracts/Multisig_wallet.sol\":2803:2831  Executed(msg.sender, _txnid) */\n      0xffffffffffffffffffffffffffffffffffffffff\n      and\n      0x6f6c6d78a4851d4c222c8404fc92372ee84b7b81054305ae8ea3c83c2dabd42e\n        /* \"contracts/Multisig_wallet.sol\":2824:2830  _txnid */\n      dup7\n        /* \"contracts/Multisig_wallet.sol\":2803:2831  Executed(msg.sender, _txnid) */\n      mload(0x40)\n      tag_146\n      swap2\n      swap1\n      tag_62\n      jump\t// in\n    tag_146:\n      mload(0x40)\n      dup1\n      swap2\n      sub\n      swap1\n      log2\n        /* \"contracts/Multisig_wallet.sol\":2492:2838  {... */\n      pop\n      pop\n        /* \"contracts/Multisig_wallet.sol\":1386:1387  _ */\n      pop\n        /* \"contracts/Multisig_wallet.sol\":1277:1278  _ */\n      pop\n        /* \"contracts/Multisig_wallet.sol\":2397:2838  function executed(uint _txnid)public onlyOwners... */\n      pop\n      jump\t// out\n        /* \"contracts/Multisig_wallet.sol\":406:426  uint public required */\n    tag_60:\n      sload(0x00)\n      dup2\n      jump\t// out\n        /* \"#utility.yul\":88:205   */\n    tag_148:\n        /* \"#utility.yul\":197:198   */\n      0x00\n        /* \"#utility.yul\":194:195   */\n      dup1\n        /* \"#utility.yul\":187:199   */\n      revert\n        /* \"#utility.yul\":334:411   */\n    tag_150:\n        /* \"#utility.yul\":371:378   */\n      0x00\n        /* \"#utility.yul\":400:405   */\n      dup2\n        /* \"#utility.yul\":389:405   */\n      swap1\n      pop\n        /* \"#utility.yul\":334:411   */\n      swap2\n      swap1\n      pop\n      jump\t// out\n        /* \"#utility.yul\":417:539   */\n    tag_151:\n        /* \"#utility.yul\":490:514   */\n      tag_190\n        /* \"#utility.yul\":508:513   */\n      dup2\n        /* \"#utility.yul\":490:514   */\n      tag_150\n      jump\t// in\n    tag_190:\n        /* \"#utility.yul\":483:488   */\n      dup2\n        /* \"#utility.yul\":480:515   */\n      eq\n        /* \"#utility.yul\":470:533   */\n      tag_191\n      jumpi\n        /* \"#utility.yul\":529:530   */\n      0x00\n        /* \"#utility.yul\":526:527   */\n      dup1\n        /* \"#utility.yul\":519:531   */\n      revert\n        /* \"#utility.yul\":470:533   */\n    tag_191:\n        /* \"#utility.yul\":417:539   */\n      pop\n      jump\t// out\n        /* \"#utility.yul\":545:684   */\n    tag_152:\n        /* \"#utility.yul\":591:596   */\n      0x00\n        /* \"#utility.yul\":629:635   */\n      dup2\n        /* \"#utility.yul\":616:636   */\n      calldataload\n        /* \"#utility.yul\":607:636   */\n      swap1\n      pop\n        /* \"#utility.yul\":645:678   */\n      tag_193\n        /* \"#utility.yul\":672:677   */\n      dup2\n        /* \"#utility.yul\":645:678   */\n      tag_151\n      jump\t// in\n    tag_193:\n        /* \"#utility.yul\":545:684   */\n      swap3\n      swap2\n      pop\n      pop\n      jump\t// out\n        /* \"#utility.yul\":690:1019   */\n    tag_18:\n        /* \"#utility.yul\":749:755   */\n      0x00\n        /* \"#utility.yul\":798:800   */\n      0x20\n        /* \"#utility.yul\":786:795   */\n      dup3\n        /* \"#utility.yul\":777:784   */\n      dup5\n        /* \"#utility.yul\":773:796   */\n      sub\n        /* \"#utility.yul\":769:801   */\n      slt\n        /* \"#utility.yul\":766:885   */\n      iszero\n      tag_195\n      jumpi\n        /* \"#utility.yul\":804:883   */\n      tag_196\n      tag_148\n      jump\t// in\n    tag_196:\n        /* \"#utility.yul\":766:885   */\n    tag_195:\n        /* \"#utility.yul\":924:925   */\n      0x00\n        /* \"#utility.yul\":949:1002   */\n      tag_197\n        /* \"#utility.yul\":994:1001   */\n      dup5\n        /* \"#utility.yul\":985:991   */\n      dup3\n        /* \"#utility.yul\":974:983   */\n      dup6\n        /* \"#utility.yul\":970:992   */\n      add\n        /* \"#utility.yul\":949:1002   */\n      tag_152\n      jump\t// in\n    tag_197:\n        /* \"#utility.yul\":939:1002   */\n      swap2\n      pop\n        /* \"#utility.yul\":895:1012   */\n      pop\n        /* \"#utility.yul\":690:1019   */\n      swap3\n      swap2\n      pop\n      pop\n      jump\t// out\n        /* \"#utility.yul\":1025:1151   */\n    tag_153:\n        /* \"#utility.yul\":1062:1069   */\n      0x00\n        /* \"#utility.yul\":1102:1144   */\n      0xffffffffffffffffffffffffffffffffffffffff\n        /* \"#utility.yul\":1095:1100   */\n      dup3\n        /* \"#utility.yul\":1091:1145   */\n      and\n        /* \"#utility.yul\":1080:1145   */\n      swap1\n      pop\n        /* \"#utility.yul\":1025:1151   */\n      swap2\n      swap1\n      pop\n      jump\t// out\n        /* \"#utility.yul\":1157:1253   */\n    tag_154:\n        /* \"#utility.yul\":1194:1201   */\n      0x00\n        /* \"#utility.yul\":1223:1247   */\n      tag_200\n        /* \"#utility.yul\":1241:1246   */\n      dup3\n        /* \"#utility.yul\":1223:1247   */\n      tag_153\n      jump\t// in\n    tag_200:\n        /* \"#utility.yul\":1212:1247   */\n      swap1\n      pop\n        /* \"#utility.yul\":1157:1253   */\n      swap2\n      swap1\n      pop\n      jump\t// out\n        /* \"#utility.yul\":1259:1377   */\n    tag_155:\n        /* \"#utility.yul\":1346:1370   */\n      tag_202\n        /* \"#utility.yul\":1364:1369   */\n      dup2\n        /* \"#utility.yul\":1346:1370   */\n      tag_154\n      jump\t// in\n    tag_202:\n        /* \"#utility.yul\":1341:1344   */\n      dup3\n        /* \"#utility.yul\":1334:1371   */\n      mstore\n        /* \"#utility.yul\":1259:1377   */\n      pop\n      pop\n      jump\t// out\n        /* \"#utility.yul\":1383:1605   */\n    tag_21:\n        /* \"#utility.yul\":1476:1480   */\n      0x00\n        /* \"#utility.yul\":1514:1516   */\n      0x20\n        /* \"#utility.yul\":1503:1512   */\n      dup3\n        /* \"#utility.yul\":1499:1517   */\n      add\n        /* \"#utility.yul\":1491:1517   */\n      swap1\n      pop\n        /* \"#utility.yul\":1527:1598   */\n      tag_204\n        /* \"#utility.yul\":1595:1596   */\n      0x00\n        /* \"#utility.yul\":1584:1593   */\n      dup4\n        /* \"#utility.yul\":1580:1597   */\n      add\n        /* \"#utility.yul\":1571:1577   */\n      dup5\n        /* \"#utility.yul\":1527:1598   */\n      tag_155\n      jump\t// in\n    tag_204:\n        /* \"#utility.yul\":1383:1605   */\n      swap3\n      swap2\n      pop\n      pop\n      jump\t// out\n        /* \"#utility.yul\":1611:1715   */\n    tag_156:\n        /* \"#utility.yul\":1656:1663   */\n      0x00\n        /* \"#utility.yul\":1685:1709   */\n      tag_206\n        /* \"#utility.yul\":1703:1708   */\n      dup3\n        /* \"#utility.yul\":1685:1709   */\n      tag_153\n      jump\t// in\n    tag_206:\n        /* \"#utility.yul\":1674:1709   */\n      swap1\n      pop\n        /* \"#utility.yul\":1611:1715   */\n      swap2\n      swap1\n      pop\n      jump\t// out\n        /* \"#utility.yul\":1721:1859   */\n    tag_157:\n        /* \"#utility.yul\":1802:1834   */\n      tag_208\n        /* \"#utility.yul\":1828:1833   */\n      dup2\n        /* \"#utility.yul\":1802:1834   */\n      tag_156\n      jump\t// in\n    tag_208:\n        /* \"#utility.yul\":1795:1800   */\n      dup2\n        /* \"#utility.yul\":1792:1835   */\n      eq\n        /* \"#utility.yul\":1782:1853   */\n      tag_209\n      jumpi\n        /* \"#utility.yul\":1849:1850   */\n      0x00\n        /* \"#utility.yul\":1846:1847   */\n      dup1\n        /* \"#utility.yul\":1839:1851   */\n      revert\n        /* \"#utility.yul\":1782:1853   */\n    tag_209:\n        /* \"#utility.yul\":1721:1859   */\n      pop\n      jump\t// out\n        /* \"#utility.yul\":1865:2020   */\n    tag_158:\n        /* \"#utility.yul\":1919:1924   */\n      0x00\n        /* \"#utility.yul\":1957:1963   */\n      dup2\n        /* \"#utility.yul\":1944:1964   */\n      calldataload\n        /* \"#utility.yul\":1935:1964   */\n      swap1\n      pop\n        /* \"#utility.yul\":1973:2014   */\n      tag_211\n        /* \"#utility.yul\":2008:2013   */\n      dup2\n        /* \"#utility.yul\":1973:2014   */\n      tag_157\n      jump\t// in\n    tag_211:\n        /* \"#utility.yul\":1865:2020   */\n      swap3\n      swap2\n      pop\n      pop\n      jump\t// out\n        /* \"#utility.yul\":2026:2516   */\n    tag_25:\n        /* \"#utility.yul\":2102:2108   */\n      0x00\n        /* \"#utility.yul\":2110:2116   */\n      dup1\n        /* \"#utility.yul\":2159:2161   */\n      0x40\n        /* \"#utility.yul\":2147:2156   */\n      dup4\n        /* \"#utility.yul\":2138:2145   */\n      dup6\n        /* \"#utility.yul\":2134:2157   */\n      sub\n        /* \"#utility.yul\":2130:2162   */\n      slt\n        /* \"#utility.yul\":2127:2246   */\n      iszero\n      tag_213\n      jumpi\n        /* \"#utility.yul\":2165:2244   */\n      tag_214\n      tag_148\n      jump\t// in\n    tag_214:\n        /* \"#utility.yul\":2127:2246   */\n    tag_213:\n        /* \"#utility.yul\":2285:2286   */\n      0x00\n        /* \"#utility.yul\":2310:2371   */\n      tag_215\n        /* \"#utility.yul\":2363:2370   */\n      dup6\n        /* \"#utility.yul\":2354:2360   */\n      dup3\n        /* \"#utility.yul\":2343:2352   */\n      dup7\n        /* \"#utility.yul\":2339:2361   */\n      add\n        /* \"#utility.yul\":2310:2371   */\n      tag_158\n      jump\t// in\n    tag_215:\n        /* \"#utility.yul\":2300:2371   */\n      swap3\n      pop\n        /* \"#utility.yul\":2256:2381   */\n      pop\n        /* \"#utility.yul\":2420:2422   */\n      0x20\n        /* \"#utility.yul\":2446:2499   */\n      tag_216\n        /* \"#utility.yul\":2491:2498   */\n      dup6\n        /* \"#utility.yul\":2482:2488   */\n      dup3\n        /* \"#utility.yul\":2471:2480   */\n      dup7\n        /* \"#utility.yul\":2467:2489   */\n      add\n        /* \"#utility.yul\":2446:2499   */\n      tag_152\n      jump\t// in\n    tag_216:\n        /* \"#utility.yul\":2436:2499   */\n      swap2\n      pop\n        /* \"#utility.yul\":2391:2509   */\n      pop\n        /* \"#utility.yul\":2026:2516   */\n      swap3\n      pop\n      swap3\n      swap1\n      pop\n      jump\t// out\n        /* \"#utility.yul\":2522:2644   */\n    tag_159:\n        /* \"#utility.yul\":2595:2619   */\n      tag_218\n        /* \"#utility.yul\":2613:2618   */\n      dup2\n        /* \"#utility.yul\":2595:2619   */\n      tag_154\n      jump\t// in\n    tag_218:\n        /* \"#utility.yul\":2588:2593   */\n      dup2\n        /* \"#utility.yul\":2585:2620   */\n      eq\n        /* \"#utility.yul\":2575:2638   */\n      tag_219\n      jumpi\n        /* \"#utility.yul\":2634:2635   */\n      0x00\n        /* \"#utility.yul\":2631:2632   */\n      dup1\n        /* \"#utility.yul\":2624:2636   */\n      revert\n        /* \"#utility.yul\":2575:2638   */\n    tag_219:\n        /* \"#utility.yul\":2522:2644   */\n      pop\n      jump\t// out\n        /* \"#utility.yul\":2650:2789   */\n    tag_160:\n        /* \"#utility.yul\":2696:2701   */\n      0x00\n        /* \"#utility.yul\":2734:2740   */\n      dup2\n        /* \"#utility.yul\":2721:2741   */\n      calldataload\n        /* \"#utility.yul\":2712:2741   */\n      swap1\n      pop\n        /* \"#utility.yul\":2750:2783   */\n      tag_221\n        /* \"#utility.yul\":2777:2782   */\n      dup2\n        /* \"#utility.yul\":2750:2783   */\n      tag_159\n      jump\t// in\n    tag_221:\n        /* \"#utility.yul\":2650:2789   */\n      swap3\n      swap2\n      pop\n      pop\n      jump\t// out\n        /* \"#utility.yul\":2795:3124   */\n    tag_34:\n        /* \"#utility.yul\":2854:2860   */\n      0x00\n        /* \"#utility.yul\":2903:2905   */\n      0x20\n        /* \"#utility.yul\":2891:2900   */\n      dup3\n        /* \"#utility.yul\":2882:2889   */\n      dup5\n        /* \"#utility.yul\":2878:2901   */\n      sub\n        /* \"#utility.yul\":2874:2906   */\n      slt\n        /* \"#utility.yul\":2871:2990   */\n      iszero\n      tag_223\n      jumpi\n        /* \"#utility.yul\":2909:2988   */\n      tag_224\n      tag_148\n      jump\t// in\n    tag_224:\n        /* \"#utility.yul\":2871:2990   */\n    tag_223:\n        /* \"#utility.yul\":3029:3030   */\n      0x00\n        /* \"#utility.yul\":3054:3107   */\n      tag_225\n        /* \"#utility.yul\":3099:3106   */\n      dup5\n        /* \"#utility.yul\":3090:3096   */\n      dup3\n        /* \"#utility.yul\":3079:3088   */\n      dup6\n        /* \"#utility.yul\":3075:3097   */\n      add\n        /* \"#utility.yul\":3054:3107   */\n      tag_160\n      jump\t// in\n    tag_225:\n        /* \"#utility.yul\":3044:3107   */\n      swap2\n      pop\n        /* \"#utility.yul\":3000:3117   */\n      pop\n        /* \"#utility.yul\":2795:3124   */\n      swap3\n      swap2\n      pop\n      pop\n      jump\t// out\n        /* \"#utility.yul\":3130:3220   */\n    tag_161:\n        /* \"#utility.yul\":3164:3171   */\n      0x00\n        /* \"#utility.yul\":3207:3212   */\n      dup2\n        /* \"#utility.yul\":3200:3213   */\n      iszero\n        /* \"#utility.yul\":3193:3214   */\n      iszero\n        /* \"#utility.yul\":3182:3214   */\n      swap1\n      pop\n        /* \"#utility.yul\":3130:3220   */\n      swap2\n      swap1\n      pop\n      jump\t// out\n        /* \"#utility.yul\":3226:3335   */\n    tag_162:\n        /* \"#utility.yul\":3307:3328   */\n      tag_228\n        /* \"#utility.yul\":3322:3327   */\n      dup2\n        /* \"#utility.yul\":3307:3328   */\n      tag_161\n      jump\t// in\n    tag_228:\n        /* \"#utility.yul\":3302:3305   */\n      dup3\n        /* \"#utility.yul\":3295:3329   */\n      mstore\n        /* \"#utility.yul\":3226:3335   */\n      pop\n      pop\n      jump\t// out\n        /* \"#utility.yul\":3341:3551   */\n    tag_37:\n        /* \"#utility.yul\":3428:3432   */\n      0x00\n        /* \"#utility.yul\":3466:3468   */\n      0x20\n        /* \"#utility.yul\":3455:3464   */\n      dup3\n        /* \"#utility.yul\":3451:3469   */\n      add\n        /* \"#utility.yul\":3443:3469   */\n      swap1\n      pop\n        /* \"#utility.yul\":3479:3544   */\n      tag_230\n        /* \"#utility.yul\":3541:3542   */\n      0x00\n        /* \"#utility.yul\":3530:3539   */\n      dup4\n        /* \"#utility.yul\":3526:3543   */\n      add\n        /* \"#utility.yul\":3517:3523   */\n      dup5\n        /* \"#utility.yul\":3479:3544   */\n      tag_162\n      jump\t// in\n    tag_230:\n        /* \"#utility.yul\":3341:3551   */\n      swap3\n      swap2\n      pop\n      pop\n      jump\t// out\n        /* \"#utility.yul\":3557:4031   */\n    tag_41:\n        /* \"#utility.yul\":3625:3631   */\n      0x00\n        /* \"#utility.yul\":3633:3639   */\n      dup1\n        /* \"#utility.yul\":3682:3684   */\n      0x40\n        /* \"#utility.yul\":3670:3679   */\n      dup4\n        /* \"#utility.yul\":3661:3668   */\n      dup6\n        /* \"#utility.yul\":3657:3680   */\n      sub\n        /* \"#utility.yul\":3653:3685   */\n      slt\n        /* \"#utility.yul\":3650:3769   */\n      iszero\n      tag_232\n      jumpi\n        /* \"#utility.yul\":3688:3767   */\n      tag_233\n      tag_148\n      jump\t// in\n    tag_233:\n        /* \"#utility.yul\":3650:3769   */\n    tag_232:\n        /* \"#utility.yul\":3808:3809   */\n      0x00\n        /* \"#utility.yul\":3833:3886   */\n      tag_234\n        /* \"#utility.yul\":3878:3885   */\n      dup6\n        /* \"#utility.yul\":3869:3875   */\n      dup3\n        /* \"#utility.yul\":3858:3867   */\n      dup7\n        /* \"#utility.yul\":3854:3876   */\n      add\n        /* \"#utility.yul\":3833:3886   */\n      tag_152\n      jump\t// in\n    tag_234:\n        /* \"#utility.yul\":3823:3886   */\n      swap3\n      pop\n        /* \"#utility.yul\":3779:3896   */\n      pop\n        /* \"#utility.yul\":3935:3937   */\n      0x20\n        /* \"#utility.yul\":3961:4014   */\n      tag_235\n        /* \"#utility.yul\":4006:4013   */\n      dup6\n        /* \"#utility.yul\":3997:4003   */\n      dup3\n        /* \"#utility.yul\":3986:3995   */\n      dup7\n        /* \"#utility.yul\":3982:4004   */\n      add\n        /* \"#utility.yul\":3961:4014   */\n      tag_160\n      jump\t// in\n    tag_235:\n        /* \"#utility.yul\":3951:4014   */\n      swap2\n      pop\n        /* \"#utility.yul\":3906:4024   */\n      pop\n        /* \"#utility.yul\":3557:4031   */\n      swap3\n      pop\n      swap3\n      swap1\n      pop\n      jump\t// out\n        /* \"#utility.yul\":4037:4179   */\n    tag_163:\n        /* \"#utility.yul\":4140:4172   */\n      tag_237\n        /* \"#utility.yul\":4166:4171   */\n      dup2\n        /* \"#utility.yul\":4140:4172   */\n      tag_156\n      jump\t// in\n    tag_237:\n        /* \"#utility.yul\":4135:4138   */\n      dup3\n        /* \"#utility.yul\":4128:4173   */\n      mstore\n        /* \"#utility.yul\":4037:4179   */\n      pop\n      pop\n      jump\t// out\n        /* \"#utility.yul\":4185:4303   */\n    tag_164:\n        /* \"#utility.yul\":4272:4296   */\n      tag_239\n        /* \"#utility.yul\":4290:4295   */\n      dup2\n        /* \"#utility.yul\":4272:4296   */\n      tag_150\n      jump\t// in\n    tag_239:\n        /* \"#utility.yul\":4267:4270   */\n      dup3\n        /* \"#utility.yul\":4260:4297   */\n      mstore\n        /* \"#utility.yul\":4185:4303   */\n      pop\n      pop\n      jump\t// out\n        /* \"#utility.yul\":4309:4882   */\n    tag_49:\n        /* \"#utility.yul\":4496:4500   */\n      0x00\n        /* \"#utility.yul\":4534:4537   */\n      0x80\n        /* \"#utility.yul\":4523:4532   */\n      dup3\n        /* \"#utility.yul\":4519:4538   */\n      add\n        /* \"#utility.yul\":4511:4538   */\n      swap1\n      pop\n        /* \"#utility.yul\":4548:4635   */\n      tag_241\n        /* \"#utility.yul\":4632:4633   */\n      0x00\n        /* \"#utility.yul\":4621:4630   */\n      dup4\n        /* \"#utility.yul\":4617:4634   */\n      add\n        /* \"#utility.yul\":4608:4614   */\n      dup8\n        /* \"#utility.yul\":4548:4635   */\n      tag_163\n      jump\t// in\n    tag_241:\n        /* \"#utility.yul\":4645:4717   */\n      tag_242\n        /* \"#utility.yul\":4713:4715   */\n      0x20\n        /* \"#utility.yul\":4702:4711   */\n      dup4\n        /* \"#utility.yul\":4698:4716   */\n      add\n        /* \"#utility.yul\":4689:4695   */\n      dup7\n        /* \"#utility.yul\":4645:4717   */\n      tag_164\n      jump\t// in\n    tag_242:\n        /* \"#utility.yul\":4727:4799   */\n      tag_243\n        /* \"#utility.yul\":4795:4797   */\n      0x40\n        /* \"#utility.yul\":4784:4793   */\n      dup4\n        /* \"#utility.yul\":4780:4798   */\n      add\n        /* \"#utility.yul\":4771:4777   */\n      dup6\n        /* \"#utility.yul\":4727:4799   */\n      tag_164\n      jump\t// in\n    tag_243:\n        /* \"#utility.yul\":4809:4875   */\n      tag_244\n        /* \"#utility.yul\":4871:4873   */\n      0x60\n        /* \"#utility.yul\":4860:4869   */\n      dup4\n        /* \"#utility.yul\":4856:4874   */\n      add\n        /* \"#utility.yul\":4847:4853   */\n      dup5\n        /* \"#utility.yul\":4809:4875   */\n      tag_162\n      jump\t// in\n    tag_244:\n        /* \"#utility.yul\":4309:4882   */\n      swap6\n      swap5\n      pop\n      pop\n      pop\n      pop\n      pop\n      jump\t// out\n        /* \"#utility.yul\":4888:5110   */\n    tag_62:\n        /* \"#utility.yul\":4981:4985   */\n      0x00\n        /* \"#utility.yul\":5019:5021   */\n      0x20\n        /* \"#utility.yul\":5008:5017   */\n      dup3\n        /* \"#utility.yul\":5004:5022   */\n      add\n        /* \"#utility.yul\":4996:5022   */\n      swap1\n      pop\n        /* \"#utility.yul\":5032:5103   */\n      tag_246\n        /* \"#utility.yul\":5100:5101   */\n      0x00\n        /* \"#utility.yul\":5089:5098   */\n      dup4\n        /* \"#utility.yul\":5085:5102   */\n      add\n        /* \"#utility.yul\":5076:5082   */\n      dup5\n        /* \"#utility.yul\":5032:5103   */\n      tag_164\n      jump\t// in\n    tag_246:\n        /* \"#utility.yul\":4888:5110   */\n      swap3\n      swap2\n      pop\n      pop\n      jump\t// out\n        /* \"#utility.yul\":5116:5285   */\n    tag_165:\n        /* \"#utility.yul\":5200:5211   */\n      0x00\n        /* \"#utility.yul\":5234:5240   */\n      dup3\n        /* \"#utility.yul\":5229:5232   */\n      dup3\n        /* \"#utility.yul\":5222:5241   */\n      mstore\n        /* \"#utility.yul\":5274:5278   */\n      0x20\n        /* \"#utility.yul\":5269:5272   */\n      dup3\n        /* \"#utility.yul\":5265:5279   */\n      add\n        /* \"#utility.yul\":5250:5279   */\n      swap1\n      pop\n        /* \"#utility.yul\":5116:5285   */\n      swap3\n      swap2\n      pop\n      pop\n      jump\t// out\n        /* \"#utility.yul\":5291:5454   */\n    tag_166:\n        /* \"#utility.yul\":5431:5446   */\n      0x696e76616c6964206f776e657200000000000000000000000000000000000000\n        /* \"#utility.yul\":5427:5428   */\n      0x00\n        /* \"#utility.yul\":5419:5425   */\n      dup3\n        /* \"#utility.yul\":5415:5429   */\n      add\n        /* \"#utility.yul\":5408:5447   */\n      mstore\n        /* \"#utility.yul\":5291:5454   */\n      pop\n      jump\t// out\n        /* \"#utility.yul\":5460:5826   */\n    tag_167:\n        /* \"#utility.yul\":5602:5605   */\n      0x00\n        /* \"#utility.yul\":5623:5690   */\n      tag_250\n        /* \"#utility.yul\":5687:5689   */\n      0x0d\n        /* \"#utility.yul\":5682:5685   */\n      dup4\n        /* \"#utility.yul\":5623:5690   */\n      tag_165\n      jump\t// in\n    tag_250:\n        /* \"#utility.yul\":5616:5690   */\n      swap2\n      pop\n        /* \"#utility.yul\":5699:5792   */\n      tag_251\n        /* \"#utility.yul\":5788:5791   */\n      dup3\n        /* \"#utility.yul\":5699:5792   */\n      tag_166\n      jump\t// in\n    tag_251:\n        /* \"#utility.yul\":5817:5819   */\n      0x20\n        /* \"#utility.yul\":5812:5815   */\n      dup3\n        /* \"#utility.yul\":5808:5820   */\n      add\n        /* \"#utility.yul\":5801:5820   */\n      swap1\n      pop\n        /* \"#utility.yul\":5460:5826   */\n      swap2\n      swap1\n      pop\n      jump\t// out\n        /* \"#utility.yul\":5832:6251   */\n    tag_68:\n        /* \"#utility.yul\":5998:6002   */\n      0x00\n        /* \"#utility.yul\":6036:6038   */\n      0x20\n        /* \"#utility.yul\":6025:6034   */\n      dup3\n        /* \"#utility.yul\":6021:6039   */\n      add\n        /* \"#utility.yul\":6013:6039   */\n      swap1\n      pop\n        /* \"#utility.yul\":6085:6094   */\n      dup2\n        /* \"#utility.yul\":6079:6083   */\n      dup2\n        /* \"#utility.yul\":6075:6095   */\n      sub\n        /* \"#utility.yul\":6071:6072   */\n      0x00\n        /* \"#utility.yul\":6060:6069   */\n      dup4\n        /* \"#utility.yul\":6056:6073   */\n      add\n        /* \"#utility.yul\":6049:6096   */\n      mstore\n        /* \"#utility.yul\":6113:6244   */\n      tag_253\n        /* \"#utility.yul\":6239:6243   */\n      dup2\n        /* \"#utility.yul\":6113:6244   */\n      tag_167\n      jump\t// in\n    tag_253:\n        /* \"#utility.yul\":6105:6244   */\n      swap1\n      pop\n        /* \"#utility.yul\":5832:6251   */\n      swap2\n      swap1\n      pop\n      jump\t// out\n        /* \"#utility.yul\":6257:6589   */\n    tag_72:\n        /* \"#utility.yul\":6378:6382   */\n      0x00\n        /* \"#utility.yul\":6416:6418   */\n      0x40\n        /* \"#utility.yul\":6405:6414   */\n      dup3\n        /* \"#utility.yul\":6401:6419   */\n      add\n        /* \"#utility.yul\":6393:6419   */\n      swap1\n      pop\n        /* \"#utility.yul\":6429:6500   */\n      tag_255\n        /* \"#utility.yul\":6497:6498   */\n      0x00\n        /* \"#utility.yul\":6486:6495   */\n      dup4\n        /* \"#utility.yul\":6482:6499   */\n      add\n        /* \"#utility.yul\":6473:6479   */\n      dup6\n        /* \"#utility.yul\":6429:6500   */\n      tag_164\n      jump\t// in\n    tag_255:\n        /* \"#utility.yul\":6510:6582   */\n      tag_256\n        /* \"#utility.yul\":6578:6580   */\n      0x20\n        /* \"#utility.yul\":6567:6576   */\n      dup4\n        /* \"#utility.yul\":6563:6581   */\n      add\n        /* \"#utility.yul\":6554:6560   */\n      dup5\n        /* \"#utility.yul\":6510:6582   */\n      tag_164\n      jump\t// in\n    tag_256:\n        /* \"#utility.yul\":6257:6589   */\n      swap4\n      swap3\n      pop\n      pop\n      pop\n      jump\t// out\n        /* \"#utility.yul\":6595:6752   */\n    tag_168:\n        /* \"#utility.yul\":6735:6744   */\n      0x696e76616c696400000000000000000000000000000000000000000000000000\n        /* \"#utility.yul\":6731:6732   */\n      0x00\n        /* \"#utility.yul\":6723:6729   */\n      dup3\n        /* \"#utility.yul\":6719:6733   */\n      add\n        /* \"#utility.yul\":6712:6745   */\n      mstore\n        /* \"#utility.yul\":6595:6752   */\n      pop\n      jump\t// out\n        /* \"#utility.yul\":6758:7123   */\n    tag_169:\n        /* \"#utility.yul\":6900:6903   */\n      0x00\n        /* \"#utility.yul\":6921:6987   */\n      tag_259\n        /* \"#utility.yul\":6985:6986   */\n      0x07\n        /* \"#utility.yul\":6980:6983   */\n      dup4\n        /* \"#utility.yul\":6921:6987   */\n      tag_165\n      jump\t// in\n    tag_259:\n        /* \"#utility.yul\":6914:6987   */\n      swap2\n      pop\n        /* \"#utility.yul\":6996:7089   */\n      tag_260\n        /* \"#utility.yul\":7085:7088   */\n      dup3\n        /* \"#utility.yul\":6996:7089   */\n      tag_168\n      jump\t// in\n    tag_260:\n        /* \"#utility.yul\":7114:7116   */\n      0x20\n        /* \"#utility.yul\":7109:7112   */\n      dup3\n        /* \"#utility.yul\":7105:7117   */\n      add\n        /* \"#utility.yul\":7098:7117   */\n      swap1\n      pop\n        /* \"#utility.yul\":6758:7123   */\n      swap2\n      swap1\n      pop\n      jump\t// out\n        /* \"#utility.yul\":7129:7548   */\n    tag_79:\n        /* \"#utility.yul\":7295:7299   */\n      0x00\n        /* \"#utility.yul\":7333:7335   */\n      0x20\n        /* \"#utility.yul\":7322:7331   */\n      dup3\n        /* \"#utility.yul\":7318:7336   */\n      add\n        /* \"#utility.yul\":7310:7336   */\n      swap1\n      pop\n        /* \"#utility.yul\":7382:7391   */\n      dup2\n        /* \"#utility.yul\":7376:7380   */\n      dup2\n        /* \"#utility.yul\":7372:7392   */\n      sub\n        /* \"#utility.yul\":7368:7369   */\n      0x00\n        /* \"#utility.yul\":7357:7366   */\n      dup4\n        /* \"#utility.yul\":7353:7370   */\n      add\n        /* \"#utility.yul\":7346:7393   */\n      mstore\n        /* \"#utility.yul\":7410:7541   */\n      tag_262\n        /* \"#utility.yul\":7536:7540   */\n      dup2\n        /* \"#utility.yul\":7410:7541   */\n      tag_169\n      jump\t// in\n    tag_262:\n        /* \"#utility.yul\":7402:7541   */\n      swap1\n      pop\n        /* \"#utility.yul\":7129:7548   */\n      swap2\n      swap1\n      pop\n      jump\t// out\n        /* \"#utility.yul\":7554:7720   */\n    tag_170:\n        /* \"#utility.yul\":7694:7712   */\n      0x616c726561647920617070726f76656400000000000000000000000000000000\n        /* \"#utility.yul\":7690:7691   */\n      0x00\n        /* \"#utility.yul\":7682:7688   */\n      dup3\n        /* \"#utility.yul\":7678:7692   */\n      add\n        /* \"#utility.yul\":7671:7713   */\n      mstore\n        /* \"#utility.yul\":7554:7720   */\n      pop\n      jump\t// out\n        /* \"#utility.yul\":7726:8092   */\n    tag_171:\n        /* \"#utility.yul\":7868:7871   */\n      0x00\n        /* \"#utility.yul\":7889:7956   */\n      tag_265\n        /* \"#utility.yul\":7953:7955   */\n      0x10\n        /* \"#utility.yul\":7948:7951   */\n      dup4\n        /* \"#utility.yul\":7889:7956   */\n      tag_165\n      jump\t// in\n    tag_265:\n        /* \"#utility.yul\":7882:7956   */\n      swap2\n      pop\n        /* \"#utility.yul\":7965:8058   */\n      tag_266\n        /* \"#utility.yul\":8054:8057   */\n      dup3\n        /* \"#utility.yul\":7965:8058   */\n      tag_170\n      jump\t// in\n    tag_266:\n        /* \"#utility.yul\":8083:8085   */\n      0x20\n        /* \"#utility.yul\":8078:8081   */\n      dup3\n        /* \"#utility.yul\":8074:8086   */\n      add\n        /* \"#utility.yul\":8067:8086   */\n      swap1\n      pop\n        /* \"#utility.yul\":7726:8092   */\n      swap2\n      swap1\n      pop\n      jump\t// out\n        /* \"#utility.yul\":8098:8517   */\n    tag_83:\n        /* \"#utility.yul\":8264:8268   */\n      0x00\n        /* \"#utility.yul\":8302:8304   */\n      0x20\n        /* \"#utility.yul\":8291:8300   */\n      dup3\n        /* \"#utility.yul\":8287:8305   */\n      add\n        /* \"#utility.yul\":8279:8305   */\n      swap1\n      pop\n        /* \"#utility.yul\":8351:8360   */\n      dup2\n        /* \"#utility.yul\":8345:8349   */\n      dup2\n        /* \"#utility.yul\":8341:8361   */\n      sub\n        /* \"#utility.yul\":8337:8338   */\n      0x00\n        /* \"#utility.yul\":8326:8335   */\n      dup4\n        /* \"#utility.yul\":8322:8339   */\n      add\n        /* \"#utility.yul\":8315:8362   */\n      mstore\n        /* \"#utility.yul\":8379:8510   */\n      tag_268\n        /* \"#utility.yul\":8505:8509   */\n      dup2\n        /* \"#utility.yul\":8379:8510   */\n      tag_171\n      jump\t// in\n    tag_268:\n        /* \"#utility.yul\":8371:8510   */\n      swap1\n      pop\n        /* \"#utility.yul\":8098:8517   */\n      swap2\n      swap1\n      pop\n      jump\t// out\n        /* \"#utility.yul\":8523:8703   */\n    tag_87:\n        /* \"#utility.yul\":8571:8648   */\n      0x4e487b7100000000000000000000000000000000000000000000000000000000\n        /* \"#utility.yul\":8568:8569   */\n      0x00\n        /* \"#utility.yul\":8561:8649   */\n      mstore\n        /* \"#utility.yul\":8668:8672   */\n      0x32\n        /* \"#utility.yul\":8665:8666   */\n      0x04\n        /* \"#utility.yul\":8658:8673   */\n      mstore\n        /* \"#utility.yul\":8692:8696   */\n      0x24\n        /* \"#utility.yul\":8689:8690   */\n      0x00\n        /* \"#utility.yul\":8682:8697   */\n      revert\n        /* \"#utility.yul\":8709:8872   */\n    tag_172:\n        /* \"#utility.yul\":8849:8864   */\n      0x6e6f7420636f6e6669726d656400000000000000000000000000000000000000\n        /* \"#utility.yul\":8845:8846   */\n      0x00\n        /* \"#utility.yul\":8837:8843   */\n      dup3\n        /* \"#utility.yul\":8833:8847   */\n      add\n        /* \"#utility.yul\":8826:8865   */\n      mstore\n        /* \"#utility.yul\":8709:8872   */\n      pop\n      jump\t// out\n        /* \"#utility.yul\":8878:9244   */\n    tag_173:\n        /* \"#utility.yul\":9020:9023   */\n      0x00\n        /* \"#utility.yul\":9041:9108   */\n      tag_272\n        /* \"#utility.yul\":9105:9107   */\n      0x0d\n        /* \"#utility.yul\":9100:9103   */\n      dup4\n        /* \"#utility.yul\":9041:9108   */\n      tag_165\n      jump\t// in\n    tag_272:\n        /* \"#utility.yul\":9034:9108   */\n      swap2\n      pop\n        /* \"#utility.yul\":9117:9210   */\n      tag_273\n        /* \"#utility.yul\":9206:9209   */\n      dup3\n        /* \"#utility.yul\":9117:9210   */\n      tag_172\n      jump\t// in\n    tag_273:\n        /* \"#utility.yul\":9235:9237   */\n      0x20\n        /* \"#utility.yul\":9230:9233   */\n      dup3\n        /* \"#utility.yul\":9226:9238   */\n      add\n        /* \"#utility.yul\":9219:9238   */\n      swap1\n      pop\n        /* \"#utility.yul\":8878:9244   */\n      swap2\n      swap1\n      pop\n      jump\t// out\n        /* \"#utility.yul\":9250:9669   */\n    tag_91:\n        /* \"#utility.yul\":9416:9420   */\n      0x00\n        /* \"#utility.yul\":9454:9456   */\n      0x20\n        /* \"#utility.yul\":9443:9452   */\n      dup3\n        /* \"#utility.yul\":9439:9457   */\n      add\n        /* \"#utility.yul\":9431:9457   */\n      swap1\n      pop\n        /* \"#utility.yul\":9503:9512   */\n      dup2\n        /* \"#utility.yul\":9497:9501   */\n      dup2\n        /* \"#utility.yul\":9493:9513   */\n      sub\n        /* \"#utility.yul\":9489:9490   */\n      0x00\n        /* \"#utility.yul\":9478:9487   */\n      dup4\n        /* \"#utility.yul\":9474:9491   */\n      add\n        /* \"#utility.yul\":9467:9514   */\n      mstore\n        /* \"#utility.yul\":9531:9662   */\n      tag_275\n        /* \"#utility.yul\":9657:9661   */\n      dup2\n        /* \"#utility.yul\":9531:9662   */\n      tag_173\n      jump\t// in\n    tag_275:\n        /* \"#utility.yul\":9523:9662   */\n      swap1\n      pop\n        /* \"#utility.yul\":9250:9669   */\n      swap2\n      swap1\n      pop\n      jump\t// out\n        /* \"#utility.yul\":9675:9855   */\n    tag_174:\n        /* \"#utility.yul\":9723:9800   */\n      0x4e487b7100000000000000000000000000000000000000000000000000000000\n        /* \"#utility.yul\":9720:9721   */\n      0x00\n        /* \"#utility.yul\":9713:9801   */\n      mstore\n        /* \"#utility.yul\":9820:9824   */\n      0x11\n        /* \"#utility.yul\":9817:9818   */\n      0x04\n        /* \"#utility.yul\":9810:9825   */\n      mstore\n        /* \"#utility.yul\":9844:9848   */\n      0x24\n        /* \"#utility.yul\":9841:9842   */\n      0x00\n        /* \"#utility.yul\":9834:9849   */\n      revert\n        /* \"#utility.yul\":9861:10032   */\n    tag_93:\n        /* \"#utility.yul\":9900:9903   */\n      0x00\n        /* \"#utility.yul\":9923:9947   */\n      tag_278\n        /* \"#utility.yul\":9941:9946   */\n      dup3\n        /* \"#utility.yul\":9923:9947   */\n      tag_150\n      jump\t// in\n    tag_278:\n        /* \"#utility.yul\":9914:9947   */\n      swap2\n      pop\n        /* \"#utility.yul\":9969:9973   */\n      0x00\n        /* \"#utility.yul\":9962:9967   */\n      dup3\n        /* \"#utility.yul\":9959:9974   */\n      sub\n        /* \"#utility.yul\":9956:9997   */\n      tag_279\n      jumpi\n        /* \"#utility.yul\":9977:9995   */\n      tag_280\n      tag_174\n      jump\t// in\n    tag_280:\n        /* \"#utility.yul\":9956:9997   */\n    tag_279:\n        /* \"#utility.yul\":10024:10025   */\n      0x01\n        /* \"#utility.yul\":10017:10022   */\n      dup3\n        /* \"#utility.yul\":10013:10026   */\n      sub\n        /* \"#utility.yul\":10006:10026   */\n      swap1\n      pop\n        /* \"#utility.yul\":9861:10032   */\n      swap2\n      swap1\n      pop\n      jump\t// out\n        /* \"#utility.yul\":10038:10204   */\n    tag_175:\n        /* \"#utility.yul\":10178:10196   */\n      0x616c726561647920657865637574656400000000000000000000000000000000\n        /* \"#utility.yul\":10174:10175   */\n      0x00\n        /* \"#utility.yul\":10166:10172   */\n      dup3\n        /* \"#utility.yul\":10162:10176   */\n      add\n        /* \"#utility.yul\":10155:10197   */\n      mstore\n        /* \"#utility.yul\":10038:10204   */\n      pop\n      jump\t// out\n        /* \"#utility.yul\":10210:10576   */\n    tag_176:\n        /* \"#utility.yul\":10352:10355   */\n      0x00\n        /* \"#utility.yul\":10373:10440   */\n      tag_283\n        /* \"#utility.yul\":10437:10439   */\n      0x10\n        /* \"#utility.yul\":10432:10435   */\n      dup4\n        /* \"#utility.yul\":10373:10440   */\n      tag_165\n      jump\t// in\n    tag_283:\n        /* \"#utility.yul\":10366:10440   */\n      swap2\n      pop\n        /* \"#utility.yul\":10449:10542   */\n      tag_284\n        /* \"#utility.yul\":10538:10541   */\n      dup3\n        /* \"#utility.yul\":10449:10542   */\n      tag_175\n      jump\t// in\n    tag_284:\n        /* \"#utility.yul\":10567:10569   */\n      0x20\n        /* \"#utility.yul\":10562:10565   */\n      dup3\n        /* \"#utility.yul\":10558:10570   */\n      add\n        /* \"#utility.yul\":10551:10570   */\n      swap1\n      pop\n        /* \"#utility.yul\":10210:10576   */\n      swap2\n      swap1\n      pop\n      jump\t// out\n        /* \"#utility.yul\":10582:11001   */\n    tag_108:\n        /* \"#utility.yul\":10748:10752   */\n      0x00\n        /* \"#utility.yul\":10786:10788   */\n      0x20\n        /* \"#utility.yul\":10775:10784   */\n      dup3\n        /* \"#utility.yul\":10771:10789   */\n      add\n        /* \"#utility.yul\":10763:10789   */\n      swap1\n      pop\n        /* \"#utility.yul\":10835:10844   */\n      dup2\n        /* \"#utility.yul\":10829:10833   */\n      dup2\n        /* \"#utility.yul\":10825:10845   */\n      sub\n        /* \"#utility.yul\":10821:10822   */\n      0x00\n        /* \"#utility.yul\":10810:10819   */\n      dup4\n        /* \"#utility.yul\":10806:10823   */\n      add\n        /* \"#utility.yul\":10799:10846   */\n      mstore\n        /* \"#utility.yul\":10863:10994   */\n      tag_286\n        /* \"#utility.yul\":10989:10993   */\n      dup2\n        /* \"#utility.yul\":10863:10994   */\n      tag_176\n      jump\t// in\n    tag_286:\n        /* \"#utility.yul\":10855:10994   */\n      swap1\n      pop\n        /* \"#utility.yul\":10582:11001   */\n      swap2\n      swap1\n      pop\n      jump\t// out\n        /* \"#utility.yul\":11007:11240   */\n    tag_117:\n        /* \"#utility.yul\":11046:11049   */\n      0x00\n        /* \"#utility.yul\":11069:11093   */\n      tag_288\n        /* \"#utility.yul\":11087:11092   */\n      dup3\n        /* \"#utility.yul\":11069:11093   */\n      tag_150\n      jump\t// in\n    tag_288:\n        /* \"#utility.yul\":11060:11093   */\n      swap2\n      pop\n        /* \"#utility.yul\":11115:11181   */\n      0xffffffffffffffffffffffffffffffffffffffffffffffffffffffffffffffff\n        /* \"#utility.yul\":11108:11113   */\n      dup3\n        /* \"#utility.yul\":11105:11182   */\n      sub\n        /* \"#utility.yul\":11102:11205   */\n      tag_289\n      jumpi\n        /* \"#utility.yul\":11185:11203   */\n      tag_290\n      tag_174\n      jump\t// in\n    tag_290:\n        /* \"#utility.yul\":11102:11205   */\n    tag_289:\n        /* \"#utility.yul\":11232:11233   */\n      0x01\n        /* \"#utility.yul\":11225:11230   */\n      dup3\n        /* \"#utility.yul\":11221:11234   */\n      add\n        /* \"#utility.yul\":11214:11234   */\n      swap1\n      pop\n        /* \"#utility.yul\":11007:11240   */\n      swap2\n      swap1\n      pop\n      jump\t// out\n        /* \"#utility.yul\":11246:11420   */\n    tag_177:\n        /* \"#utility.yul\":11386:11412   */\n      0x6e6f7420656e6f75676820636f6e6669726d6174696f6e730000000000000000\n        /* \"#utility.yul\":11382:11383   */\n      0x00\n        /* \"#utility.yul\":11374:11380   */\n      dup3\n        /* \"#utility.yul\":11370:11384   */\n      add\n        /* \"#utility.yul\":11363:11413   */\n      mstore\n        /* \"#utility.yul\":11246:11420   */\n      pop\n      jump\t// out\n        /* \"#utility.yul\":11426:11792   */\n    tag_178:\n        /* \"#utility.yul\":11568:11571   */\n      0x00\n        /* \"#utility.yul\":11589:11656   */\n      tag_293\n        /* \"#utility.yul\":11653:11655   */\n      0x18\n        /* \"#utility.yul\":11648:11651   */\n      dup4\n        /* \"#utility.yul\":11589:11656   */\n      tag_165\n      jump\t// in\n    tag_293:\n        /* \"#utility.yul\":11582:11656   */\n      swap2\n      pop\n        /* \"#utility.yul\":11665:11758   */\n      tag_294\n        /* \"#utility.yul\":11754:11757   */\n      dup3\n        /* \"#utility.yul\":11665:11758   */\n      tag_177\n      jump\t// in\n    tag_294:\n        /* \"#utility.yul\":11783:11785   */\n      0x20\n        /* \"#utility.yul\":11778:11781   */\n      dup3\n        /* \"#utility.yul\":11774:11786   */\n      add\n        /* \"#utility.yul\":11767:11786   */\n      swap1\n      pop\n        /* \"#utility.yul\":11426:11792   */\n      swap2\n      swap1\n      pop\n      jump\t// out\n        /* \"#utility.yul\":11798:12217   */\n    tag_137:\n        /* \"#utility.yul\":11964:11968   */\n      0x00\n        /* \"#utility.yul\":12002:12004   */\n      0x20\n        /* \"#utility.yul\":11991:12000   */\n      dup3\n        /* \"#utility.yul\":11987:12005   */\n      add\n        /* \"#utility.yul\":11979:12005   */\n      swap1\n      pop\n        /* \"#utility.yul\":12051:12060   */\n      dup2\n        /* \"#utility.yul\":12045:12049   */\n      dup2\n        /* \"#utility.yul\":12041:12061   */\n      sub\n        /* \"#utility.yul\":12037:12038   */\n      0x00\n        /* \"#utility.yul\":12026:12035   */\n      dup4\n        /* \"#utility.yul\":12022:12039   */\n      add\n        /* \"#utility.yul\":12015:12062   */\n      mstore\n        /* \"#utility.yul\":12079:12210   */\n      tag_296\n        /* \"#utility.yul\":12205:12209   */\n      dup2\n        /* \"#utility.yul\":12079:12210   */\n      tag_178\n      jump\t// in\n    tag_296:\n        /* \"#utility.yul\":12071:12210   */\n      swap1\n      pop\n        /* \"#utility.yul\":11798:12217   */\n      swap2\n      swap1\n      pop\n      jump\t// out\n        /* \"#utility.yul\":12223:12370   */\n    tag_179:\n        /* \"#utility.yul\":12324:12335   */\n      0x00\n        /* \"#utility.yul\":12361:12364   */\n      dup2\n        /* \"#utility.yul\":12346:12364   */\n      swap1\n      pop\n        /* \"#utility.yul\":12223:12370   */\n      swap3\n      swap2\n      pop\n      pop\n      jump\t// out\n        /* \"#utility.yul\":12376:12490   */\n    tag_180:\n      pop\n      jump\t// out\n        /* \"#utility.yul\":12496:12894   */\n    tag_181:\n        /* \"#utility.yul\":12655:12658   */\n      0x00\n        /* \"#utility.yul\":12676:12759   */\n      tag_300\n        /* \"#utility.yul\":12757:12758   */\n      0x00\n        /* \"#utility.yul\":12752:12755   */\n      dup4\n        /* \"#utility.yul\":12676:12759   */\n      tag_179\n      jump\t// in\n    tag_300:\n        /* \"#utility.yul\":12669:12759   */\n      swap2\n      pop\n        /* \"#utility.yul\":12768:12861   */\n      tag_301\n        /* \"#utility.yul\":12857:12860   */\n      dup3\n        /* \"#utility.yul\":12768:12861   */\n      tag_180\n      jump\t// in\n    tag_301:\n        /* \"#utility.yul\":12886:12887   */\n      0x00\n        /* \"#utility.yul\":12881:12884   */\n      dup3\n        /* \"#utility.yul\":12877:12888   */\n      add\n        /* \"#utility.yul\":12870:12888   */\n      swap1\n      pop\n        /* \"#utility.yul\":12496:12894   */\n      swap2\n      swap1\n      pop\n      jump\t// out\n        /* \"#utility.yul\":12900:13279   */\n    tag_139:\n        /* \"#utility.yul\":13084:13087   */\n      0x00\n        /* \"#utility.yul\":13106:13253   */\n      tag_303\n        /* \"#utility.yul\":13249:13252   */\n      dup3\n        /* \"#utility.yul\":13106:13253   */\n      tag_181\n      jump\t// in\n    tag_303:\n        /* \"#utility.yul\":13099:13253   */\n      swap2\n      pop\n        /* \"#utility.yul\":13270:13273   */\n      dup2\n        /* \"#utility.yul\":13263:13273   */\n      swap1\n      pop\n        /* \"#utility.yul\":12900:13279   */\n      swap2\n      swap1\n      pop\n      jump\t// out\n        /* \"#utility.yul\":13285:13447   */\n    tag_182:\n        /* \"#utility.yul\":13425:13439   */\n      0x6e6f742065786563757465640000000000000000000000000000000000000000\n        /* \"#utility.yul\":13421:13422   */\n      0x00\n        /* \"#utility.yul\":13413:13419   */\n      dup3\n        /* \"#utility.yul\":13409:13423   */\n      add\n        /* \"#utility.yul\":13402:13440   */\n      mstore\n        /* \"#utility.yul\":13285:13447   */\n      pop\n      jump\t// out\n        /* \"#utility.yul\":13453:13819   */\n    tag_183:\n        /* \"#utility.yul\":13595:13598   */\n      0x00\n        /* \"#utility.yul\":13616:13683   */\n      tag_306\n        /* \"#utility.yul\":13680:13682   */\n      0x0c\n        /* \"#utility.yul\":13675:13678   */\n      dup4\n        /* \"#utility.yul\":13616:13683   */\n      tag_165\n      jump\t// in\n    tag_306:\n        /* \"#utility.yul\":13609:13683   */\n      swap2\n      pop\n        /* \"#utility.yul\":13692:13785   */\n      tag_307\n        /* \"#utility.yul\":13781:13784   */\n      dup3\n        /* \"#utility.yul\":13692:13785   */\n      tag_182\n      jump\t// in\n    tag_307:\n        /* \"#utility.yul\":13810:13812   */\n      0x20\n        /* \"#utility.yul\":13805:13808   */\n      dup3\n        /* \"#utility.yul\":13801:13813   */\n      add\n        /* \"#utility.yul\":13794:13813   */\n      swap1\n      pop\n        /* \"#utility.yul\":13453:13819   */\n      swap2\n      swap1\n      pop\n      jump\t// out\n        /* \"#utility.yul\":13825:14244   */\n    tag_145:\n        /* \"#utility.yul\":13991:13995   */\n      0x00\n        /* \"#utility.yul\":14029:14031   */\n      0x20\n        /* \"#utility.yul\":14018:14027   */\n      dup3\n        /* \"#utility.yul\":14014:14032   */\n      add\n        /* \"#utility.yul\":14006:14032   */\n      swap1\n      pop\n        /* \"#utility.yul\":14078:14087   */\n      dup2\n        /* \"#utility.yul\":14072:14076   */\n      dup2\n        /* \"#utility.yul\":14068:14088   */\n      sub\n        /* \"#utility.yul\":14064:14065   */\n      0x00\n        /* \"#utility.yul\":14053:14062   */\n      dup4\n        /* \"#utility.yul\":14049:14066   */\n      add\n        /* \"#utility.yul\":14042:14089   */\n      mstore\n        /* \"#utility.yul\":14106:14237   */\n      tag_309\n        /* \"#utility.yul\":14232:14236   */\n      dup2\n        /* \"#utility.yul\":14106:14237   */\n      tag_183\n      jump\t// in\n    tag_309:\n        /* \"#utility.yul\":14098:14237   */\n      swap1\n      pop\n        /* \"#utility.yul\":13825:14244   */\n      swap2\n      swap1\n      pop\n      jump\t// out\n\n    auxdata: 0xa26469706673582212203435ee5a03115a0436b77ba724d0afc3d5630dfd7d21162c6ea525747f46eadf64736f6c634300081a0033\n}\n",
				"bytecode": {
					"linkReferences": {},
					"object": "608060405234801561000f575f80fd5b50604051611b26380380611b26833981810160405281019061003191906104a3565b5f825111610074576040517f08c379a000000000000000000000000000000000000000000000000000000000815260040161006b90610557565b60405180910390fd5b5f81118015610084575081518111155b6100c3576040517f08c379a00000000000000000000000000000000000000000000000000000000081526004016100ba906105bf565b60405180910390fd5b5f5b82518110156102a7575f8382815181106100e2576100e16105dd565b5b602002602001015190505f73ffffffffffffffffffffffffffffffffffffffff168173ffffffffffffffffffffffffffffffffffffffff160361015a576040517f08c379a000000000000000000000000000000000000000000000000000000000815260040161015190610654565b60405180910390fd5b60035f8273ffffffffffffffffffffffffffffffffffffffff1673ffffffffffffffffffffffffffffffffffffffff1681526020019081526020015f205f9054906101000a900460ff16156101e4576040517f08c379a00000000000000000000000000000000000000000000000000000000081526004016101db906106bc565b60405180910390fd5b600160035f8373ffffffffffffffffffffffffffffffffffffffff1673ffffffffffffffffffffffffffffffffffffffff1681526020019081526020015f205f6101000a81548160ff021916908315150217905550600281908060018154018082558091505060019003905f5260205f20015f9091909190916101000a81548173ffffffffffffffffffffffffffffffffffffffff021916908373ffffffffffffffffffffffffffffffffffffffff1602179055505080806001019150506100c5565b50805f8190555050506106da565b5f604051905090565b5f80fd5b5f80fd5b5f80fd5b5f601f19601f8301169050919050565b7f4e487b71000000000000000000000000000000000000000000000000000000005f52604160045260245ffd5b610310826102ca565b810181811067ffffffffffffffff8211171561032f5761032e6102da565b5b80604052505050565b5f6103416102b5565b905061034d8282610307565b919050565b5f67ffffffffffffffff82111561036c5761036b6102da565b5b602082029050602081019050919050565b5f80fd5b5f73ffffffffffffffffffffffffffffffffffffffff82169050919050565b5f6103aa82610381565b9050919050565b6103ba816103a0565b81146103c4575f80fd5b50565b5f815190506103d5816103b1565b92915050565b5f6103ed6103e884610352565b610338565b905080838252602082019050602084028301858111156104105761040f61037d565b5b835b81811015610439578061042588826103c7565b845260208401935050602081019050610412565b5050509392505050565b5f82601f830112610457576104566102c6565b5b81516104678482602086016103db565b91505092915050565b5f819050919050565b61048281610470565b811461048c575f80fd5b50565b5f8151905061049d81610479565b92915050565b5f80604083850312156104b9576104b86102be565b5b5f83015167ffffffffffffffff8111156104d6576104d56102c2565b5b6104e285828601610443565b92505060206104f38582860161048f565b9150509250929050565b5f82825260208201905092915050565b7f6f776e6572732073686f756c64206e6f74206265207a65726f000000000000005f82015250565b5f6105416019836104fd565b915061054c8261050d565b602082019050919050565b5f6020820190508181035f83015261056e81610535565b9050919050565b7f496e76616c6964205472616e73616374696f6e000000000000000000000000005f82015250565b5f6105a96013836104fd565b91506105b482610575565b602082019050919050565b5f6020820190508181035f8301526105d68161059d565b9050919050565b7f4e487b71000000000000000000000000000000000000000000000000000000005f52603260045260245ffd5b7f696e76616c6964206f776e6572000000000000000000000000000000000000005f82015250565b5f61063e600d836104fd565b91506106498261060a565b602082019050919050565b5f6020820190508181035f83015261066b81610632565b9050919050565b7f756e69717565206f776e657220726571756972656400000000000000000000005f82015250565b5f6106a66015836104fd565b91506106b182610672565b602082019050919050565b5f6020820190508181035f8301526106d38161069a565b9050919050565b61143f806106e75f395ff3fe608060405260043610610089575f3560e01c806380f59a651161005857806380f59a651461015c5780639ace38c214610198578063b759f954146101d7578063d3ecebd7146101ff578063dc8452cd1461022757610090565b8063025e7c2714610094578063203dd666146100d057806320c5429b146100f85780632f54bf6e1461012057610090565b3661009057005b5f80fd5b34801561009f575f80fd5b506100ba60048036038101906100b59190610db5565b610251565b6040516100c79190610e1f565b60405180910390f35b3480156100db575f80fd5b506100f660048036038101906100f19190610e73565b61028c565b005b348015610103575f80fd5b5061011e60048036038101906101199190610db5565b610464565b005b34801561012b575f80fd5b5061014660048036038101906101419190610edb565b61070d565b6040516101539190610f20565b60405180910390f35b348015610167575f80fd5b50610182600480360381019061017d9190610f39565b61072a565b60405161018f9190610f20565b60405180910390f35b3480156101a3575f80fd5b506101be60048036038101906101b99190610db5565b610754565b6040516101ce9493929190610f95565b60405180910390f35b3480156101e2575f80fd5b506101fd60048036038101906101f89190610db5565b6107ba565b005b34801561020a575f80fd5b5061022560048036038101906102209190610db5565b610a8c565b005b348015610232575f80fd5b5061023b610d79565b6040516102489190610fd8565b60405180910390f35b60028181548110610260575f80fd5b905f5260205f20015f915054906101000a900473ffffffffffffffffffffffffffffffffffffffff1681565b60035f3373ffffffffffffffffffffffffffffffffffffffff1673ffffffffffffffffffffffffffffffffffffffff1681526020019081526020015f205f9054906101000a900460ff16610315576040517f08c379a000000000000000000000000000000000000000000000000000000000815260040161030c9061104b565b60405180910390fd5b5f6001805490509050600160405180608001604052808573ffffffffffffffffffffffffffffffffffffffff1681526020018481526020015f81526020015f1515815250908060018154018082558091505060019003905f5260205f2090600402015f909190919091505f820151815f015f6101000a81548173ffffffffffffffffffffffffffffffffffffffff021916908373ffffffffffffffffffffffffffffffffffffffff16021790555060208201518160010155604082015181600201556060820151816003015f6101000a81548160ff02191690831515021790555050508273ffffffffffffffffffffffffffffffffffffffff163373ffffffffffffffffffffffffffffffffffffffff167f3fb97b920c2c07679e3e95269702a384038f15c8650ca65821c1d2f1c4bb48788385604051610457929190611069565b60405180910390a3505050565b60035f3373ffffffffffffffffffffffffffffffffffffffff1673ffffffffffffffffffffffffffffffffffffffff1681526020019081526020015f205f9054906101000a900460ff166104ed576040517f08c379a00000000000000000000000000000000000000000000000000000000081526004016104e49061104b565b60405180910390fd5b80600180549050811115610536576040517f08c379a000000000000000000000000000000000000000000000000000000000815260040161052d906110da565b60405180910390fd5b8160045f8281526020019081526020015f205f3373ffffffffffffffffffffffffffffffffffffffff1673ffffffffffffffffffffffffffffffffffffffff1681526020019081526020015f205f9054906101000a900460ff16156105d0576040517f08c379a00000000000000000000000000000000000000000000000000000000081526004016105c790611142565b60405180910390fd5b5f600184815481106105e5576105e4611160565b5b905f5260205f209060040201905060045f8581526020019081526020015f205f3373ffffffffffffffffffffffffffffffffffffffff1673ffffffffffffffffffffffffffffffffffffffff1681526020019081526020015f205f9054906101000a900460ff1661068b576040517f08c379a0000000000000000000000000000000000000000000000000000000008152600401610682906111d7565b60405180910390fd5b806002015f81548092919061069f90611222565b91905055505f60045f8681526020019081526020015f205f3373ffffffffffffffffffffffffffffffffffffffff1673ffffffffffffffffffffffffffffffffffffffff1681526020019081526020015f205f6101000a81548160ff02191690831515021790555050505050565b6003602052805f5260405f205f915054906101000a900460ff1681565b6004602052815f5260405f20602052805f5260405f205f915091509054906101000a900460ff1681565b60018181548110610763575f80fd5b905f5260205f2090600402015f91509050805f015f9054906101000a900473ffffffffffffffffffffffffffffffffffffffff1690806001015490806002015490806003015f9054906101000a900460ff16905084565b60035f3373ffffffffffffffffffffffffffffffffffffffff1673ffffffffffffffffffffffffffffffffffffffff1681526020019081526020015f205f9054906101000a900460ff16610843576040517f08c379a000000000000000000000000000000000000000000000000000000000815260040161083a9061104b565b60405180910390fd5b8060018054905081111561088c576040517f08c379a0000000000000000000000000000000000000000000000000000000008152600401610883906110da565b60405180910390fd5b81600181815481106108a1576108a0611160565b5b905f5260205f2090600402016003015f9054906101000a900460ff16156108fd576040517f08c379a00000000000000000000000000000000000000000000000000000000081526004016108f490611293565b60405180910390fd5b8260045f8281526020019081526020015f205f3373ffffffffffffffffffffffffffffffffffffffff1673ffffffffffffffffffffffffffffffffffffffff1681526020019081526020015f205f9054906101000a900460ff1615610997576040517f08c379a000000000000000000000000000000000000000000000000000000000815260040161098e90611142565b60405180910390fd5b5f600185815481106109ac576109ab611160565b5b905f5260205f2090600402019050806002015f8154809291906109ce906112b1565b9190505550600160045f8781526020019081526020015f205f3373ffffffffffffffffffffffffffffffffffffffff1673ffffffffffffffffffffffffffffffffffffffff1681526020019081526020015f205f6101000a81548160ff0219169083151502179055503373ffffffffffffffffffffffffffffffffffffffff167ff13bfe0b6ec5df39265dccb0a01a09aa4162489c7a083dc6670bde0255d02ca786604051610a7d9190610fd8565b60405180910390a25050505050565b60035f3373ffffffffffffffffffffffffffffffffffffffff1673ffffffffffffffffffffffffffffffffffffffff1681526020019081526020015f205f9054906101000a900460ff16610b15576040517f08c379a0000000000000000000000000000000000000000000000000000000008152600401610b0c9061104b565b60405180910390fd5b80600180549050811115610b5e576040517f08c379a0000000000000000000000000000000000000000000000000000000008152600401610b55906110da565b60405180910390fd5b8160018181548110610b7357610b72611160565b5b905f5260205f2090600402016003015f9054906101000a900460ff1615610bcf576040517f08c379a0000000000000000000000000000000000000000000000000000000008152600401610bc690611293565b60405180910390fd5b5f60018481548110610be457610be3611160565b5b905f5260205f20906004020190505f5481600201541015610c3a576040517f08c379a0000000000000000000000000000000000000000000000000000000008152600401610c3190611342565b60405180910390fd5b6001816003015f6101000a81548160ff0219169083151502179055505f815f015f9054906101000a900473ffffffffffffffffffffffffffffffffffffffff1673ffffffffffffffffffffffffffffffffffffffff168260010154604051610ca19061138d565b5f6040518083038185875af1925050503d805f8114610cdb576040519150601f19603f3d011682016040523d82523d5f602084013e610ce0565b606091505b5050905080610d24576040517f08c379a0000000000000000000000000000000000000000000000000000000008152600401610d1b906113eb565b60405180910390fd5b3373ffffffffffffffffffffffffffffffffffffffff167f6f6c6d78a4851d4c222c8404fc92372ee84b7b81054305ae8ea3c83c2dabd42e86604051610d6a9190610fd8565b60405180910390a25050505050565b5f5481565b5f80fd5b5f819050919050565b610d9481610d82565b8114610d9e575f80fd5b50565b5f81359050610daf81610d8b565b92915050565b5f60208284031215610dca57610dc9610d7e565b5b5f610dd784828501610da1565b91505092915050565b5f73ffffffffffffffffffffffffffffffffffffffff82169050919050565b5f610e0982610de0565b9050919050565b610e1981610dff565b82525050565b5f602082019050610e325f830184610e10565b92915050565b5f610e4282610de0565b9050919050565b610e5281610e38565b8114610e5c575f80fd5b50565b5f81359050610e6d81610e49565b92915050565b5f8060408385031215610e8957610e88610d7e565b5b5f610e9685828601610e5f565b9250506020610ea785828601610da1565b9150509250929050565b610eba81610dff565b8114610ec4575f80fd5b50565b5f81359050610ed581610eb1565b92915050565b5f60208284031215610ef057610eef610d7e565b5b5f610efd84828501610ec7565b91505092915050565b5f8115159050919050565b610f1a81610f06565b82525050565b5f602082019050610f335f830184610f11565b92915050565b5f8060408385031215610f4f57610f4e610d7e565b5b5f610f5c85828601610da1565b9250506020610f6d85828601610ec7565b9150509250929050565b610f8081610e38565b82525050565b610f8f81610d82565b82525050565b5f608082019050610fa85f830187610f77565b610fb56020830186610f86565b610fc26040830185610f86565b610fcf6060830184610f11565b95945050505050565b5f602082019050610feb5f830184610f86565b92915050565b5f82825260208201905092915050565b7f696e76616c6964206f776e6572000000000000000000000000000000000000005f82015250565b5f611035600d83610ff1565b915061104082611001565b602082019050919050565b5f6020820190508181035f83015261106281611029565b9050919050565b5f60408201905061107c5f830185610f86565b6110896020830184610f86565b9392505050565b7f696e76616c6964000000000000000000000000000000000000000000000000005f82015250565b5f6110c4600783610ff1565b91506110cf82611090565b602082019050919050565b5f6020820190508181035f8301526110f1816110b8565b9050919050565b7f616c726561647920617070726f766564000000000000000000000000000000005f82015250565b5f61112c601083610ff1565b9150611137826110f8565b602082019050919050565b5f6020820190508181035f83015261115981611120565b9050919050565b7f4e487b71000000000000000000000000000000000000000000000000000000005f52603260045260245ffd5b7f6e6f7420636f6e6669726d6564000000000000000000000000000000000000005f82015250565b5f6111c1600d83610ff1565b91506111cc8261118d565b602082019050919050565b5f6020820190508181035f8301526111ee816111b5565b9050919050565b7f4e487b71000000000000000000000000000000000000000000000000000000005f52601160045260245ffd5b5f61122c82610d82565b91505f820361123e5761123d6111f5565b5b600182039050919050565b7f616c7265616479206578656375746564000000000000000000000000000000005f82015250565b5f61127d601083610ff1565b915061128882611249565b602082019050919050565b5f6020820190508181035f8301526112aa81611271565b9050919050565b5f6112bb82610d82565b91507fffffffffffffffffffffffffffffffffffffffffffffffffffffffffffffffff82036112ed576112ec6111f5565b5b600182019050919050565b7f6e6f7420656e6f75676820636f6e6669726d6174696f6e7300000000000000005f82015250565b5f61132c601883610ff1565b9150611337826112f8565b602082019050919050565b5f6020820190508181035f83015261135981611320565b9050919050565b5f81905092915050565b50565b5f6113785f83611360565b91506113838261136a565b5f82019050919050565b5f6113978261136d565b9150819050919050565b7f6e6f7420657865637574656400000000000000000000000000000000000000005f82015250565b5f6113d5600c83610ff1565b91506113e0826113a1565b602082019050919050565b5f6020820190508181035f830152611402816113c9565b905091905056fea26469706673582212203435ee5a03115a0436b77ba724d0afc3d5630dfd7d21162c6ea525747f46eadf64736f6c634300081a0033",
					"opcodes": "PUSH1 0x80 PUSH1 0x40 MSTORE CALLVALUE DUP1 ISZERO PUSH2 0xF JUMPI PUSH0 DUP1 REVERT JUMPDEST POP PUSH1 0x40 MLOAD PUSH2 0x1B26 CODESIZE SUB DUP1 PUSH2 0x1B26 DUP4 CODECOPY DUP2 DUP2 ADD PUSH1 0x40 MSTORE DUP2 ADD SWAP1 PUSH2 0x31 SWAP2 SWAP1 PUSH2 0x4A3 JUMP JUMPDEST PUSH0 DUP3 MLOAD GT PUSH2 0x74 JUMPI PUSH1 0x40 MLOAD PUSH32 0x8C379A000000000000000000000000000000000000000000000000000000000 DUP2 MSTORE PUSH1 0x4 ADD PUSH2 0x6B SWAP1 PUSH2 0x557 JUMP JUMPDEST PUSH1 0x40 MLOAD DUP1 SWAP2 SUB SWAP1 REVERT JUMPDEST PUSH0 DUP2 GT DUP1 ISZERO PUSH2 0x84 JUMPI POP DUP2 MLOAD DUP2 GT ISZERO JUMPDEST PUSH2 0xC3 JUMPI PUSH1 0x40 MLOAD PUSH32 0x8C379A000000000000000000000000000000000000000000000000000000000 DUP2 MSTORE PUSH1 0x4 ADD PUSH2 0xBA SWAP1 PUSH2 0x5BF JUMP JUMPDEST PUSH1 0x40 MLOAD DUP1 SWAP2 SUB SWAP1 REVERT JUMPDEST PUSH0 JUMPDEST DUP3 MLOAD DUP2 LT ISZERO PUSH2 0x2A7 JUMPI PUSH0 DUP4 DUP3 DUP2 MLOAD DUP2 LT PUSH2 0xE2 JUMPI PUSH2 0xE1 PUSH2 0x5DD JUMP JUMPDEST JUMPDEST PUSH1 0x20 MUL PUSH1 0x20 ADD ADD MLOAD SWAP1 POP PUSH0 PUSH20 0xFFFFFFFFFFFFFFFFFFFFFFFFFFFFFFFFFFFFFFFF AND DUP2 PUSH20 0xFFFFFFFFFFFFFFFFFFFFFFFFFFFFFFFFFFFFFFFF AND SUB PUSH2 0x15A JUMPI PUSH1 0x40 MLOAD PUSH32 0x8C379A000000000000000000000000000000000000000000000000000000000 DUP2 MSTORE PUSH1 0x4 ADD PUSH2 0x151 SWAP1 PUSH2 0x654 JUMP JUMPDEST PUSH1 0x40 MLOAD DUP1 SWAP2 SUB SWAP1 REVERT JUMPDEST PUSH1 0x3 PUSH0 DUP3 PUSH20 0xFFFFFFFFFFFFFFFFFFFFFFFFFFFFFFFFFFFFFFFF AND PUSH20 0xFFFFFFFFFFFFFFFFFFFFFFFFFFFFFFFFFFFFFFFF AND DUP2 MSTORE PUSH1 0x20 ADD SWAP1 DUP2 MSTORE PUSH1 0x20 ADD PUSH0 KECCAK256 PUSH0 SWAP1 SLOAD SWAP1 PUSH2 0x100 EXP SWAP1 DIV PUSH1 0xFF AND ISZERO PUSH2 0x1E4 JUMPI PUSH1 0x40 MLOAD PUSH32 0x8C379A000000000000000000000000000000000000000000000000000000000 DUP2 MSTORE PUSH1 0x4 ADD PUSH2 0x1DB SWAP1 PUSH2 0x6BC JUMP JUMPDEST PUSH1 0x40 MLOAD DUP1 SWAP2 SUB SWAP1 REVERT JUMPDEST PUSH1 0x1 PUSH1 0x3 PUSH0 DUP4 PUSH20 0xFFFFFFFFFFFFFFFFFFFFFFFFFFFFFFFFFFFFFFFF AND PUSH20 0xFFFFFFFFFFFFFFFFFFFFFFFFFFFFFFFFFFFFFFFF AND DUP2 MSTORE PUSH1 0x20 ADD SWAP1 DUP2 MSTORE PUSH1 0x20 ADD PUSH0 KECCAK256 PUSH0 PUSH2 0x100 EXP DUP2 SLOAD DUP2 PUSH1 0xFF MUL NOT AND SWAP1 DUP4 ISZERO ISZERO MUL OR SWAP1 SSTORE POP PUSH1 0x2 DUP2 SWAP1 DUP1 PUSH1 0x1 DUP2 SLOAD ADD DUP1 DUP3 SSTORE DUP1 SWAP2 POP POP PUSH1 0x1 SWAP1 SUB SWAP1 PUSH0 MSTORE PUSH1 0x20 PUSH0 KECCAK256 ADD PUSH0 SWAP1 SWAP2 SWAP1 SWAP2 SWAP1 SWAP2 PUSH2 0x100 EXP DUP2 SLOAD DUP2 PUSH20 0xFFFFFFFFFFFFFFFFFFFFFFFFFFFFFFFFFFFFFFFF MUL NOT AND SWAP1 DUP4 PUSH20 0xFFFFFFFFFFFFFFFFFFFFFFFFFFFFFFFFFFFFFFFF AND MUL OR SWAP1 SSTORE POP POP DUP1 DUP1 PUSH1 0x1 ADD SWAP2 POP POP PUSH2 0xC5 JUMP JUMPDEST POP DUP1 PUSH0 DUP2 SWAP1 SSTORE POP POP POP PUSH2 0x6DA JUMP JUMPDEST PUSH0 PUSH1 0x40 MLOAD SWAP1 POP SWAP1 JUMP JUMPDEST PUSH0 DUP1 REVERT JUMPDEST PUSH0 DUP1 REVERT JUMPDEST PUSH0 DUP1 REVERT JUMPDEST PUSH0 PUSH1 0x1F NOT PUSH1 0x1F DUP4 ADD AND SWAP1 POP SWAP2 SWAP1 POP JUMP JUMPDEST PUSH32 0x4E487B7100000000000000000000000000000000000000000000000000000000 PUSH0 MSTORE PUSH1 0x41 PUSH1 0x4 MSTORE PUSH1 0x24 PUSH0 REVERT JUMPDEST PUSH2 0x310 DUP3 PUSH2 0x2CA JUMP JUMPDEST DUP2 ADD DUP2 DUP2 LT PUSH8 0xFFFFFFFFFFFFFFFF DUP3 GT OR ISZERO PUSH2 0x32F JUMPI PUSH2 0x32E PUSH2 0x2DA JUMP JUMPDEST JUMPDEST DUP1 PUSH1 0x40 MSTORE POP POP POP JUMP JUMPDEST PUSH0 PUSH2 0x341 PUSH2 0x2B5 JUMP JUMPDEST SWAP1 POP PUSH2 0x34D DUP3 DUP3 PUSH2 0x307 JUMP JUMPDEST SWAP2 SWAP1 POP JUMP JUMPDEST PUSH0 PUSH8 0xFFFFFFFFFFFFFFFF DUP3 GT ISZERO PUSH2 0x36C JUMPI PUSH2 0x36B PUSH2 0x2DA JUMP JUMPDEST JUMPDEST PUSH1 0x20 DUP3 MUL SWAP1 POP PUSH1 0x20 DUP2 ADD SWAP1 POP SWAP2 SWAP1 POP JUMP JUMPDEST PUSH0 DUP1 REVERT JUMPDEST PUSH0 PUSH20 0xFFFFFFFFFFFFFFFFFFFFFFFFFFFFFFFFFFFFFFFF DUP3 AND SWAP1 POP SWAP2 SWAP1 POP JUMP JUMPDEST PUSH0 PUSH2 0x3AA DUP3 PUSH2 0x381 JUMP JUMPDEST SWAP1 POP SWAP2 SWAP1 POP JUMP JUMPDEST PUSH2 0x3BA DUP2 PUSH2 0x3A0 JUMP JUMPDEST DUP2 EQ PUSH2 0x3C4 JUMPI PUSH0 DUP1 REVERT JUMPDEST POP JUMP JUMPDEST PUSH0 DUP2 MLOAD SWAP1 POP PUSH2 0x3D5 DUP2 PUSH2 0x3B1 JUMP JUMPDEST SWAP3 SWAP2 POP POP JUMP JUMPDEST PUSH0 PUSH2 0x3ED PUSH2 0x3E8 DUP5 PUSH2 0x352 JUMP JUMPDEST PUSH2 0x338 JUMP JUMPDEST SWAP1 POP DUP1 DUP4 DUP3 MSTORE PUSH1 0x20 DUP3 ADD SWAP1 POP PUSH1 0x20 DUP5 MUL DUP4 ADD DUP6 DUP2 GT ISZERO PUSH2 0x410 JUMPI PUSH2 0x40F PUSH2 0x37D JUMP JUMPDEST JUMPDEST DUP4 JUMPDEST DUP2 DUP2 LT ISZERO PUSH2 0x439 JUMPI DUP1 PUSH2 0x425 DUP9 DUP3 PUSH2 0x3C7 JUMP JUMPDEST DUP5 MSTORE PUSH1 0x20 DUP5 ADD SWAP4 POP POP PUSH1 0x20 DUP2 ADD SWAP1 POP PUSH2 0x412 JUMP JUMPDEST POP POP POP SWAP4 SWAP3 POP POP POP JUMP JUMPDEST PUSH0 DUP3 PUSH1 0x1F DUP4 ADD SLT PUSH2 0x457 JUMPI PUSH2 0x456 PUSH2 0x2C6 JUMP JUMPDEST JUMPDEST DUP2 MLOAD PUSH2 0x467 DUP5 DUP3 PUSH1 0x20 DUP7 ADD PUSH2 0x3DB JUMP JUMPDEST SWAP2 POP POP SWAP3 SWAP2 POP POP JUMP JUMPDEST PUSH0 DUP2 SWAP1 POP SWAP2 SWAP1 POP JUMP JUMPDEST PUSH2 0x482 DUP2 PUSH2 0x470 JUMP JUMPDEST DUP2 EQ PUSH2 0x48C JUMPI PUSH0 DUP1 REVERT JUMPDEST POP JUMP JUMPDEST PUSH0 DUP2 MLOAD SWAP1 POP PUSH2 0x49D DUP2 PUSH2 0x479 JUMP JUMPDEST SWAP3 SWAP2 POP POP JUMP JUMPDEST PUSH0 DUP1 PUSH1 0x40 DUP4 DUP6 SUB SLT ISZERO PUSH2 0x4B9 JUMPI PUSH2 0x4B8 PUSH2 0x2BE JUMP JUMPDEST JUMPDEST PUSH0 DUP4 ADD MLOAD PUSH8 0xFFFFFFFFFFFFFFFF DUP2 GT ISZERO PUSH2 0x4D6 JUMPI PUSH2 0x4D5 PUSH2 0x2C2 JUMP JUMPDEST JUMPDEST PUSH2 0x4E2 DUP6 DUP3 DUP7 ADD PUSH2 0x443 JUMP JUMPDEST SWAP3 POP POP PUSH1 0x20 PUSH2 0x4F3 DUP6 DUP3 DUP7 ADD PUSH2 0x48F JUMP JUMPDEST SWAP2 POP POP SWAP3 POP SWAP3 SWAP1 POP JUMP JUMPDEST PUSH0 DUP3 DUP3 MSTORE PUSH1 0x20 DUP3 ADD SWAP1 POP SWAP3 SWAP2 POP POP JUMP JUMPDEST PUSH32 0x6F776E6572732073686F756C64206E6F74206265207A65726F00000000000000 PUSH0 DUP3 ADD MSTORE POP JUMP JUMPDEST PUSH0 PUSH2 0x541 PUSH1 0x19 DUP4 PUSH2 0x4FD JUMP JUMPDEST SWAP2 POP PUSH2 0x54C DUP3 PUSH2 0x50D JUMP JUMPDEST PUSH1 0x20 DUP3 ADD SWAP1 POP SWAP2 SWAP1 POP JUMP JUMPDEST PUSH0 PUSH1 0x20 DUP3 ADD SWAP1 POP DUP2 DUP2 SUB PUSH0 DUP4 ADD MSTORE PUSH2 0x56E DUP2 PUSH2 0x535 JUMP JUMPDEST SWAP1 POP SWAP2 SWAP1 POP JUMP JUMPDEST PUSH32 0x496E76616C6964205472616E73616374696F6E00000000000000000000000000 PUSH0 DUP3 ADD MSTORE POP JUMP JUMPDEST PUSH0 PUSH2 0x5A9 PUSH1 0x13 DUP4 PUSH2 0x4FD JUMP JUMPDEST SWAP2 POP PUSH2 0x5B4 DUP3 PUSH2 0x575 JUMP JUMPDEST PUSH1 0x20 DUP3 ADD SWAP1 POP SWAP2 SWAP1 POP JUMP JUMPDEST PUSH0 PUSH1 0x20 DUP3 ADD SWAP1 POP DUP2 DUP2 SUB PUSH0 DUP4 ADD MSTORE PUSH2 0x5D6 DUP2 PUSH2 0x59D JUMP JUMPDEST SWAP1 POP SWAP2 SWAP1 POP JUMP JUMPDEST PUSH32 0x4E487B7100000000000000000000000000000000000000000000000000000000 PUSH0 MSTORE PUSH1 0x32 PUSH1 0x4 MSTORE PUSH1 0x24 PUSH0 REVERT JUMPDEST PUSH32 0x696E76616C6964206F776E657200000000000000000000000000000000000000 PUSH0 DUP3 ADD MSTORE POP JUMP JUMPDEST PUSH0 PUSH2 0x63E PUSH1 0xD DUP4 PUSH2 0x4FD JUMP JUMPDEST SWAP2 POP PUSH2 0x649 DUP3 PUSH2 0x60A JUMP JUMPDEST PUSH1 0x20 DUP3 ADD SWAP1 POP SWAP2 SWAP1 POP JUMP JUMPDEST PUSH0 PUSH1 0x20 DUP3 ADD SWAP1 POP DUP2 DUP2 SUB PUSH0 DUP4 ADD MSTORE PUSH2 0x66B DUP2 PUSH2 0x632 JUMP JUMPDEST SWAP1 POP SWAP2 SWAP1 POP JUMP JUMPDEST PUSH32 0x756E69717565206F776E65722072657175697265640000000000000000000000 PUSH0 DUP3 ADD MSTORE POP JUMP JUMPDEST PUSH0 PUSH2 0x6A6 PUSH1 0x15 DUP4 PUSH2 0x4FD JUMP JUMPDEST SWAP2 POP PUSH2 0x6B1 DUP3 PUSH2 0x672 JUMP JUMPDEST PUSH1 0x20 DUP3 ADD SWAP1 POP SWAP2 SWAP1 POP JUMP JUMPDEST PUSH0 PUSH1 0x20 DUP3 ADD SWAP1 POP DUP2 DUP2 SUB PUSH0 DUP4 ADD MSTORE PUSH2 0x6D3 DUP2 PUSH2 0x69A JUMP JUMPDEST SWAP1 POP SWAP2 SWAP1 POP JUMP JUMPDEST PUSH2 0x143F DUP1 PUSH2 0x6E7 PUSH0 CODECOPY PUSH0 RETURN INVALID PUSH1 0x80 PUSH1 0x40 MSTORE PUSH1 0x4 CALLDATASIZE LT PUSH2 0x89 JUMPI PUSH0 CALLDATALOAD PUSH1 0xE0 SHR DUP1 PUSH4 0x80F59A65 GT PUSH2 0x58 JUMPI DUP1 PUSH4 0x80F59A65 EQ PUSH2 0x15C JUMPI DUP1 PUSH4 0x9ACE38C2 EQ PUSH2 0x198 JUMPI DUP1 PUSH4 0xB759F954 EQ PUSH2 0x1D7 JUMPI DUP1 PUSH4 0xD3ECEBD7 EQ PUSH2 0x1FF JUMPI DUP1 PUSH4 0xDC8452CD EQ PUSH2 0x227 JUMPI PUSH2 0x90 JUMP JUMPDEST DUP1 PUSH4 0x25E7C27 EQ PUSH2 0x94 JUMPI DUP1 PUSH4 0x203DD666 EQ PUSH2 0xD0 JUMPI DUP1 PUSH4 0x20C5429B EQ PUSH2 0xF8 JUMPI DUP1 PUSH4 0x2F54BF6E EQ PUSH2 0x120 JUMPI PUSH2 0x90 JUMP JUMPDEST CALLDATASIZE PUSH2 0x90 JUMPI STOP JUMPDEST PUSH0 DUP1 REVERT JUMPDEST CALLVALUE DUP1 ISZERO PUSH2 0x9F JUMPI PUSH0 DUP1 REVERT JUMPDEST POP PUSH2 0xBA PUSH1 0x4 DUP1 CALLDATASIZE SUB DUP2 ADD SWAP1 PUSH2 0xB5 SWAP2 SWAP1 PUSH2 0xDB5 JUMP JUMPDEST PUSH2 0x251 JUMP JUMPDEST PUSH1 0x40 MLOAD PUSH2 0xC7 SWAP2 SWAP1 PUSH2 0xE1F JUMP JUMPDEST PUSH1 0x40 MLOAD DUP1 SWAP2 SUB SWAP1 RETURN JUMPDEST CALLVALUE DUP1 ISZERO PUSH2 0xDB JUMPI PUSH0 DUP1 REVERT JUMPDEST POP PUSH2 0xF6 PUSH1 0x4 DUP1 CALLDATASIZE SUB DUP2 ADD SWAP1 PUSH2 0xF1 SWAP2 SWAP1 PUSH2 0xE73 JUMP JUMPDEST PUSH2 0x28C JUMP JUMPDEST STOP JUMPDEST CALLVALUE DUP1 ISZERO PUSH2 0x103 JUMPI PUSH0 DUP1 REVERT JUMPDEST POP PUSH2 0x11E PUSH1 0x4 DUP1 CALLDATASIZE SUB DUP2 ADD SWAP1 PUSH2 0x119 SWAP2 SWAP1 PUSH2 0xDB5 JUMP JUMPDEST PUSH2 0x464 JUMP JUMPDEST STOP JUMPDEST CALLVALUE DUP1 ISZERO PUSH2 0x12B JUMPI PUSH0 DUP1 REVERT JUMPDEST POP PUSH2 0x146 PUSH1 0x4 DUP1 CALLDATASIZE SUB DUP2 ADD SWAP1 PUSH2 0x141 SWAP2 SWAP1 PUSH2 0xEDB JUMP JUMPDEST PUSH2 0x70D JUMP JUMPDEST PUSH1 0x40 MLOAD PUSH2 0x153 SWAP2 SWAP1 PUSH2 0xF20 JUMP JUMPDEST PUSH1 0x40 MLOAD DUP1 SWAP2 SUB SWAP1 RETURN JUMPDEST CALLVALUE DUP1 ISZERO PUSH2 0x167 JUMPI PUSH0 DUP1 REVERT JUMPDEST POP PUSH2 0x182 PUSH1 0x4 DUP1 CALLDATASIZE SUB DUP2 ADD SWAP1 PUSH2 0x17D SWAP2 SWAP1 PUSH2 0xF39 JUMP JUMPDEST PUSH2 0x72A JUMP JUMPDEST PUSH1 0x40 MLOAD PUSH2 0x18F SWAP2 SWAP1 PUSH2 0xF20 JUMP JUMPDEST PUSH1 0x40 MLOAD DUP1 SWAP2 SUB SWAP1 RETURN JUMPDEST CALLVALUE DUP1 ISZERO PUSH2 0x1A3 JUMPI PUSH0 DUP1 REVERT JUMPDEST POP PUSH2 0x1BE PUSH1 0x4 DUP1 CALLDATASIZE SUB DUP2 ADD SWAP1 PUSH2 0x1B9 SWAP2 SWAP1 PUSH2 0xDB5 JUMP JUMPDEST PUSH2 0x754 JUMP JUMPDEST PUSH1 0x40 MLOAD PUSH2 0x1CE SWAP5 SWAP4 SWAP3 SWAP2 SWAP1 PUSH2 0xF95 JUMP JUMPDEST PUSH1 0x40 MLOAD DUP1 SWAP2 SUB SWAP1 RETURN JUMPDEST CALLVALUE DUP1 ISZERO PUSH2 0x1E2 JUMPI PUSH0 DUP1 REVERT JUMPDEST POP PUSH2 0x1FD PUSH1 0x4 DUP1 CALLDATASIZE SUB DUP2 ADD SWAP1 PUSH2 0x1F8 SWAP2 SWAP1 PUSH2 0xDB5 JUMP JUMPDEST PUSH2 0x7BA JUMP JUMPDEST STOP JUMPDEST CALLVALUE DUP1 ISZERO PUSH2 0x20A JUMPI PUSH0 DUP1 REVERT JUMPDEST POP PUSH2 0x225 PUSH1 0x4 DUP1 CALLDATASIZE SUB DUP2 ADD SWAP1 PUSH2 0x220 SWAP2 SWAP1 PUSH2 0xDB5 JUMP JUMPDEST PUSH2 0xA8C JUMP JUMPDEST STOP JUMPDEST CALLVALUE DUP1 ISZERO PUSH2 0x232 JUMPI PUSH0 DUP1 REVERT JUMPDEST POP PUSH2 0x23B PUSH2 0xD79 JUMP JUMPDEST PUSH1 0x40 MLOAD PUSH2 0x248 SWAP2 SWAP1 PUSH2 0xFD8 JUMP JUMPDEST PUSH1 0x40 MLOAD DUP1 SWAP2 SUB SWAP1 RETURN JUMPDEST PUSH1 0x2 DUP2 DUP2 SLOAD DUP2 LT PUSH2 0x260 JUMPI PUSH0 DUP1 REVERT JUMPDEST SWAP1 PUSH0 MSTORE PUSH1 0x20 PUSH0 KECCAK256 ADD PUSH0 SWAP2 POP SLOAD SWAP1 PUSH2 0x100 EXP SWAP1 DIV PUSH20 0xFFFFFFFFFFFFFFFFFFFFFFFFFFFFFFFFFFFFFFFF AND DUP2 JUMP JUMPDEST PUSH1 0x3 PUSH0 CALLER PUSH20 0xFFFFFFFFFFFFFFFFFFFFFFFFFFFFFFFFFFFFFFFF AND PUSH20 0xFFFFFFFFFFFFFFFFFFFFFFFFFFFFFFFFFFFFFFFF AND DUP2 MSTORE PUSH1 0x20 ADD SWAP1 DUP2 MSTORE PUSH1 0x20 ADD PUSH0 KECCAK256 PUSH0 SWAP1 SLOAD SWAP1 PUSH2 0x100 EXP SWAP1 DIV PUSH1 0xFF AND PUSH2 0x315 JUMPI PUSH1 0x40 MLOAD PUSH32 0x8C379A000000000000000000000000000000000000000000000000000000000 DUP2 MSTORE PUSH1 0x4 ADD PUSH2 0x30C SWAP1 PUSH2 0x104B JUMP JUMPDEST PUSH1 0x40 MLOAD DUP1 SWAP2 SUB SWAP1 REVERT JUMPDEST PUSH0 PUSH1 0x1 DUP1 SLOAD SWAP1 POP SWAP1 POP PUSH1 0x1 PUSH1 0x40 MLOAD DUP1 PUSH1 0x80 ADD PUSH1 0x40 MSTORE DUP1 DUP6 PUSH20 0xFFFFFFFFFFFFFFFFFFFFFFFFFFFFFFFFFFFFFFFF AND DUP2 MSTORE PUSH1 0x20 ADD DUP5 DUP2 MSTORE PUSH1 0x20 ADD PUSH0 DUP2 MSTORE PUSH1 0x20 ADD PUSH0 ISZERO ISZERO DUP2 MSTORE POP SWAP1 DUP1 PUSH1 0x1 DUP2 SLOAD ADD DUP1 DUP3 SSTORE DUP1 SWAP2 POP POP PUSH1 0x1 SWAP1 SUB SWAP1 PUSH0 MSTORE PUSH1 0x20 PUSH0 KECCAK256 SWAP1 PUSH1 0x4 MUL ADD PUSH0 SWAP1 SWAP2 SWAP1 SWAP2 SWAP1 SWAP2 POP PUSH0 DUP3 ADD MLOAD DUP2 PUSH0 ADD PUSH0 PUSH2 0x100 EXP DUP2 SLOAD DUP2 PUSH20 0xFFFFFFFFFFFFFFFFFFFFFFFFFFFFFFFFFFFFFFFF MUL NOT AND SWAP1 DUP4 PUSH20 0xFFFFFFFFFFFFFFFFFFFFFFFFFFFFFFFFFFFFFFFF AND MUL OR SWAP1 SSTORE POP PUSH1 0x20 DUP3 ADD MLOAD DUP2 PUSH1 0x1 ADD SSTORE PUSH1 0x40 DUP3 ADD MLOAD DUP2 PUSH1 0x2 ADD SSTORE PUSH1 0x60 DUP3 ADD MLOAD DUP2 PUSH1 0x3 ADD PUSH0 PUSH2 0x100 EXP DUP2 SLOAD DUP2 PUSH1 0xFF MUL NOT AND SWAP1 DUP4 ISZERO ISZERO MUL OR SWAP1 SSTORE POP POP POP DUP3 PUSH20 0xFFFFFFFFFFFFFFFFFFFFFFFFFFFFFFFFFFFFFFFF AND CALLER PUSH20 0xFFFFFFFFFFFFFFFFFFFFFFFFFFFFFFFFFFFFFFFF AND PUSH32 0x3FB97B920C2C07679E3E95269702A384038F15C8650CA65821C1D2F1C4BB4878 DUP4 DUP6 PUSH1 0x40 MLOAD PUSH2 0x457 SWAP3 SWAP2 SWAP1 PUSH2 0x1069 JUMP JUMPDEST PUSH1 0x40 MLOAD DUP1 SWAP2 SUB SWAP1 LOG3 POP POP POP JUMP JUMPDEST PUSH1 0x3 PUSH0 CALLER PUSH20 0xFFFFFFFFFFFFFFFFFFFFFFFFFFFFFFFFFFFFFFFF AND PUSH20 0xFFFFFFFFFFFFFFFFFFFFFFFFFFFFFFFFFFFFFFFF AND DUP2 MSTORE PUSH1 0x20 ADD SWAP1 DUP2 MSTORE PUSH1 0x20 ADD PUSH0 KECCAK256 PUSH0 SWAP1 SLOAD SWAP1 PUSH2 0x100 EXP SWAP1 DIV PUSH1 0xFF AND PUSH2 0x4ED JUMPI PUSH1 0x40 MLOAD PUSH32 0x8C379A000000000000000000000000000000000000000000000000000000000 DUP2 MSTORE PUSH1 0x4 ADD PUSH2 0x4E4 SWAP1 PUSH2 0x104B JUMP JUMPDEST PUSH1 0x40 MLOAD DUP1 SWAP2 SUB SWAP1 REVERT JUMPDEST DUP1 PUSH1 0x1 DUP1 SLOAD SWAP1 POP DUP2 GT ISZERO PUSH2 0x536 JUMPI PUSH1 0x40 MLOAD PUSH32 0x8C379A000000000000000000000000000000000000000000000000000000000 DUP2 MSTORE PUSH1 0x4 ADD PUSH2 0x52D SWAP1 PUSH2 0x10DA JUMP JUMPDEST PUSH1 0x40 MLOAD DUP1 SWAP2 SUB SWAP1 REVERT JUMPDEST DUP2 PUSH1 0x4 PUSH0 DUP3 DUP2 MSTORE PUSH1 0x20 ADD SWAP1 DUP2 MSTORE PUSH1 0x20 ADD PUSH0 KECCAK256 PUSH0 CALLER PUSH20 0xFFFFFFFFFFFFFFFFFFFFFFFFFFFFFFFFFFFFFFFF AND PUSH20 0xFFFFFFFFFFFFFFFFFFFFFFFFFFFFFFFFFFFFFFFF AND DUP2 MSTORE PUSH1 0x20 ADD SWAP1 DUP2 MSTORE PUSH1 0x20 ADD PUSH0 KECCAK256 PUSH0 SWAP1 SLOAD SWAP1 PUSH2 0x100 EXP SWAP1 DIV PUSH1 0xFF AND ISZERO PUSH2 0x5D0 JUMPI PUSH1 0x40 MLOAD PUSH32 0x8C379A000000000000000000000000000000000000000000000000000000000 DUP2 MSTORE PUSH1 0x4 ADD PUSH2 0x5C7 SWAP1 PUSH2 0x1142 JUMP JUMPDEST PUSH1 0x40 MLOAD DUP1 SWAP2 SUB SWAP1 REVERT JUMPDEST PUSH0 PUSH1 0x1 DUP5 DUP2 SLOAD DUP2 LT PUSH2 0x5E5 JUMPI PUSH2 0x5E4 PUSH2 0x1160 JUMP JUMPDEST JUMPDEST SWAP1 PUSH0 MSTORE PUSH1 0x20 PUSH0 KECCAK256 SWAP1 PUSH1 0x4 MUL ADD SWAP1 POP PUSH1 0x4 PUSH0 DUP6 DUP2 MSTORE PUSH1 0x20 ADD SWAP1 DUP2 MSTORE PUSH1 0x20 ADD PUSH0 KECCAK256 PUSH0 CALLER PUSH20 0xFFFFFFFFFFFFFFFFFFFFFFFFFFFFFFFFFFFFFFFF AND PUSH20 0xFFFFFFFFFFFFFFFFFFFFFFFFFFFFFFFFFFFFFFFF AND DUP2 MSTORE PUSH1 0x20 ADD SWAP1 DUP2 MSTORE PUSH1 0x20 ADD PUSH0 KECCAK256 PUSH0 SWAP1 SLOAD SWAP1 PUSH2 0x100 EXP SWAP1 DIV PUSH1 0xFF AND PUSH2 0x68B JUMPI PUSH1 0x40 MLOAD PUSH32 0x8C379A000000000000000000000000000000000000000000000000000000000 DUP2 MSTORE PUSH1 0x4 ADD PUSH2 0x682 SWAP1 PUSH2 0x11D7 JUMP JUMPDEST PUSH1 0x40 MLOAD DUP1 SWAP2 SUB SWAP1 REVERT JUMPDEST DUP1 PUSH1 0x2 ADD PUSH0 DUP2 SLOAD DUP1 SWAP3 SWAP2 SWAP1 PUSH2 0x69F SWAP1 PUSH2 0x1222 JUMP JUMPDEST SWAP2 SWAP1 POP SSTORE POP PUSH0 PUSH1 0x4 PUSH0 DUP7 DUP2 MSTORE PUSH1 0x20 ADD SWAP1 DUP2 MSTORE PUSH1 0x20 ADD PUSH0 KECCAK256 PUSH0 CALLER PUSH20 0xFFFFFFFFFFFFFFFFFFFFFFFFFFFFFFFFFFFFFFFF AND PUSH20 0xFFFFFFFFFFFFFFFFFFFFFFFFFFFFFFFFFFFFFFFF AND DUP2 MSTORE PUSH1 0x20 ADD SWAP1 DUP2 MSTORE PUSH1 0x20 ADD PUSH0 KECCAK256 PUSH0 PUSH2 0x100 EXP DUP2 SLOAD DUP2 PUSH1 0xFF MUL NOT AND SWAP1 DUP4 ISZERO ISZERO MUL OR SWAP1 SSTORE POP POP POP POP POP JUMP JUMPDEST PUSH1 0x3 PUSH1 0x20 MSTORE DUP1 PUSH0 MSTORE PUSH1 0x40 PUSH0 KECCAK256 PUSH0 SWAP2 POP SLOAD SWAP1 PUSH2 0x100 EXP SWAP1 DIV PUSH1 0xFF AND DUP2 JUMP JUMPDEST PUSH1 0x4 PUSH1 0x20 MSTORE DUP2 PUSH0 MSTORE PUSH1 0x40 PUSH0 KECCAK256 PUSH1 0x20 MSTORE DUP1 PUSH0 MSTORE PUSH1 0x40 PUSH0 KECCAK256 PUSH0 SWAP2 POP SWAP2 POP SWAP1 SLOAD SWAP1 PUSH2 0x100 EXP SWAP1 DIV PUSH1 0xFF AND DUP2 JUMP JUMPDEST PUSH1 0x1 DUP2 DUP2 SLOAD DUP2 LT PUSH2 0x763 JUMPI PUSH0 DUP1 REVERT JUMPDEST SWAP1 PUSH0 MSTORE PUSH1 0x20 PUSH0 KECCAK256 SWAP1 PUSH1 0x4 MUL ADD PUSH0 SWAP2 POP SWAP1 POP DUP1 PUSH0 ADD PUSH0 SWAP1 SLOAD SWAP1 PUSH2 0x100 EXP SWAP1 DIV PUSH20 0xFFFFFFFFFFFFFFFFFFFFFFFFFFFFFFFFFFFFFFFF AND SWAP1 DUP1 PUSH1 0x1 ADD SLOAD SWAP1 DUP1 PUSH1 0x2 ADD SLOAD SWAP1 DUP1 PUSH1 0x3 ADD PUSH0 SWAP1 SLOAD SWAP1 PUSH2 0x100 EXP SWAP1 DIV PUSH1 0xFF AND SWAP1 POP DUP5 JUMP JUMPDEST PUSH1 0x3 PUSH0 CALLER PUSH20 0xFFFFFFFFFFFFFFFFFFFFFFFFFFFFFFFFFFFFFFFF AND PUSH20 0xFFFFFFFFFFFFFFFFFFFFFFFFFFFFFFFFFFFFFFFF AND DUP2 MSTORE PUSH1 0x20 ADD SWAP1 DUP2 MSTORE PUSH1 0x20 ADD PUSH0 KECCAK256 PUSH0 SWAP1 SLOAD SWAP1 PUSH2 0x100 EXP SWAP1 DIV PUSH1 0xFF AND PUSH2 0x843 JUMPI PUSH1 0x40 MLOAD PUSH32 0x8C379A000000000000000000000000000000000000000000000000000000000 DUP2 MSTORE PUSH1 0x4 ADD PUSH2 0x83A SWAP1 PUSH2 0x104B JUMP JUMPDEST PUSH1 0x40 MLOAD DUP1 SWAP2 SUB SWAP1 REVERT JUMPDEST DUP1 PUSH1 0x1 DUP1 SLOAD SWAP1 POP DUP2 GT ISZERO PUSH2 0x88C JUMPI PUSH1 0x40 MLOAD PUSH32 0x8C379A000000000000000000000000000000000000000000000000000000000 DUP2 MSTORE PUSH1 0x4 ADD PUSH2 0x883 SWAP1 PUSH2 0x10DA JUMP JUMPDEST PUSH1 0x40 MLOAD DUP1 SWAP2 SUB SWAP1 REVERT JUMPDEST DUP2 PUSH1 0x1 DUP2 DUP2 SLOAD DUP2 LT PUSH2 0x8A1 JUMPI PUSH2 0x8A0 PUSH2 0x1160 JUMP JUMPDEST JUMPDEST SWAP1 PUSH0 MSTORE PUSH1 0x20 PUSH0 KECCAK256 SWAP1 PUSH1 0x4 MUL ADD PUSH1 0x3 ADD PUSH0 SWAP1 SLOAD SWAP1 PUSH2 0x100 EXP SWAP1 DIV PUSH1 0xFF AND ISZERO PUSH2 0x8FD JUMPI PUSH1 0x40 MLOAD PUSH32 0x8C379A000000000000000000000000000000000000000000000000000000000 DUP2 MSTORE PUSH1 0x4 ADD PUSH2 0x8F4 SWAP1 PUSH2 0x1293 JUMP JUMPDEST PUSH1 0x40 MLOAD DUP1 SWAP2 SUB SWAP1 REVERT JUMPDEST DUP3 PUSH1 0x4 PUSH0 DUP3 DUP2 MSTORE PUSH1 0x20 ADD SWAP1 DUP2 MSTORE PUSH1 0x20 ADD PUSH0 KECCAK256 PUSH0 CALLER PUSH20 0xFFFFFFFFFFFFFFFFFFFFFFFFFFFFFFFFFFFFFFFF AND PUSH20 0xFFFFFFFFFFFFFFFFFFFFFFFFFFFFFFFFFFFFFFFF AND DUP2 MSTORE PUSH1 0x20 ADD SWAP1 DUP2 MSTORE PUSH1 0x20 ADD PUSH0 KECCAK256 PUSH0 SWAP1 SLOAD SWAP1 PUSH2 0x100 EXP SWAP1 DIV PUSH1 0xFF AND ISZERO PUSH2 0x997 JUMPI PUSH1 0x40 MLOAD PUSH32 0x8C379A000000000000000000000000000000000000000000000000000000000 DUP2 MSTORE PUSH1 0x4 ADD PUSH2 0x98E SWAP1 PUSH2 0x1142 JUMP JUMPDEST PUSH1 0x40 MLOAD DUP1 SWAP2 SUB SWAP1 REVERT JUMPDEST PUSH0 PUSH1 0x1 DUP6 DUP2 SLOAD DUP2 LT PUSH2 0x9AC JUMPI PUSH2 0x9AB PUSH2 0x1160 JUMP JUMPDEST JUMPDEST SWAP1 PUSH0 MSTORE PUSH1 0x20 PUSH0 KECCAK256 SWAP1 PUSH1 0x4 MUL ADD SWAP1 POP DUP1 PUSH1 0x2 ADD PUSH0 DUP2 SLOAD DUP1 SWAP3 SWAP2 SWAP1 PUSH2 0x9CE SWAP1 PUSH2 0x12B1 JUMP JUMPDEST SWAP2 SWAP1 POP SSTORE POP PUSH1 0x1 PUSH1 0x4 PUSH0 DUP8 DUP2 MSTORE PUSH1 0x20 ADD SWAP1 DUP2 MSTORE PUSH1 0x20 ADD PUSH0 KECCAK256 PUSH0 CALLER PUSH20 0xFFFFFFFFFFFFFFFFFFFFFFFFFFFFFFFFFFFFFFFF AND PUSH20 0xFFFFFFFFFFFFFFFFFFFFFFFFFFFFFFFFFFFFFFFF AND DUP2 MSTORE PUSH1 0x20 ADD SWAP1 DUP2 MSTORE PUSH1 0x20 ADD PUSH0 KECCAK256 PUSH0 PUSH2 0x100 EXP DUP2 SLOAD DUP2 PUSH1 0xFF MUL NOT AND SWAP1 DUP4 ISZERO ISZERO MUL OR SWAP1 SSTORE POP CALLER PUSH20 0xFFFFFFFFFFFFFFFFFFFFFFFFFFFFFFFFFFFFFFFF AND PUSH32 0xF13BFE0B6EC5DF39265DCCB0A01A09AA4162489C7A083DC6670BDE0255D02CA7 DUP7 PUSH1 0x40 MLOAD PUSH2 0xA7D SWAP2 SWAP1 PUSH2 0xFD8 JUMP JUMPDEST PUSH1 0x40 MLOAD DUP1 SWAP2 SUB SWAP1 LOG2 POP POP POP POP POP JUMP JUMPDEST PUSH1 0x3 PUSH0 CALLER PUSH20 0xFFFFFFFFFFFFFFFFFFFFFFFFFFFFFFFFFFFFFFFF AND PUSH20 0xFFFFFFFFFFFFFFFFFFFFFFFFFFFFFFFFFFFFFFFF AND DUP2 MSTORE PUSH1 0x20 ADD SWAP1 DUP2 MSTORE PUSH1 0x20 ADD PUSH0 KECCAK256 PUSH0 SWAP1 SLOAD SWAP1 PUSH2 0x100 EXP SWAP1 DIV PUSH1 0xFF AND PUSH2 0xB15 JUMPI PUSH1 0x40 MLOAD PUSH32 0x8C379A000000000000000000000000000000000000000000000000000000000 DUP2 MSTORE PUSH1 0x4 ADD PUSH2 0xB0C SWAP1 PUSH2 0x104B JUMP JUMPDEST PUSH1 0x40 MLOAD DUP1 SWAP2 SUB SWAP1 REVERT JUMPDEST DUP1 PUSH1 0x1 DUP1 SLOAD SWAP1 POP DUP2 GT ISZERO PUSH2 0xB5E JUMPI PUSH1 0x40 MLOAD PUSH32 0x8C379A000000000000000000000000000000000000000000000000000000000 DUP2 MSTORE PUSH1 0x4 ADD PUSH2 0xB55 SWAP1 PUSH2 0x10DA JUMP JUMPDEST PUSH1 0x40 MLOAD DUP1 SWAP2 SUB SWAP1 REVERT JUMPDEST DUP2 PUSH1 0x1 DUP2 DUP2 SLOAD DUP2 LT PUSH2 0xB73 JUMPI PUSH2 0xB72 PUSH2 0x1160 JUMP JUMPDEST JUMPDEST SWAP1 PUSH0 MSTORE PUSH1 0x20 PUSH0 KECCAK256 SWAP1 PUSH1 0x4 MUL ADD PUSH1 0x3 ADD PUSH0 SWAP1 SLOAD SWAP1 PUSH2 0x100 EXP SWAP1 DIV PUSH1 0xFF AND ISZERO PUSH2 0xBCF JUMPI PUSH1 0x40 MLOAD PUSH32 0x8C379A000000000000000000000000000000000000000000000000000000000 DUP2 MSTORE PUSH1 0x4 ADD PUSH2 0xBC6 SWAP1 PUSH2 0x1293 JUMP JUMPDEST PUSH1 0x40 MLOAD DUP1 SWAP2 SUB SWAP1 REVERT JUMPDEST PUSH0 PUSH1 0x1 DUP5 DUP2 SLOAD DUP2 LT PUSH2 0xBE4 JUMPI PUSH2 0xBE3 PUSH2 0x1160 JUMP JUMPDEST JUMPDEST SWAP1 PUSH0 MSTORE PUSH1 0x20 PUSH0 KECCAK256 SWAP1 PUSH1 0x4 MUL ADD SWAP1 POP PUSH0 SLOAD DUP2 PUSH1 0x2 ADD SLOAD LT ISZERO PUSH2 0xC3A JUMPI PUSH1 0x40 MLOAD PUSH32 0x8C379A000000000000000000000000000000000000000000000000000000000 DUP2 MSTORE PUSH1 0x4 ADD PUSH2 0xC31 SWAP1 PUSH2 0x1342 JUMP JUMPDEST PUSH1 0x40 MLOAD DUP1 SWAP2 SUB SWAP1 REVERT JUMPDEST PUSH1 0x1 DUP2 PUSH1 0x3 ADD PUSH0 PUSH2 0x100 EXP DUP2 SLOAD DUP2 PUSH1 0xFF MUL NOT AND SWAP1 DUP4 ISZERO ISZERO MUL OR SWAP1 SSTORE POP PUSH0 DUP2 PUSH0 ADD PUSH0 SWAP1 SLOAD SWAP1 PUSH2 0x100 EXP SWAP1 DIV PUSH20 0xFFFFFFFFFFFFFFFFFFFFFFFFFFFFFFFFFFFFFFFF AND PUSH20 0xFFFFFFFFFFFFFFFFFFFFFFFFFFFFFFFFFFFFFFFF AND DUP3 PUSH1 0x1 ADD SLOAD PUSH1 0x40 MLOAD PUSH2 0xCA1 SWAP1 PUSH2 0x138D JUMP JUMPDEST PUSH0 PUSH1 0x40 MLOAD DUP1 DUP4 SUB DUP2 DUP6 DUP8 GAS CALL SWAP3 POP POP POP RETURNDATASIZE DUP1 PUSH0 DUP2 EQ PUSH2 0xCDB JUMPI PUSH1 0x40 MLOAD SWAP2 POP PUSH1 0x1F NOT PUSH1 0x3F RETURNDATASIZE ADD AND DUP3 ADD PUSH1 0x40 MSTORE RETURNDATASIZE DUP3 MSTORE RETURNDATASIZE PUSH0 PUSH1 0x20 DUP5 ADD RETURNDATACOPY PUSH2 0xCE0 JUMP JUMPDEST PUSH1 0x60 SWAP2 POP JUMPDEST POP POP SWAP1 POP DUP1 PUSH2 0xD24 JUMPI PUSH1 0x40 MLOAD PUSH32 0x8C379A000000000000000000000000000000000000000000000000000000000 DUP2 MSTORE PUSH1 0x4 ADD PUSH2 0xD1B SWAP1 PUSH2 0x13EB JUMP JUMPDEST PUSH1 0x40 MLOAD DUP1 SWAP2 SUB SWAP1 REVERT JUMPDEST CALLER PUSH20 0xFFFFFFFFFFFFFFFFFFFFFFFFFFFFFFFFFFFFFFFF AND PUSH32 0x6F6C6D78A4851D4C222C8404FC92372EE84B7B81054305AE8EA3C83C2DABD42E DUP7 PUSH1 0x40 MLOAD PUSH2 0xD6A SWAP2 SWAP1 PUSH2 0xFD8 JUMP JUMPDEST PUSH1 0x40 MLOAD DUP1 SWAP2 SUB SWAP1 LOG2 POP POP POP POP POP JUMP JUMPDEST PUSH0 SLOAD DUP2 JUMP JUMPDEST PUSH0 DUP1 REVERT JUMPDEST PUSH0 DUP2 SWAP1 POP SWAP2 SWAP1 POP JUMP JUMPDEST PUSH2 0xD94 DUP2 PUSH2 0xD82 JUMP JUMPDEST DUP2 EQ PUSH2 0xD9E JUMPI PUSH0 DUP1 REVERT JUMPDEST POP JUMP JUMPDEST PUSH0 DUP2 CALLDATALOAD SWAP1 POP PUSH2 0xDAF DUP2 PUSH2 0xD8B JUMP JUMPDEST SWAP3 SWAP2 POP POP JUMP JUMPDEST PUSH0 PUSH1 0x20 DUP3 DUP5 SUB SLT ISZERO PUSH2 0xDCA JUMPI PUSH2 0xDC9 PUSH2 0xD7E JUMP JUMPDEST JUMPDEST PUSH0 PUSH2 0xDD7 DUP5 DUP3 DUP6 ADD PUSH2 0xDA1 JUMP JUMPDEST SWAP2 POP POP SWAP3 SWAP2 POP POP JUMP JUMPDEST PUSH0 PUSH20 0xFFFFFFFFFFFFFFFFFFFFFFFFFFFFFFFFFFFFFFFF DUP3 AND SWAP1 POP SWAP2 SWAP1 POP JUMP JUMPDEST PUSH0 PUSH2 0xE09 DUP3 PUSH2 0xDE0 JUMP JUMPDEST SWAP1 POP SWAP2 SWAP1 POP JUMP JUMPDEST PUSH2 0xE19 DUP2 PUSH2 0xDFF JUMP JUMPDEST DUP3 MSTORE POP POP JUMP JUMPDEST PUSH0 PUSH1 0x20 DUP3 ADD SWAP1 POP PUSH2 0xE32 PUSH0 DUP4 ADD DUP5 PUSH2 0xE10 JUMP JUMPDEST SWAP3 SWAP2 POP POP JUMP JUMPDEST PUSH0 PUSH2 0xE42 DUP3 PUSH2 0xDE0 JUMP JUMPDEST SWAP1 POP SWAP2 SWAP1 POP JUMP JUMPDEST PUSH2 0xE52 DUP2 PUSH2 0xE38 JUMP JUMPDEST DUP2 EQ PUSH2 0xE5C JUMPI PUSH0 DUP1 REVERT JUMPDEST POP JUMP JUMPDEST PUSH0 DUP2 CALLDATALOAD SWAP1 POP PUSH2 0xE6D DUP2 PUSH2 0xE49 JUMP JUMPDEST SWAP3 SWAP2 POP POP JUMP JUMPDEST PUSH0 DUP1 PUSH1 0x40 DUP4 DUP6 SUB SLT ISZERO PUSH2 0xE89 JUMPI PUSH2 0xE88 PUSH2 0xD7E JUMP JUMPDEST JUMPDEST PUSH0 PUSH2 0xE96 DUP6 DUP3 DUP7 ADD PUSH2 0xE5F JUMP JUMPDEST SWAP3 POP POP PUSH1 0x20 PUSH2 0xEA7 DUP6 DUP3 DUP7 ADD PUSH2 0xDA1 JUMP JUMPDEST SWAP2 POP POP SWAP3 POP SWAP3 SWAP1 POP JUMP JUMPDEST PUSH2 0xEBA DUP2 PUSH2 0xDFF JUMP JUMPDEST DUP2 EQ PUSH2 0xEC4 JUMPI PUSH0 DUP1 REVERT JUMPDEST POP JUMP JUMPDEST PUSH0 DUP2 CALLDATALOAD SWAP1 POP PUSH2 0xED5 DUP2 PUSH2 0xEB1 JUMP JUMPDEST SWAP3 SWAP2 POP POP JUMP JUMPDEST PUSH0 PUSH1 0x20 DUP3 DUP5 SUB SLT ISZERO PUSH2 0xEF0 JUMPI PUSH2 0xEEF PUSH2 0xD7E JUMP JUMPDEST JUMPDEST PUSH0 PUSH2 0xEFD DUP5 DUP3 DUP6 ADD PUSH2 0xEC7 JUMP JUMPDEST SWAP2 POP POP SWAP3 SWAP2 POP POP JUMP JUMPDEST PUSH0 DUP2 ISZERO ISZERO SWAP1 POP SWAP2 SWAP1 POP JUMP JUMPDEST PUSH2 0xF1A DUP2 PUSH2 0xF06 JUMP JUMPDEST DUP3 MSTORE POP POP JUMP JUMPDEST PUSH0 PUSH1 0x20 DUP3 ADD SWAP1 POP PUSH2 0xF33 PUSH0 DUP4 ADD DUP5 PUSH2 0xF11 JUMP JUMPDEST SWAP3 SWAP2 POP POP JUMP JUMPDEST PUSH0 DUP1 PUSH1 0x40 DUP4 DUP6 SUB SLT ISZERO PUSH2 0xF4F JUMPI PUSH2 0xF4E PUSH2 0xD7E JUMP JUMPDEST JUMPDEST PUSH0 PUSH2 0xF5C DUP6 DUP3 DUP7 ADD PUSH2 0xDA1 JUMP JUMPDEST SWAP3 POP POP PUSH1 0x20 PUSH2 0xF6D DUP6 DUP3 DUP7 ADD PUSH2 0xEC7 JUMP JUMPDEST SWAP2 POP POP SWAP3 POP SWAP3 SWAP1 POP JUMP JUMPDEST PUSH2 0xF80 DUP2 PUSH2 0xE38 JUMP JUMPDEST DUP3 MSTORE POP POP JUMP JUMPDEST PUSH2 0xF8F DUP2 PUSH2 0xD82 JUMP JUMPDEST DUP3 MSTORE POP POP JUMP JUMPDEST PUSH0 PUSH1 0x80 DUP3 ADD SWAP1 POP PUSH2 0xFA8 PUSH0 DUP4 ADD DUP8 PUSH2 0xF77 JUMP JUMPDEST PUSH2 0xFB5 PUSH1 0x20 DUP4 ADD DUP7 PUSH2 0xF86 JUMP JUMPDEST PUSH2 0xFC2 PUSH1 0x40 DUP4 ADD DUP6 PUSH2 0xF86 JUMP JUMPDEST PUSH2 0xFCF PUSH1 0x60 DUP4 ADD DUP5 PUSH2 0xF11 JUMP JUMPDEST SWAP6 SWAP5 POP POP POP POP POP JUMP JUMPDEST PUSH0 PUSH1 0x20 DUP3 ADD SWAP1 POP PUSH2 0xFEB PUSH0 DUP4 ADD DUP5 PUSH2 0xF86 JUMP JUMPDEST SWAP3 SWAP2 POP POP JUMP JUMPDEST PUSH0 DUP3 DUP3 MSTORE PUSH1 0x20 DUP3 ADD SWAP1 POP SWAP3 SWAP2 POP POP JUMP JUMPDEST PUSH32 0x696E76616C6964206F776E657200000000000000000000000000000000000000 PUSH0 DUP3 ADD MSTORE POP JUMP JUMPDEST PUSH0 PUSH2 0x1035 PUSH1 0xD DUP4 PUSH2 0xFF1 JUMP JUMPDEST SWAP2 POP PUSH2 0x1040 DUP3 PUSH2 0x1001 JUMP JUMPDEST PUSH1 0x20 DUP3 ADD SWAP1 POP SWAP2 SWAP1 POP JUMP JUMPDEST PUSH0 PUSH1 0x20 DUP3 ADD SWAP1 POP DUP2 DUP2 SUB PUSH0 DUP4 ADD MSTORE PUSH2 0x1062 DUP2 PUSH2 0x1029 JUMP JUMPDEST SWAP1 POP SWAP2 SWAP1 POP JUMP JUMPDEST PUSH0 PUSH1 0x40 DUP3 ADD SWAP1 POP PUSH2 0x107C PUSH0 DUP4 ADD DUP6 PUSH2 0xF86 JUMP JUMPDEST PUSH2 0x1089 PUSH1 0x20 DUP4 ADD DUP5 PUSH2 0xF86 JUMP JUMPDEST SWAP4 SWAP3 POP POP POP JUMP JUMPDEST PUSH32 0x696E76616C696400000000000000000000000000000000000000000000000000 PUSH0 DUP3 ADD MSTORE POP JUMP JUMPDEST PUSH0 PUSH2 0x10C4 PUSH1 0x7 DUP4 PUSH2 0xFF1 JUMP JUMPDEST SWAP2 POP PUSH2 0x10CF DUP3 PUSH2 0x1090 JUMP JUMPDEST PUSH1 0x20 DUP3 ADD SWAP1 POP SWAP2 SWAP1 POP JUMP JUMPDEST PUSH0 PUSH1 0x20 DUP3 ADD SWAP1 POP DUP2 DUP2 SUB PUSH0 DUP4 ADD MSTORE PUSH2 0x10F1 DUP2 PUSH2 0x10B8 JUMP JUMPDEST SWAP1 POP SWAP2 SWAP1 POP JUMP JUMPDEST PUSH32 0x616C726561647920617070726F76656400000000000000000000000000000000 PUSH0 DUP3 ADD MSTORE POP JUMP JUMPDEST PUSH0 PUSH2 0x112C PUSH1 0x10 DUP4 PUSH2 0xFF1 JUMP JUMPDEST SWAP2 POP PUSH2 0x1137 DUP3 PUSH2 0x10F8 JUMP JUMPDEST PUSH1 0x20 DUP3 ADD SWAP1 POP SWAP2 SWAP1 POP JUMP JUMPDEST PUSH0 PUSH1 0x20 DUP3 ADD SWAP1 POP DUP2 DUP2 SUB PUSH0 DUP4 ADD MSTORE PUSH2 0x1159 DUP2 PUSH2 0x1120 JUMP JUMPDEST SWAP1 POP SWAP2 SWAP1 POP JUMP JUMPDEST PUSH32 0x4E487B7100000000000000000000000000000000000000000000000000000000 PUSH0 MSTORE PUSH1 0x32 PUSH1 0x4 MSTORE PUSH1 0x24 PUSH0 REVERT JUMPDEST PUSH32 0x6E6F7420636F6E6669726D656400000000000000000000000000000000000000 PUSH0 DUP3 ADD MSTORE POP JUMP JUMPDEST PUSH0 PUSH2 0x11C1 PUSH1 0xD DUP4 PUSH2 0xFF1 JUMP JUMPDEST SWAP2 POP PUSH2 0x11CC DUP3 PUSH2 0x118D JUMP JUMPDEST PUSH1 0x20 DUP3 ADD SWAP1 POP SWAP2 SWAP1 POP JUMP JUMPDEST PUSH0 PUSH1 0x20 DUP3 ADD SWAP1 POP DUP2 DUP2 SUB PUSH0 DUP4 ADD MSTORE PUSH2 0x11EE DUP2 PUSH2 0x11B5 JUMP JUMPDEST SWAP1 POP SWAP2 SWAP1 POP JUMP JUMPDEST PUSH32 0x4E487B7100000000000000000000000000000000000000000000000000000000 PUSH0 MSTORE PUSH1 0x11 PUSH1 0x4 MSTORE PUSH1 0x24 PUSH0 REVERT JUMPDEST PUSH0 PUSH2 0x122C DUP3 PUSH2 0xD82 JUMP JUMPDEST SWAP2 POP PUSH0 DUP3 SUB PUSH2 0x123E JUMPI PUSH2 0x123D PUSH2 0x11F5 JUMP JUMPDEST JUMPDEST PUSH1 0x1 DUP3 SUB SWAP1 POP SWAP2 SWAP1 POP JUMP JUMPDEST PUSH32 0x616C726561647920657865637574656400000000000000000000000000000000 PUSH0 DUP3 ADD MSTORE POP JUMP JUMPDEST PUSH0 PUSH2 0x127D PUSH1 0x10 DUP4 PUSH2 0xFF1 JUMP JUMPDEST SWAP2 POP PUSH2 0x1288 DUP3 PUSH2 0x1249 JUMP JUMPDEST PUSH1 0x20 DUP3 ADD SWAP1 POP SWAP2 SWAP1 POP JUMP JUMPDEST PUSH0 PUSH1 0x20 DUP3 ADD SWAP1 POP DUP2 DUP2 SUB PUSH0 DUP4 ADD MSTORE PUSH2 0x12AA DUP2 PUSH2 0x1271 JUMP JUMPDEST SWAP1 POP SWAP2 SWAP1 POP JUMP JUMPDEST PUSH0 PUSH2 0x12BB DUP3 PUSH2 0xD82 JUMP JUMPDEST SWAP2 POP PUSH32 0xFFFFFFFFFFFFFFFFFFFFFFFFFFFFFFFFFFFFFFFFFFFFFFFFFFFFFFFFFFFFFFFF DUP3 SUB PUSH2 0x12ED JUMPI PUSH2 0x12EC PUSH2 0x11F5 JUMP JUMPDEST JUMPDEST PUSH1 0x1 DUP3 ADD SWAP1 POP SWAP2 SWAP1 POP JUMP JUMPDEST PUSH32 0x6E6F7420656E6F75676820636F6E6669726D6174696F6E730000000000000000 PUSH0 DUP3 ADD MSTORE POP JUMP JUMPDEST PUSH0 PUSH2 0x132C PUSH1 0x18 DUP4 PUSH2 0xFF1 JUMP JUMPDEST SWAP2 POP PUSH2 0x1337 DUP3 PUSH2 0x12F8 JUMP JUMPDEST PUSH1 0x20 DUP3 ADD SWAP1 POP SWAP2 SWAP1 POP JUMP JUMPDEST PUSH0 PUSH1 0x20 DUP3 ADD SWAP1 POP DUP2 DUP2 SUB PUSH0 DUP4 ADD MSTORE PUSH2 0x1359 DUP2 PUSH2 0x1320 JUMP JUMPDEST SWAP1 POP SWAP2 SWAP1 POP JUMP JUMPDEST PUSH0 DUP2 SWAP1 POP SWAP3 SWAP2 POP POP JUMP JUMPDEST POP JUMP JUMPDEST PUSH0 PUSH2 0x1378 PUSH0 DUP4 PUSH2 0x1360 JUMP JUMPDEST SWAP2 POP PUSH2 0x1383 DUP3 PUSH2 0x136A JUMP JUMPDEST PUSH0 DUP3 ADD SWAP1 POP SWAP2 SWAP1 POP JUMP JUMPDEST PUSH0 PUSH2 0x1397 DUP3 PUSH2 0x136D JUMP JUMPDEST SWAP2 POP DUP2 SWAP1 POP SWAP2 SWAP1 POP JUMP JUMPDEST PUSH32 0x6E6F742065786563757465640000000000000000000000000000000000000000 PUSH0 DUP3 ADD MSTORE POP JUMP JUMPDEST PUSH0 PUSH2 0x13D5 PUSH1 0xC DUP4 PUSH2 0xFF1 JUMP JUMPDEST SWAP2 POP PUSH2 0x13E0 DUP3 PUSH2 0x13A1 JUMP JUMPDEST PUSH1 0x20 DUP3 ADD SWAP1 POP SWAP2 SWAP1 POP JUMP JUMPDEST PUSH0 PUSH1 0x20 DUP3 ADD SWAP1 POP DUP2 DUP2 SUB PUSH0 DUP4 ADD MSTORE PUSH2 0x1402 DUP2 PUSH2 0x13C9 JUMP JUMPDEST SWAP1 POP SWAP2 SWAP1 POP JUMP INVALID LOG2 PUSH5 0x6970667358 0x22 SLT KECCAK256 CALLVALUE CALLDATALOAD 0xEE GAS SUB GT GAS DIV CALLDATASIZE 0xB7 PUSH28 0xA724D0AFC3D5630DFD7D21162C6EA525747F46EADF64736F6C634300 ADDMOD BYTE STOP CALLER "
				},
				"gasEstimates": {
					"creation": {
						"codeDepositCost": "1036600",
						"executionCost": "infinite",
						"totalCost": "infinite"
					},
					"external": {
						"approve(uint256)": "infinite",
						"executed(uint256)": "infinite",
						"isConfirmed(uint256,address)": "3071",
						"isOwner(address)": "2900",
						"owners(uint256)": "4945",
						"required()": "2512",
						"revoke(uint256)": "infinite",
						"submit(address,uint256)": "infinite",
						"transactions(uint256)": "infinite"
					}
				},
				"methodIdentifiers": {
					"approve(uint256)": "b759f954",
					"executed(uint256)": "d3ecebd7",
					"isConfirmed(uint256,address)": "80f59a65",
					"isOwner(address)": "2f54bf6e",
					"owners(uint256)": "025e7c27",
					"required()": "dc8452cd",
					"revoke(uint256)": "20c5429b",
					"submit(address,uint256)": "203dd666",
					"transactions(uint256)": "9ace38c2"
				}
			},
			"storageLayout": {
				"storage": [
					{
						"astId": 39,
						"contract": "contracts/Multisig_wallet.sol:wallet",
						"label": "required",
						"offset": 0,
						"slot": "0",
						"type": "t_uint256"
					},
					{
						"astId": 52,
						"contract": "contracts/Multisig_wallet.sol:wallet",
						"label": "transactions",
						"offset": 0,
						"slot": "1",
						"type": "t_array(t_struct(Transaction)48_storage)dyn_storage"
					},
					{
						"astId": 55,
						"contract": "contracts/Multisig_wallet.sol:wallet",
						"label": "owners",
						"offset": 0,
						"slot": "2",
						"type": "t_array(t_address)dyn_storage"
					},
					{
						"astId": 59,
						"contract": "contracts/Multisig_wallet.sol:wallet",
						"label": "isOwner",
						"offset": 0,
						"slot": "3",
						"type": "t_mapping(t_address,t_bool)"
					},
					{
						"astId": 188,
						"contract": "contracts/Multisig_wallet.sol:wallet",
						"label": "isConfirmed",
						"offset": 0,
						"slot": "4",
						"type": "t_mapping(t_uint256,t_mapping(t_address,t_bool))"
					}
				],
				"types": {
					"t_address": {
						"encoding": "inplace",
						"label": "address",
						"numberOfBytes": "20"
					},
					"t_address_payable": {
						"encoding": "inplace",
						"label": "address payable",
						"numberOfBytes": "20"
					},
					"t_array(t_address)dyn_storage": {
						"base": "t_address",
						"encoding": "dynamic_array",
						"label": "address[]",
						"numberOfBytes": "32"
					},
					"t_array(t_struct(Transaction)48_storage)dyn_storage": {
						"base": "t_struct(Transaction)48_storage",
						"encoding": "dynamic_array",
						"label": "struct wallet.Transaction[]",
						"numberOfBytes": "32"
					},
					"t_bool": {
						"encoding": "inplace",
						"label": "bool",
						"numberOfBytes": "1"
					},
					"t_mapping(t_address,t_bool)": {
						"encoding": "mapping",
						"key": "t_address",
						"label": "mapping(address => bool)",
						"numberOfBytes": "32",
						"value": "t_bool"
					},
					"t_mapping(t_uint256,t_mapping(t_address,t_bool))": {
						"encoding": "mapping",
						"key": "t_uint256",
						"label": "mapping(uint256 => mapping(address => bool))",
						"numberOfBytes": "32",
						"value": "t_mapping(t_address,t_bool)"
					},
					"t_struct(Transaction)48_storage": {
						"encoding": "inplace",
						"label": "struct wallet.Transaction",
						"members": [
							{
								"astId": 41,
								"contract": "contracts/Multisig_wallet.sol:wallet",
								"label": "to",
								"offset": 0,
								"slot": "0",
								"type": "t_address_payable"
							},
							{
								"astId": 43,
								"contract": "contracts/Multisig_wallet.sol:wallet",
								"label": "value",
								"offset": 0,
								"slot": "1",
								"type": "t_uint256"
							},
							{
								"astId": 45,
								"contract": "contracts/Multisig_wallet.sol:wallet",
								"label": "numberConfirmed",
								"offset": 0,
								"slot": "2",
								"type": "t_uint256"
							},
							{
								"astId": 47,
								"contract": "contracts/Multisig_wallet.sol:wallet",
								"label": "executed",
								"offset": 0,
								"slot": "3",
								"type": "t_bool"
							}
						],
						"numberOfBytes": "128"
					},
					"t_uint256": {
						"encoding": "inplace",
						"label": "uint256",
						"numberOfBytes": "32"
					}
				}
			},
			"userdoc": {
				"kind": "user",
				"methods": {},
				"version": 1
			}
		}
	}
}