{
	"contracts/DeployAnyContract.sol": {
		"proxy": {
			"abi": [
				{
					"anonymous": false,
					"inputs": [
						{
							"indexed": false,
							"internalType": "address",
							"name": "",
							"type": "address"
						}
					],
					"name": "deploy",
					"type": "event"
				},
				{
					"inputs": [
						{
							"internalType": "bytes",
							"name": "_bytes",
							"type": "bytes"
						}
					],
					"name": "Deploy",
					"outputs": [
						{
							"internalType": "address",
							"name": "addr",
							"type": "address"
						}
					],
					"stateMutability": "payable",
					"type": "function"
				},
				{
					"inputs": [
						{
							"internalType": "address",
							"name": "_target",
							"type": "address"
						},
						{
							"internalType": "bytes",
							"name": "_data",
							"type": "bytes"
						}
					],
					"name": "execute",
					"outputs": [],
					"stateMutability": "payable",
					"type": "function"
				},
				{
					"stateMutability": "payable",
					"type": "receive"
				}
			],
			"devdoc": {
				"kind": "dev",
				"methods": {},
				"version": 1
			},
			"evm": {
				"assembly": "    /* \"contracts/DeployAnyContract.sol\":255:824  contract proxy{... */\n  mstore(0x40, 0x80)\n  callvalue\n  dup1\n  iszero\n  tag_1\n  jumpi\n  0x00\n  dup1\n  revert\ntag_1:\n  pop\n  dataSize(sub_0)\n  dup1\n  dataOffset(sub_0)\n  0x00\n  codecopy\n  0x00\n  return\nstop\n\nsub_0: assembly {\n        /* \"contracts/DeployAnyContract.sol\":255:824  contract proxy{... */\n      mstore(0x40, 0x80)\n      jumpi(tag_1, lt(calldatasize, 0x04))\n      shr(0xe0, calldataload(0x00))\n      dup1\n      0x1cff79cd\n      eq\n      tag_3\n      jumpi\n      dup1\n      0x707e71bd\n      eq\n      tag_4\n      jumpi\n      jump(tag_2)\n    tag_1:\n      jumpi(tag_2, calldatasize)\n      stop\n    tag_2:\n      0x00\n      dup1\n      revert\n        /* \"contracts/DeployAnyContract.sol\":649:822  function execute(address _target,bytes memory _data)external payable{... */\n    tag_3:\n      tag_7\n      0x04\n      dup1\n      calldatasize\n      sub\n      dup2\n      add\n      swap1\n      tag_8\n      swap2\n      swap1\n      tag_9\n      jump\t// in\n    tag_8:\n      tag_10\n      jump\t// in\n    tag_7:\n      stop\n        /* \"contracts/DeployAnyContract.sol\":337:643  function Deploy(bytes memory _bytes)external payable returns(address addr){... */\n    tag_4:\n      tag_11\n      0x04\n      dup1\n      calldatasize\n      sub\n      dup2\n      add\n      swap1\n      tag_12\n      swap2\n      swap1\n      tag_13\n      jump\t// in\n    tag_12:\n      tag_14\n      jump\t// in\n    tag_11:\n      mload(0x40)\n      tag_15\n      swap2\n      swap1\n      tag_16\n      jump\t// in\n    tag_15:\n      mload(0x40)\n      dup1\n      swap2\n      sub\n      swap1\n      return\n        /* \"contracts/DeployAnyContract.sol\":649:822  function execute(address _target,bytes memory _data)external payable{... */\n    tag_10:\n        /* \"contracts/DeployAnyContract.sol\":728:740  bool success */\n      0x00\n        /* \"contracts/DeployAnyContract.sol\":743:750  _target */\n      dup3\n        /* \"contracts/DeployAnyContract.sol\":743:755  _target.call */\n      0xffffffffffffffffffffffffffffffffffffffff\n      and\n        /* \"contracts/DeployAnyContract.sol\":762:771  msg.value */\n      callvalue\n        /* \"contracts/DeployAnyContract.sol\":773:778  _data */\n      dup4\n        /* \"contracts/DeployAnyContract.sol\":743:779  _target.call{value:msg.value}(_data) */\n      mload(0x40)\n      tag_18\n      swap2\n      swap1\n      tag_19\n      jump\t// in\n    tag_18:\n      0x00\n      mload(0x40)\n      dup1\n      dup4\n      sub\n      dup2\n      dup6\n      dup8\n      gas\n      call\n      swap3\n      pop\n      pop\n      pop\n      returndatasize\n      dup1\n      0x00\n      dup2\n      eq\n      tag_22\n      jumpi\n      mload(0x40)\n      swap2\n      pop\n      and(add(returndatasize, 0x3f), not(0x1f))\n      dup3\n      add\n      0x40\n      mstore\n      returndatasize\n      dup3\n      mstore\n      returndatasize\n      0x00\n      0x20\n      dup5\n      add\n      returndatacopy\n      jump(tag_21)\n    tag_22:\n      0x60\n      swap2\n      pop\n    tag_21:\n      pop\n        /* \"contracts/DeployAnyContract.sol\":727:779  (bool success,)=_target.call{value:msg.value}(_data) */\n      pop\n      swap1\n      pop\n        /* \"contracts/DeployAnyContract.sol\":797:804  success */\n      dup1\n        /* \"contracts/DeployAnyContract.sol\":789:814  require(success,\"failed\") */\n      tag_23\n      jumpi\n      mload(0x40)\n      0x08c379a000000000000000000000000000000000000000000000000000000000\n      dup2\n      mstore\n      0x04\n      add\n      tag_24\n      swap1\n      tag_25\n      jump\t// in\n    tag_24:\n      mload(0x40)\n      dup1\n      swap2\n      sub\n      swap1\n      revert\n    tag_23:\n        /* \"contracts/DeployAnyContract.sol\":717:822  {... */\n      pop\n        /* \"contracts/DeployAnyContract.sol\":649:822  function execute(address _target,bytes memory _data)external payable{... */\n      pop\n      pop\n      jump\t// out\n        /* \"contracts/DeployAnyContract.sol\":337:643  function Deploy(bytes memory _bytes)external payable returns(address addr){... */\n    tag_14:\n        /* \"contracts/DeployAnyContract.sol\":398:410  address addr */\n      0x00\n        /* \"contracts/DeployAnyContract.sol\":526:532  _bytes */\n      dup2\n        /* \"contracts/DeployAnyContract.sol\":520:533  mload(_bytes) */\n      mload\n        /* \"contracts/DeployAnyContract.sol\":501:505  0x20 */\n      0x20\n        /* \"contracts/DeployAnyContract.sol\":494:500  _bytes */\n      dup4\n        /* \"contracts/DeployAnyContract.sol\":490:506  add(_bytes,0x20) */\n      add\n        /* \"contracts/DeployAnyContract.sol\":465:476  callvalue() */\n      callvalue\n        /* \"contracts/DeployAnyContract.sol\":458:547  create(callvalue(),... */\n      create\n        /* \"contracts/DeployAnyContract.sol\":451:547  addr:= create(callvalue(),... */\n      swap1\n      pop\n        /* \"contracts/DeployAnyContract.sol\":589:590  0 */\n      0x00\n        /* \"contracts/DeployAnyContract.sol\":575:591  addr!=address(0) */\n      0xffffffffffffffffffffffffffffffffffffffff\n      and\n        /* \"contracts/DeployAnyContract.sol\":575:579  addr */\n      dup2\n        /* \"contracts/DeployAnyContract.sol\":575:591  addr!=address(0) */\n      0xffffffffffffffffffffffffffffffffffffffff\n      and\n      sub\n        /* \"contracts/DeployAnyContract.sol\":567:608  require(addr!=address(0),\"deploy failed\") */\n      tag_27\n      jumpi\n      mload(0x40)\n      0x08c379a000000000000000000000000000000000000000000000000000000000\n      dup2\n      mstore\n      0x04\n      add\n      tag_28\n      swap1\n      tag_29\n      jump\t// in\n    tag_28:\n      mload(0x40)\n      dup1\n      swap2\n      sub\n      swap1\n      revert\n    tag_27:\n        /* \"contracts/DeployAnyContract.sol\":624:636  deploy(addr) */\n      0x4c96a389c7a68a007daa4d8551cfbdc5f740d594bc22d20a964d8694d16b41b5\n        /* \"contracts/DeployAnyContract.sol\":631:635  addr */\n      dup2\n        /* \"contracts/DeployAnyContract.sol\":624:636  deploy(addr) */\n      mload(0x40)\n      tag_30\n      swap2\n      swap1\n      tag_16\n      jump\t// in\n    tag_30:\n      mload(0x40)\n      dup1\n      swap2\n      sub\n      swap1\n      log1\n        /* \"contracts/DeployAnyContract.sol\":337:643  function Deploy(bytes memory _bytes)external payable returns(address addr){... */\n      swap2\n      swap1\n      pop\n      jump\t// out\n        /* \"#utility.yul\":7:82   */\n    tag_31:\n        /* \"#utility.yul\":40:46   */\n      0x00\n        /* \"#utility.yul\":73:75   */\n      0x40\n        /* \"#utility.yul\":67:76   */\n      mload\n        /* \"#utility.yul\":57:76   */\n      swap1\n      pop\n        /* \"#utility.yul\":7:82   */\n      swap1\n      jump\t// out\n        /* \"#utility.yul\":88:205   */\n    tag_32:\n        /* \"#utility.yul\":197:198   */\n      0x00\n        /* \"#utility.yul\":194:195   */\n      dup1\n        /* \"#utility.yul\":187:199   */\n      revert\n        /* \"#utility.yul\":211:328   */\n    tag_33:\n        /* \"#utility.yul\":320:321   */\n      0x00\n        /* \"#utility.yul\":317:318   */\n      dup1\n        /* \"#utility.yul\":310:322   */\n      revert\n        /* \"#utility.yul\":334:460   */\n    tag_34:\n        /* \"#utility.yul\":371:378   */\n      0x00\n        /* \"#utility.yul\":411:453   */\n      0xffffffffffffffffffffffffffffffffffffffff\n        /* \"#utility.yul\":404:409   */\n      dup3\n        /* \"#utility.yul\":400:454   */\n      and\n        /* \"#utility.yul\":389:454   */\n      swap1\n      pop\n        /* \"#utility.yul\":334:460   */\n      swap2\n      swap1\n      pop\n      jump\t// out\n        /* \"#utility.yul\":466:562   */\n    tag_35:\n        /* \"#utility.yul\":503:510   */\n      0x00\n        /* \"#utility.yul\":532:556   */\n      tag_64\n        /* \"#utility.yul\":550:555   */\n      dup3\n        /* \"#utility.yul\":532:556   */\n      tag_34\n      jump\t// in\n    tag_64:\n        /* \"#utility.yul\":521:556   */\n      swap1\n      pop\n        /* \"#utility.yul\":466:562   */\n      swap2\n      swap1\n      pop\n      jump\t// out\n        /* \"#utility.yul\":568:690   */\n    tag_36:\n        /* \"#utility.yul\":641:665   */\n      tag_66\n        /* \"#utility.yul\":659:664   */\n      dup2\n        /* \"#utility.yul\":641:665   */\n      tag_35\n      jump\t// in\n    tag_66:\n        /* \"#utility.yul\":634:639   */\n      dup2\n        /* \"#utility.yul\":631:666   */\n      eq\n        /* \"#utility.yul\":621:684   */\n      tag_67\n      jumpi\n        /* \"#utility.yul\":680:681   */\n      0x00\n        /* \"#utility.yul\":677:678   */\n      dup1\n        /* \"#utility.yul\":670:682   */\n      revert\n        /* \"#utility.yul\":621:684   */\n    tag_67:\n        /* \"#utility.yul\":568:690   */\n      pop\n      jump\t// out\n        /* \"#utility.yul\":696:835   */\n    tag_37:\n        /* \"#utility.yul\":742:747   */\n      0x00\n        /* \"#utility.yul\":780:786   */\n      dup2\n        /* \"#utility.yul\":767:787   */\n      calldataload\n        /* \"#utility.yul\":758:787   */\n      swap1\n      pop\n        /* \"#utility.yul\":796:829   */\n      tag_69\n        /* \"#utility.yul\":823:828   */\n      dup2\n        /* \"#utility.yul\":796:829   */\n      tag_36\n      jump\t// in\n    tag_69:\n        /* \"#utility.yul\":696:835   */\n      swap3\n      swap2\n      pop\n      pop\n      jump\t// out\n        /* \"#utility.yul\":841:958   */\n    tag_38:\n        /* \"#utility.yul\":950:951   */\n      0x00\n        /* \"#utility.yul\":947:948   */\n      dup1\n        /* \"#utility.yul\":940:952   */\n      revert\n        /* \"#utility.yul\":964:1081   */\n    tag_39:\n        /* \"#utility.yul\":1073:1074   */\n      0x00\n        /* \"#utility.yul\":1070:1071   */\n      dup1\n        /* \"#utility.yul\":1063:1075   */\n      revert\n        /* \"#utility.yul\":1087:1189   */\n    tag_40:\n        /* \"#utility.yul\":1128:1134   */\n      0x00\n        /* \"#utility.yul\":1179:1181   */\n      0x1f\n        /* \"#utility.yul\":1175:1182   */\n      not\n        /* \"#utility.yul\":1170:1172   */\n      0x1f\n        /* \"#utility.yul\":1163:1168   */\n      dup4\n        /* \"#utility.yul\":1159:1173   */\n      add\n        /* \"#utility.yul\":1155:1183   */\n      and\n        /* \"#utility.yul\":1145:1183   */\n      swap1\n      pop\n        /* \"#utility.yul\":1087:1189   */\n      swap2\n      swap1\n      pop\n      jump\t// out\n        /* \"#utility.yul\":1195:1375   */\n    tag_41:\n        /* \"#utility.yul\":1243:1320   */\n      0x4e487b7100000000000000000000000000000000000000000000000000000000\n        /* \"#utility.yul\":1240:1241   */\n      0x00\n        /* \"#utility.yul\":1233:1321   */\n      mstore\n        /* \"#utility.yul\":1340:1344   */\n      0x41\n        /* \"#utility.yul\":1337:1338   */\n      0x04\n        /* \"#utility.yul\":1330:1345   */\n      mstore\n        /* \"#utility.yul\":1364:1368   */\n      0x24\n        /* \"#utility.yul\":1361:1362   */\n      0x00\n        /* \"#utility.yul\":1354:1369   */\n      revert\n        /* \"#utility.yul\":1381:1662   */\n    tag_42:\n        /* \"#utility.yul\":1464:1491   */\n      tag_75\n        /* \"#utility.yul\":1486:1490   */\n      dup3\n        /* \"#utility.yul\":1464:1491   */\n      tag_40\n      jump\t// in\n    tag_75:\n        /* \"#utility.yul\":1456:1462   */\n      dup2\n        /* \"#utility.yul\":1452:1492   */\n      add\n        /* \"#utility.yul\":1594:1600   */\n      dup2\n        /* \"#utility.yul\":1582:1592   */\n      dup2\n        /* \"#utility.yul\":1579:1601   */\n      lt\n        /* \"#utility.yul\":1558:1576   */\n      0xffffffffffffffff\n        /* \"#utility.yul\":1546:1556   */\n      dup3\n        /* \"#utility.yul\":1543:1577   */\n      gt\n        /* \"#utility.yul\":1540:1602   */\n      or\n        /* \"#utility.yul\":1537:1625   */\n      iszero\n      tag_76\n      jumpi\n        /* \"#utility.yul\":1605:1623   */\n      tag_77\n      tag_41\n      jump\t// in\n    tag_77:\n        /* \"#utility.yul\":1537:1625   */\n    tag_76:\n        /* \"#utility.yul\":1645:1655   */\n      dup1\n        /* \"#utility.yul\":1641:1643   */\n      0x40\n        /* \"#utility.yul\":1634:1656   */\n      mstore\n        /* \"#utility.yul\":1424:1662   */\n      pop\n        /* \"#utility.yul\":1381:1662   */\n      pop\n      pop\n      jump\t// out\n        /* \"#utility.yul\":1668:1797   */\n    tag_43:\n        /* \"#utility.yul\":1702:1708   */\n      0x00\n        /* \"#utility.yul\":1729:1749   */\n      tag_79\n      tag_31\n      jump\t// in\n    tag_79:\n        /* \"#utility.yul\":1719:1749   */\n      swap1\n      pop\n        /* \"#utility.yul\":1758:1791   */\n      tag_80\n        /* \"#utility.yul\":1786:1790   */\n      dup3\n        /* \"#utility.yul\":1778:1784   */\n      dup3\n        /* \"#utility.yul\":1758:1791   */\n      tag_42\n      jump\t// in\n    tag_80:\n        /* \"#utility.yul\":1668:1797   */\n      swap2\n      swap1\n      pop\n      jump\t// out\n        /* \"#utility.yul\":1803:2110   */\n    tag_44:\n        /* \"#utility.yul\":1864:1868   */\n      0x00\n        /* \"#utility.yul\":1954:1972   */\n      0xffffffffffffffff\n        /* \"#utility.yul\":1946:1952   */\n      dup3\n        /* \"#utility.yul\":1943:1973   */\n      gt\n        /* \"#utility.yul\":1940:1996   */\n      iszero\n      tag_82\n      jumpi\n        /* \"#utility.yul\":1976:1994   */\n      tag_83\n      tag_41\n      jump\t// in\n    tag_83:\n        /* \"#utility.yul\":1940:1996   */\n    tag_82:\n        /* \"#utility.yul\":2014:2043   */\n      tag_84\n        /* \"#utility.yul\":2036:2042   */\n      dup3\n        /* \"#utility.yul\":2014:2043   */\n      tag_40\n      jump\t// in\n    tag_84:\n        /* \"#utility.yul\":2006:2043   */\n      swap1\n      pop\n        /* \"#utility.yul\":2098:2102   */\n      0x20\n        /* \"#utility.yul\":2092:2096   */\n      dup2\n        /* \"#utility.yul\":2088:2103   */\n      add\n        /* \"#utility.yul\":2080:2103   */\n      swap1\n      pop\n        /* \"#utility.yul\":1803:2110   */\n      swap2\n      swap1\n      pop\n      jump\t// out\n        /* \"#utility.yul\":2116:2264   */\n    tag_45:\n        /* \"#utility.yul\":2214:2220   */\n      dup3\n        /* \"#utility.yul\":2209:2212   */\n      dup2\n        /* \"#utility.yul\":2204:2207   */\n      dup4\n        /* \"#utility.yul\":2191:2221   */\n      calldatacopy\n        /* \"#utility.yul\":2255:2256   */\n      0x00\n        /* \"#utility.yul\":2246:2252   */\n      dup4\n        /* \"#utility.yul\":2241:2244   */\n      dup4\n        /* \"#utility.yul\":2237:2253   */\n      add\n        /* \"#utility.yul\":2230:2257   */\n      mstore\n        /* \"#utility.yul\":2116:2264   */\n      pop\n      pop\n      pop\n      jump\t// out\n        /* \"#utility.yul\":2270:2693   */\n    tag_46:\n        /* \"#utility.yul\":2347:2352   */\n      0x00\n        /* \"#utility.yul\":2372:2437   */\n      tag_87\n        /* \"#utility.yul\":2388:2436   */\n      tag_88\n        /* \"#utility.yul\":2429:2435   */\n      dup5\n        /* \"#utility.yul\":2388:2436   */\n      tag_44\n      jump\t// in\n    tag_88:\n        /* \"#utility.yul\":2372:2437   */\n      tag_43\n      jump\t// in\n    tag_87:\n        /* \"#utility.yul\":2363:2437   */\n      swap1\n      pop\n        /* \"#utility.yul\":2460:2466   */\n      dup3\n        /* \"#utility.yul\":2453:2458   */\n      dup2\n        /* \"#utility.yul\":2446:2467   */\n      mstore\n        /* \"#utility.yul\":2498:2502   */\n      0x20\n        /* \"#utility.yul\":2491:2496   */\n      dup2\n        /* \"#utility.yul\":2487:2503   */\n      add\n        /* \"#utility.yul\":2536:2539   */\n      dup5\n        /* \"#utility.yul\":2527:2533   */\n      dup5\n        /* \"#utility.yul\":2522:2525   */\n      dup5\n        /* \"#utility.yul\":2518:2534   */\n      add\n        /* \"#utility.yul\":2515:2540   */\n      gt\n        /* \"#utility.yul\":2512:2624   */\n      iszero\n      tag_89\n      jumpi\n        /* \"#utility.yul\":2543:2622   */\n      tag_90\n      tag_39\n      jump\t// in\n    tag_90:\n        /* \"#utility.yul\":2512:2624   */\n    tag_89:\n        /* \"#utility.yul\":2633:2687   */\n      tag_91\n        /* \"#utility.yul\":2680:2686   */\n      dup5\n        /* \"#utility.yul\":2675:2678   */\n      dup3\n        /* \"#utility.yul\":2670:2673   */\n      dup6\n        /* \"#utility.yul\":2633:2687   */\n      tag_45\n      jump\t// in\n    tag_91:\n        /* \"#utility.yul\":2353:2693   */\n      pop\n        /* \"#utility.yul\":2270:2693   */\n      swap4\n      swap3\n      pop\n      pop\n      pop\n      jump\t// out\n        /* \"#utility.yul\":2712:3050   */\n    tag_47:\n        /* \"#utility.yul\":2767:2772   */\n      0x00\n        /* \"#utility.yul\":2816:2819   */\n      dup3\n        /* \"#utility.yul\":2809:2813   */\n      0x1f\n        /* \"#utility.yul\":2801:2807   */\n      dup4\n        /* \"#utility.yul\":2797:2814   */\n      add\n        /* \"#utility.yul\":2793:2820   */\n      slt\n        /* \"#utility.yul\":2783:2905   */\n      tag_93\n      jumpi\n        /* \"#utility.yul\":2824:2903   */\n      tag_94\n      tag_38\n      jump\t// in\n    tag_94:\n        /* \"#utility.yul\":2783:2905   */\n    tag_93:\n        /* \"#utility.yul\":2941:2947   */\n      dup2\n        /* \"#utility.yul\":2928:2948   */\n      calldataload\n        /* \"#utility.yul\":2966:3044   */\n      tag_95\n        /* \"#utility.yul\":3040:3043   */\n      dup5\n        /* \"#utility.yul\":3032:3038   */\n      dup3\n        /* \"#utility.yul\":3025:3029   */\n      0x20\n        /* \"#utility.yul\":3017:3023   */\n      dup7\n        /* \"#utility.yul\":3013:3030   */\n      add\n        /* \"#utility.yul\":2966:3044   */\n      tag_46\n      jump\t// in\n    tag_95:\n        /* \"#utility.yul\":2957:3044   */\n      swap2\n      pop\n        /* \"#utility.yul\":2773:3050   */\n      pop\n        /* \"#utility.yul\":2712:3050   */\n      swap3\n      swap2\n      pop\n      pop\n      jump\t// out\n        /* \"#utility.yul\":3056:3708   */\n    tag_9:\n        /* \"#utility.yul\":3133:3139   */\n      0x00\n        /* \"#utility.yul\":3141:3147   */\n      dup1\n        /* \"#utility.yul\":3190:3192   */\n      0x40\n        /* \"#utility.yul\":3178:3187   */\n      dup4\n        /* \"#utility.yul\":3169:3176   */\n      dup6\n        /* \"#utility.yul\":3165:3188   */\n      sub\n        /* \"#utility.yul\":3161:3193   */\n      slt\n        /* \"#utility.yul\":3158:3277   */\n      iszero\n      tag_97\n      jumpi\n        /* \"#utility.yul\":3196:3275   */\n      tag_98\n      tag_32\n      jump\t// in\n    tag_98:\n        /* \"#utility.yul\":3158:3277   */\n    tag_97:\n        /* \"#utility.yul\":3316:3317   */\n      0x00\n        /* \"#utility.yul\":3341:3394   */\n      tag_99\n        /* \"#utility.yul\":3386:3393   */\n      dup6\n        /* \"#utility.yul\":3377:3383   */\n      dup3\n        /* \"#utility.yul\":3366:3375   */\n      dup7\n        /* \"#utility.yul\":3362:3384   */\n      add\n        /* \"#utility.yul\":3341:3394   */\n      tag_37\n      jump\t// in\n    tag_99:\n        /* \"#utility.yul\":3331:3394   */\n      swap3\n      pop\n        /* \"#utility.yul\":3287:3404   */\n      pop\n        /* \"#utility.yul\":3471:3473   */\n      0x20\n        /* \"#utility.yul\":3460:3469   */\n      dup4\n        /* \"#utility.yul\":3456:3474   */\n      add\n        /* \"#utility.yul\":3443:3475   */\n      calldataload\n        /* \"#utility.yul\":3502:3520   */\n      0xffffffffffffffff\n        /* \"#utility.yul\":3494:3500   */\n      dup2\n        /* \"#utility.yul\":3491:3521   */\n      gt\n        /* \"#utility.yul\":3488:3605   */\n      iszero\n      tag_100\n      jumpi\n        /* \"#utility.yul\":3524:3603   */\n      tag_101\n      tag_33\n      jump\t// in\n    tag_101:\n        /* \"#utility.yul\":3488:3605   */\n    tag_100:\n        /* \"#utility.yul\":3629:3691   */\n      tag_102\n        /* \"#utility.yul\":3683:3690   */\n      dup6\n        /* \"#utility.yul\":3674:3680   */\n      dup3\n        /* \"#utility.yul\":3663:3672   */\n      dup7\n        /* \"#utility.yul\":3659:3681   */\n      add\n        /* \"#utility.yul\":3629:3691   */\n      tag_47\n      jump\t// in\n    tag_102:\n        /* \"#utility.yul\":3619:3691   */\n      swap2\n      pop\n        /* \"#utility.yul\":3414:3701   */\n      pop\n        /* \"#utility.yul\":3056:3708   */\n      swap3\n      pop\n      swap3\n      swap1\n      pop\n      jump\t// out\n        /* \"#utility.yul\":3714:4221   */\n    tag_13:\n        /* \"#utility.yul\":3782:3788   */\n      0x00\n        /* \"#utility.yul\":3831:3833   */\n      0x20\n        /* \"#utility.yul\":3819:3828   */\n      dup3\n        /* \"#utility.yul\":3810:3817   */\n      dup5\n        /* \"#utility.yul\":3806:3829   */\n      sub\n        /* \"#utility.yul\":3802:3834   */\n      slt\n        /* \"#utility.yul\":3799:3918   */\n      iszero\n      tag_104\n      jumpi\n        /* \"#utility.yul\":3837:3916   */\n      tag_105\n      tag_32\n      jump\t// in\n    tag_105:\n        /* \"#utility.yul\":3799:3918   */\n    tag_104:\n        /* \"#utility.yul\":3985:3986   */\n      0x00\n        /* \"#utility.yul\":3974:3983   */\n      dup3\n        /* \"#utility.yul\":3970:3987   */\n      add\n        /* \"#utility.yul\":3957:3988   */\n      calldataload\n        /* \"#utility.yul\":4015:4033   */\n      0xffffffffffffffff\n        /* \"#utility.yul\":4007:4013   */\n      dup2\n        /* \"#utility.yul\":4004:4034   */\n      gt\n        /* \"#utility.yul\":4001:4118   */\n      iszero\n      tag_106\n      jumpi\n        /* \"#utility.yul\":4037:4116   */\n      tag_107\n      tag_33\n      jump\t// in\n    tag_107:\n        /* \"#utility.yul\":4001:4118   */\n    tag_106:\n        /* \"#utility.yul\":4142:4204   */\n      tag_108\n        /* \"#utility.yul\":4196:4203   */\n      dup5\n        /* \"#utility.yul\":4187:4193   */\n      dup3\n        /* \"#utility.yul\":4176:4185   */\n      dup6\n        /* \"#utility.yul\":4172:4194   */\n      add\n        /* \"#utility.yul\":4142:4204   */\n      tag_47\n      jump\t// in\n    tag_108:\n        /* \"#utility.yul\":4132:4204   */\n      swap2\n      pop\n        /* \"#utility.yul\":3928:4214   */\n      pop\n        /* \"#utility.yul\":3714:4221   */\n      swap3\n      swap2\n      pop\n      pop\n      jump\t// out\n        /* \"#utility.yul\":4227:4345   */\n    tag_48:\n        /* \"#utility.yul\":4314:4338   */\n      tag_110\n        /* \"#utility.yul\":4332:4337   */\n      dup2\n        /* \"#utility.yul\":4314:4338   */\n      tag_35\n      jump\t// in\n    tag_110:\n        /* \"#utility.yul\":4309:4312   */\n      dup3\n        /* \"#utility.yul\":4302:4339   */\n      mstore\n        /* \"#utility.yul\":4227:4345   */\n      pop\n      pop\n      jump\t// out\n        /* \"#utility.yul\":4351:4573   */\n    tag_16:\n        /* \"#utility.yul\":4444:4448   */\n      0x00\n        /* \"#utility.yul\":4482:4484   */\n      0x20\n        /* \"#utility.yul\":4471:4480   */\n      dup3\n        /* \"#utility.yul\":4467:4485   */\n      add\n        /* \"#utility.yul\":4459:4485   */\n      swap1\n      pop\n        /* \"#utility.yul\":4495:4566   */\n      tag_112\n        /* \"#utility.yul\":4563:4564   */\n      0x00\n        /* \"#utility.yul\":4552:4561   */\n      dup4\n        /* \"#utility.yul\":4548:4565   */\n      add\n        /* \"#utility.yul\":4539:4545   */\n      dup5\n        /* \"#utility.yul\":4495:4566   */\n      tag_48\n      jump\t// in\n    tag_112:\n        /* \"#utility.yul\":4351:4573   */\n      swap3\n      swap2\n      pop\n      pop\n      jump\t// out\n        /* \"#utility.yul\":4579:4677   */\n    tag_49:\n        /* \"#utility.yul\":4630:4636   */\n      0x00\n        /* \"#utility.yul\":4664:4669   */\n      dup2\n        /* \"#utility.yul\":4658:4670   */\n      mload\n        /* \"#utility.yul\":4648:4670   */\n      swap1\n      pop\n        /* \"#utility.yul\":4579:4677   */\n      swap2\n      swap1\n      pop\n      jump\t// out\n        /* \"#utility.yul\":4683:4830   */\n    tag_50:\n        /* \"#utility.yul\":4784:4795   */\n      0x00\n        /* \"#utility.yul\":4821:4824   */\n      dup2\n        /* \"#utility.yul\":4806:4824   */\n      swap1\n      pop\n        /* \"#utility.yul\":4683:4830   */\n      swap3\n      swap2\n      pop\n      pop\n      jump\t// out\n        /* \"#utility.yul\":4836:4975   */\n    tag_51:\n        /* \"#utility.yul\":4925:4931   */\n      dup3\n        /* \"#utility.yul\":4920:4923   */\n      dup2\n        /* \"#utility.yul\":4915:4918   */\n      dup4\n        /* \"#utility.yul\":4909:4932   */\n      mcopy\n        /* \"#utility.yul\":4966:4967   */\n      0x00\n        /* \"#utility.yul\":4957:4963   */\n      dup4\n        /* \"#utility.yul\":4952:4955   */\n      dup4\n        /* \"#utility.yul\":4948:4964   */\n      add\n        /* \"#utility.yul\":4941:4968   */\n      mstore\n        /* \"#utility.yul\":4836:4975   */\n      pop\n      pop\n      pop\n      jump\t// out\n        /* \"#utility.yul\":4981:5367   */\n    tag_52:\n        /* \"#utility.yul\":5085:5088   */\n      0x00\n        /* \"#utility.yul\":5113:5151   */\n      tag_117\n        /* \"#utility.yul\":5145:5150   */\n      dup3\n        /* \"#utility.yul\":5113:5151   */\n      tag_49\n      jump\t// in\n    tag_117:\n        /* \"#utility.yul\":5167:5255   */\n      tag_118\n        /* \"#utility.yul\":5248:5254   */\n      dup2\n        /* \"#utility.yul\":5243:5246   */\n      dup6\n        /* \"#utility.yul\":5167:5255   */\n      tag_50\n      jump\t// in\n    tag_118:\n        /* \"#utility.yul\":5160:5255   */\n      swap4\n      pop\n        /* \"#utility.yul\":5264:5329   */\n      tag_119\n        /* \"#utility.yul\":5322:5328   */\n      dup2\n        /* \"#utility.yul\":5317:5320   */\n      dup6\n        /* \"#utility.yul\":5310:5314   */\n      0x20\n        /* \"#utility.yul\":5303:5308   */\n      dup7\n        /* \"#utility.yul\":5299:5315   */\n      add\n        /* \"#utility.yul\":5264:5329   */\n      tag_51\n      jump\t// in\n    tag_119:\n        /* \"#utility.yul\":5354:5360   */\n      dup1\n        /* \"#utility.yul\":5349:5352   */\n      dup5\n        /* \"#utility.yul\":5345:5361   */\n      add\n        /* \"#utility.yul\":5338:5361   */\n      swap2\n      pop\n        /* \"#utility.yul\":5089:5367   */\n      pop\n        /* \"#utility.yul\":4981:5367   */\n      swap3\n      swap2\n      pop\n      pop\n      jump\t// out\n        /* \"#utility.yul\":5373:5644   */\n    tag_19:\n        /* \"#utility.yul\":5503:5506   */\n      0x00\n        /* \"#utility.yul\":5525:5618   */\n      tag_121\n        /* \"#utility.yul\":5614:5617   */\n      dup3\n        /* \"#utility.yul\":5605:5611   */\n      dup5\n        /* \"#utility.yul\":5525:5618   */\n      tag_52\n      jump\t// in\n    tag_121:\n        /* \"#utility.yul\":5518:5618   */\n      swap2\n      pop\n        /* \"#utility.yul\":5635:5638   */\n      dup2\n        /* \"#utility.yul\":5628:5638   */\n      swap1\n      pop\n        /* \"#utility.yul\":5373:5644   */\n      swap3\n      swap2\n      pop\n      pop\n      jump\t// out\n        /* \"#utility.yul\":5650:5819   */\n    tag_53:\n        /* \"#utility.yul\":5734:5745   */\n      0x00\n        /* \"#utility.yul\":5768:5774   */\n      dup3\n        /* \"#utility.yul\":5763:5766   */\n      dup3\n        /* \"#utility.yul\":5756:5775   */\n      mstore\n        /* \"#utility.yul\":5808:5812   */\n      0x20\n        /* \"#utility.yul\":5803:5806   */\n      dup3\n        /* \"#utility.yul\":5799:5813   */\n      add\n        /* \"#utility.yul\":5784:5813   */\n      swap1\n      pop\n        /* \"#utility.yul\":5650:5819   */\n      swap3\n      swap2\n      pop\n      pop\n      jump\t// out\n        /* \"#utility.yul\":5825:5981   */\n    tag_54:\n        /* \"#utility.yul\":5965:5973   */\n      0x6661696c65640000000000000000000000000000000000000000000000000000\n        /* \"#utility.yul\":5961:5962   */\n      0x00\n        /* \"#utility.yul\":5953:5959   */\n      dup3\n        /* \"#utility.yul\":5949:5963   */\n      add\n        /* \"#utility.yul\":5942:5974   */\n      mstore\n        /* \"#utility.yul\":5825:5981   */\n      pop\n      jump\t// out\n        /* \"#utility.yul\":5987:6352   */\n    tag_55:\n        /* \"#utility.yul\":6129:6132   */\n      0x00\n        /* \"#utility.yul\":6150:6216   */\n      tag_125\n        /* \"#utility.yul\":6214:6215   */\n      0x06\n        /* \"#utility.yul\":6209:6212   */\n      dup4\n        /* \"#utility.yul\":6150:6216   */\n      tag_53\n      jump\t// in\n    tag_125:\n        /* \"#utility.yul\":6143:6216   */\n      swap2\n      pop\n        /* \"#utility.yul\":6225:6318   */\n      tag_126\n        /* \"#utility.yul\":6314:6317   */\n      dup3\n        /* \"#utility.yul\":6225:6318   */\n      tag_54\n      jump\t// in\n    tag_126:\n        /* \"#utility.yul\":6343:6345   */\n      0x20\n        /* \"#utility.yul\":6338:6341   */\n      dup3\n        /* \"#utility.yul\":6334:6346   */\n      add\n        /* \"#utility.yul\":6327:6346   */\n      swap1\n      pop\n        /* \"#utility.yul\":5987:6352   */\n      swap2\n      swap1\n      pop\n      jump\t// out\n        /* \"#utility.yul\":6358:6777   */\n    tag_25:\n        /* \"#utility.yul\":6524:6528   */\n      0x00\n        /* \"#utility.yul\":6562:6564   */\n      0x20\n        /* \"#utility.yul\":6551:6560   */\n      dup3\n        /* \"#utility.yul\":6547:6565   */\n      add\n        /* \"#utility.yul\":6539:6565   */\n      swap1\n      pop\n        /* \"#utility.yul\":6611:6620   */\n      dup2\n        /* \"#utility.yul\":6605:6609   */\n      dup2\n        /* \"#utility.yul\":6601:6621   */\n      sub\n        /* \"#utility.yul\":6597:6598   */\n      0x00\n        /* \"#utility.yul\":6586:6595   */\n      dup4\n        /* \"#utility.yul\":6582:6599   */\n      add\n        /* \"#utility.yul\":6575:6622   */\n      mstore\n        /* \"#utility.yul\":6639:6770   */\n      tag_128\n        /* \"#utility.yul\":6765:6769   */\n      dup2\n        /* \"#utility.yul\":6639:6770   */\n      tag_55\n      jump\t// in\n    tag_128:\n        /* \"#utility.yul\":6631:6770   */\n      swap1\n      pop\n        /* \"#utility.yul\":6358:6777   */\n      swap2\n      swap1\n      pop\n      jump\t// out\n        /* \"#utility.yul\":6783:6946   */\n    tag_56:\n        /* \"#utility.yul\":6923:6938   */\n      0x6465706c6f79206661696c656400000000000000000000000000000000000000\n        /* \"#utility.yul\":6919:6920   */\n      0x00\n        /* \"#utility.yul\":6911:6917   */\n      dup3\n        /* \"#utility.yul\":6907:6921   */\n      add\n        /* \"#utility.yul\":6900:6939   */\n      mstore\n        /* \"#utility.yul\":6783:6946   */\n      pop\n      jump\t// out\n        /* \"#utility.yul\":6952:7318   */\n    tag_57:\n        /* \"#utility.yul\":7094:7097   */\n      0x00\n        /* \"#utility.yul\":7115:7182   */\n      tag_131\n        /* \"#utility.yul\":7179:7181   */\n      0x0d\n        /* \"#utility.yul\":7174:7177   */\n      dup4\n        /* \"#utility.yul\":7115:7182   */\n      tag_53\n      jump\t// in\n    tag_131:\n        /* \"#utility.yul\":7108:7182   */\n      swap2\n      pop\n        /* \"#utility.yul\":7191:7284   */\n      tag_132\n        /* \"#utility.yul\":7280:7283   */\n      dup3\n        /* \"#utility.yul\":7191:7284   */\n      tag_56\n      jump\t// in\n    tag_132:\n        /* \"#utility.yul\":7309:7311   */\n      0x20\n        /* \"#utility.yul\":7304:7307   */\n      dup3\n        /* \"#utility.yul\":7300:7312   */\n      add\n        /* \"#utility.yul\":7293:7312   */\n      swap1\n      pop\n        /* \"#utility.yul\":6952:7318   */\n      swap2\n      swap1\n      pop\n      jump\t// out\n        /* \"#utility.yul\":7324:7743   */\n    tag_29:\n        /* \"#utility.yul\":7490:7494   */\n      0x00\n        /* \"#utility.yul\":7528:7530   */\n      0x20\n        /* \"#utility.yul\":7517:7526   */\n      dup3\n        /* \"#utility.yul\":7513:7531   */\n      add\n        /* \"#utility.yul\":7505:7531   */\n      swap1\n      pop\n        /* \"#utility.yul\":7577:7586   */\n      dup2\n        /* \"#utility.yul\":7571:7575   */\n      dup2\n        /* \"#utility.yul\":7567:7587   */\n      sub\n        /* \"#utility.yul\":7563:7564   */\n      0x00\n        /* \"#utility.yul\":7552:7561   */\n      dup4\n        /* \"#utility.yul\":7548:7565   */\n      add\n        /* \"#utility.yul\":7541:7588   */\n      mstore\n        /* \"#utility.yul\":7605:7736   */\n      tag_134\n        /* \"#utility.yul\":7731:7735   */\n      dup2\n        /* \"#utility.yul\":7605:7736   */\n      tag_57\n      jump\t// in\n    tag_134:\n        /* \"#utility.yul\":7597:7736   */\n      swap1\n      pop\n        /* \"#utility.yul\":7324:7743   */\n      swap2\n      swap1\n      pop\n      jump\t// out\n\n    auxdata: 0xa264697066735822122037e4bd11054d49d0db82d42861759b979f3df7baeab2f0e4505bd7dccff6cb3764736f6c634300081a0033\n}\n",
				"bytecode": {
					"linkReferences": {},
					"object": "6080604052348015600e575f80fd5b506105d58061001c5f395ff3fe60806040526004361061002c575f3560e01c80631cff79cd14610037578063707e71bd1461005357610033565b3661003357005b5f80fd5b610051600480360381019061004c919061038e565b610083565b005b61006d600480360381019061006891906103e8565b610132565b60405161007a919061043e565b60405180910390f35b5f8273ffffffffffffffffffffffffffffffffffffffff1634836040516100aa91906104a9565b5f6040518083038185875af1925050503d805f81146100e4576040519150601f19603f3d011682016040523d82523d5f602084013e6100e9565b606091505b505090508061012d576040517f08c379a000000000000000000000000000000000000000000000000000000000815260040161012490610519565b60405180910390fd5b505050565b5f81516020830134f090505f73ffffffffffffffffffffffffffffffffffffffff168173ffffffffffffffffffffffffffffffffffffffff16036101ab576040517f08c379a00000000000000000000000000000000000000000000000000000000081526004016101a290610581565b60405180910390fd5b7f4c96a389c7a68a007daa4d8551cfbdc5f740d594bc22d20a964d8694d16b41b5816040516101da919061043e565b60405180910390a1919050565b5f604051905090565b5f80fd5b5f80fd5b5f73ffffffffffffffffffffffffffffffffffffffff82169050919050565b5f610221826101f8565b9050919050565b61023181610217565b811461023b575f80fd5b50565b5f8135905061024c81610228565b92915050565b5f80fd5b5f80fd5b5f601f19601f8301169050919050565b7f4e487b71000000000000000000000000000000000000000000000000000000005f52604160045260245ffd5b6102a08261025a565b810181811067ffffffffffffffff821117156102bf576102be61026a565b5b80604052505050565b5f6102d16101e7565b90506102dd8282610297565b919050565b5f67ffffffffffffffff8211156102fc576102fb61026a565b5b6103058261025a565b9050602081019050919050565b828183375f83830152505050565b5f61033261032d846102e2565b6102c8565b90508281526020810184848401111561034e5761034d610256565b5b610359848285610312565b509392505050565b5f82601f83011261037557610374610252565b5b8135610385848260208601610320565b91505092915050565b5f80604083850312156103a4576103a36101f0565b5b5f6103b18582860161023e565b925050602083013567ffffffffffffffff8111156103d2576103d16101f4565b5b6103de85828601610361565b9150509250929050565b5f602082840312156103fd576103fc6101f0565b5b5f82013567ffffffffffffffff81111561041a576104196101f4565b5b61042684828501610361565b91505092915050565b61043881610217565b82525050565b5f6020820190506104515f83018461042f565b92915050565b5f81519050919050565b5f81905092915050565b8281835e5f83830152505050565b5f61048382610457565b61048d8185610461565b935061049d81856020860161046b565b80840191505092915050565b5f6104b48284610479565b915081905092915050565b5f82825260208201905092915050565b7f6661696c656400000000000000000000000000000000000000000000000000005f82015250565b5f6105036006836104bf565b915061050e826104cf565b602082019050919050565b5f6020820190508181035f830152610530816104f7565b9050919050565b7f6465706c6f79206661696c6564000000000000000000000000000000000000005f82015250565b5f61056b600d836104bf565b915061057682610537565b602082019050919050565b5f6020820190508181035f8301526105988161055f565b905091905056fea264697066735822122037e4bd11054d49d0db82d42861759b979f3df7baeab2f0e4505bd7dccff6cb3764736f6c634300081a0033",
					"opcodes": "PUSH1 0x80 PUSH1 0x40 MSTORE CALLVALUE DUP1 ISZERO PUSH1 0xE JUMPI PUSH0 DUP1 REVERT JUMPDEST POP PUSH2 0x5D5 DUP1 PUSH2 0x1C PUSH0 CODECOPY PUSH0 RETURN INVALID PUSH1 0x80 PUSH1 0x40 MSTORE PUSH1 0x4 CALLDATASIZE LT PUSH2 0x2C JUMPI PUSH0 CALLDATALOAD PUSH1 0xE0 SHR DUP1 PUSH4 0x1CFF79CD EQ PUSH2 0x37 JUMPI DUP1 PUSH4 0x707E71BD EQ PUSH2 0x53 JUMPI PUSH2 0x33 JUMP JUMPDEST CALLDATASIZE PUSH2 0x33 JUMPI STOP JUMPDEST PUSH0 DUP1 REVERT JUMPDEST PUSH2 0x51 PUSH1 0x4 DUP1 CALLDATASIZE SUB DUP2 ADD SWAP1 PUSH2 0x4C SWAP2 SWAP1 PUSH2 0x38E JUMP JUMPDEST PUSH2 0x83 JUMP JUMPDEST STOP JUMPDEST PUSH2 0x6D PUSH1 0x4 DUP1 CALLDATASIZE SUB DUP2 ADD SWAP1 PUSH2 0x68 SWAP2 SWAP1 PUSH2 0x3E8 JUMP JUMPDEST PUSH2 0x132 JUMP JUMPDEST PUSH1 0x40 MLOAD PUSH2 0x7A SWAP2 SWAP1 PUSH2 0x43E JUMP JUMPDEST PUSH1 0x40 MLOAD DUP1 SWAP2 SUB SWAP1 RETURN JUMPDEST PUSH0 DUP3 PUSH20 0xFFFFFFFFFFFFFFFFFFFFFFFFFFFFFFFFFFFFFFFF AND CALLVALUE DUP4 PUSH1 0x40 MLOAD PUSH2 0xAA SWAP2 SWAP1 PUSH2 0x4A9 JUMP JUMPDEST PUSH0 PUSH1 0x40 MLOAD DUP1 DUP4 SUB DUP2 DUP6 DUP8 GAS CALL SWAP3 POP POP POP RETURNDATASIZE DUP1 PUSH0 DUP2 EQ PUSH2 0xE4 JUMPI PUSH1 0x40 MLOAD SWAP2 POP PUSH1 0x1F NOT PUSH1 0x3F RETURNDATASIZE ADD AND DUP3 ADD PUSH1 0x40 MSTORE RETURNDATASIZE DUP3 MSTORE RETURNDATASIZE PUSH0 PUSH1 0x20 DUP5 ADD RETURNDATACOPY PUSH2 0xE9 JUMP JUMPDEST PUSH1 0x60 SWAP2 POP JUMPDEST POP POP SWAP1 POP DUP1 PUSH2 0x12D JUMPI PUSH1 0x40 MLOAD PUSH32 0x8C379A000000000000000000000000000000000000000000000000000000000 DUP2 MSTORE PUSH1 0x4 ADD PUSH2 0x124 SWAP1 PUSH2 0x519 JUMP JUMPDEST PUSH1 0x40 MLOAD DUP1 SWAP2 SUB SWAP1 REVERT JUMPDEST POP POP POP JUMP JUMPDEST PUSH0 DUP2 MLOAD PUSH1 0x20 DUP4 ADD CALLVALUE CREATE SWAP1 POP PUSH0 PUSH20 0xFFFFFFFFFFFFFFFFFFFFFFFFFFFFFFFFFFFFFFFF AND DUP2 PUSH20 0xFFFFFFFFFFFFFFFFFFFFFFFFFFFFFFFFFFFFFFFF AND SUB PUSH2 0x1AB JUMPI PUSH1 0x40 MLOAD PUSH32 0x8C379A000000000000000000000000000000000000000000000000000000000 DUP2 MSTORE PUSH1 0x4 ADD PUSH2 0x1A2 SWAP1 PUSH2 0x581 JUMP JUMPDEST PUSH1 0x40 MLOAD DUP1 SWAP2 SUB SWAP1 REVERT JUMPDEST PUSH32 0x4C96A389C7A68A007DAA4D8551CFBDC5F740D594BC22D20A964D8694D16B41B5 DUP2 PUSH1 0x40 MLOAD PUSH2 0x1DA SWAP2 SWAP1 PUSH2 0x43E JUMP JUMPDEST PUSH1 0x40 MLOAD DUP1 SWAP2 SUB SWAP1 LOG1 SWAP2 SWAP1 POP JUMP JUMPDEST PUSH0 PUSH1 0x40 MLOAD SWAP1 POP SWAP1 JUMP JUMPDEST PUSH0 DUP1 REVERT JUMPDEST PUSH0 DUP1 REVERT JUMPDEST PUSH0 PUSH20 0xFFFFFFFFFFFFFFFFFFFFFFFFFFFFFFFFFFFFFFFF DUP3 AND SWAP1 POP SWAP2 SWAP1 POP JUMP JUMPDEST PUSH0 PUSH2 0x221 DUP3 PUSH2 0x1F8 JUMP JUMPDEST SWAP1 POP SWAP2 SWAP1 POP JUMP JUMPDEST PUSH2 0x231 DUP2 PUSH2 0x217 JUMP JUMPDEST DUP2 EQ PUSH2 0x23B JUMPI PUSH0 DUP1 REVERT JUMPDEST POP JUMP JUMPDEST PUSH0 DUP2 CALLDATALOAD SWAP1 POP PUSH2 0x24C DUP2 PUSH2 0x228 JUMP JUMPDEST SWAP3 SWAP2 POP POP JUMP JUMPDEST PUSH0 DUP1 REVERT JUMPDEST PUSH0 DUP1 REVERT JUMPDEST PUSH0 PUSH1 0x1F NOT PUSH1 0x1F DUP4 ADD AND SWAP1 POP SWAP2 SWAP1 POP JUMP JUMPDEST PUSH32 0x4E487B7100000000000000000000000000000000000000000000000000000000 PUSH0 MSTORE PUSH1 0x41 PUSH1 0x4 MSTORE PUSH1 0x24 PUSH0 REVERT JUMPDEST PUSH2 0x2A0 DUP3 PUSH2 0x25A JUMP JUMPDEST DUP2 ADD DUP2 DUP2 LT PUSH8 0xFFFFFFFFFFFFFFFF DUP3 GT OR ISZERO PUSH2 0x2BF JUMPI PUSH2 0x2BE PUSH2 0x26A JUMP JUMPDEST JUMPDEST DUP1 PUSH1 0x40 MSTORE POP POP POP JUMP JUMPDEST PUSH0 PUSH2 0x2D1 PUSH2 0x1E7 JUMP JUMPDEST SWAP1 POP PUSH2 0x2DD DUP3 DUP3 PUSH2 0x297 JUMP JUMPDEST SWAP2 SWAP1 POP JUMP JUMPDEST PUSH0 PUSH8 0xFFFFFFFFFFFFFFFF DUP3 GT ISZERO PUSH2 0x2FC JUMPI PUSH2 0x2FB PUSH2 0x26A JUMP JUMPDEST JUMPDEST PUSH2 0x305 DUP3 PUSH2 0x25A JUMP JUMPDEST SWAP1 POP PUSH1 0x20 DUP2 ADD SWAP1 POP SWAP2 SWAP1 POP JUMP JUMPDEST DUP3 DUP2 DUP4 CALLDATACOPY PUSH0 DUP4 DUP4 ADD MSTORE POP POP POP JUMP JUMPDEST PUSH0 PUSH2 0x332 PUSH2 0x32D DUP5 PUSH2 0x2E2 JUMP JUMPDEST PUSH2 0x2C8 JUMP JUMPDEST SWAP1 POP DUP3 DUP2 MSTORE PUSH1 0x20 DUP2 ADD DUP5 DUP5 DUP5 ADD GT ISZERO PUSH2 0x34E JUMPI PUSH2 0x34D PUSH2 0x256 JUMP JUMPDEST JUMPDEST PUSH2 0x359 DUP5 DUP3 DUP6 PUSH2 0x312 JUMP JUMPDEST POP SWAP4 SWAP3 POP POP POP JUMP JUMPDEST PUSH0 DUP3 PUSH1 0x1F DUP4 ADD SLT PUSH2 0x375 JUMPI PUSH2 0x374 PUSH2 0x252 JUMP JUMPDEST JUMPDEST DUP2 CALLDATALOAD PUSH2 0x385 DUP5 DUP3 PUSH1 0x20 DUP7 ADD PUSH2 0x320 JUMP JUMPDEST SWAP2 POP POP SWAP3 SWAP2 POP POP JUMP JUMPDEST PUSH0 DUP1 PUSH1 0x40 DUP4 DUP6 SUB SLT ISZERO PUSH2 0x3A4 JUMPI PUSH2 0x3A3 PUSH2 0x1F0 JUMP JUMPDEST JUMPDEST PUSH0 PUSH2 0x3B1 DUP6 DUP3 DUP7 ADD PUSH2 0x23E JUMP JUMPDEST SWAP3 POP POP PUSH1 0x20 DUP4 ADD CALLDATALOAD PUSH8 0xFFFFFFFFFFFFFFFF DUP2 GT ISZERO PUSH2 0x3D2 JUMPI PUSH2 0x3D1 PUSH2 0x1F4 JUMP JUMPDEST JUMPDEST PUSH2 0x3DE DUP6 DUP3 DUP7 ADD PUSH2 0x361 JUMP JUMPDEST SWAP2 POP POP SWAP3 POP SWAP3 SWAP1 POP JUMP JUMPDEST PUSH0 PUSH1 0x20 DUP3 DUP5 SUB SLT ISZERO PUSH2 0x3FD JUMPI PUSH2 0x3FC PUSH2 0x1F0 JUMP JUMPDEST JUMPDEST PUSH0 DUP3 ADD CALLDATALOAD PUSH8 0xFFFFFFFFFFFFFFFF DUP2 GT ISZERO PUSH2 0x41A JUMPI PUSH2 0x419 PUSH2 0x1F4 JUMP JUMPDEST JUMPDEST PUSH2 0x426 DUP5 DUP3 DUP6 ADD PUSH2 0x361 JUMP JUMPDEST SWAP2 POP POP SWAP3 SWAP2 POP POP JUMP JUMPDEST PUSH2 0x438 DUP2 PUSH2 0x217 JUMP JUMPDEST DUP3 MSTORE POP POP JUMP JUMPDEST PUSH0 PUSH1 0x20 DUP3 ADD SWAP1 POP PUSH2 0x451 PUSH0 DUP4 ADD DUP5 PUSH2 0x42F JUMP JUMPDEST SWAP3 SWAP2 POP POP JUMP JUMPDEST PUSH0 DUP2 MLOAD SWAP1 POP SWAP2 SWAP1 POP JUMP JUMPDEST PUSH0 DUP2 SWAP1 POP SWAP3 SWAP2 POP POP JUMP JUMPDEST DUP3 DUP2 DUP4 MCOPY PUSH0 DUP4 DUP4 ADD MSTORE POP POP POP JUMP JUMPDEST PUSH0 PUSH2 0x483 DUP3 PUSH2 0x457 JUMP JUMPDEST PUSH2 0x48D DUP2 DUP6 PUSH2 0x461 JUMP JUMPDEST SWAP4 POP PUSH2 0x49D DUP2 DUP6 PUSH1 0x20 DUP7 ADD PUSH2 0x46B JUMP JUMPDEST DUP1 DUP5 ADD SWAP2 POP POP SWAP3 SWAP2 POP POP JUMP JUMPDEST PUSH0 PUSH2 0x4B4 DUP3 DUP5 PUSH2 0x479 JUMP JUMPDEST SWAP2 POP DUP2 SWAP1 POP SWAP3 SWAP2 POP POP JUMP JUMPDEST PUSH0 DUP3 DUP3 MSTORE PUSH1 0x20 DUP3 ADD SWAP1 POP SWAP3 SWAP2 POP POP JUMP JUMPDEST PUSH32 0x6661696C65640000000000000000000000000000000000000000000000000000 PUSH0 DUP3 ADD MSTORE POP JUMP JUMPDEST PUSH0 PUSH2 0x503 PUSH1 0x6 DUP4 PUSH2 0x4BF JUMP JUMPDEST SWAP2 POP PUSH2 0x50E DUP3 PUSH2 0x4CF JUMP JUMPDEST PUSH1 0x20 DUP3 ADD SWAP1 POP SWAP2 SWAP1 POP JUMP JUMPDEST PUSH0 PUSH1 0x20 DUP3 ADD SWAP1 POP DUP2 DUP2 SUB PUSH0 DUP4 ADD MSTORE PUSH2 0x530 DUP2 PUSH2 0x4F7 JUMP JUMPDEST SWAP1 POP SWAP2 SWAP1 POP JUMP JUMPDEST PUSH32 0x6465706C6F79206661696C656400000000000000000000000000000000000000 PUSH0 DUP3 ADD MSTORE POP JUMP JUMPDEST PUSH0 PUSH2 0x56B PUSH1 0xD DUP4 PUSH2 0x4BF JUMP JUMPDEST SWAP2 POP PUSH2 0x576 DUP3 PUSH2 0x537 JUMP JUMPDEST PUSH1 0x20 DUP3 ADD SWAP1 POP SWAP2 SWAP1 POP JUMP JUMPDEST PUSH0 PUSH1 0x20 DUP3 ADD SWAP1 POP DUP2 DUP2 SUB PUSH0 DUP4 ADD MSTORE PUSH2 0x598 DUP2 PUSH2 0x55F JUMP JUMPDEST SWAP1 POP SWAP2 SWAP1 POP JUMP INVALID LOG2 PUSH5 0x6970667358 0x22 SLT KECCAK256 CALLDATACOPY 0xE4 0xBD GT SDIV 0x4D BLOBHASH 0xD0 0xDB DUP3 0xD4 0x28 PUSH2 0x759B SWAP8 SWAP16 RETURNDATASIZE 0xF7 0xBA 0xEA 0xB2 CREATE 0xE4 POP JUMPDEST 0xD7 0xDC 0xCF 0xF6 0xCB CALLDATACOPY PUSH5 0x736F6C6343 STOP ADDMOD BYTE STOP CALLER "
				},
				"gasEstimates": {
					"creation": {
						"codeDepositCost": "298600",
						"executionCost": "335",
						"totalCost": "298935"
					},
					"external": {
						"Deploy(bytes)": "infinite",
						"execute(address,bytes)": "infinite"
					}
				},
				"methodIdentifiers": {
					"Deploy(bytes)": "707e71bd",
					"execute(address,bytes)": "1cff79cd"
				}
			},
			"storageLayout": {
				"storage": [],
				"types": null
			},
			"userdoc": {
				"kind": "user",
				"methods": {},
				"version": 1
			}
		}
	}
}