{
	"contracts/Bytecode.sol": {
		"Factory": {
			"abi": [
				{
					"anonymous": false,
					"inputs": [
						{
							"indexed": false,
							"internalType": "address",
							"name": "addr",
							"type": "address"
						}
					],
					"name": "log",
					"type": "event"
				},
				{
					"inputs": [],
					"name": "deploy",
					"outputs": [],
					"stateMutability": "nonpayable",
					"type": "function"
				}
			],
			"devdoc": {
				"kind": "dev",
				"methods": {},
				"version": 1
			},
			"evm": {
				"assembly": "    /* \"contracts/Bytecode.sol\":70:416  contract Factory{... */\n  mstore(0x40, 0x80)\n  callvalue\n  dup1\n  iszero\n  tag_1\n  jumpi\n  0x00\n  dup1\n  revert\ntag_1:\n  pop\n  dataSize(sub_0)\n  dup1\n  dataOffset(sub_0)\n  0x00\n  codecopy\n  0x00\n  return\nstop\n\nsub_0: assembly {\n        /* \"contracts/Bytecode.sol\":70:416  contract Factory{... */\n      mstore(0x40, 0x80)\n      callvalue\n      dup1\n      iszero\n      tag_1\n      jumpi\n      0x00\n      dup1\n      revert\n    tag_1:\n      pop\n      jumpi(tag_2, lt(calldatasize, 0x04))\n      shr(0xe0, calldataload(0x00))\n      dup1\n      0x775c300c\n      eq\n      tag_3\n      jumpi\n    tag_2:\n      0x00\n      dup1\n      revert\n        /* \"contracts/Bytecode.sol\":121:414  function deploy() external{... */\n    tag_3:\n      tag_4\n      tag_5\n      jump\t// in\n    tag_4:\n      stop\n    tag_5:\n        /* \"contracts/Bytecode.sol\":165:186  bytes memory bytecode */\n      0x00\n        /* \"contracts/Bytecode.sol\":165:230  bytes memory bytecode=hex\"6960ff60005260206000f3600052600a6016f3\" */\n      mload(0x40)\n      dup1\n      0x40\n      add\n      0x40\n      mstore\n      dup1\n      0x13\n      dup2\n      mstore\n      0x20\n      add\n      0x6960ff60005260206000f3600052600a6016f300000000000000000000000000\n      dup2\n      mstore\n      pop\n      swap1\n      pop\n        /* \"contracts/Bytecode.sol\":240:252  address addr */\n      0x00\n        /* \"contracts/Bytecode.sol\":318:322  0x13 */\n      0x13\n        /* \"contracts/Bytecode.sol\":312:316  0x02 */\n      0x02\n        /* \"contracts/Bytecode.sol\":303:311  bytecode */\n      dup4\n        /* \"contracts/Bytecode.sol\":299:317  add(bytecode,0x02) */\n      add\n        /* \"contracts/Bytecode.sol\":297:298  0 */\n      0x00\n        /* \"contracts/Bytecode.sol\":290:323  create(0,add(bytecode,0x02),0x13) */\n      create\n        /* \"contracts/Bytecode.sol\":284:323  addr:=create(0,add(bytecode,0x02),0x13) */\n      swap1\n      pop\n        /* \"contracts/Bytecode.sol\":364:365  0 */\n      0x00\n        /* \"contracts/Bytecode.sol\":350:366  addr!=address(0) */\n      0xffffffffffffffffffffffffffffffffffffffff\n      and\n        /* \"contracts/Bytecode.sol\":350:354  addr */\n      dup2\n        /* \"contracts/Bytecode.sol\":350:366  addr!=address(0) */\n      0xffffffffffffffffffffffffffffffffffffffff\n      and\n      sub\n        /* \"contracts/Bytecode.sol\":342:383  require(addr!=address(0),\"deploy failed\") */\n      tag_7\n      jumpi\n      mload(0x40)\n      0x08c379a000000000000000000000000000000000000000000000000000000000\n      dup2\n      mstore\n      0x04\n      add\n      tag_8\n      swap1\n      tag_9\n      jump\t// in\n    tag_8:\n      mload(0x40)\n      dup1\n      swap2\n      sub\n      swap1\n      revert\n    tag_7:\n        /* \"contracts/Bytecode.sol\":398:407  log(addr) */\n      0x2c2ecbc2212ac38c2f9ec89aa5fcef7f532a5db24dbf7cad1f48bc82843b7428\n        /* \"contracts/Bytecode.sol\":402:406  addr */\n      dup2\n        /* \"contracts/Bytecode.sol\":398:407  log(addr) */\n      mload(0x40)\n      tag_10\n      swap2\n      swap1\n      tag_11\n      jump\t// in\n    tag_10:\n      mload(0x40)\n      dup1\n      swap2\n      sub\n      swap1\n      log1\n        /* \"contracts/Bytecode.sol\":147:414  {... */\n      pop\n      pop\n        /* \"contracts/Bytecode.sol\":121:414  function deploy() external{... */\n      jump\t// out\n        /* \"#utility.yul\":7:176   */\n    tag_12:\n        /* \"#utility.yul\":91:102   */\n      0x00\n        /* \"#utility.yul\":125:131   */\n      dup3\n        /* \"#utility.yul\":120:123   */\n      dup3\n        /* \"#utility.yul\":113:132   */\n      mstore\n        /* \"#utility.yul\":165:169   */\n      0x20\n        /* \"#utility.yul\":160:163   */\n      dup3\n        /* \"#utility.yul\":156:170   */\n      add\n        /* \"#utility.yul\":141:170   */\n      swap1\n      pop\n        /* \"#utility.yul\":7:176   */\n      swap3\n      swap2\n      pop\n      pop\n      jump\t// out\n        /* \"#utility.yul\":182:345   */\n    tag_13:\n        /* \"#utility.yul\":322:337   */\n      0x6465706c6f79206661696c656400000000000000000000000000000000000000\n        /* \"#utility.yul\":318:319   */\n      0x00\n        /* \"#utility.yul\":310:316   */\n      dup3\n        /* \"#utility.yul\":306:320   */\n      add\n        /* \"#utility.yul\":299:338   */\n      mstore\n        /* \"#utility.yul\":182:345   */\n      pop\n      jump\t// out\n        /* \"#utility.yul\":351:717   */\n    tag_14:\n        /* \"#utility.yul\":493:496   */\n      0x00\n        /* \"#utility.yul\":514:581   */\n      tag_22\n        /* \"#utility.yul\":578:580   */\n      0x0d\n        /* \"#utility.yul\":573:576   */\n      dup4\n        /* \"#utility.yul\":514:581   */\n      tag_12\n      jump\t// in\n    tag_22:\n        /* \"#utility.yul\":507:581   */\n      swap2\n      pop\n        /* \"#utility.yul\":590:683   */\n      tag_23\n        /* \"#utility.yul\":679:682   */\n      dup3\n        /* \"#utility.yul\":590:683   */\n      tag_13\n      jump\t// in\n    tag_23:\n        /* \"#utility.yul\":708:710   */\n      0x20\n        /* \"#utility.yul\":703:706   */\n      dup3\n        /* \"#utility.yul\":699:711   */\n      add\n        /* \"#utility.yul\":692:711   */\n      swap1\n      pop\n        /* \"#utility.yul\":351:717   */\n      swap2\n      swap1\n      pop\n      jump\t// out\n        /* \"#utility.yul\":723:1142   */\n    tag_9:\n        /* \"#utility.yul\":889:893   */\n      0x00\n        /* \"#utility.yul\":927:929   */\n      0x20\n        /* \"#utility.yul\":916:925   */\n      dup3\n        /* \"#utility.yul\":912:930   */\n      add\n        /* \"#utility.yul\":904:930   */\n      swap1\n      pop\n        /* \"#utility.yul\":976:985   */\n      dup2\n        /* \"#utility.yul\":970:974   */\n      dup2\n        /* \"#utility.yul\":966:986   */\n      sub\n        /* \"#utility.yul\":962:963   */\n      0x00\n        /* \"#utility.yul\":951:960   */\n      dup4\n        /* \"#utility.yul\":947:964   */\n      add\n        /* \"#utility.yul\":940:987   */\n      mstore\n        /* \"#utility.yul\":1004:1135   */\n      tag_25\n        /* \"#utility.yul\":1130:1134   */\n      dup2\n        /* \"#utility.yul\":1004:1135   */\n      tag_14\n      jump\t// in\n    tag_25:\n        /* \"#utility.yul\":996:1135   */\n      swap1\n      pop\n        /* \"#utility.yul\":723:1142   */\n      swap2\n      swap1\n      pop\n      jump\t// out\n        /* \"#utility.yul\":1148:1274   */\n    tag_15:\n        /* \"#utility.yul\":1185:1192   */\n      0x00\n        /* \"#utility.yul\":1225:1267   */\n      0xffffffffffffffffffffffffffffffffffffffff\n        /* \"#utility.yul\":1218:1223   */\n      dup3\n        /* \"#utility.yul\":1214:1268   */\n      and\n        /* \"#utility.yul\":1203:1268   */\n      swap1\n      pop\n        /* \"#utility.yul\":1148:1274   */\n      swap2\n      swap1\n      pop\n      jump\t// out\n        /* \"#utility.yul\":1280:1376   */\n    tag_16:\n        /* \"#utility.yul\":1317:1324   */\n      0x00\n        /* \"#utility.yul\":1346:1370   */\n      tag_28\n        /* \"#utility.yul\":1364:1369   */\n      dup3\n        /* \"#utility.yul\":1346:1370   */\n      tag_15\n      jump\t// in\n    tag_28:\n        /* \"#utility.yul\":1335:1370   */\n      swap1\n      pop\n        /* \"#utility.yul\":1280:1376   */\n      swap2\n      swap1\n      pop\n      jump\t// out\n        /* \"#utility.yul\":1382:1500   */\n    tag_17:\n        /* \"#utility.yul\":1469:1493   */\n      tag_30\n        /* \"#utility.yul\":1487:1492   */\n      dup2\n        /* \"#utility.yul\":1469:1493   */\n      tag_16\n      jump\t// in\n    tag_30:\n        /* \"#utility.yul\":1464:1467   */\n      dup3\n        /* \"#utility.yul\":1457:1494   */\n      mstore\n        /* \"#utility.yul\":1382:1500   */\n      pop\n      pop\n      jump\t// out\n        /* \"#utility.yul\":1506:1728   */\n    tag_11:\n        /* \"#utility.yul\":1599:1603   */\n      0x00\n        /* \"#utility.yul\":1637:1639   */\n      0x20\n        /* \"#utility.yul\":1626:1635   */\n      dup3\n        /* \"#utility.yul\":1622:1640   */\n      add\n        /* \"#utility.yul\":1614:1640   */\n      swap1\n      pop\n        /* \"#utility.yul\":1650:1721   */\n      tag_32\n        /* \"#utility.yul\":1718:1719   */\n      0x00\n        /* \"#utility.yul\":1707:1716   */\n      dup4\n        /* \"#utility.yul\":1703:1720   */\n      add\n        /* \"#utility.yul\":1694:1700   */\n      dup5\n        /* \"#utility.yul\":1650:1721   */\n      tag_17\n      jump\t// in\n    tag_32:\n        /* \"#utility.yul\":1506:1728   */\n      swap3\n      swap2\n      pop\n      pop\n      jump\t// out\n\n    auxdata: 0xa2646970667358221220bfd547043b01616f3042a6a1461810f9501b4a152dbc8c514de9b07ca92fe39464736f6c634300081a0033\n}\n",
				"bytecode": {
					"linkReferences": {},
					"object": "6080604052348015600e575f80fd5b5061022a8061001c5f395ff3fe608060405234801561000f575f80fd5b5060043610610029575f3560e01c8063775c300c1461002d575b5f80fd5b610035610037565b005b5f6040518060400160405280601381526020017f6960ff60005260206000f3600052600a6016f30000000000000000000000000081525090505f6013600283015ff090505f73ffffffffffffffffffffffffffffffffffffffff168173ffffffffffffffffffffffffffffffffffffffff16036100e9576040517f08c379a00000000000000000000000000000000000000000000000000000000081526004016100e09061017e565b60405180910390fd5b7f2c2ecbc2212ac38c2f9ec89aa5fcef7f532a5db24dbf7cad1f48bc82843b74288160405161011891906101db565b60405180910390a15050565b5f82825260208201905092915050565b7f6465706c6f79206661696c6564000000000000000000000000000000000000005f82015250565b5f610168600d83610124565b915061017382610134565b602082019050919050565b5f6020820190508181035f8301526101958161015c565b9050919050565b5f73ffffffffffffffffffffffffffffffffffffffff82169050919050565b5f6101c58261019c565b9050919050565b6101d5816101bb565b82525050565b5f6020820190506101ee5f8301846101cc565b9291505056fea2646970667358221220bfd547043b01616f3042a6a1461810f9501b4a152dbc8c514de9b07ca92fe39464736f6c634300081a0033",
					"opcodes": "PUSH1 0x80 PUSH1 0x40 MSTORE CALLVALUE DUP1 ISZERO PUSH1 0xE JUMPI PUSH0 DUP1 REVERT JUMPDEST POP PUSH2 0x22A DUP1 PUSH2 0x1C PUSH0 CODECOPY PUSH0 RETURN INVALID PUSH1 0x80 PUSH1 0x40 MSTORE CALLVALUE DUP1 ISZERO PUSH2 0xF JUMPI PUSH0 DUP1 REVERT JUMPDEST POP PUSH1 0x4 CALLDATASIZE LT PUSH2 0x29 JUMPI PUSH0 CALLDATALOAD PUSH1 0xE0 SHR DUP1 PUSH4 0x775C300C EQ PUSH2 0x2D JUMPI JUMPDEST PUSH0 DUP1 REVERT JUMPDEST PUSH2 0x35 PUSH2 0x37 JUMP JUMPDEST STOP JUMPDEST PUSH0 PUSH1 0x40 MLOAD DUP1 PUSH1 0x40 ADD PUSH1 0x40 MSTORE DUP1 PUSH1 0x13 DUP2 MSTORE PUSH1 0x20 ADD PUSH32 0x6960FF60005260206000F3600052600A6016F300000000000000000000000000 DUP2 MSTORE POP SWAP1 POP PUSH0 PUSH1 0x13 PUSH1 0x2 DUP4 ADD PUSH0 CREATE SWAP1 POP PUSH0 PUSH20 0xFFFFFFFFFFFFFFFFFFFFFFFFFFFFFFFFFFFFFFFF AND DUP2 PUSH20 0xFFFFFFFFFFFFFFFFFFFFFFFFFFFFFFFFFFFFFFFF AND SUB PUSH2 0xE9 JUMPI PUSH1 0x40 MLOAD PUSH32 0x8C379A000000000000000000000000000000000000000000000000000000000 DUP2 MSTORE PUSH1 0x4 ADD PUSH2 0xE0 SWAP1 PUSH2 0x17E JUMP JUMPDEST PUSH1 0x40 MLOAD DUP1 SWAP2 SUB SWAP1 REVERT JUMPDEST PUSH32 0x2C2ECBC2212AC38C2F9EC89AA5FCEF7F532A5DB24DBF7CAD1F48BC82843B7428 DUP2 PUSH1 0x40 MLOAD PUSH2 0x118 SWAP2 SWAP1 PUSH2 0x1DB JUMP JUMPDEST PUSH1 0x40 MLOAD DUP1 SWAP2 SUB SWAP1 LOG1 POP POP JUMP JUMPDEST PUSH0 DUP3 DUP3 MSTORE PUSH1 0x20 DUP3 ADD SWAP1 POP SWAP3 SWAP2 POP POP JUMP JUMPDEST PUSH32 0x6465706C6F79206661696C656400000000000000000000000000000000000000 PUSH0 DUP3 ADD MSTORE POP JUMP JUMPDEST PUSH0 PUSH2 0x168 PUSH1 0xD DUP4 PUSH2 0x124 JUMP JUMPDEST SWAP2 POP PUSH2 0x173 DUP3 PUSH2 0x134 JUMP JUMPDEST PUSH1 0x20 DUP3 ADD SWAP1 POP SWAP2 SWAP1 POP JUMP JUMPDEST PUSH0 PUSH1 0x20 DUP3 ADD SWAP1 POP DUP2 DUP2 SUB PUSH0 DUP4 ADD MSTORE PUSH2 0x195 DUP2 PUSH2 0x15C JUMP JUMPDEST SWAP1 POP SWAP2 SWAP1 POP JUMP JUMPDEST PUSH0 PUSH20 0xFFFFFFFFFFFFFFFFFFFFFFFFFFFFFFFFFFFFFFFF DUP3 AND SWAP1 POP SWAP2 SWAP1 POP JUMP JUMPDEST PUSH0 PUSH2 0x1C5 DUP3 PUSH2 0x19C JUMP JUMPDEST SWAP1 POP SWAP2 SWAP1 POP JUMP JUMPDEST PUSH2 0x1D5 DUP2 PUSH2 0x1BB JUMP JUMPDEST DUP3 MSTORE POP POP JUMP JUMPDEST PUSH0 PUSH1 0x20 DUP3 ADD SWAP1 POP PUSH2 0x1EE PUSH0 DUP4 ADD DUP5 PUSH2 0x1CC JUMP JUMPDEST SWAP3 SWAP2 POP POP JUMP INVALID LOG2 PUSH5 0x6970667358 0x22 SLT KECCAK256 0xBF 0xD5 SELFBALANCE DIV EXTCODESIZE ADD PUSH2 0x6F30 TIMESTAMP 0xA6 LOG1 CHAINID XOR LT 0xF9 POP SHL BLOBBASEFEE ISZERO 0x2D 0xBC DUP13 MLOAD 0x4D 0xE9 0xB0 PUSH29 0xA92FE39464736F6C634300081A00330000000000000000000000000000 "
				},
				"gasEstimates": {
					"creation": {
						"codeDepositCost": "110800",
						"executionCost": "157",
						"totalCost": "110957"
					},
					"external": {
						"deploy()": "infinite"
					}
				},
				"methodIdentifiers": {
					"deploy()": "775c300c"
				}
			},
			"storageLayout": {
				"storage": [],
				"types": null
			},
			"userdoc": {
				"kind": "user",
				"methods": {},
				"version": 1
			}
		}
	}
}